{
  "contractName": "AccessToken",
  "abi": [
    {
      "inputs": [],
      "stateMutability": "nonpayable",
      "type": "constructor"
    },
    {
      "anonymous": false,
      "inputs": [
        {
          "indexed": true,
          "internalType": "address",
          "name": "owner",
          "type": "address"
        },
        {
          "indexed": true,
          "internalType": "address",
          "name": "approved",
          "type": "address"
        },
        {
          "indexed": true,
          "internalType": "uint256",
          "name": "tokenId",
          "type": "uint256"
        }
      ],
      "name": "Approval",
      "type": "event"
    },
    {
      "anonymous": false,
      "inputs": [
        {
          "indexed": true,
          "internalType": "address",
          "name": "owner",
          "type": "address"
        },
        {
          "indexed": true,
          "internalType": "address",
          "name": "operator",
          "type": "address"
        },
        {
          "indexed": false,
          "internalType": "bool",
          "name": "approved",
          "type": "bool"
        }
      ],
      "name": "ApprovalForAll",
      "type": "event"
    },
    {
      "anonymous": false,
      "inputs": [
        {
          "indexed": true,
          "internalType": "address",
          "name": "from",
          "type": "address"
        },
        {
          "indexed": true,
          "internalType": "address",
          "name": "to",
          "type": "address"
        },
        {
          "indexed": true,
          "internalType": "uint256",
          "name": "tokenId",
          "type": "uint256"
        }
      ],
      "name": "Transfer",
      "type": "event"
    },
    {
      "inputs": [
        {
          "internalType": "address",
          "name": "to",
          "type": "address"
        },
        {
          "internalType": "uint256",
          "name": "tokenId",
          "type": "uint256"
        }
      ],
      "name": "approve",
      "outputs": [],
      "stateMutability": "nonpayable",
      "type": "function"
    },
    {
      "inputs": [
        {
          "internalType": "address",
          "name": "owner",
          "type": "address"
        }
      ],
      "name": "balanceOf",
      "outputs": [
        {
          "internalType": "uint256",
          "name": "",
          "type": "uint256"
        }
      ],
      "stateMutability": "view",
      "type": "function",
      "constant": true
    },
    {
      "inputs": [
        {
          "internalType": "uint256",
          "name": "tokenId",
          "type": "uint256"
        }
      ],
      "name": "getApproved",
      "outputs": [
        {
          "internalType": "address",
          "name": "",
          "type": "address"
        }
      ],
      "stateMutability": "view",
      "type": "function",
      "constant": true
    },
    {
      "inputs": [
        {
          "internalType": "address",
          "name": "owner",
          "type": "address"
        },
        {
          "internalType": "address",
          "name": "operator",
          "type": "address"
        }
      ],
      "name": "isApprovedForAll",
      "outputs": [
        {
          "internalType": "bool",
          "name": "",
          "type": "bool"
        }
      ],
      "stateMutability": "view",
      "type": "function",
      "constant": true
    },
    {
      "inputs": [],
      "name": "name",
      "outputs": [
        {
          "internalType": "string",
          "name": "",
          "type": "string"
        }
      ],
      "stateMutability": "view",
      "type": "function",
      "constant": true
    },
    {
      "inputs": [
        {
          "internalType": "uint256",
          "name": "tokenId",
          "type": "uint256"
        }
      ],
      "name": "ownerOf",
      "outputs": [
        {
          "internalType": "address",
          "name": "",
          "type": "address"
        }
      ],
      "stateMutability": "view",
      "type": "function",
      "constant": true
    },
    {
      "inputs": [
        {
          "internalType": "address",
          "name": "from",
          "type": "address"
        },
        {
          "internalType": "address",
          "name": "to",
          "type": "address"
        },
        {
          "internalType": "uint256",
          "name": "tokenId",
          "type": "uint256"
        }
      ],
      "name": "safeTransferFrom",
      "outputs": [],
      "stateMutability": "nonpayable",
      "type": "function"
    },
    {
      "inputs": [
        {
          "internalType": "address",
          "name": "from",
          "type": "address"
        },
        {
          "internalType": "address",
          "name": "to",
          "type": "address"
        },
        {
          "internalType": "uint256",
          "name": "tokenId",
          "type": "uint256"
        },
        {
          "internalType": "bytes",
          "name": "_data",
          "type": "bytes"
        }
      ],
      "name": "safeTransferFrom",
      "outputs": [],
      "stateMutability": "nonpayable",
      "type": "function"
    },
    {
      "inputs": [
        {
          "internalType": "address",
          "name": "operator",
          "type": "address"
        },
        {
          "internalType": "bool",
          "name": "approved",
          "type": "bool"
        }
      ],
      "name": "setApprovalForAll",
      "outputs": [],
      "stateMutability": "nonpayable",
      "type": "function"
    },
    {
      "inputs": [
        {
          "internalType": "bytes4",
          "name": "interfaceId",
          "type": "bytes4"
        }
      ],
      "name": "supportsInterface",
      "outputs": [
        {
          "internalType": "bool",
          "name": "",
          "type": "bool"
        }
      ],
      "stateMutability": "view",
      "type": "function",
      "constant": true
    },
    {
      "inputs": [],
      "name": "symbol",
      "outputs": [
        {
          "internalType": "string",
          "name": "",
          "type": "string"
        }
      ],
      "stateMutability": "view",
      "type": "function",
      "constant": true
    },
    {
      "inputs": [
        {
          "internalType": "uint256",
          "name": "index",
          "type": "uint256"
        }
      ],
      "name": "tokenByIndex",
      "outputs": [
        {
          "internalType": "uint256",
          "name": "",
          "type": "uint256"
        }
      ],
      "stateMutability": "view",
      "type": "function",
      "constant": true
    },
    {
      "inputs": [
        {
          "internalType": "address",
          "name": "owner",
          "type": "address"
        },
        {
          "internalType": "uint256",
          "name": "index",
          "type": "uint256"
        }
      ],
      "name": "tokenOfOwnerByIndex",
      "outputs": [
        {
          "internalType": "uint256",
          "name": "",
          "type": "uint256"
        }
      ],
      "stateMutability": "view",
      "type": "function",
      "constant": true
    },
    {
      "inputs": [
        {
          "internalType": "uint256",
          "name": "tokenId",
          "type": "uint256"
        }
      ],
      "name": "tokenURI",
      "outputs": [
        {
          "internalType": "string",
          "name": "",
          "type": "string"
        }
      ],
      "stateMutability": "view",
      "type": "function",
      "constant": true
    },
    {
      "inputs": [],
      "name": "totalSupply",
      "outputs": [
        {
          "internalType": "uint256",
          "name": "",
          "type": "uint256"
        }
      ],
      "stateMutability": "view",
      "type": "function",
      "constant": true
    },
    {
      "inputs": [
        {
          "internalType": "address",
          "name": "from",
          "type": "address"
        },
        {
          "internalType": "address",
          "name": "to",
          "type": "address"
        },
        {
          "internalType": "uint256",
          "name": "tokenId",
          "type": "uint256"
        }
      ],
      "name": "transferFrom",
      "outputs": [],
      "stateMutability": "nonpayable",
      "type": "function"
    },
    {
      "inputs": [
        {
          "internalType": "address",
          "name": "approvedAddr",
          "type": "address"
        },
        {
          "internalType": "string",
          "name": "vc",
          "type": "string"
        }
      ],
      "name": "mintToken",
      "outputs": [
        {
          "internalType": "uint256",
          "name": "",
          "type": "uint256"
        }
      ],
      "stateMutability": "nonpayable",
      "type": "function"
    },
    {
      "inputs": [
        {
          "internalType": "address",
          "name": "from",
          "type": "address"
        },
        {
          "internalType": "address",
          "name": "to",
          "type": "address"
        },
        {
          "internalType": "uint256",
          "name": "tokenId",
          "type": "uint256"
        }
      ],
      "name": "transferToken",
      "outputs": [],
      "stateMutability": "nonpayable",
      "type": "function"
    },
    {
      "inputs": [
        {
          "internalType": "uint256",
          "name": "tokenId",
          "type": "uint256"
        }
      ],
      "name": "getOwnerOf",
      "outputs": [
        {
          "internalType": "address",
          "name": "",
          "type": "address"
        }
      ],
      "stateMutability": "view",
      "type": "function",
      "constant": true
    }
  ],
  "bytecode": "0x60806040523480156200001157600080fd5b506040518060400160405280600c81526020017f41636365737320546f6b656e00000000000000000000000000000000000000008152506040518060400160405280600481526020017f4143544b00000000000000000000000000000000000000000000000000000000815250816000908051906020019062000096929190620000b8565b508060019080519060200190620000af929190620000b8565b505050620001cd565b828054620000c69062000168565b90600052602060002090601f016020900481019282620000ea576000855562000136565b82601f106200010557805160ff191683800117855562000136565b8280016001018555821562000136579182015b828111156200013557825182559160200191906001019062000118565b5b50905062000145919062000149565b5090565b5b80821115620001645760008160009055506001016200014a565b5090565b600060028204905060018216806200018157607f821691505b602082108114156200019857620001976200019e565b5b50919050565b7f4e487b7100000000000000000000000000000000000000000000000000000000600052602260045260246000fd5b6133cf80620001dd6000396000f3fe608060405234801561001057600080fd5b50600436106101215760003560e01c80634f6ccce7116100ad578063a22cb46511610071578063a22cb46514610354578063b88d4fde14610370578063c87b56dd1461038c578063e985e9c5146103bc578063f5537ede146103ec57610121565b80634f6ccce7146102765780636352211e146102a657806370a08231146102d6578063836387101461030657806395d89b411461033657610121565b806318160ddd116100f457806318160ddd146101c057806323b872dd146101de5780632f745c59146101fa5780633d02d0c91461022a57806342842e0e1461025a57610121565b806301ffc9a71461012657806306fdde0314610156578063081812fc14610174578063095ea7b3146101a4575b600080fd5b610140600480360381019061013b91906122da565b610408565b60405161014d9190612732565b60405180910390f35b61015e610482565b60405161016b919061274d565b60405180910390f35b61018e60048036038101906101899190612334565b610514565b60405161019b91906126cb565b60405180910390f35b6101be60048036038101906101b9919061229a565b610599565b005b6101c86106b1565b6040516101d591906129af565b60405180910390f35b6101f860048036038101906101f39190612128565b6106be565b005b610214600480360381019061020f919061229a565b61071e565b60405161022191906129af565b60405180910390f35b610244600480360381019061023f919061223e565b6107c3565b60405161025191906129af565b60405180910390f35b610274600480360381019061026f9190612128565b6107fa565b005b610290600480360381019061028b9190612334565b61081a565b60405161029d91906129af565b60405180910390f35b6102c060048036038101906102bb9190612334565b61088b565b6040516102cd91906126cb565b60405180910390f35b6102f060048036038101906102eb91906120bb565b61093d565b6040516102fd91906129af565b60405180910390f35b610320600480360381019061031b9190612334565b6109f5565b60405161032d91906126cb565b60405180910390f35b61033e610a07565b60405161034b919061274d565b60405180910390f35b61036e600480360381019061036991906121fe565b610a99565b005b61038a6004803603810190610385919061217b565b610c1a565b005b6103a660048036038101906103a19190612334565b610c7c565b6040516103b3919061274d565b60405180910390f35b6103d660048036038101906103d191906120e8565b610dce565b6040516103e39190612732565b60405180910390f35b61040660048036038101906104019190612128565b610e62565b005b60007f780e9d63000000000000000000000000000000000000000000000000000000007bffffffffffffffffffffffffffffffffffffffffffffffffffffffff1916827bffffffffffffffffffffffffffffffffffffffffffffffffffffffff1916148061047b575061047a82610e72565b5b9050919050565b60606000805461049190612c05565b80601f01602080910402602001604051908101604052809291908181526020018280546104bd90612c05565b801561050a5780601f106104df5761010080835404028352916020019161050a565b820191906000526020600020905b8154815290600101906020018083116104ed57829003601f168201915b5050505050905090565b600061051f82610f54565b61055e576040517f08c379a0000000000000000000000000000000000000000000000000000000008152600401610555906128ef565b60405180910390fd5b6004600083815260200190815260200160002060009054906101000a900473ffffffffffffffffffffffffffffffffffffffff169050919050565b60006105a48261088b565b90508073ffffffffffffffffffffffffffffffffffffffff168373ffffffffffffffffffffffffffffffffffffffff161415610615576040517f08c379a000000000000000000000000000000000000000000000000000000000815260040161060c9061294f565b60405180910390fd5b8073ffffffffffffffffffffffffffffffffffffffff16610634610fc0565b73ffffffffffffffffffffffffffffffffffffffff16148061066357506106628161065d610fc0565b610dce565b5b6106a2576040517f08c379a00000000000000000000000000000000000000000000000000000000081526004016106999061282f565b60405180910390fd5b6106ac8383610fc8565b505050565b6000600980549050905090565b6106cf6106c9610fc0565b82611081565b61070e576040517f08c379a00000000000000000000000000000000000000000000000000000000081526004016107059061296f565b60405180910390fd5b61071983838361115f565b505050565b60006107298361093d565b821061076a576040517f08c379a00000000000000000000000000000000000000000000000000000000081526004016107619061276f565b60405180910390fd5b600760008473ffffffffffffffffffffffffffffffffffffffff1673ffffffffffffffffffffffffffffffffffffffff168152602001908152602001600020600083815260200190815260200160002054905092915050565b6000806107d0600b6113bb565b90506107dc84826113c9565b6107e68184611597565b6107f0600b61160b565b8091505092915050565b61081583838360405180602001604052806000815250610c1a565b505050565b60006108246106b1565b8210610865576040517f08c379a000000000000000000000000000000000000000000000000000000000815260040161085c9061298f565b60405180910390fd5b6009828154811061087957610878612d9e565b5b90600052602060002001549050919050565b6000806002600084815260200190815260200160002060009054906101000a900473ffffffffffffffffffffffffffffffffffffffff169050600073ffffffffffffffffffffffffffffffffffffffff168173ffffffffffffffffffffffffffffffffffffffff161415610934576040517f08c379a000000000000000000000000000000000000000000000000000000000815260040161092b9061286f565b60405180910390fd5b80915050919050565b60008073ffffffffffffffffffffffffffffffffffffffff168273ffffffffffffffffffffffffffffffffffffffff1614156109ae576040517f08c379a00000000000000000000000000000000000000000000000000000000081526004016109a59061284f565b60405180910390fd5b600360008373ffffffffffffffffffffffffffffffffffffffff1673ffffffffffffffffffffffffffffffffffffffff168152602001908152602001600020549050919050565b6000610a008261088b565b9050919050565b606060018054610a1690612c05565b80601f0160208091040260200160405190810160405280929190818152602001828054610a4290612c05565b8015610a8f5780601f10610a6457610100808354040283529160200191610a8f565b820191906000526020600020905b815481529060010190602001808311610a7257829003601f168201915b5050505050905090565b610aa1610fc0565b73ffffffffffffffffffffffffffffffffffffffff168273ffffffffffffffffffffffffffffffffffffffff161415610b0f576040517f08c379a0000000000000000000000000000000000000000000000000000000008152600401610b06906127ef565b60405180910390fd5b8060056000610b1c610fc0565b73ffffffffffffffffffffffffffffffffffffffff1673ffffffffffffffffffffffffffffffffffffffff16815260200190815260200160002060008473ffffffffffffffffffffffffffffffffffffffff1673ffffffffffffffffffffffffffffffffffffffff16815260200190815260200160002060006101000a81548160ff0219169083151502179055508173ffffffffffffffffffffffffffffffffffffffff16610bc9610fc0565b73ffffffffffffffffffffffffffffffffffffffff167f17307eab39ab6107e8899845ad3d59bd9653f200f220920489ca2b5937696c3183604051610c0e9190612732565b60405180910390a35050565b610c2b610c25610fc0565b83611081565b610c6a576040517f08c379a0000000000000000000000000000000000000000000000000000000008152600401610c619061296f565b60405180910390fd5b610c7684848484611621565b50505050565b6060610c8782610f54565b610cc6576040517f08c379a0000000000000000000000000000000000000000000000000000000008152600401610cbd906128cf565b60405180910390fd5b6000600660008481526020019081526020016000208054610ce690612c05565b80601f0160208091040260200160405190810160405280929190818152602001828054610d1290612c05565b8015610d5f5780601f10610d3457610100808354040283529160200191610d5f565b820191906000526020600020905b815481529060010190602001808311610d4257829003601f168201915b505050505090506000610d7061167d565b9050600081511415610d86578192505050610dc9565b600082511115610dbb578082604051602001610da39291906126a7565b60405160208183030381529060405292505050610dc9565b610dc484611694565b925050505b919050565b6000600560008473ffffffffffffffffffffffffffffffffffffffff1673ffffffffffffffffffffffffffffffffffffffff16815260200190815260200160002060008373ffffffffffffffffffffffffffffffffffffffff1673ffffffffffffffffffffffffffffffffffffffff16815260200190815260200160002060009054906101000a900460ff16905092915050565b610e6d83838361115f565b505050565b60007f80ac58cd000000000000000000000000000000000000000000000000000000007bffffffffffffffffffffffffffffffffffffffffffffffffffffffff1916827bffffffffffffffffffffffffffffffffffffffffffffffffffffffff19161480610f3d57507f5b5e139f000000000000000000000000000000000000000000000000000000007bffffffffffffffffffffffffffffffffffffffffffffffffffffffff1916827bffffffffffffffffffffffffffffffffffffffffffffffffffffffff1916145b80610f4d5750610f4c8261173b565b5b9050919050565b60008073ffffffffffffffffffffffffffffffffffffffff166002600084815260200190815260200160002060009054906101000a900473ffffffffffffffffffffffffffffffffffffffff1673ffffffffffffffffffffffffffffffffffffffff1614159050919050565b600033905090565b816004600083815260200190815260200160002060006101000a81548173ffffffffffffffffffffffffffffffffffffffff021916908373ffffffffffffffffffffffffffffffffffffffff160217905550808273ffffffffffffffffffffffffffffffffffffffff1661103b8361088b565b73ffffffffffffffffffffffffffffffffffffffff167f8c5be1e5ebec7d5bd14f71427d1e84f3dd0314c0f7b2291e5b200ac8c7c3b92560405160405180910390a45050565b600061108c82610f54565b6110cb576040517f08c379a00000000000000000000000000000000000000000000000000000000081526004016110c29061280f565b60405180910390fd5b60006110d68361088b565b90508073ffffffffffffffffffffffffffffffffffffffff168473ffffffffffffffffffffffffffffffffffffffff16148061114557508373ffffffffffffffffffffffffffffffffffffffff1661112d84610514565b73ffffffffffffffffffffffffffffffffffffffff16145b8061115657506111558185610dce565b5b91505092915050565b8273ffffffffffffffffffffffffffffffffffffffff1661117f8261088b565b73ffffffffffffffffffffffffffffffffffffffff16146111d5576040517f08c379a00000000000000000000000000000000000000000000000000000000081526004016111cc9061290f565b60405180910390fd5b600073ffffffffffffffffffffffffffffffffffffffff168273ffffffffffffffffffffffffffffffffffffffff161415611245576040517f08c379a000000000000000000000000000000000000000000000000000000000815260040161123c906127cf565b60405180910390fd5b6112508383836117a5565b61125b600082610fc8565b6001600360008573ffffffffffffffffffffffffffffffffffffffff1673ffffffffffffffffffffffffffffffffffffffff16815260200190815260200160002060008282546112ab9190612b1b565b925050819055506001600360008473ffffffffffffffffffffffffffffffffffffffff1673ffffffffffffffffffffffffffffffffffffffff16815260200190815260200160002060008282546113029190612a94565b92505081905550816002600083815260200190815260200160002060006101000a81548173ffffffffffffffffffffffffffffffffffffffff021916908373ffffffffffffffffffffffffffffffffffffffff160217905550808273ffffffffffffffffffffffffffffffffffffffff168473ffffffffffffffffffffffffffffffffffffffff167fddf252ad1be2c89b69c2b068fc378daa952ba7f163c4a11628f55a4df523b3ef60405160405180910390a4505050565b600081600001549050919050565b600073ffffffffffffffffffffffffffffffffffffffff168273ffffffffffffffffffffffffffffffffffffffff161415611439576040517f08c379a0000000000000000000000000000000000000000000000000000000008152600401611430906128af565b60405180910390fd5b61144281610f54565b15611482576040517f08c379a0000000000000000000000000000000000000000000000000000000008152600401611479906127af565b60405180910390fd5b61148e600083836117a5565b6001600360008473ffffffffffffffffffffffffffffffffffffffff1673ffffffffffffffffffffffffffffffffffffffff16815260200190815260200160002060008282546114de9190612a94565b92505081905550816002600083815260200190815260200160002060006101000a81548173ffffffffffffffffffffffffffffffffffffffff021916908373ffffffffffffffffffffffffffffffffffffffff160217905550808273ffffffffffffffffffffffffffffffffffffffff16600073ffffffffffffffffffffffffffffffffffffffff167fddf252ad1be2c89b69c2b068fc378daa952ba7f163c4a11628f55a4df523b3ef60405160405180910390a45050565b6115a082610f54565b6115df576040517f08c379a00000000000000000000000000000000000000000000000000000000081526004016115d69061288f565b60405180910390fd5b80600660008481526020019081526020016000209080519060200190611606929190611ecf565b505050565b6001816000016000828254019250508190555050565b61162c84848461115f565b611638848484846118b9565b611677576040517f08c379a000000000000000000000000000000000000000000000000000000000815260040161166e9061278f565b60405180910390fd5b50505050565b606060405180602001604052806000815250905090565b606061169f82610f54565b6116de576040517f08c379a00000000000000000000000000000000000000000000000000000000081526004016116d59061292f565b60405180910390fd5b60006116e861167d565b905060008151116117085760405180602001604052806000815250611733565b8061171284611a50565b6040516020016117239291906126a7565b6040516020818303038152906040525b915050919050565b60007f01ffc9a7000000000000000000000000000000000000000000000000000000007bffffffffffffffffffffffffffffffffffffffffffffffffffffffff1916827bffffffffffffffffffffffffffffffffffffffffffffffffffffffff1916149050919050565b6117b0838383611bb1565b600073ffffffffffffffffffffffffffffffffffffffff168373ffffffffffffffffffffffffffffffffffffffff1614156117f3576117ee81611bb6565b611832565b8173ffffffffffffffffffffffffffffffffffffffff168373ffffffffffffffffffffffffffffffffffffffff1614611831576118308382611bff565b5b5b600073ffffffffffffffffffffffffffffffffffffffff168273ffffffffffffffffffffffffffffffffffffffff1614156118755761187081611d6c565b6118b4565b8273ffffffffffffffffffffffffffffffffffffffff168273ffffffffffffffffffffffffffffffffffffffff16146118b3576118b28282611e3d565b5b5b505050565b60006118da8473ffffffffffffffffffffffffffffffffffffffff16611ebc565b15611a43578373ffffffffffffffffffffffffffffffffffffffff1663150b7a02611903610fc0565b8786866040518563ffffffff1660e01b815260040161192594939291906126e6565b602060405180830381600087803b15801561193f57600080fd5b505af192505050801561197057506040513d601f19601f8201168201806040525081019061196d9190612307565b60015b6119f3573d80600081146119a0576040519150601f19603f3d011682016040523d82523d6000602084013e6119a5565b606091505b506000815114156119eb576040517f08c379a00000000000000000000000000000000000000000000000000000000081526004016119e29061278f565b60405180910390fd5b805181602001fd5b63150b7a0260e01b7bffffffffffffffffffffffffffffffffffffffffffffffffffffffff1916817bffffffffffffffffffffffffffffffffffffffffffffffffffffffff191614915050611a48565b600190505b949350505050565b60606000821415611a98576040518060400160405280600181526020017f30000000000000000000000000000000000000000000000000000000000000008152509050611bac565b600082905060005b60008214611aca578080611ab390612c68565b915050600a82611ac39190612aea565b9150611aa0565b60008167ffffffffffffffff811115611ae657611ae5612dcd565b5b6040519080825280601f01601f191660200182016040528015611b185781602001600182028036833780820191505090505b5090505b60008514611ba557600182611b319190612b1b565b9150600a85611b409190612cb1565b6030611b4c9190612a94565b60f81b818381518110611b6257611b61612d9e565b5b60200101907effffffffffffffffffffffffffffffffffffffffffffffffffffffffffffff1916908160001a905350600a85611b9e9190612aea565b9450611b1c565b8093505050505b919050565b505050565b600980549050600a600083815260200190815260200160002081905550600981908060018154018082558091505060019003906000526020600020016000909190919091505550565b60006001611c0c8461093d565b611c169190612b1b565b9050600060086000848152602001908152602001600020549050818114611cfb576000600760008673ffffffffffffffffffffffffffffffffffffffff1673ffffffffffffffffffffffffffffffffffffffff168152602001908152602001600020600084815260200190815260200160002054905080600760008773ffffffffffffffffffffffffffffffffffffffff1673ffffffffffffffffffffffffffffffffffffffff168152602001908152602001600020600084815260200190815260200160002081905550816008600083815260200190815260200160002081905550505b6008600084815260200190815260200160002060009055600760008573ffffffffffffffffffffffffffffffffffffffff1673ffffffffffffffffffffffffffffffffffffffff16815260200190815260200160002060008381526020019081526020016000206000905550505050565b60006001600980549050611d809190612b1b565b90506000600a6000848152602001908152602001600020549050600060098381548110611db057611daf612d9e565b5b906000526020600020015490508060098381548110611dd257611dd1612d9e565b5b906000526020600020018190555081600a600083815260200190815260200160002081905550600a6000858152602001908152602001600020600090556009805480611e2157611e20612d6f565b5b6001900381819060005260206000200160009055905550505050565b6000611e488361093d565b905081600760008573ffffffffffffffffffffffffffffffffffffffff1673ffffffffffffffffffffffffffffffffffffffff168152602001908152602001600020600083815260200190815260200160002081905550806008600084815260200190815260200160002081905550505050565b600080823b905060008111915050919050565b828054611edb90612c05565b90600052602060002090601f016020900481019282611efd5760008555611f44565b82601f10611f1657805160ff1916838001178555611f44565b82800160010185558215611f44579182015b82811115611f43578251825591602001919060010190611f28565b5b509050611f519190611f55565b5090565b5b80821115611f6e576000816000905550600101611f56565b5090565b6000611f85611f80846129ef565b6129ca565b905082815260208101848484011115611fa157611fa0612e01565b5b611fac848285612bc3565b509392505050565b6000611fc7611fc284612a20565b6129ca565b905082815260208101848484011115611fe357611fe2612e01565b5b611fee848285612bc3565b509392505050565b6000813590506120058161333d565b92915050565b60008135905061201a81613354565b92915050565b60008135905061202f8161336b565b92915050565b6000815190506120448161336b565b92915050565b600082601f83011261205f5761205e612dfc565b5b813561206f848260208601611f72565b91505092915050565b600082601f83011261208d5761208c612dfc565b5b813561209d848260208601611fb4565b91505092915050565b6000813590506120b581613382565b92915050565b6000602082840312156120d1576120d0612e0b565b5b60006120df84828501611ff6565b91505092915050565b600080604083850312156120ff576120fe612e0b565b5b600061210d85828601611ff6565b925050602061211e85828601611ff6565b9150509250929050565b60008060006060848603121561214157612140612e0b565b5b600061214f86828701611ff6565b935050602061216086828701611ff6565b9250506040612171868287016120a6565b9150509250925092565b6000806000806080858703121561219557612194612e0b565b5b60006121a387828801611ff6565b94505060206121b487828801611ff6565b93505060406121c5878288016120a6565b925050606085013567ffffffffffffffff8111156121e6576121e5612e06565b5b6121f28782880161204a565b91505092959194509250565b6000806040838503121561221557612214612e0b565b5b600061222385828601611ff6565b92505060206122348582860161200b565b9150509250929050565b6000806040838503121561225557612254612e0b565b5b600061226385828601611ff6565b925050602083013567ffffffffffffffff81111561228457612283612e06565b5b61229085828601612078565b9150509250929050565b600080604083850312156122b1576122b0612e0b565b5b60006122bf85828601611ff6565b92505060206122d0858286016120a6565b9150509250929050565b6000602082840312156122f0576122ef612e0b565b5b60006122fe84828501612020565b91505092915050565b60006020828403121561231d5761231c612e0b565b5b600061232b84828501612035565b91505092915050565b60006020828403121561234a57612349612e0b565b5b6000612358848285016120a6565b91505092915050565b61236a81612b4f565b82525050565b61237981612b61565b82525050565b600061238a82612a51565b6123948185612a67565b93506123a4818560208601612bd2565b6123ad81612e10565b840191505092915050565b60006123c382612a5c565b6123cd8185612a78565b93506123dd818560208601612bd2565b6123e681612e10565b840191505092915050565b60006123fc82612a5c565b6124068185612a89565b9350612416818560208601612bd2565b80840191505092915050565b600061242f602b83612a78565b915061243a82612e21565b604082019050919050565b6000612452603283612a78565b915061245d82612e70565b604082019050919050565b6000612475601c83612a78565b915061248082612ebf565b602082019050919050565b6000612498602483612a78565b91506124a382612ee8565b604082019050919050565b60006124bb601983612a78565b91506124c682612f37565b602082019050919050565b60006124de602c83612a78565b91506124e982612f60565b604082019050919050565b6000612501603883612a78565b915061250c82612faf565b604082019050919050565b6000612524602a83612a78565b915061252f82612ffe565b604082019050919050565b6000612547602983612a78565b91506125528261304d565b604082019050919050565b600061256a602e83612a78565b91506125758261309c565b604082019050919050565b600061258d602083612a78565b9150612598826130eb565b602082019050919050565b60006125b0603183612a78565b91506125bb82613114565b604082019050919050565b60006125d3602c83612a78565b91506125de82613163565b604082019050919050565b60006125f6602983612a78565b9150612601826131b2565b604082019050919050565b6000612619602f83612a78565b915061262482613201565b604082019050919050565b600061263c602183612a78565b915061264782613250565b604082019050919050565b600061265f603183612a78565b915061266a8261329f565b604082019050919050565b6000612682602c83612a78565b915061268d826132ee565b604082019050919050565b6126a181612bb9565b82525050565b60006126b382856123f1565b91506126bf82846123f1565b91508190509392505050565b60006020820190506126e06000830184612361565b92915050565b60006080820190506126fb6000830187612361565b6127086020830186612361565b6127156040830185612698565b8181036060830152612727818461237f565b905095945050505050565b60006020820190506127476000830184612370565b92915050565b6000602082019050818103600083015261276781846123b8565b905092915050565b6000602082019050818103600083015261278881612422565b9050919050565b600060208201905081810360008301526127a881612445565b9050919050565b600060208201905081810360008301526127c881612468565b9050919050565b600060208201905081810360008301526127e88161248b565b9050919050565b60006020820190508181036000830152612808816124ae565b9050919050565b60006020820190508181036000830152612828816124d1565b9050919050565b60006020820190508181036000830152612848816124f4565b9050919050565b6000602082019050818103600083015261286881612517565b9050919050565b600060208201905081810360008301526128888161253a565b9050919050565b600060208201905081810360008301526128a88161255d565b9050919050565b600060208201905081810360008301526128c881612580565b9050919050565b600060208201905081810360008301526128e8816125a3565b9050919050565b60006020820190508181036000830152612908816125c6565b9050919050565b60006020820190508181036000830152612928816125e9565b9050919050565b600060208201905081810360008301526129488161260c565b9050919050565b600060208201905081810360008301526129688161262f565b9050919050565b6000602082019050818103600083015261298881612652565b9050919050565b600060208201905081810360008301526129a881612675565b9050919050565b60006020820190506129c46000830184612698565b92915050565b60006129d46129e5565b90506129e08282612c37565b919050565b6000604051905090565b600067ffffffffffffffff821115612a0a57612a09612dcd565b5b612a1382612e10565b9050602081019050919050565b600067ffffffffffffffff821115612a3b57612a3a612dcd565b5b612a4482612e10565b9050602081019050919050565b600081519050919050565b600081519050919050565b600082825260208201905092915050565b600082825260208201905092915050565b600081905092915050565b6000612a9f82612bb9565b9150612aaa83612bb9565b9250827fffffffffffffffffffffffffffffffffffffffffffffffffffffffffffffffff03821115612adf57612ade612ce2565b5b828201905092915050565b6000612af582612bb9565b9150612b0083612bb9565b925082612b1057612b0f612d11565b5b828204905092915050565b6000612b2682612bb9565b9150612b3183612bb9565b925082821015612b4457612b43612ce2565b5b828203905092915050565b6000612b5a82612b99565b9050919050565b60008115159050919050565b60007fffffffff0000000000000000000000000000000000000000000000000000000082169050919050565b600073ffffffffffffffffffffffffffffffffffffffff82169050919050565b6000819050919050565b82818337600083830152505050565b60005b83811015612bf0578082015181840152602081019050612bd5565b83811115612bff576000848401525b50505050565b60006002820490506001821680612c1d57607f821691505b60208210811415612c3157612c30612d40565b5b50919050565b612c4082612e10565b810181811067ffffffffffffffff82111715612c5f57612c5e612dcd565b5b80604052505050565b6000612c7382612bb9565b91507fffffffffffffffffffffffffffffffffffffffffffffffffffffffffffffffff821415612ca657612ca5612ce2565b5b600182019050919050565b6000612cbc82612bb9565b9150612cc783612bb9565b925082612cd757612cd6612d11565b5b828206905092915050565b7f4e487b7100000000000000000000000000000000000000000000000000000000600052601160045260246000fd5b7f4e487b7100000000000000000000000000000000000000000000000000000000600052601260045260246000fd5b7f4e487b7100000000000000000000000000000000000000000000000000000000600052602260045260246000fd5b7f4e487b7100000000000000000000000000000000000000000000000000000000600052603160045260246000fd5b7f4e487b7100000000000000000000000000000000000000000000000000000000600052603260045260246000fd5b7f4e487b7100000000000000000000000000000000000000000000000000000000600052604160045260246000fd5b600080fd5b600080fd5b600080fd5b600080fd5b6000601f19601f8301169050919050565b7f455243373231456e756d657261626c653a206f776e657220696e646578206f7560008201527f74206f6620626f756e6473000000000000000000000000000000000000000000602082015250565b7f4552433732313a207472616e7366657220746f206e6f6e20455243373231526560008201527f63656976657220696d706c656d656e7465720000000000000000000000000000602082015250565b7f4552433732313a20746f6b656e20616c7265616479206d696e74656400000000600082015250565b7f4552433732313a207472616e7366657220746f20746865207a65726f2061646460008201527f7265737300000000000000000000000000000000000000000000000000000000602082015250565b7f4552433732313a20617070726f766520746f2063616c6c657200000000000000600082015250565b7f4552433732313a206f70657261746f7220717565727920666f72206e6f6e657860008201527f697374656e7420746f6b656e0000000000000000000000000000000000000000602082015250565b7f4552433732313a20617070726f76652063616c6c6572206973206e6f74206f7760008201527f6e6572206e6f7220617070726f76656420666f7220616c6c0000000000000000602082015250565b7f4552433732313a2062616c616e636520717565727920666f7220746865207a6560008201527f726f206164647265737300000000000000000000000000000000000000000000602082015250565b7f4552433732313a206f776e657220717565727920666f72206e6f6e657869737460008201527f656e7420746f6b656e0000000000000000000000000000000000000000000000602082015250565b7f45524337323155524953746f726167653a2055524920736574206f66206e6f6e60008201527f6578697374656e7420746f6b656e000000000000000000000000000000000000602082015250565b7f4552433732313a206d696e7420746f20746865207a65726f2061646472657373600082015250565b7f45524337323155524953746f726167653a2055524920717565727920666f722060008201527f6e6f6e6578697374656e7420746f6b656e000000000000000000000000000000602082015250565b7f4552433732313a20617070726f76656420717565727920666f72206e6f6e657860008201527f697374656e7420746f6b656e0000000000000000000000000000000000000000602082015250565b7f4552433732313a207472616e73666572206f6620746f6b656e2074686174206960008201527f73206e6f74206f776e0000000000000000000000000000000000000000000000602082015250565b7f4552433732314d657461646174613a2055524920717565727920666f72206e6f60008201527f6e6578697374656e7420746f6b656e0000000000000000000000000000000000602082015250565b7f4552433732313a20617070726f76616c20746f2063757272656e74206f776e6560008201527f7200000000000000000000000000000000000000000000000000000000000000602082015250565b7f4552433732313a207472616e736665722063616c6c6572206973206e6f74206f60008201527f776e6572206e6f7220617070726f766564000000000000000000000000000000602082015250565b7f455243373231456e756d657261626c653a20676c6f62616c20696e646578206f60008201527f7574206f6620626f756e64730000000000000000000000000000000000000000602082015250565b61334681612b4f565b811461335157600080fd5b50565b61335d81612b61565b811461336857600080fd5b50565b61337481612b6d565b811461337f57600080fd5b50565b61338b81612bb9565b811461339657600080fd5b5056fea264697066735822122020c4f5b7aaa356f8d87a03a56c687468884d2adc6c89dfc5b4ec14f3473896d764736f6c63430008060033",
  "immutableReferences": {},
  "source": "// SPDX-License-Identifier: MIT\npragma solidity ^0.8.6;\n\nimport \"@openzeppelin/contracts/token/ERC721/ERC721.sol\";\nimport \"@openzeppelin/contracts/token/ERC721/extensions/ERC721URIStorage.sol\";\nimport '@openzeppelin/contracts/utils/Counters.sol';\n\ncontract AccessToken is ERC721URIStorage {\n  using Counters for Counters.Counter;\n  Counters.Counter private _tokenIds;\n  \n  constructor() \n    ERC721(\"Access Token\", \"ACTK\") {}\n\n  function mintToken(address approvedAddr, string memory vc) external returns(uint) {\n    uint newTokenId = _tokenIds.current();\n    _mint(approvedAddr, newTokenId);\n    _setTokenURI(newTokenId, vc);\n    _tokenIds.increment();  \n    return(newTokenId);\n  }\n\n  function transferToken(address from, address to, uint tokenId) external {\n    _transfer(from, to, tokenId);\n  }\n\n  function getOwnerOf(uint tokenId) external view returns(address) {\n    return ownerOf(tokenId);\n  }\n}\n",
  "sourcePath": "/home/odon/code/bloc/self-directed/vote_per_organization/backend/contracts/AccessToken.sol",
  "compiler": {
    "name": "solc",
    "version": "0.8.6+commit.11564f7e.Emscripten.clang"
  },
  "schemaVersion": "3.4.1",
  "updatedAt": "2021-08-07T16:12:41.719Z",
  "networkType": "ethereum",
  "devdoc": {
    "kind": "dev",
    "methods": {
      "approve(address,uint256)": {
        "details": "See {IERC721-approve}."
      },
      "balanceOf(address)": {
        "details": "See {IERC721-balanceOf}."
      },
      "getApproved(uint256)": {
        "details": "See {IERC721-getApproved}."
      },
      "isApprovedForAll(address,address)": {
        "details": "See {IERC721-isApprovedForAll}."
      },
      "name()": {
        "details": "See {IERC721Metadata-name}."
      },
      "ownerOf(uint256)": {
        "details": "See {IERC721-ownerOf}."
      },
      "safeTransferFrom(address,address,uint256)": {
        "details": "See {IERC721-safeTransferFrom}."
      },
      "safeTransferFrom(address,address,uint256,bytes)": {
        "details": "See {IERC721-safeTransferFrom}."
      },
      "setApprovalForAll(address,bool)": {
        "details": "See {IERC721-setApprovalForAll}."
      },
      "supportsInterface(bytes4)": {
        "details": "See {IERC165-supportsInterface}."
      },
      "symbol()": {
        "details": "See {IERC721Metadata-symbol}."
      },
      "tokenByIndex(uint256)": {
        "details": "See {IERC721Enumerable-tokenByIndex}."
      },
      "tokenOfOwnerByIndex(address,uint256)": {
        "details": "See {IERC721Enumerable-tokenOfOwnerByIndex}."
      },
      "tokenURI(uint256)": {
        "details": "See {IERC721Metadata-tokenURI}."
      },
      "totalSupply()": {
        "details": "See {IERC721Enumerable-totalSupply}."
      },
      "transferFrom(address,address,uint256)": {
        "details": "See {IERC721-transferFrom}."
      }
    },
    "version": 1
  },
  "userdoc": {
    "kind": "user",
    "methods": {},
    "version": 1
  }
}