{
  "contractName": "CreatorContract",
  "abi": [
    {
      "anonymous": false,
      "inputs": [
        {
          "indexed": false,
          "internalType": "address",
          "name": "_address",
          "type": "address"
        },
        {
          "indexed": false,
          "internalType": "uint256",
          "name": "index",
          "type": "uint256"
        }
      ],
      "name": "ContractCreated",
      "type": "event"
    },
    {
      "anonymous": false,
      "inputs": [
        {
          "indexed": false,
          "internalType": "uint256",
          "name": "a",
          "type": "uint256"
        },
        {
          "indexed": false,
          "internalType": "string",
          "name": "description",
          "type": "string"
        }
      ],
      "name": "Debug",
      "type": "event"
    },
    {
      "inputs": [
        {
          "internalType": "address",
          "name": "",
          "type": "address"
        },
        {
          "internalType": "uint256",
          "name": "",
          "type": "uint256"
        }
      ],
      "name": "contractMap",
      "outputs": [
        {
          "internalType": "address",
          "name": "_address",
          "type": "address"
        },
        {
          "internalType": "string",
          "name": "name",
          "type": "string"
        }
      ],
      "stateMutability": "view",
      "type": "function",
      "constant": true
    },
    {
      "inputs": [
        {
          "internalType": "address",
          "name": "_address",
          "type": "address"
        }
      ],
      "name": "getContractRefs",
      "outputs": [
        {
          "components": [
            {
              "internalType": "address",
              "name": "_address",
              "type": "address"
            },
            {
              "internalType": "string",
              "name": "name",
              "type": "string"
            }
          ],
          "internalType": "struct CreatorContract.ContractRef[]",
          "name": "",
          "type": "tuple[]"
        }
      ],
      "stateMutability": "view",
      "type": "function",
      "constant": true
    },
    {
      "inputs": [
        {
          "internalType": "string",
          "name": "name",
          "type": "string"
        }
      ],
      "name": "createContract",
      "outputs": [],
      "stateMutability": "nonpayable",
      "type": "function"
    },
    {
      "inputs": [
        {
          "internalType": "address",
          "name": "newAdmin",
          "type": "address"
        },
        {
          "internalType": "address",
          "name": "oldAdmin",
          "type": "address"
        },
        {
          "internalType": "address",
          "name": "contractAddr",
          "type": "address"
        }
      ],
      "name": "updateContractAdmin",
      "outputs": [],
      "stateMutability": "nonpayable",
      "type": "function"
    },
    {
      "inputs": [
        {
          "internalType": "string",
          "name": "newName",
          "type": "string"
        },
        {
          "internalType": "address",
          "name": "admin",
          "type": "address"
        },
        {
          "internalType": "address",
          "name": "contractAddr",
          "type": "address"
        }
      ],
      "name": "updateContract",
      "outputs": [],
      "stateMutability": "nonpayable",
      "type": "function"
    }
  ],
  "bytecode": "0x608060405234801561001057600080fd5b50614ad5806100206000396000f3fe60806040523480156200001157600080fd5b50600436106200005e5760003560e01c806318f80bb9146200006357806385ed2994146200008357806388bd046414620000a3578063ab28059314620000da578063d5506adf1462000110575b600080fd5b6200008160048036038101906200007b91906200163c565b62000130565b005b620000a160048036038101906200009b919062001691565b620003db565b005b620000c16004803603810190620000bb9190620015f5565b62000790565b604051620000d192919062001970565b60405180910390f35b620000f86004803603810190620000f2919062001567565b62000882565b604051620001079190620019d1565b60405180910390f35b6200012e600480360381019062000128919062001599565b62000a11565b005b8181600082829050116200017b576040517f08c379a0000000000000000000000000000000000000000000000000000000008152600401620001729062001a5d565b60405180910390fd5b6000848433306040516200018f906200122f565b6200019e9493929190620019f5565b604051809103906000f080158015620001bb573d6000803e3d6000fd5b5090506000819050600060405180604001604052808373ffffffffffffffffffffffffffffffffffffffff1681526020018473ffffffffffffffffffffffffffffffffffffffff166306fdde036040518163ffffffff1660e01b815260040160006040518083038186803b1580156200023357600080fd5b505afa15801562000248573d6000803e3d6000fd5b505050506040513d6000823e3d601f19601f8201168201806040525081019062000273919062001711565b81525090506000803373ffffffffffffffffffffffffffffffffffffffff1673ffffffffffffffffffffffffffffffffffffffff16815260200190815260200160002081908060018154018082558091505060019003906000526020600020906002020160009091909190915060008201518160000160006101000a81548173ffffffffffffffffffffffffffffffffffffffff021916908373ffffffffffffffffffffffffffffffffffffffff1602179055506020820151816001019080519060200190620003459291906200123d565b5050507f1dc05c1d6a563dddb6c22082af72b54ec2f0207ceb55db5d13cdabc208f303a98260016000803373ffffffffffffffffffffffffffffffffffffffff1673ffffffffffffffffffffffffffffffffffffffff16815260200190815260200160002080549050620003ba919062001b44565b604051620003ca929190620019a4565b60405180910390a150505050505050565b81816000808060008573ffffffffffffffffffffffffffffffffffffffff1673ffffffffffffffffffffffffffffffffffffffff168152602001908152602001600020805480602002602001604051908101604052809291908181526020016000905b828210156200056257838290600052602060002090600202016040518060400160405290816000820160009054906101000a900473ffffffffffffffffffffffffffffffffffffffff1673ffffffffffffffffffffffffffffffffffffffff1673ffffffffffffffffffffffffffffffffffffffff168152602001600182018054620004ca9062001c02565b80601f0160208091040260200160405190810160405280929190818152602001828054620004f89062001c02565b8015620005495780601f106200051d5761010080835404028352916020019162000549565b820191906000526020600020905b8154815290600101906020018083116200052b57829003601f168201915b505050505081525050815260200190600101906200043e565b50505050905060005b8151811015620005ec5760008282815181106200058d576200058c62001d49565b5b602002602001015190508473ffffffffffffffffffffffffffffffffffffffff16816000015173ffffffffffffffffffffffffffffffffffffffff161415620005d557600193505b508080620005e39062001c6e565b9150506200056b565b508162000630576040517f08c379a0000000000000000000000000000000000000000000000000000000008152600401620006279062001a3b565b60405180910390fd5b8787600082829050116200067b576040517f08c379a0000000000000000000000000000000000000000000000000000000008152600401620006729062001a5d565b60405180910390fd5b60008060008a73ffffffffffffffffffffffffffffffffffffffff1673ffffffffffffffffffffffffffffffffffffffff168152602001908152602001600020905060005b818054905081101562000782576000828281548110620006e557620006e462001d49565b5b906000526020600020906002020190508973ffffffffffffffffffffffffffffffffffffffff168160000160009054906101000a900473ffffffffffffffffffffffffffffffffffffffff1673ffffffffffffffffffffffffffffffffffffffff1614156200076b578c8c82600101919062000763929190620012ce565b505062000782565b508080620007799062001c6e565b915050620006c0565b505050505050505050505050565b60006020528160005260406000208181548110620007ad57600080fd5b9060005260206000209060020201600091509150508060000160009054906101000a900473ffffffffffffffffffffffffffffffffffffffff1690806001018054620007f99062001c02565b80601f0160208091040260200160405190810160405280929190818152602001828054620008279062001c02565b8015620008785780601f106200084c5761010080835404028352916020019162000878565b820191906000526020600020905b8154815290600101906020018083116200085a57829003601f168201915b5050505050905082565b60606000808373ffffffffffffffffffffffffffffffffffffffff1673ffffffffffffffffffffffffffffffffffffffff168152602001908152602001600020805480602002602001604051908101604052809291908181526020016000905b8282101562000a0657838290600052602060002090600202016040518060400160405290816000820160009054906101000a900473ffffffffffffffffffffffffffffffffffffffff1673ffffffffffffffffffffffffffffffffffffffff1673ffffffffffffffffffffffffffffffffffffffff1681526020016001820180546200096e9062001c02565b80601f01602080910402602001604051908101604052809291908181526020018280546200099c9062001c02565b8015620009ed5780601f10620009c157610100808354040283529160200191620009ed565b820191906000526020600020905b815481529060010190602001808311620009cf57829003601f168201915b50505050508152505081526020019060010190620008e2565b505050509050919050565b81816000808060008573ffffffffffffffffffffffffffffffffffffffff1673ffffffffffffffffffffffffffffffffffffffff168152602001908152602001600020805480602002602001604051908101604052809291908181526020016000905b8282101562000b9857838290600052602060002090600202016040518060400160405290816000820160009054906101000a900473ffffffffffffffffffffffffffffffffffffffff1673ffffffffffffffffffffffffffffffffffffffff1673ffffffffffffffffffffffffffffffffffffffff16815260200160018201805462000b009062001c02565b80601f016020809104026020016040519081016040528092919081815260200182805462000b2e9062001c02565b801562000b7f5780601f1062000b535761010080835404028352916020019162000b7f565b820191906000526020600020905b81548152906001019060200180831162000b6157829003601f168201915b5050505050815250508152602001906001019062000a74565b50505050905060005b815181101562000c2257600082828151811062000bc35762000bc262001d49565b5b602002602001015190508473ffffffffffffffffffffffffffffffffffffffff16816000015173ffffffffffffffffffffffffffffffffffffffff16141562000c0b57600193505b50808062000c199062001c6e565b91505062000ba1565b508162000c66576040517f08c379a000000000000000000000000000000000000000000000000000000000815260040162000c5d9062001a3b565b60405180910390fd5b60008060008873ffffffffffffffffffffffffffffffffffffffff1673ffffffffffffffffffffffffffffffffffffffff16815260200190815260200160002090506000806000905060005b838054905081101562000e4057600084828154811062000cd75762000cd662001d49565b5b90600052602060002090600202016040518060400160405290816000820160009054906101000a900473ffffffffffffffffffffffffffffffffffffffff1673ffffffffffffffffffffffffffffffffffffffff1673ffffffffffffffffffffffffffffffffffffffff16815260200160018201805462000d589062001c02565b80601f016020809104026020016040519081016040528092919081815260200182805462000d869062001c02565b801562000dd75780601f1062000dab5761010080835404028352916020019162000dd7565b820191906000526020600020905b81548152906001019060200180831162000db957829003601f168201915b50505050508152505090508973ffffffffffffffffffffffffffffffffffffffff16816000015173ffffffffffffffffffffffffffffffffffffffff16141562000e2957819350600192505062000e40565b50808062000e379062001c6e565b91505062000cb2565b50801562001223576000604051806040016040528085858154811062000e6b5762000e6a62001d49565b5b906000526020600020906002020160000160009054906101000a900473ffffffffffffffffffffffffffffffffffffffff1673ffffffffffffffffffffffffffffffffffffffff16815260200185858154811062000ece5762000ecd62001d49565b5b9060005260206000209060020201600101805462000eec9062001c02565b80601f016020809104026020016040519081016040528092919081815260200182805462000f1a9062001c02565b801562000f6b5780601f1062000f3f5761010080835404028352916020019162000f6b565b820191906000526020600020905b81548152906001019060200180831162000f4d57829003601f168201915b50505050508152509050836001858054905062000f89919062001b44565b8154811062000f9d5762000f9c62001d49565b5b906000526020600020906002020184848154811062000fc15762000fc062001d49565b5b90600052602060002090600202016000820160009054906101000a900473ffffffffffffffffffffffffffffffffffffffff168160000160006101000a81548173ffffffffffffffffffffffffffffffffffffffff021916908373ffffffffffffffffffffffffffffffffffffffff16021790555060018201816001019080546200104c9062001c02565b620010599291906200135f565b509050508380548062001071576200107062001d1a565b5b6001900381819060005260206000209060020201600080820160006101000a81549073ffffffffffffffffffffffffffffffffffffffff0219169055600182016000620010bf9190620013f7565b505090556000808c73ffffffffffffffffffffffffffffffffffffffff1673ffffffffffffffffffffffffffffffffffffffff16815260200190815260200160002081908060018154018082558091505060019003906000526020600020906002020160009091909190915060008201518160000160006101000a81548173ffffffffffffffffffffffffffffffffffffffff021916908373ffffffffffffffffffffffffffffffffffffffff1602179055506020820151816001019080519060200190620011909291906200123d565b5050507f1dc05c1d6a563dddb6c22082af72b54ec2f0207ceb55db5d13cdabc208f303a9816000015160016000808f73ffffffffffffffffffffffffffffffffffffffff1673ffffffffffffffffffffffffffffffffffffffff1681526020019081526020016000208054905062001209919062001b44565b60405162001219929190620019a4565b60405180910390a1505b50505050505050505050565b612bf78062001ea983390190565b8280546200124b9062001c02565b90600052602060002090601f0160209004810192826200126f5760008555620012bb565b82601f106200128a57805160ff1916838001178555620012bb565b82800160010185558215620012bb579182015b82811115620012ba5782518255916020019190600101906200129d565b5b509050620012ca91906200143d565b5090565b828054620012dc9062001c02565b90600052602060002090601f0160209004810192826200130057600085556200134c565b82601f106200131b57803560ff19168380011785556200134c565b828001600101855582156200134c579182015b828111156200134b5782358255916020019190600101906200132e565b5b5090506200135b91906200143d565b5090565b8280546200136d9062001c02565b90600052602060002090601f016020900481019282620013915760008555620013e4565b82601f10620013a45780548555620013e4565b82800160010185558215620013e457600052602060002091601f016020900482015b82811115620013e3578254825591600101919060010190620013c6565b5b509050620013f391906200143d565b5090565b508054620014059062001c02565b6000825580601f106200141957506200143a565b601f0160209004906000526020600020908101906200143991906200143d565b5b50565b5b80821115620014585760008160009055506001016200143e565b5090565b6000620014736200146d8462001aa8565b62001a7f565b90508281526020810184848401111562001492576200149162001db6565b5b6200149f84828562001bcc565b509392505050565b600081359050620014b88162001e74565b92915050565b60008083601f840112620014d757620014d662001dac565b5b8235905067ffffffffffffffff811115620014f757620014f662001da7565b5b60208301915083600182028301111562001516576200151562001db1565b5b9250929050565b600082601f83011262001535576200153462001dac565b5b8151620015478482602086016200145c565b91505092915050565b600081359050620015618162001e8e565b92915050565b60006020828403121562001580576200157f62001dc0565b5b60006200159084828501620014a7565b91505092915050565b600080600060608486031215620015b557620015b462001dc0565b5b6000620015c586828701620014a7565b9350506020620015d886828701620014a7565b9250506040620015eb86828701620014a7565b9150509250925092565b600080604083850312156200160f576200160e62001dc0565b5b60006200161f85828601620014a7565b9250506020620016328582860162001550565b9150509250929050565b6000806020838503121562001656576200165562001dc0565b5b600083013567ffffffffffffffff81111562001677576200167662001dbb565b5b6200168585828601620014be565b92509250509250929050565b60008060008060608587031215620016ae57620016ad62001dc0565b5b600085013567ffffffffffffffff811115620016cf57620016ce62001dbb565b5b620016dd87828801620014be565b94509450506020620016f287828801620014a7565b92505060406200170587828801620014a7565b91505092959194509250565b6000602082840312156200172a576200172962001dc0565b5b600082015167ffffffffffffffff8111156200174b576200174a62001dbb565b5b62001759848285016200151d565b91505092915050565b60006200177083836200191e565b905092915050565b620017838162001b7f565b82525050565b620017948162001b7f565b82525050565b6000620017a78262001aee565b620017b3818562001b11565b935083602082028501620017c78562001ade565b8060005b85811015620018095784840389528151620017e7858262001762565b9450620017f48362001b04565b925060208a01995050600181019050620017cb565b50829750879550505050505092915050565b600062001829838562001b33565b93506200183883858462001bbd565b620018438362001dc5565b840190509392505050565b60006200185b8262001af9565b62001867818562001b22565b93506200187981856020860162001bcc565b620018848162001dc5565b840191505092915050565b60006200189c8262001af9565b620018a8818562001b33565b9350620018ba81856020860162001bcc565b620018c58162001dc5565b840191505092915050565b6000620018df60228362001b33565b9150620018ec8262001dd6565b604082019050919050565b600062001906602a8362001b33565b9150620019138262001e25565b604082019050919050565b600060408301600083015162001938600086018262001778565b50602083015184820360208601526200195282826200184e565b9150508091505092915050565b6200196a8162001bb3565b82525050565b600060408201905062001987600083018562001789565b81810360208301526200199b81846200188f565b90509392505050565b6000604082019050620019bb600083018562001789565b620019ca60208301846200195f565b9392505050565b60006020820190508181036000830152620019ed81846200179a565b905092915050565b6000606082019050818103600083015262001a128186886200181b565b905062001a23602083018562001789565b62001a32604083018462001789565b95945050505050565b6000602082019050818103600083015262001a5681620018d0565b9050919050565b6000602082019050818103600083015262001a7881620018f7565b9050919050565b600062001a8b62001a9e565b905062001a99828262001c38565b919050565b6000604051905090565b600067ffffffffffffffff82111562001ac65762001ac562001d78565b5b62001ad18262001dc5565b9050602081019050919050565b6000819050602082019050919050565b600081519050919050565b600081519050919050565b6000602082019050919050565b600082825260208201905092915050565b600082825260208201905092915050565b600082825260208201905092915050565b600062001b518262001bb3565b915062001b5e8362001bb3565b92508282101562001b745762001b7362001cbc565b5b828203905092915050565b600062001b8c8262001b93565b9050919050565b600073ffffffffffffffffffffffffffffffffffffffff82169050919050565b6000819050919050565b82818337600083830152505050565b60005b8381101562001bec57808201518184015260208101905062001bcf565b8381111562001bfc576000848401525b50505050565b6000600282049050600182168062001c1b57607f821691505b6020821081141562001c325762001c3162001ceb565b5b50919050565b62001c438262001dc5565b810181811067ffffffffffffffff8211171562001c655762001c6462001d78565b5b80604052505050565b600062001c7b8262001bb3565b91507fffffffffffffffffffffffffffffffffffffffffffffffffffffffffffffffff82141562001cb15762001cb062001cbc565b5b600182019050919050565b7f4e487b7100000000000000000000000000000000000000000000000000000000600052601160045260246000fd5b7f4e487b7100000000000000000000000000000000000000000000000000000000600052602260045260246000fd5b7f4e487b7100000000000000000000000000000000000000000000000000000000600052603160045260246000fd5b7f4e487b7100000000000000000000000000000000000000000000000000000000600052603260045260246000fd5b7f4e487b7100000000000000000000000000000000000000000000000000000000600052604160045260246000fd5b600080fd5b600080fd5b600080fd5b600080fd5b600080fd5b600080fd5b6000601f19601f8301169050919050565b7f4f6e6c792061646d696e2063616e20706572666f726d2074686973206163746960008201527f6f6e000000000000000000000000000000000000000000000000000000000000602082015250565b7f537472696e6720706172616d65746572206d757374206265206f66206120766160008201527f6c6964206c656e67746800000000000000000000000000000000000000000000602082015250565b62001e7f8162001b7f565b811462001e8b57600080fd5b50565b62001e998162001bb3565b811462001ea557600080fd5b5056fe60806040523480156200001157600080fd5b5060405162002bf738038062002bf78339818101604052810190620000379190620002a5565b82600090805190602001906200004f92919062000160565b5081600160006101000a81548173ffffffffffffffffffffffffffffffffffffffff021916908373ffffffffffffffffffffffffffffffffffffffff16021790555080600560006101000a81548173ffffffffffffffffffffffffffffffffffffffff021916908373ffffffffffffffffffffffffffffffffffffffff1602179055506003600160009054906101000a900473ffffffffffffffffffffffffffffffffffffffff169080600181540180825580915050600190039060005260206000200160009091909190916101000a81548173ffffffffffffffffffffffffffffffffffffffff021916908373ffffffffffffffffffffffffffffffffffffffff160217905550505050620004f2565b8280546200016e90620003e9565b90600052602060002090601f016020900481019282620001925760008555620001de565b82601f10620001ad57805160ff1916838001178555620001de565b82800160010185558215620001de579182015b82811115620001dd578251825591602001919060010190620001c0565b5b509050620001ed9190620001f1565b5090565b5b808211156200020c576000816000905550600101620001f2565b5090565b600062000227620002218462000349565b62000320565b905082815260208101848484011115620002465762000245620004b8565b5b62000253848285620003b3565b509392505050565b6000815190506200026c81620004d8565b92915050565b600082601f8301126200028a5762000289620004b3565b5b81516200029c84826020860162000210565b91505092915050565b600080600060608486031215620002c157620002c0620004c2565b5b600084015167ffffffffffffffff811115620002e257620002e1620004bd565b5b620002f08682870162000272565b935050602062000303868287016200025b565b925050604062000316868287016200025b565b9150509250925092565b60006200032c6200033f565b90506200033a82826200041f565b919050565b6000604051905090565b600067ffffffffffffffff82111562000367576200036662000484565b5b6200037282620004c7565b9050602081019050919050565b60006200038c8262000393565b9050919050565b600073ffffffffffffffffffffffffffffffffffffffff82169050919050565b60005b83811015620003d3578082015181840152602081019050620003b6565b83811115620003e3576000848401525b50505050565b600060028204905060018216806200040257607f821691505b6020821081141562000419576200041862000455565b5b50919050565b6200042a82620004c7565b810181811067ffffffffffffffff821117156200044c576200044b62000484565b5b80604052505050565b7f4e487b7100000000000000000000000000000000000000000000000000000000600052602260045260246000fd5b7f4e487b7100000000000000000000000000000000000000000000000000000000600052604160045260246000fd5b600080fd5b600080fd5b600080fd5b600080fd5b6000601f19601f8301169050919050565b620004e3816200037f565b8114620004ef57600080fd5b50565b6126f580620005026000396000f3fe6080604052600436106100c65760003560e01c8063ac2f00741161007f578063e2f273bd11610059578063e2f273bd14610276578063ea57d5d41461029f578063f674b24d146102c8578063f851a440146102f1576100cd565b8063ac2f0074146101e2578063b8684aba14610222578063d07b77b51461024b576100cd565b806306fdde03146100d2578063120fe89b146100fd578063189a563f146101285780633dae35ce1461015157806374a9ced91461017c5780637d4061e6146101a5576100cd565b366100cd57005b600080fd5b3480156100de57600080fd5b506100e761031c565b6040516100f49190611ef7565b60405180910390f35b34801561010957600080fd5b506101126103aa565b60405161011f9190611eba565b60405180910390f35b34801561013457600080fd5b5061014f600480360381019061014a919061180a565b610689565b005b34801561015d57600080fd5b506101666108e6565b6040516101739190611edc565b60405180910390f35b34801561018857600080fd5b506101a3600480360381019061019e9190611853565b61090c565b005b3480156101b157600080fd5b506101cc60048036038101906101c7919061189c565b610b40565b6040516101d99190611e7d565b60405180910390f35b3480156101ee57600080fd5b506102096004803603810190610204919061189c565b610b7f565b6040516102199493929190611ffb565b60405180910390f35b34801561022e57600080fd5b506102496004803603810190610244919061189c565b610c54565b005b34801561025757600080fd5b50610260610caa565b60405161026d9190611e98565b60405180910390f35b34801561028257600080fd5b5061029d600480360381019061029891906117dd565b610d38565b005b3480156102ab57600080fd5b506102c660048036038101906102c191906118c9565b610ff3565b005b3480156102d457600080fd5b506102ef60048036038101906102ea91906117dd565b6110c5565b005b3480156102fd57600080fd5b50610306611441565b6040516103139190611e7d565b60405180910390f35b600080546103299061231c565b80601f01602080910402602001604051908101604052809291908181526020018280546103559061231c565b80156103a25780601f10610377576101008083540402835291602001916103a2565b820191906000526020600020905b81548152906001019060200180831161038557829003601f168201915b505050505081565b60606002805480602002602001604051908101604052809291908181526020016000905b8282101561068057838290600052602060002090600702016040518060e00160405290816000820154815260200160018201805461040b9061231c565b80601f01602080910402602001604051908101604052809291908181526020018280546104379061231c565b80156104845780601f1061045957610100808354040283529160200191610484565b820191906000526020600020905b81548152906001019060200180831161046757829003601f168201915b505050505081526020016002820180548060200260200160405190810160405280929190818152602001828054801561051257602002820191906000526020600020905b8160009054906101000a900473ffffffffffffffffffffffffffffffffffffffff1673ffffffffffffffffffffffffffffffffffffffff16815260200190600101908083116104c8575b5050505050815260200160038201805480602002602001604051908101604052809291908181526020016000905b828210156105ec57838290600052602060002001805461055f9061231c565b80601f016020809104026020016040519081016040528092919081815260200182805461058b9061231c565b80156105d85780601f106105ad576101008083540402835291602001916105d8565b820191906000526020600020905b8154815290600101906020018083116105bb57829003601f168201915b505050505081526020019060010190610540565b5050505081526020016004820180548060200260200160405190810160405280929190818152602001828054801561064357602002820191906000526020600020905b81548152602001906001019080831161062f575b50505050508152602001600582015481526020016006820160009054906101000a900460ff161515151581525050815260200190600101906103ce565b50505050905090565b600160009054906101000a900473ffffffffffffffffffffffffffffffffffffffff1673ffffffffffffffffffffffffffffffffffffffff163373ffffffffffffffffffffffffffffffffffffffff1614610719576040517f08c379a000000000000000000000000000000000000000000000000000000000815260040161071090611f5b565b60405180910390fd5b600081511161075d576040517f08c379a000000000000000000000000000000000000000000000000000000000815260040161075490611f9b565b60405180910390fd5b60005b81518110156108e257600082828151811061077e5761077d612455565b5b60200260200101519050600073ffffffffffffffffffffffffffffffffffffffff168173ffffffffffffffffffffffffffffffffffffffff1614156107c357506108cf565b6000805b600380549050811015610862578273ffffffffffffffffffffffffffffffffffffffff16600382815481106107ff576107fe612455565b5b9060005260206000200160009054906101000a900473ffffffffffffffffffffffffffffffffffffffff1673ffffffffffffffffffffffffffffffffffffffff16141561084f5760019150610862565b808061085a9061237f565b9150506107c7565b50806108cc576003829080600181540180825580915050600190039060005260206000200160009091909190916101000a81548173ffffffffffffffffffffffffffffffffffffffff021916908373ffffffffffffffffffffffffffffffffffffffff1602179055505b50505b80806108da9061237f565b915050610760565b5050565b600560009054906101000a900473ffffffffffffffffffffffffffffffffffffffff1681565b600160009054906101000a900473ffffffffffffffffffffffffffffffffffffffff1673ffffffffffffffffffffffffffffffffffffffff163373ffffffffffffffffffffffffffffffffffffffff161461099c576040517f08c379a000000000000000000000000000000000000000000000000000000000815260040161099390611f5b565b60405180910390fd5b60608060606000600280549050905060026040518060e0016040528083815260200187815260200186815260200185815260200184815260200160008152602001600015158152509080600181540180825580915050600190039060005260206000209060070201600090919091909150600082015181600001556020820151816001019080519060200190610a33929190611467565b506040820151816002019080519060200190610a509291906114ed565b506060820151816003019080519060200190610a6d929190611577565b506080820151816004019080519060200190610a8a9291906115d7565b5060a0820151816005015560c08201518160060160006101000a81548160ff02191690831515021790555050507f65d5ac2bf1bca69566bef1affdfca5bb37b9577fc0b3af4c7c4638225e67b39c60028281548110610aec57610aeb612455565b5b90600052602060002090600702016000015460028381548110610b1257610b11612455565b5b9060005260206000209060070201600101604051610b31929190612047565b60405180910390a15050505050565b60038181548110610b5057600080fd5b906000526020600020016000915054906101000a900473ffffffffffffffffffffffffffffffffffffffff1681565b60028181548110610b8f57600080fd5b9060005260206000209060070201600091509050806000015490806001018054610bb89061231c565b80601f0160208091040260200160405190810160405280929190818152602001828054610be49061231c565b8015610c315780601f10610c0657610100808354040283529160200191610c31565b820191906000526020600020905b815481529060010190602001808311610c1457829003601f168201915b5050505050908060050154908060060160009054906101000a900460ff16905084565b600060028281548110610c6a57610c69612455565b5b9060005260206000209060070201905080600401600090806001815401808255809150506001900390600052602060002001600090919091909150555050565b60606003805480602002602001604051908101604052809291908181526020018280548015610d2e57602002820191906000526020600020905b8160009054906101000a900473ffffffffffffffffffffffffffffffffffffffff1673ffffffffffffffffffffffffffffffffffffffff1681526020019060010190808311610ce4575b5050505050905090565b600160009054906101000a900473ffffffffffffffffffffffffffffffffffffffff1673ffffffffffffffffffffffffffffffffffffffff163373ffffffffffffffffffffffffffffffffffffffff1614610dc8576040517f08c379a0000000000000000000000000000000000000000000000000000000008152600401610dbf90611f5b565b60405180910390fd5b80600073ffffffffffffffffffffffffffffffffffffffff168173ffffffffffffffffffffffffffffffffffffffff161415610e39576040517f08c379a0000000000000000000000000000000000000000000000000000000008152600401610e3090611f3b565b60405180910390fd5b600160009054906101000a900473ffffffffffffffffffffffffffffffffffffffff1673ffffffffffffffffffffffffffffffffffffffff168273ffffffffffffffffffffffffffffffffffffffff161415610eca576040517f08c379a0000000000000000000000000000000000000000000000000000000008152600401610ec190611fbb565b60405180910390fd5b6000805b600380549050811015610f655760038181548110610eef57610eee612455565b5b9060005260206000200160009054906101000a900473ffffffffffffffffffffffffffffffffffffffff1673ffffffffffffffffffffffffffffffffffffffff168473ffffffffffffffffffffffffffffffffffffffff161415610f5257600191505b8080610f5d9061237f565b915050610ece565b5080610fa6576040517f08c379a0000000000000000000000000000000000000000000000000000000008152600401610f9d90611f7b565b60405180910390fd5b8015610fee5782600160006101000a81548173ffffffffffffffffffffffffffffffffffffffff021916908373ffffffffffffffffffffffffffffffffffffffff1602179055505b505050565b60006002838154811061100957611008612455565b5b906000526020600020906007020190508060030182908060018154018082558091505060019003906000526020600020016000909190919091509080519060200190611056929190611467565b507f7ae014784367f0374d742689207407b5b2c4ada3f3d257bbc563362c2c2a86f481600301600183600301805490506110909190612230565b815481106110a1576110a0612455565b5b906000526020600020016040516110b89190611f19565b60405180910390a1505050565b600160009054906101000a900473ffffffffffffffffffffffffffffffffffffffff1673ffffffffffffffffffffffffffffffffffffffff163373ffffffffffffffffffffffffffffffffffffffff1614611155576040517f08c379a000000000000000000000000000000000000000000000000000000000815260040161114c90611f5b565b60405180910390fd5b80600073ffffffffffffffffffffffffffffffffffffffff168173ffffffffffffffffffffffffffffffffffffffff1614156111c6576040517f08c379a00000000000000000000000000000000000000000000000000000000081526004016111bd90611f3b565b60405180910390fd5b600160009054906101000a900473ffffffffffffffffffffffffffffffffffffffff1673ffffffffffffffffffffffffffffffffffffffff168273ffffffffffffffffffffffffffffffffffffffff161415611257576040517f08c379a000000000000000000000000000000000000000000000000000000000815260040161124e90611fdb565b60405180910390fd5b6000806000905060005b6003805490508110156112ff578473ffffffffffffffffffffffffffffffffffffffff166003828154811061129957611298612455565b5b9060005260206000200160009054906101000a900473ffffffffffffffffffffffffffffffffffffffff1673ffffffffffffffffffffffffffffffffffffffff1614156112ec57809250600191506112ff565b80806112f79061237f565b915050611261565b50801561143b576003828154811061131a57611319612455565b5b9060005260206000200160006101000a81549073ffffffffffffffffffffffffffffffffffffffff02191690556003600160038054905061135b9190612230565b8154811061136c5761136b612455565b5b9060005260206000200160009054906101000a900473ffffffffffffffffffffffffffffffffffffffff16600383815481106113ab576113aa612455565b5b9060005260206000200160006101000a81548173ffffffffffffffffffffffffffffffffffffffff021916908373ffffffffffffffffffffffffffffffffffffffff160217905550600380548061140557611404612426565b5b6001900381819060005260206000200160006101000a81549073ffffffffffffffffffffffffffffffffffffffff021916905590555b50505050565b600160009054906101000a900473ffffffffffffffffffffffffffffffffffffffff1681565b8280546114739061231c565b90600052602060002090601f01602090048101928261149557600085556114dc565b82601f106114ae57805160ff19168380011785556114dc565b828001600101855582156114dc579182015b828111156114db5782518255916020019190600101906114c0565b5b5090506114e99190611624565b5090565b828054828255906000526020600020908101928215611566579160200282015b828111156115655782518260006101000a81548173ffffffffffffffffffffffffffffffffffffffff021916908373ffffffffffffffffffffffffffffffffffffffff1602179055509160200191906001019061150d565b5b5090506115739190611624565b5090565b8280548282559060005260206000209081019282156115c6579160200282015b828111156115c55782518290805190602001906115b5929190611467565b5091602001919060010190611597565b5b5090506115d39190611641565b5090565b828054828255906000526020600020908101928215611613579160200282015b828111156116125782518255916020019190600101906115f7565b5b5090506116209190611624565b5090565b5b8082111561163d576000816000905550600101611625565b5090565b5b8082111561166157600081816116589190611665565b50600101611642565b5090565b5080546116719061231c565b6000825580601f1061168357506116a2565b601f0160209004906000526020600020908101906116a19190611624565b5b50565b60006116b86116b38461209c565b612077565b905080838252602082019050828560208602820111156116db576116da6124b8565b5b60005b8581101561170b57816116f18882611757565b8452602084019350602083019250506001810190506116de565b5050509392505050565b6000611728611723846120c8565b612077565b905082815260208101848484011115611744576117436124bd565b5b61174f8482856122da565b509392505050565b60008135905061176681612691565b92915050565b600082601f830112611781576117806124b3565b5b81356117918482602086016116a5565b91505092915050565b600082601f8301126117af576117ae6124b3565b5b81356117bf848260208601611715565b91505092915050565b6000813590506117d7816126a8565b92915050565b6000602082840312156117f3576117f26124c7565b5b600061180184828501611757565b91505092915050565b6000602082840312156118205761181f6124c7565b5b600082013567ffffffffffffffff81111561183e5761183d6124c2565b5b61184a8482850161176c565b91505092915050565b600060208284031215611869576118686124c7565b5b600082013567ffffffffffffffff811115611887576118866124c2565b5b6118938482850161179a565b91505092915050565b6000602082840312156118b2576118b16124c7565b5b60006118c0848285016117c8565b91505092915050565b600080604083850312156118e0576118df6124c7565b5b60006118ee858286016117c8565b925050602083013567ffffffffffffffff81111561190f5761190e6124c2565b5b61191b8582860161179a565b9150509250929050565b6000611931838361197d565b60208301905092915050565b60006119498383611bea565b905092915050565b600061195d8383611dae565b905092915050565b60006119718383611e5f565b60208301905092915050565b61198681612264565b82525050565b61199581612264565b82525050565b60006119a68261214e565b6119b081856121b9565b93506119bb836120f9565b8060005b838110156119ec5781516119d38882611925565b97506119de83612185565b9250506001810190506119bf565b5085935050505092915050565b6000611a048261214e565b611a0e81856121ca565b9350611a19836120f9565b8060005b83811015611a4a578151611a318882611925565b9750611a3c83612185565b925050600181019050611a1d565b5085935050505092915050565b6000611a6282612159565b611a6c81856121db565b935083602082028501611a7e85612109565b8060005b85811015611aba5784840389528151611a9b858261193d565b9450611aa683612192565b925060208a01995050600181019050611a82565b50829750879550505050505092915050565b6000611ad782612164565b611ae181856121ec565b935083602082028501611af385612119565b8060005b85811015611b2f5784840389528151611b108582611951565b9450611b1b8361219f565b925060208a01995050600181019050611af7565b50829750879550505050505092915050565b6000611b4c8261216f565b611b5681856121fd565b9350611b6183612129565b8060005b83811015611b92578151611b798882611965565b9750611b84836121ac565b925050600181019050611b65565b5085935050505092915050565b611ba881612276565b82525050565b611bb781612276565b82525050565b611bc6816122b6565b82525050565b611bd581612282565b82525050565b611be481612282565b82525050565b6000611bf58261217a565b611bff818561220e565b9350611c0f8185602086016122e9565b611c18816124cc565b840191505092915050565b6000611c2e8261217a565b611c38818561221f565b9350611c488185602086016122e9565b611c51816124cc565b840191505092915050565b60008154611c698161231c565b611c73818661221f565b94506001821660008114611c8e5760018114611ca057611cd3565b60ff1983168652602086019350611cd3565b611ca985612139565b60005b83811015611ccb57815481890152600182019150602081019050611cac565b808801955050505b50505092915050565b6000611ce9601e8361221f565b9150611cf4826124dd565b602082019050919050565b6000611d0c60228361221f565b9150611d1782612506565b604082019050919050565b6000611d2f602b8361221f565b9150611d3a82612555565b604082019050919050565b6000611d5260268361221f565b9150611d5d826125a4565b604082019050919050565b6000611d7560268361221f565b9150611d80826125f3565b604082019050919050565b6000611d98602b8361221f565b9150611da382612642565b604082019050919050565b600060e083016000830151611dc66000860182611e5f565b5060208301518482036020860152611dde8282611bea565b91505060408301518482036040860152611df8828261199b565b91505060608301518482036060860152611e128282611a57565b91505060808301518482036080860152611e2c8282611b41565b91505060a0830151611e4160a0860182611bcc565b5060c0830151611e5460c0860182611b9f565b508091505092915050565b611e68816122ac565b82525050565b611e77816122ac565b82525050565b6000602082019050611e92600083018461198c565b92915050565b60006020820190508181036000830152611eb281846119f9565b905092915050565b60006020820190508181036000830152611ed48184611acc565b905092915050565b6000602082019050611ef16000830184611bbd565b92915050565b60006020820190508181036000830152611f118184611c23565b905092915050565b60006020820190508181036000830152611f338184611c5c565b905092915050565b60006020820190508181036000830152611f5481611cdc565b9050919050565b60006020820190508181036000830152611f7481611cff565b9050919050565b60006020820190508181036000830152611f9481611d22565b9050919050565b60006020820190508181036000830152611fb481611d45565b9050919050565b60006020820190508181036000830152611fd481611d68565b9050919050565b60006020820190508181036000830152611ff481611d8b565b9050919050565b60006080820190506120106000830187611e6e565b81810360208301526120228186611c23565b90506120316040830185611bdb565b61203e6060830184611bae565b95945050505050565b600060408201905061205c6000830185611e6e565b818103602083015261206e8184611c5c565b90509392505050565b6000612081612092565b905061208d828261234e565b919050565b6000604051905090565b600067ffffffffffffffff8211156120b7576120b6612484565b5b602082029050602081019050919050565b600067ffffffffffffffff8211156120e3576120e2612484565b5b6120ec826124cc565b9050602081019050919050565b6000819050602082019050919050565b6000819050602082019050919050565b6000819050602082019050919050565b6000819050602082019050919050565b60008190508160005260206000209050919050565b600081519050919050565b600081519050919050565b600081519050919050565b600081519050919050565b600081519050919050565b6000602082019050919050565b6000602082019050919050565b6000602082019050919050565b6000602082019050919050565b600082825260208201905092915050565b600082825260208201905092915050565b600082825260208201905092915050565b600082825260208201905092915050565b600082825260208201905092915050565b600082825260208201905092915050565b600082825260208201905092915050565b600061223b826122ac565b9150612246836122ac565b925082821015612259576122586123c8565b5b828203905092915050565b600061226f8261228c565b9050919050565b60008115159050919050565b6000819050919050565b600073ffffffffffffffffffffffffffffffffffffffff82169050919050565b6000819050919050565b60006122c1826122c8565b9050919050565b60006122d38261228c565b9050919050565b82818337600083830152505050565b60005b838110156123075780820151818401526020810190506122ec565b83811115612316576000848401525b50505050565b6000600282049050600182168061233457607f821691505b60208210811415612348576123476123f7565b5b50919050565b612357826124cc565b810181811067ffffffffffffffff8211171561237657612375612484565b5b80604052505050565b600061238a826122ac565b91507fffffffffffffffffffffffffffffffffffffffffffffffffffffffffffffffff8214156123bd576123bc6123c8565b5b600182019050919050565b7f4e487b7100000000000000000000000000000000000000000000000000000000600052601160045260246000fd5b7f4e487b7100000000000000000000000000000000000000000000000000000000600052602260045260246000fd5b7f4e487b7100000000000000000000000000000000000000000000000000000000600052603160045260246000fd5b7f4e487b7100000000000000000000000000000000000000000000000000000000600052603260045260246000fd5b7f4e487b7100000000000000000000000000000000000000000000000000000000600052604160045260246000fd5b600080fd5b600080fd5b600080fd5b600080fd5b600080fd5b6000601f19601f8301169050919050565b7f412076616c69642061646472657373206d757374206265207061737365640000600082015250565b7f4f6e6c792061646d696e206d617920706572666f726d2074686973206163746960008201527f6f6e000000000000000000000000000000000000000000000000000000000000602082015250565b7f4e65772061646d696e206d75737420626520616e20616c72656164792061707060008201527f726f76656420766f746572000000000000000000000000000000000000000000602082015250565b7f4d757374206e6f74207061737320656d707479206172726179206f662061646460008201527f7265737365730000000000000000000000000000000000000000000000000000602082015250565b7f43616e6e6f74207265706c6163652061646d696e20776974682073616d65206160008201527f6464726573730000000000000000000000000000000000000000000000000000602082015250565b7f41646d696e206d6179206e6f742062652072656d6f7665642066726f6d20617060008201527f70726f766564206c697374000000000000000000000000000000000000000000602082015250565b61269a81612264565b81146126a557600080fd5b50565b6126b1816122ac565b81146126bc57600080fd5b5056fea2646970667358221220b2317961fbf3c66ca5034f0154a687930cd025bbb1a6a7c2b24da17dca9d778c64736f6c63430008060033a2646970667358221220c138644e0f8b5610a1a14e1744111d8a8bd0e452b5b8089bfbbac2d8c0cf14be64736f6c63430008060033",
  "immutableReferences": {},
  "source": "// SPDX-License-Identifier: UNLICENSED\npragma solidity ^0.8.6;\n\nimport \"./VotingContract.sol\";\n\ncontract CreatorContract {\n    struct ContractRef {\n        address _address;\n        string name;\n    }\n\n    event Debug (\n        uint a,\n        string description\n    );\n\n    event ContractCreated (\n        address _address,\n        uint index\n    );\n\n    // Map of user address and the contracts they've created\n    mapping(address => ContractRef[]) public contractMap;\n\n    function getContractRefs(address _address) external view returns(ContractRef[] memory){\n        return contractMap[_address];\n    }\n\n    function createContract(string calldata name) external stringLength(name) {\n        // Creates new instance of voting contract\n        VotingContract newVotingContract = new VotingContract(name, msg.sender, address(this));\n        address contractAddr = address(newVotingContract);\n        // saves a reference of the new voting contract \n        ContractRef memory ref = ContractRef(contractAddr, newVotingContract.name());\n        // stores contract reference under creator's mapping\n        contractMap[msg.sender].push(ref);\n\n        emit ContractCreated(contractAddr, contractMap[msg.sender].length -1);\n    }\n\n    /* Want to remove a VotingContract. Not sure if possible. \n    I can delete the reference to it, but the SC would still exist\n    in the EVM */\n    // Turns out I can use the selfdestruct method. will look into this.\n\n    function updateContractAdmin(\n        address newAdmin, \n        address oldAdmin, \n        address contractAddr) \n        external\n        onlyAdmin(oldAdmin, contractAddr) {\n            // reference to admin's array of contractRefs\n            ContractRef[] storage contractRefs = contractMap[oldAdmin];\n            // Store particular ContractRef if found\n            uint contractIndex;\n            bool foundContract = false;\n\n            for(uint i = 0; i < contractRefs.length; i++){\n                ContractRef memory current = contractRefs[i];\n                if(current._address == contractAddr){\n                    // stores particular ContractRef to local var\n                    // contractRef = current;\n                    contractIndex = i;\n                    // delete contractRefs[i];\n                    foundContract = true;\n                    break;\n                }\n            }\n\n            /* if  contract was found inside forloop, \n            adds contractRef to newAdmin's map */\n            if(foundContract) {\n                ContractRef memory contractRef = ContractRef(\n                    contractRefs[contractIndex]._address,\n                    contractRefs[contractIndex].name\n                );\n                /* Replaces current element with last element from array,\n                then deletes last element from array. Since it's just a list\n                of user's organizations, the array doesn't have to be ordered */ \n                contractRefs[contractIndex] = contractRefs[contractRefs.length - 1];\n                contractRefs.pop();\n                \n                /* contractMap.push() doesn't work when this\n                function is called from VotingContract.sol;\n                It's weird but I do want to fix this eventually.\n                Web3 shouldn't be calling VotingContract & CreatorContract\n                separately. kindof defeats the purpose but i'm sticking\n                to what works for now. */\n                contractMap[newAdmin].push(contractRef);\n                emit ContractCreated(contractRef._address, \n                    contractMap[newAdmin].length -1\n                );\n            }\n        \n    }\n\n    function addContract(address _address, ContractRef memory ref) internal {\n        contractMap[_address].push(ref);\n    }\n\n    function updateContract(\n        string calldata newName,\n        address admin, \n        address contractAddr) \n        external\n        onlyAdmin(admin, contractAddr)\n        stringLength(newName) {\n            ContractRef[] storage contractRefs = contractMap[admin];\n\n            for(uint i = 0; i < contractRefs.length; i++){\n                ContractRef storage current = contractRefs[i];\n                if(current._address == contractAddr){\n                    current.name = newName;\n                    break;\n                }\n            }        \n    }\n\n    modifier onlyAdmin(address sender, address contractAddr) {\n        bool isAdmin = false;\n        ContractRef[] memory refs = contractMap[sender];\n        for(uint i = 0; i < refs.length; i++){\n            ContractRef memory current = refs[i];\n            if(current._address == contractAddr){\n                isAdmin = true;\n            }\n        }\n        require(isAdmin, \"Only admin can perform this action\");\n        _;\n    }\n\n    modifier stringLength(string calldata str) {\n        // emit Debug(bytes(str).length, str);\n        require(bytes(str).length > 0, \"String parameter must be of a valid length\");\n        _;\n    }\n\n}",
  "sourcePath": "/home/odon/code/bloc/self-directed/vote_per_organization/backend/contracts/CreatorContract.sol",
  "compiler": {
    "name": "solc",
    "version": "0.8.6+commit.11564f7e.Emscripten.clang"
  },
  "schemaVersion": "3.4.1",
  "updatedAt": "2021-08-01T21:57:39.703Z",
  "networkType": "ethereum",
  "devdoc": {
    "kind": "dev",
    "methods": {},
    "version": 1
  },
  "userdoc": {
    "kind": "user",
    "methods": {},
    "version": 1
  }
}