{
  "contractName": "CreatorContract",
  "abi": [
    {
      "anonymous": false,
      "inputs": [
        {
          "indexed": false,
          "internalType": "address",
          "name": "_address",
          "type": "address"
        },
        {
          "indexed": false,
          "internalType": "uint256",
          "name": "index",
          "type": "uint256"
        }
      ],
      "name": "ContractCreated",
      "type": "event"
    },
    {
      "anonymous": false,
      "inputs": [
        {
          "indexed": false,
          "internalType": "uint256",
          "name": "a",
          "type": "uint256"
        },
        {
          "indexed": false,
          "internalType": "string",
          "name": "description",
          "type": "string"
        }
      ],
      "name": "Debug",
      "type": "event"
    },
    {
      "inputs": [
        {
          "internalType": "address",
          "name": "",
          "type": "address"
        },
        {
          "internalType": "uint256",
          "name": "",
          "type": "uint256"
        }
      ],
      "name": "contractMap",
      "outputs": [
        {
          "internalType": "address",
          "name": "_address",
          "type": "address"
        },
        {
          "internalType": "string",
          "name": "name",
          "type": "string"
        }
      ],
      "stateMutability": "view",
      "type": "function",
      "constant": true
    },
    {
      "inputs": [
        {
          "internalType": "string",
          "name": "name",
          "type": "string"
        }
      ],
      "name": "createContract",
      "outputs": [],
      "stateMutability": "nonpayable",
      "type": "function"
    },
    {
      "inputs": [
        {
          "internalType": "address",
          "name": "newAdmin",
          "type": "address"
        },
        {
          "internalType": "address",
          "name": "oldAdmin",
          "type": "address"
        },
        {
          "internalType": "address",
          "name": "contractAddr",
          "type": "address"
        }
      ],
      "name": "updateContractAdmin",
      "outputs": [],
      "stateMutability": "nonpayable",
      "type": "function"
    },
    {
      "inputs": [
        {
          "internalType": "string",
          "name": "newName",
          "type": "string"
        },
        {
          "internalType": "address",
          "name": "admin",
          "type": "address"
        },
        {
          "internalType": "address",
          "name": "contractAddr",
          "type": "address"
        }
      ],
      "name": "updateContract",
      "outputs": [],
      "stateMutability": "nonpayable",
      "type": "function"
    }
  ],
  "bytecode": "0x608060405234801561001057600080fd5b50613543806100206000396000f3fe60806040523480156200001157600080fd5b5060043610620000525760003560e01c806318f80bb9146200005757806385ed2994146200007757806388bd04641462000097578063d5506adf14620000ce575b600080fd5b6200007560048036038101906200006f919062001091565b620000ee565b005b6200009560048036038101906200008f9190620010e6565b62000399565b005b620000b56004803603810190620000af91906200104a565b6200074e565b604051620000c59291906200129b565b60405180910390f35b620000ec6004803603810190620000e6919062000fee565b62000840565b005b81816000828290501162000139576040517f08c379a0000000000000000000000000000000000000000000000000000000008152600401620001309062001364565b60405180910390fd5b6000848433306040516200014d9062000d64565b6200015c9493929190620012fc565b604051809103906000f08015801562000179573d6000803e3d6000fd5b5090506000819050600060405180604001604052808373ffffffffffffffffffffffffffffffffffffffff1681526020018473ffffffffffffffffffffffffffffffffffffffff166306fdde036040518163ffffffff1660e01b815260040160006040518083038186803b158015620001f157600080fd5b505afa15801562000206573d6000803e3d6000fd5b505050506040513d6000823e3d601f19601f8201168201806040525081019062000231919062001166565b81525090506000803373ffffffffffffffffffffffffffffffffffffffff1673ffffffffffffffffffffffffffffffffffffffff16815260200190815260200160002081908060018154018082558091505060019003906000526020600020906002020160009091909190915060008201518160000160006101000a81548173ffffffffffffffffffffffffffffffffffffffff021916908373ffffffffffffffffffffffffffffffffffffffff16021790555060208201518160010190805190602001906200030392919062000d72565b5050507f1dc05c1d6a563dddb6c22082af72b54ec2f0207ceb55db5d13cdabc208f303a98260016000803373ffffffffffffffffffffffffffffffffffffffff1673ffffffffffffffffffffffffffffffffffffffff1681526020019081526020016000208054905062000378919062001401565b60405162000388929190620012cf565b60405180910390a150505050505050565b81816000808060008573ffffffffffffffffffffffffffffffffffffffff1673ffffffffffffffffffffffffffffffffffffffff168152602001908152602001600020805480602002602001604051908101604052809291908181526020016000905b828210156200052057838290600052602060002090600202016040518060400160405290816000820160009054906101000a900473ffffffffffffffffffffffffffffffffffffffff1673ffffffffffffffffffffffffffffffffffffffff1673ffffffffffffffffffffffffffffffffffffffff1681526020016001820180546200048890620014bf565b80601f0160208091040260200160405190810160405280929190818152602001828054620004b690620014bf565b8015620005075780601f10620004db5761010080835404028352916020019162000507565b820191906000526020600020905b815481529060010190602001808311620004e957829003601f168201915b50505050508152505081526020019060010190620003fc565b50505050905060005b8151811015620005aa5760008282815181106200054b576200054a620015d7565b5b602002602001015190508473ffffffffffffffffffffffffffffffffffffffff16816000015173ffffffffffffffffffffffffffffffffffffffff1614156200059357600193505b508080620005a1906200152b565b91505062000529565b5081620005ee576040517f08c379a0000000000000000000000000000000000000000000000000000000008152600401620005e59062001342565b60405180910390fd5b87876000828290501162000639576040517f08c379a0000000000000000000000000000000000000000000000000000000008152600401620006309062001364565b60405180910390fd5b60008060008a73ffffffffffffffffffffffffffffffffffffffff1673ffffffffffffffffffffffffffffffffffffffff168152602001908152602001600020905060005b818054905081101562000740576000828281548110620006a357620006a2620015d7565b5b906000526020600020906002020190508973ffffffffffffffffffffffffffffffffffffffff168160000160009054906101000a900473ffffffffffffffffffffffffffffffffffffffff1673ffffffffffffffffffffffffffffffffffffffff16141562000729578c8c8260010191906200072192919062000e03565b505062000740565b50808062000737906200152b565b9150506200067e565b505050505050505050505050565b600060205281600052604060002081815481106200076b57600080fd5b9060005260206000209060020201600091509150508060000160009054906101000a900473ffffffffffffffffffffffffffffffffffffffff1690806001018054620007b790620014bf565b80601f0160208091040260200160405190810160405280929190818152602001828054620007e590620014bf565b8015620008365780601f106200080a5761010080835404028352916020019162000836565b820191906000526020600020905b8154815290600101906020018083116200081857829003601f168201915b5050505050905082565b81816000808060008573ffffffffffffffffffffffffffffffffffffffff1673ffffffffffffffffffffffffffffffffffffffff168152602001908152602001600020805480602002602001604051908101604052809291908181526020016000905b82821015620009c757838290600052602060002090600202016040518060400160405290816000820160009054906101000a900473ffffffffffffffffffffffffffffffffffffffff1673ffffffffffffffffffffffffffffffffffffffff1673ffffffffffffffffffffffffffffffffffffffff1681526020016001820180546200092f90620014bf565b80601f01602080910402602001604051908101604052809291908181526020018280546200095d90620014bf565b8015620009ae5780601f106200098257610100808354040283529160200191620009ae565b820191906000526020600020905b8154815290600101906020018083116200099057829003601f168201915b50505050508152505081526020019060010190620008a3565b50505050905060005b815181101562000a51576000828281518110620009f257620009f1620015d7565b5b602002602001015190508473ffffffffffffffffffffffffffffffffffffffff16816000015173ffffffffffffffffffffffffffffffffffffffff16141562000a3a57600193505b50808062000a48906200152b565b915050620009d0565b508162000a95576040517f08c379a000000000000000000000000000000000000000000000000000000000815260040162000a8c9062001342565b60405180910390fd5b60008060008873ffffffffffffffffffffffffffffffffffffffff1673ffffffffffffffffffffffffffffffffffffffff168152602001908152602001600020805480602002602001604051908101604052809291908181526020016000905b8282101562000c1957838290600052602060002090600202016040518060400160405290816000820160009054906101000a900473ffffffffffffffffffffffffffffffffffffffff1673ffffffffffffffffffffffffffffffffffffffff1673ffffffffffffffffffffffffffffffffffffffff16815260200160018201805462000b8190620014bf565b80601f016020809104026020016040519081016040528092919081815260200182805462000baf90620014bf565b801562000c005780601f1062000bd45761010080835404028352916020019162000c00565b820191906000526020600020905b81548152906001019060200180831162000be257829003601f168201915b5050505050815250508152602001906001019062000af5565b5050505090506000806000905060005b835181101562000cb357600084828151811062000c4b5762000c4a620015d7565b5b602002602001015190508973ffffffffffffffffffffffffffffffffffffffff16816000015173ffffffffffffffffffffffffffffffffffffffff16141562000c9c57819350600192505062000cb3565b50808062000caa906200152b565b91505062000c29565b50801562000d58576000604051806040016040528085858151811062000cde5762000cdd620015d7565b5b60200260200101516000015173ffffffffffffffffffffffffffffffffffffffff16815260200185858151811062000d1b5762000d1a620015d7565b5b602002602001015160200151815250905083838151811062000d425762000d41620015d7565b5b6020026020010162000d5362000e94565b815250505b50505050505050505050565b611dd7806200173783390190565b82805462000d8090620014bf565b90600052602060002090601f01602090048101928262000da4576000855562000df0565b82601f1062000dbf57805160ff191683800117855562000df0565b8280016001018555821562000df0579182015b8281111562000def57825182559160200191906001019062000dd2565b5b50905062000dff919062000ec4565b5090565b82805462000e1190620014bf565b90600052602060002090601f01602090048101928262000e35576000855562000e81565b82601f1062000e5057803560ff191683800117855562000e81565b8280016001018555821562000e81579182015b8281111562000e8057823582559160200191906001019062000e63565b5b50905062000e90919062000ec4565b5090565b6040518060400160405280600073ffffffffffffffffffffffffffffffffffffffff168152602001606081525090565b5b8082111562000edf57600081600090555060010162000ec5565b5090565b600062000efa62000ef484620013af565b62001386565b90508281526020810184848401111562000f195762000f1862001644565b5b62000f2684828562001489565b509392505050565b60008135905062000f3f8162001702565b92915050565b60008083601f84011262000f5e5762000f5d6200163a565b5b8235905067ffffffffffffffff81111562000f7e5762000f7d62001635565b5b60208301915083600182028301111562000f9d5762000f9c6200163f565b5b9250929050565b600082601f83011262000fbc5762000fbb6200163a565b5b815162000fce84826020860162000ee3565b91505092915050565b60008135905062000fe8816200171c565b92915050565b6000806000606084860312156200100a57620010096200164e565b5b60006200101a8682870162000f2e565b93505060206200102d8682870162000f2e565b9250506040620010408682870162000f2e565b9150509250925092565b600080604083850312156200106457620010636200164e565b5b6000620010748582860162000f2e565b9250506020620010878582860162000fd7565b9150509250929050565b60008060208385031215620010ab57620010aa6200164e565b5b600083013567ffffffffffffffff811115620010cc57620010cb62001649565b5b620010da8582860162000f45565b92509250509250929050565b600080600080606085870312156200110357620011026200164e565b5b600085013567ffffffffffffffff81111562001124576200112362001649565b5b620011328782880162000f45565b94509450506020620011478782880162000f2e565b92505060406200115a8782880162000f2e565b91505092959194509250565b6000602082840312156200117f576200117e6200164e565b5b600082015167ffffffffffffffff811115620011a0576200119f62001649565b5b620011ae8482850162000fa4565b91505092915050565b620011c2816200143c565b82525050565b6000620011d68385620013f0565b9350620011e58385846200147a565b620011f08362001653565b840190509392505050565b60006200120882620013e5565b620012148185620013f0565b93506200122681856020860162001489565b620012318162001653565b840191505092915050565b60006200124b602283620013f0565b9150620012588262001664565b604082019050919050565b600062001272602a83620013f0565b91506200127f82620016b3565b604082019050919050565b620012958162001470565b82525050565b6000604082019050620012b26000830185620011b7565b8181036020830152620012c68184620011fb565b90509392505050565b6000604082019050620012e66000830185620011b7565b620012f560208301846200128a565b9392505050565b6000606082019050818103600083015262001319818688620011c8565b90506200132a6020830185620011b7565b620013396040830184620011b7565b95945050505050565b600060208201905081810360008301526200135d816200123c565b9050919050565b600060208201905081810360008301526200137f8162001263565b9050919050565b600062001392620013a5565b9050620013a08282620014f5565b919050565b6000604051905090565b600067ffffffffffffffff821115620013cd57620013cc62001606565b5b620013d88262001653565b9050602081019050919050565b600081519050919050565b600082825260208201905092915050565b60006200140e8262001470565b91506200141b8362001470565b92508282101562001431576200143062001579565b5b828203905092915050565b6000620014498262001450565b9050919050565b600073ffffffffffffffffffffffffffffffffffffffff82169050919050565b6000819050919050565b82818337600083830152505050565b60005b83811015620014a95780820151818401526020810190506200148c565b83811115620014b9576000848401525b50505050565b60006002820490506001821680620014d857607f821691505b60208210811415620014ef57620014ee620015a8565b5b50919050565b620015008262001653565b810181811067ffffffffffffffff8211171562001522576200152162001606565b5b80604052505050565b6000620015388262001470565b91507fffffffffffffffffffffffffffffffffffffffffffffffffffffffffffffffff8214156200156e576200156d62001579565b5b600182019050919050565b7f4e487b7100000000000000000000000000000000000000000000000000000000600052601160045260246000fd5b7f4e487b7100000000000000000000000000000000000000000000000000000000600052602260045260246000fd5b7f4e487b7100000000000000000000000000000000000000000000000000000000600052603260045260246000fd5b7f4e487b7100000000000000000000000000000000000000000000000000000000600052604160045260246000fd5b600080fd5b600080fd5b600080fd5b600080fd5b600080fd5b600080fd5b6000601f19601f8301169050919050565b7f4f6e6c792061646d696e2063616e20706572666f726d2074686973206163746960008201527f6f6e000000000000000000000000000000000000000000000000000000000000602082015250565b7f537472696e6720706172616d65746572206d757374206265206f66206120766160008201527f6c6964206c656e67746800000000000000000000000000000000000000000000602082015250565b6200170d816200143c565b81146200171957600080fd5b50565b620017278162001470565b81146200173357600080fd5b5056fe60806040523480156200001157600080fd5b5060405162001dd738038062001dd78339818101604052810190620000379190620002a5565b82600090805190602001906200004f92919062000160565b5081600160006101000a81548173ffffffffffffffffffffffffffffffffffffffff021916908373ffffffffffffffffffffffffffffffffffffffff16021790555080600560006101000a81548173ffffffffffffffffffffffffffffffffffffffff021916908373ffffffffffffffffffffffffffffffffffffffff1602179055506003600160009054906101000a900473ffffffffffffffffffffffffffffffffffffffff169080600181540180825580915050600190039060005260206000200160009091909190916101000a81548173ffffffffffffffffffffffffffffffffffffffff021916908373ffffffffffffffffffffffffffffffffffffffff160217905550505050620004f2565b8280546200016e90620003e9565b90600052602060002090601f016020900481019282620001925760008555620001de565b82601f10620001ad57805160ff1916838001178555620001de565b82800160010185558215620001de579182015b82811115620001dd578251825591602001919060010190620001c0565b5b509050620001ed9190620001f1565b5090565b5b808211156200020c576000816000905550600101620001f2565b5090565b600062000227620002218462000349565b62000320565b905082815260208101848484011115620002465762000245620004b8565b5b62000253848285620003b3565b509392505050565b6000815190506200026c81620004d8565b92915050565b600082601f8301126200028a5762000289620004b3565b5b81516200029c84826020860162000210565b91505092915050565b600080600060608486031215620002c157620002c0620004c2565b5b600084015167ffffffffffffffff811115620002e257620002e1620004bd565b5b620002f08682870162000272565b935050602062000303868287016200025b565b925050604062000316868287016200025b565b9150509250925092565b60006200032c6200033f565b90506200033a82826200041f565b919050565b6000604051905090565b600067ffffffffffffffff82111562000367576200036662000484565b5b6200037282620004c7565b9050602081019050919050565b60006200038c8262000393565b9050919050565b600073ffffffffffffffffffffffffffffffffffffffff82169050919050565b60005b83811015620003d3578082015181840152602081019050620003b6565b83811115620003e3576000848401525b50505050565b600060028204905060018216806200040257607f821691505b6020821081141562000419576200041862000455565b5b50919050565b6200042a82620004c7565b810181811067ffffffffffffffff821117156200044c576200044b62000484565b5b80604052505050565b7f4e487b7100000000000000000000000000000000000000000000000000000000600052602260045260246000fd5b7f4e487b7100000000000000000000000000000000000000000000000000000000600052604160045260246000fd5b600080fd5b600080fd5b600080fd5b600080fd5b6000601f19601f8301169050919050565b620004e3816200037f565b8114620004ef57600080fd5b50565b6118d580620005026000396000f3fe60806040526004361061008a5760003560e01c8063ac2f007411610059578063ac2f007414610152578063d07b77b514610194578063e2f273bd146101bf578063f674b24d146101e8578063f851a4401461021157610091565b806306fdde0314610096578063189a563f146100c15780633dae35ce146100ea5780637d4061e61461011557610091565b3661009157005b600080fd5b3480156100a257600080fd5b506100ab61023c565b6040516100b89190611237565b60405180910390f35b3480156100cd57600080fd5b506100e860048036038101906100e39190610f66565b6102ca565b005b3480156100f657600080fd5b506100ff610527565b60405161010c919061121c565b60405180910390f35b34801561012157600080fd5b5061013c60048036038101906101379190610faf565b61054d565b60405161014991906111a8565b60405180910390f35b34801561015e57600080fd5b5061017960048036038101906101749190610faf565b61058c565b60405161018b96959493929190611319565b60405180910390f35b3480156101a057600080fd5b506101a96106f5565b6040516101b691906111fa565b60405180910390f35b3480156101cb57600080fd5b506101e660048036038101906101e19190610f39565b610783565b005b3480156101f457600080fd5b5061020f600480360381019061020a9190610f39565b610acf565b005b34801561021d57600080fd5b50610226610e4b565b60405161023391906111a8565b60405180910390f35b6000805461024990611501565b80601f016020809104026020016040519081016040528092919081815260200182805461027590611501565b80156102c25780601f10610297576101008083540402835291602001916102c2565b820191906000526020600020905b8154815290600101906020018083116102a557829003601f168201915b505050505081565b600160009054906101000a900473ffffffffffffffffffffffffffffffffffffffff1673ffffffffffffffffffffffffffffffffffffffff163373ffffffffffffffffffffffffffffffffffffffff161461035a576040517f08c379a000000000000000000000000000000000000000000000000000000000815260040161035190611279565b60405180910390fd5b600081511161039e576040517f08c379a0000000000000000000000000000000000000000000000000000000008152600401610395906112b9565b60405180910390fd5b60005b81518110156105235760008282815181106103bf576103be61163a565b5b60200260200101519050600073ffffffffffffffffffffffffffffffffffffffff168173ffffffffffffffffffffffffffffffffffffffff1614156104045750610510565b6000805b6003805490508110156104a3578273ffffffffffffffffffffffffffffffffffffffff16600382815481106104405761043f61163a565b5b9060005260206000200160009054906101000a900473ffffffffffffffffffffffffffffffffffffffff1673ffffffffffffffffffffffffffffffffffffffff16141561049057600191506104a3565b808061049b90611564565b915050610408565b508061050d576003829080600181540180825580915050600190039060005260206000200160009091909190916101000a81548173ffffffffffffffffffffffffffffffffffffffff021916908373ffffffffffffffffffffffffffffffffffffffff1602179055505b50505b808061051b90611564565b9150506103a1565b5050565b600560009054906101000a900473ffffffffffffffffffffffffffffffffffffffff1681565b6003818154811061055d57600080fd5b906000526020600020016000915054906101000a900473ffffffffffffffffffffffffffffffffffffffff1681565b6002818154811061059c57600080fd5b90600052602060002090600802016000915090508060000154908060010180546105c590611501565b80601f01602080910402602001604051908101604052809291908181526020018280546105f190611501565b801561063e5780601f106106135761010080835404028352916020019161063e565b820191906000526020600020905b81548152906001019060200180831161062157829003601f168201915b50505050509080600201549080600301549080600601805461065f90611501565b80601f016020809104026020016040519081016040528092919081815260200182805461068b90611501565b80156106d85780601f106106ad576101008083540402835291602001916106d8565b820191906000526020600020905b8154815290600101906020018083116106bb57829003601f168201915b5050505050908060070160009054906101000a900460ff16905086565b6060600380548060200260200160405190810160405280929190818152602001828054801561077957602002820191906000526020600020905b8160009054906101000a900473ffffffffffffffffffffffffffffffffffffffff1673ffffffffffffffffffffffffffffffffffffffff168152602001906001019080831161072f575b5050505050905090565b600160009054906101000a900473ffffffffffffffffffffffffffffffffffffffff1673ffffffffffffffffffffffffffffffffffffffff163373ffffffffffffffffffffffffffffffffffffffff1614610813576040517f08c379a000000000000000000000000000000000000000000000000000000000815260040161080a90611279565b60405180910390fd5b80600073ffffffffffffffffffffffffffffffffffffffff168173ffffffffffffffffffffffffffffffffffffffff161415610884576040517f08c379a000000000000000000000000000000000000000000000000000000000815260040161087b90611259565b60405180910390fd5b600160009054906101000a900473ffffffffffffffffffffffffffffffffffffffff1673ffffffffffffffffffffffffffffffffffffffff168273ffffffffffffffffffffffffffffffffffffffff161415610915576040517f08c379a000000000000000000000000000000000000000000000000000000000815260040161090c906112d9565b60405180910390fd5b6000805b6003805490508110156109b0576003818154811061093a5761093961163a565b5b9060005260206000200160009054906101000a900473ffffffffffffffffffffffffffffffffffffffff1673ffffffffffffffffffffffffffffffffffffffff168473ffffffffffffffffffffffffffffffffffffffff16141561099d57600191505b80806109a890611564565b915050610919565b50806109f1576040517f08c379a00000000000000000000000000000000000000000000000000000000081526004016109e890611299565b60405180910390fd5b8015610aca5782600160006101000a81548173ffffffffffffffffffffffffffffffffffffffff021916908373ffffffffffffffffffffffffffffffffffffffff160217905550600560009054906101000a900473ffffffffffffffffffffffffffffffffffffffff1673ffffffffffffffffffffffffffffffffffffffff1663d5506adf8433306040518463ffffffff1660e01b8152600401610a97939291906111c3565b600060405180830381600087803b158015610ab157600080fd5b505af1158015610ac5573d6000803e3d6000fd5b505050505b505050565b600160009054906101000a900473ffffffffffffffffffffffffffffffffffffffff1673ffffffffffffffffffffffffffffffffffffffff163373ffffffffffffffffffffffffffffffffffffffff1614610b5f576040517f08c379a0000000000000000000000000000000000000000000000000000000008152600401610b5690611279565b60405180910390fd5b80600073ffffffffffffffffffffffffffffffffffffffff168173ffffffffffffffffffffffffffffffffffffffff161415610bd0576040517f08c379a0000000000000000000000000000000000000000000000000000000008152600401610bc790611259565b60405180910390fd5b600160009054906101000a900473ffffffffffffffffffffffffffffffffffffffff1673ffffffffffffffffffffffffffffffffffffffff168273ffffffffffffffffffffffffffffffffffffffff161415610c61576040517f08c379a0000000000000000000000000000000000000000000000000000000008152600401610c58906112f9565b60405180910390fd5b6000806000905060005b600380549050811015610d09578473ffffffffffffffffffffffffffffffffffffffff1660038281548110610ca357610ca261163a565b5b9060005260206000200160009054906101000a900473ffffffffffffffffffffffffffffffffffffffff1673ffffffffffffffffffffffffffffffffffffffff161415610cf65780925060019150610d09565b8080610d0190611564565b915050610c6b565b508015610e455760038281548110610d2457610d2361163a565b5b9060005260206000200160006101000a81549073ffffffffffffffffffffffffffffffffffffffff021916905560036001600380549050610d65919061142e565b81548110610d7657610d7561163a565b5b9060005260206000200160009054906101000a900473ffffffffffffffffffffffffffffffffffffffff1660038381548110610db557610db461163a565b5b9060005260206000200160006101000a81548173ffffffffffffffffffffffffffffffffffffffff021916908373ffffffffffffffffffffffffffffffffffffffff1602179055506003805480610e0f57610e0e61160b565b5b6001900381819060005260206000200160006101000a81549073ffffffffffffffffffffffffffffffffffffffff021916905590555b50505050565b600160009054906101000a900473ffffffffffffffffffffffffffffffffffffffff1681565b6000610e84610e7f846113ad565b611388565b90508083825260208201905082856020860282011115610ea757610ea661169d565b5b60005b85811015610ed75781610ebd8882610ee1565b845260208401935060208301925050600181019050610eaa565b5050509392505050565b600081359050610ef081611871565b92915050565b600082601f830112610f0b57610f0a611698565b5b8135610f1b848260208601610e71565b91505092915050565b600081359050610f3381611888565b92915050565b600060208284031215610f4f57610f4e6116a7565b5b6000610f5d84828501610ee1565b91505092915050565b600060208284031215610f7c57610f7b6116a7565b5b600082013567ffffffffffffffff811115610f9a57610f996116a2565b5b610fa684828501610ef6565b91505092915050565b600060208284031215610fc557610fc46116a7565b5b6000610fd384828501610f24565b91505092915050565b6000610fe88383610ff4565b60208301905092915050565b610ffd81611462565b82525050565b61100c81611462565b82525050565b600061101d826113e9565b611027818561140c565b9350611032836113d9565b8060005b8381101561106357815161104a8882610fdc565b9750611055836113ff565b925050600181019050611036565b5085935050505092915050565b61107981611474565b82525050565b611088816114aa565b82525050565b6000611099826113f4565b6110a3818561141d565b93506110b38185602086016114ce565b6110bc816116ac565b840191505092915050565b60006110d4601e8361141d565b91506110df826116bd565b602082019050919050565b60006110f760228361141d565b9150611102826116e6565b604082019050919050565b600061111a602b8361141d565b915061112582611735565b604082019050919050565b600061113d60268361141d565b915061114882611784565b604082019050919050565b600061116060268361141d565b915061116b826117d3565b604082019050919050565b6000611183602b8361141d565b915061118e82611822565b604082019050919050565b6111a2816114a0565b82525050565b60006020820190506111bd6000830184611003565b92915050565b60006060820190506111d86000830186611003565b6111e56020830185611003565b6111f26040830184611003565b949350505050565b600060208201905081810360008301526112148184611012565b905092915050565b6000602082019050611231600083018461107f565b92915050565b60006020820190508181036000830152611251818461108e565b905092915050565b60006020820190508181036000830152611272816110c7565b9050919050565b60006020820190508181036000830152611292816110ea565b9050919050565b600060208201905081810360008301526112b28161110d565b9050919050565b600060208201905081810360008301526112d281611130565b9050919050565b600060208201905081810360008301526112f281611153565b9050919050565b6000602082019050818103600083015261131281611176565b9050919050565b600060c08201905061132e6000830189611199565b8181036020830152611340818861108e565b905061134f6040830187611199565b61135c6060830186611199565b818103608083015261136e818561108e565b905061137d60a0830184611070565b979650505050505050565b60006113926113a3565b905061139e8282611533565b919050565b6000604051905090565b600067ffffffffffffffff8211156113c8576113c7611669565b5b602082029050602081019050919050565b6000819050602082019050919050565b600081519050919050565b600081519050919050565b6000602082019050919050565b600082825260208201905092915050565b600082825260208201905092915050565b6000611439826114a0565b9150611444836114a0565b925082821015611457576114566115ad565b5b828203905092915050565b600061146d82611480565b9050919050565b60008115159050919050565b600073ffffffffffffffffffffffffffffffffffffffff82169050919050565b6000819050919050565b60006114b5826114bc565b9050919050565b60006114c782611480565b9050919050565b60005b838110156114ec5780820151818401526020810190506114d1565b838111156114fb576000848401525b50505050565b6000600282049050600182168061151957607f821691505b6020821081141561152d5761152c6115dc565b5b50919050565b61153c826116ac565b810181811067ffffffffffffffff8211171561155b5761155a611669565b5b80604052505050565b600061156f826114a0565b91507fffffffffffffffffffffffffffffffffffffffffffffffffffffffffffffffff8214156115a2576115a16115ad565b5b600182019050919050565b7f4e487b7100000000000000000000000000000000000000000000000000000000600052601160045260246000fd5b7f4e487b7100000000000000000000000000000000000000000000000000000000600052602260045260246000fd5b7f4e487b7100000000000000000000000000000000000000000000000000000000600052603160045260246000fd5b7f4e487b7100000000000000000000000000000000000000000000000000000000600052603260045260246000fd5b7f4e487b7100000000000000000000000000000000000000000000000000000000600052604160045260246000fd5b600080fd5b600080fd5b600080fd5b600080fd5b6000601f19601f8301169050919050565b7f412076616c69642061646472657373206d757374206265207061737365640000600082015250565b7f4f6e6c792061646d696e206d617920706572666f726d2074686973206163746960008201527f6f6e000000000000000000000000000000000000000000000000000000000000602082015250565b7f4e65772061646d696e206d75737420626520616e20616c72656164792061707060008201527f726f76656420766f746572000000000000000000000000000000000000000000602082015250565b7f4d757374206e6f74207061737320656d707479206172726179206f662061646460008201527f7265737365730000000000000000000000000000000000000000000000000000602082015250565b7f43616e6e6f74207265706c6163652061646d696e20776974682073616d65206160008201527f6464726573730000000000000000000000000000000000000000000000000000602082015250565b7f41646d696e206d6179206e6f742062652072656d6f7665642066726f6d20617060008201527f70726f766564206c697374000000000000000000000000000000000000000000602082015250565b61187a81611462565b811461188557600080fd5b50565b611891816114a0565b811461189c57600080fd5b5056fea2646970667358221220fe440793b8e2b498176b514b92d61207a14fa87d42b52d8af086da333552bf8164736f6c63430008060033a2646970667358221220921ba7ebd230f6538092df246dda5d6a71fee34078593287e76b57e861a5d2b764736f6c63430008060033",
  "immutableReferences": {},
  "source": "pragma solidity ^0.8.6;\n\nimport \"./VotingContract.sol\";\n\ncontract CreatorContract {\n    struct ContractRef {\n        address _address;\n        string name;\n    }\n\n    event Debug (\n        uint a,\n        string description\n    );\n\n    event ContractCreated (\n        address _address,\n        uint index\n    );\n\n    // Map of user address and the contracts they've created\n    mapping(address => ContractRef[]) public contractMap;\n\n    function createContract(string calldata name) external stringLength(name) {\n        // Creates new instance of voting contract\n        VotingContract newVotingContract = new VotingContract(name, msg.sender, address(this));\n        address contractAddr = address(newVotingContract);\n        // saves a reference of the new voting contract \n        ContractRef memory ref = ContractRef(contractAddr, newVotingContract.name());\n        // stores contract reference under creator's mapping\n        contractMap[msg.sender].push(ref);\n\n        emit ContractCreated(contractAddr, contractMap[msg.sender].length -1);\n    }\n\n    /* Want to remove a VotingContract. Not sure if possible. \n    I can delete the reference to it, but the SC would still exist\n    in the EVM */\n\n    function updateContractAdmin(\n        address newAdmin, \n        address oldAdmin, \n        address contractAddr) \n        external\n        onlyAdmin(oldAdmin, contractAddr) {\n            // reference to admin's array of contractRefs\n            ContractRef[] memory contractRefs = contractMap[oldAdmin];\n            // Store particular ContractRef if found\n            uint contractIndex;\n            bool foundContract = false;\n\n            for(uint i = 0; i < contractRefs.length; i++){\n                ContractRef memory current = contractRefs[i];\n                if(current._address == contractAddr){\n                    // stores particular ContractRef to local var\n                    // contractRef = current;\n                    contractIndex = i;\n                    // delete contractRefs[i];\n                    foundContract = true;\n                    break;\n                }\n            }\n\n            /* if  contract was found inside forloop, \n            adds contractRef to newAdmin's map */\n            if(foundContract) {\n                ContractRef memory contractRef = ContractRef(\n                    contractRefs[contractIndex]._address,\n                    contractRefs[contractIndex].name\n                );\n                delete contractRefs[contractIndex];\n                \n                // contractMap[newAdmin].push(contractRef);\n                // emit ContractCreated(contractRef._address, \n                //     contractMap[newAdmin].length -1\n                // );\n            }\n        \n    }\n\n    function addContract(address _address, ContractRef memory ref) internal {\n        contractMap[_address].push(ref);\n    }\n\n    function updateContract(\n        string calldata newName,\n        address admin, \n        address contractAddr) \n        external\n        onlyAdmin(admin, contractAddr)\n        stringLength(newName) {\n            ContractRef[] storage contractRefs = contractMap[admin];\n\n            for(uint i = 0; i < contractRefs.length; i++){\n                ContractRef storage current = contractRefs[i];\n                if(current._address == contractAddr){\n                    current.name = newName;\n                    break;\n                }\n            }        \n    }\n\n    modifier onlyAdmin(address sender, address contractAddr) {\n        bool isAdmin = false;\n        ContractRef[] memory refs = contractMap[sender];\n        for(uint i = 0; i < refs.length; i++){\n            ContractRef memory current = refs[i];\n            if(current._address == contractAddr){\n                isAdmin = true;\n            }\n        }\n        require(isAdmin, \"Only admin can perform this action\");\n        _;\n    }\n\n    modifier stringLength(string calldata str) {\n        // emit Debug(bytes(str).length, str);\n        require(bytes(str).length > 0, \"String parameter must be of a valid length\");\n        _;\n    }\n\n}",
  "sourcePath": "/home/odon/code/bloc/self-directed/vote_per_organization/backend/contracts/CreatorContract.sol",
  "compiler": {
    "name": "solc",
    "version": "0.8.6+commit.11564f7e.Emscripten.clang"
  },
  "schemaVersion": "3.4.1",
  "updatedAt": "2021-07-31T16:51:44.320Z",
  "networkType": "ethereum",
  "devdoc": {
    "kind": "dev",
    "methods": {},
    "version": 1
  },
  "userdoc": {
    "kind": "user",
    "methods": {},
    "version": 1
  }
}