{
  "contractName": "VotingContract",
  "abi": [
    {
      "inputs": [
        {
          "internalType": "string",
          "name": "_name",
          "type": "string"
        },
        {
          "internalType": "address",
          "name": "tokenAddr",
          "type": "address"
        }
      ],
      "stateMutability": "nonpayable",
      "type": "constructor"
    },
    {
      "anonymous": false,
      "inputs": [
        {
          "indexed": false,
          "internalType": "uint256",
          "name": "contractIndex",
          "type": "uint256"
        }
      ],
      "name": "AdminUpdated",
      "type": "event"
    },
    {
      "anonymous": false,
      "inputs": [
        {
          "indexed": false,
          "internalType": "string",
          "name": "description",
          "type": "string"
        }
      ],
      "name": "Debug",
      "type": "event"
    },
    {
      "anonymous": false,
      "inputs": [
        {
          "indexed": false,
          "internalType": "uint256",
          "name": "id",
          "type": "uint256"
        },
        {
          "indexed": false,
          "internalType": "string",
          "name": "issue",
          "type": "string"
        }
      ],
      "name": "PollCreated",
      "type": "event"
    },
    {
      "anonymous": false,
      "inputs": [
        {
          "indexed": false,
          "internalType": "uint256",
          "name": "tokenId",
          "type": "uint256"
        },
        {
          "indexed": false,
          "internalType": "address",
          "name": "owner",
          "type": "address"
        },
        {
          "indexed": false,
          "internalType": "string",
          "name": "contractAddr",
          "type": "string"
        }
      ],
      "name": "TokenCreated",
      "type": "event"
    },
    {
      "anonymous": false,
      "inputs": [
        {
          "indexed": false,
          "internalType": "uint256",
          "name": "pollId",
          "type": "uint256"
        },
        {
          "indexed": false,
          "internalType": "uint256",
          "name": "optionId",
          "type": "uint256"
        },
        {
          "indexed": false,
          "internalType": "address",
          "name": "voter",
          "type": "address"
        },
        {
          "indexed": false,
          "internalType": "bool",
          "name": "decided",
          "type": "bool"
        }
      ],
      "name": "VoteCasted",
      "type": "event"
    },
    {
      "inputs": [],
      "name": "accessToken",
      "outputs": [
        {
          "internalType": "contract AccessToken",
          "name": "",
          "type": "address"
        }
      ],
      "stateMutability": "view",
      "type": "function",
      "constant": true
    },
    {
      "inputs": [
        {
          "internalType": "uint256",
          "name": "",
          "type": "uint256"
        }
      ],
      "name": "approvedTokens",
      "outputs": [
        {
          "internalType": "uint256",
          "name": "tokenId",
          "type": "uint256"
        },
        {
          "internalType": "bool",
          "name": "isAdmin",
          "type": "bool"
        }
      ],
      "stateMutability": "view",
      "type": "function",
      "constant": true
    },
    {
      "inputs": [],
      "name": "name",
      "outputs": [
        {
          "internalType": "string",
          "name": "",
          "type": "string"
        }
      ],
      "stateMutability": "view",
      "type": "function",
      "constant": true
    },
    {
      "inputs": [
        {
          "internalType": "uint256",
          "name": "",
          "type": "uint256"
        }
      ],
      "name": "polls",
      "outputs": [
        {
          "internalType": "uint256",
          "name": "id",
          "type": "uint256"
        },
        {
          "internalType": "string",
          "name": "issue",
          "type": "string"
        },
        {
          "internalType": "int256",
          "name": "result",
          "type": "int256"
        }
      ],
      "stateMutability": "view",
      "type": "function",
      "constant": true
    },
    {
      "inputs": [
        {
          "internalType": "address",
          "name": "",
          "type": "address"
        }
      ],
      "name": "tokenOwners",
      "outputs": [
        {
          "internalType": "uint256",
          "name": "tokenId",
          "type": "uint256"
        },
        {
          "internalType": "bool",
          "name": "isAdmin",
          "type": "bool"
        }
      ],
      "stateMutability": "view",
      "type": "function",
      "constant": true
    },
    {
      "inputs": [
        {
          "internalType": "uint256",
          "name": "tokenId",
          "type": "uint256"
        }
      ],
      "name": "getAccessRef",
      "outputs": [
        {
          "components": [
            {
              "internalType": "uint256",
              "name": "tokenId",
              "type": "uint256"
            },
            {
              "internalType": "bool",
              "name": "isAdmin",
              "type": "bool"
            }
          ],
          "internalType": "struct VotingContract.AccessRef",
          "name": "",
          "type": "tuple"
        }
      ],
      "stateMutability": "view",
      "type": "function",
      "constant": true
    },
    {
      "inputs": [],
      "name": "getOwnerToken",
      "outputs": [
        {
          "components": [
            {
              "internalType": "uint256",
              "name": "tokenId",
              "type": "uint256"
            },
            {
              "internalType": "bool",
              "name": "isAdmin",
              "type": "bool"
            }
          ],
          "internalType": "struct VotingContract.AccessRef",
          "name": "",
          "type": "tuple"
        }
      ],
      "stateMutability": "view",
      "type": "function",
      "constant": true
    },
    {
      "inputs": [
        {
          "internalType": "uint256",
          "name": "pollId",
          "type": "uint256"
        }
      ],
      "name": "getPoll",
      "outputs": [
        {
          "components": [
            {
              "internalType": "uint256",
              "name": "id",
              "type": "uint256"
            },
            {
              "internalType": "string",
              "name": "issue",
              "type": "string"
            },
            {
              "internalType": "address[]",
              "name": "voters",
              "type": "address[]"
            },
            {
              "internalType": "string[]",
              "name": "options",
              "type": "string[]"
            },
            {
              "internalType": "uint256[]",
              "name": "results",
              "type": "uint256[]"
            },
            {
              "internalType": "int256",
              "name": "result",
              "type": "int256"
            }
          ],
          "internalType": "struct VotingContract.Poll[1]",
          "name": "",
          "type": "tuple[1]"
        }
      ],
      "stateMutability": "view",
      "type": "function",
      "constant": true
    },
    {
      "inputs": [
        {
          "internalType": "string",
          "name": "contractAddr",
          "type": "string"
        }
      ],
      "name": "generateAdmin",
      "outputs": [],
      "stateMutability": "nonpayable",
      "type": "function"
    },
    {
      "inputs": [
        {
          "internalType": "address",
          "name": "approved",
          "type": "address"
        },
        {
          "internalType": "string",
          "name": "contractAddr",
          "type": "string"
        }
      ],
      "name": "generateAccessToken",
      "outputs": [],
      "stateMutability": "nonpayable",
      "type": "function"
    }
  ],
  "bytecode": "0x60806040523480156200001157600080fd5b506040516200218a3803806200218a8339818101604052810190620000379190620001de565b81600090805190602001906200004f92919062000099565b5080600760006101000a81548173ffffffffffffffffffffffffffffffffffffffff021916908373ffffffffffffffffffffffffffffffffffffffff160217905550505062000416565b828054620000a7906200030d565b90600052602060002090601f016020900481019282620000cb576000855562000117565b82601f10620000e657805160ff191683800117855562000117565b8280016001018555821562000117579182015b8281111562000116578251825591602001919060010190620000f9565b5b5090506200012691906200012a565b5090565b5b80821115620001455760008160009055506001016200012b565b5090565b6000620001606200015a846200026d565b62000244565b9050828152602081018484840111156200017f576200017e620003dc565b5b6200018c848285620002d7565b509392505050565b600081519050620001a581620003fc565b92915050565b600082601f830112620001c357620001c2620003d7565b5b8151620001d584826020860162000149565b91505092915050565b60008060408385031215620001f857620001f7620003e6565b5b600083015167ffffffffffffffff811115620002195762000218620003e1565b5b6200022785828601620001ab565b92505060206200023a8582860162000194565b9150509250929050565b60006200025062000263565b90506200025e828262000343565b919050565b6000604051905090565b600067ffffffffffffffff8211156200028b576200028a620003a8565b5b6200029682620003eb565b9050602081019050919050565b6000620002b082620002b7565b9050919050565b600073ffffffffffffffffffffffffffffffffffffffff82169050919050565b60005b83811015620002f7578082015181840152602081019050620002da565b8381111562000307576000848401525b50505050565b600060028204905060018216806200032657607f821691505b602082108114156200033d576200033c62000379565b5b50919050565b6200034e82620003eb565b810181811067ffffffffffffffff8211171562000370576200036f620003a8565b5b80604052505050565b7f4e487b7100000000000000000000000000000000000000000000000000000000600052602260045260246000fd5b7f4e487b7100000000000000000000000000000000000000000000000000000000600052604160045260246000fd5b600080fd5b600080fd5b600080fd5b600080fd5b6000601f19601f8301169050919050565b6200040781620002a3565b81146200041357600080fd5b50565b611d6480620004266000396000f3fe608060405234801561001057600080fd5b506004361061009e5760003560e01c8063ac2f007411610066578063ac2f00741461015a578063ad79e94b1461018c578063bc7c5eef146101bd578063e243c5fb146101ed578063f941c01a1461020b5761009e565b806306fdde03146100a35780631a8cbcaa146100c15780631dafede0146100f157806343148fb314610122578063842f564a1461013e575b600080fd5b6100ab610229565b6040516100b891906117ab565b60405180910390f35b6100db60048036038101906100d69190611264565b6102b7565b6040516100e8919061176e565b60405180910390f35b61010b60048036038101906101069190611264565b61055d565b6040516101199291906118a1565b60405180910390f35b61013c600480360381019061013791906111d2565b61058e565b005b61015860048036038101906101539190611176565b610864565b005b610174600480360381019061016f9190611264565b610dd4565b604051610183939291906118ca565b60405180910390f35b6101a660048036038101906101a19190611149565b610e86565b6040516101b49291906118a1565b60405180910390f35b6101d760048036038101906101d29190611264565b610eb7565b6040516101e4919061182d565b60405180910390f35b6101f5610f09565b6040516102029190611790565b60405180910390f35b610213610f2f565b604051610220919061182d565b60405180910390f35b6000805461023690611b2d565b80601f016020809104026020016040519081016040528092919081815260200182805461026290611b2d565b80156102af5780601f10610284576101008083540402835291602001916102af565b820191906000526020600020905b81548152906001019060200180831161029257829003601f168201915b505050505081565b6102bf610fab565b60006040518060200160405280600360008681526020019081526020016000206040518060c00160405290816000820154815260200160018201805461030490611b2d565b80601f016020809104026020016040519081016040528092919081815260200182805461033090611b2d565b801561037d5780601f106103525761010080835404028352916020019161037d565b820191906000526020600020905b81548152906001019060200180831161036057829003601f168201915b505050505081526020016002820180548060200260200160405190810160405280929190818152602001828054801561040b57602002820191906000526020600020905b8160009054906101000a900473ffffffffffffffffffffffffffffffffffffffff1673ffffffffffffffffffffffffffffffffffffffff16815260200190600101908083116103c1575b5050505050815260200160038201805480602002602001604051908101604052809291908181526020016000905b828210156104e557838290600052602060002001805461045890611b2d565b80601f016020809104026020016040519081016040528092919081815260200182805461048490611b2d565b80156104d15780601f106104a6576101008083540402835291602001916104d1565b820191906000526020600020905b8154815290600101906020018083116104b457829003601f168201915b505050505081526020019060010190610439565b5050505081526020016004820180548060200260200160405190810160405280929190818152602001828054801561053c57602002820191906000526020600020905b815481526020019060010190808311610528575b50505050508152602001600582015481525050815250905080915050919050565b60046020528060005260406000206000915090508060000154908060010160009054906101000a900460ff16905082565b600160009054906101000a900460ff16156105de576040517f08c379a00000000000000000000000000000000000000000000000000000000081526004016105d5906117ed565b60405180910390fd5b6000600760009054906101000a900473ffffffffffffffffffffffffffffffffffffffff1673ffffffffffffffffffffffffffffffffffffffff16633d02d0c933846040518363ffffffff1660e01b815260040161063d92919061173e565b602060405180830381600087803b15801561065757600080fd5b505af115801561066b573d6000803e3d6000fd5b505050506040513d601f19601f8201168201806040525081019061068f9190611291565b90506000604051806040016040528083815260200160011515815250905080600460008481526020019081526020016000206000820151816000015560208201518160010160006101000a81548160ff02191690831515021790555090505080600560003373ffffffffffffffffffffffffffffffffffffffff1673ffffffffffffffffffffffffffffffffffffffff1681526020019081526020016000206000820151816000015560208201518160010160006101000a81548160ff02191690831515021790555090505060018060006101000a81548160ff0219169083151502179055507f82a09cc58c9cecf0eb61d8994283ec804165931801f8b77e42dcb3b556c5c5be8233600760009054906101000a900473ffffffffffffffffffffffffffffffffffffffff1673ffffffffffffffffffffffffffffffffffffffff1663c87b56dd866040518263ffffffff1660e01b81526004016107f39190611848565b60006040518083038186803b15801561080b57600080fd5b505afa15801561081f573d6000803e3d6000fd5b505050506040513d6000823e3d601f19601f82011682018060405250810190610848919061121b565b60405161085793929190611863565b60405180910390a1505050565b6000600760009054906101000a900473ffffffffffffffffffffffffffffffffffffffff1673ffffffffffffffffffffffffffffffffffffffff166370a08231336040518263ffffffff1660e01b81526004016108c191906116fa565b60206040518083038186803b1580156108d957600080fd5b505afa1580156108ed573d6000803e3d6000fd5b505050506040513d601f19601f820116820180604052508101906109119190611291565b905060018114610956576040517f08c379a000000000000000000000000000000000000000000000000000000000815260040161094d906117cd565b60405180910390fd5b6000600760009054906101000a900473ffffffffffffffffffffffffffffffffffffffff1673ffffffffffffffffffffffffffffffffffffffff16632f745c593360006040518363ffffffff1660e01b81526004016109b6929190611715565b60206040518083038186803b1580156109ce57600080fd5b505afa1580156109e2573d6000803e3d6000fd5b505050506040513d601f19601f82011682018060405250810190610a069190611291565b9050600115156004600083815260200190815260200160002060010160009054906101000a900460ff16151514610a72576040517f08c379a0000000000000000000000000000000000000000000000000000000008152600401610a69906117cd565b60405180910390fd5b6000600760009054906101000a900473ffffffffffffffffffffffffffffffffffffffff1673ffffffffffffffffffffffffffffffffffffffff166370a08231866040518263ffffffff1660e01b8152600401610acf91906116fa565b60206040518083038186803b158015610ae757600080fd5b505afa158015610afb573d6000803e3d6000fd5b505050506040513d601f19601f82011682018060405250810190610b1f9190611291565b905060008114610b64576040517f08c379a0000000000000000000000000000000000000000000000000000000008152600401610b5b9061180d565b60405180910390fd5b6000600760009054906101000a900473ffffffffffffffffffffffffffffffffffffffff1673ffffffffffffffffffffffffffffffffffffffff16633d02d0c987876040518363ffffffff1660e01b8152600401610bc392919061173e565b602060405180830381600087803b158015610bdd57600080fd5b505af1158015610bf1573d6000803e3d6000fd5b505050506040513d601f19601f82011682018060405250810190610c159190611291565b90506000604051806040016040528083815260200160001515815250905080600460008481526020019081526020016000206000820151816000015560208201518160010160006101000a81548160ff02191690831515021790555090505080600560008973ffffffffffffffffffffffffffffffffffffffff1673ffffffffffffffffffffffffffffffffffffffff1681526020019081526020016000206000820151816000015560208201518160010160006101000a81548160ff0219169083151502179055509050507f82a09cc58c9cecf0eb61d8994283ec804165931801f8b77e42dcb3b556c5c5be8288600760009054906101000a900473ffffffffffffffffffffffffffffffffffffffff1673ffffffffffffffffffffffffffffffffffffffff1663c87b56dd866040518263ffffffff1660e01b8152600401610d5f9190611848565b60006040518083038186803b158015610d7757600080fd5b505afa158015610d8b573d6000803e3d6000fd5b505050506040513d6000823e3d601f19601f82011682018060405250810190610db4919061121b565b604051610dc393929190611863565b60405180910390a150505050505050565b6003602052806000526040600020600091509050806000015490806001018054610dfd90611b2d565b80601f0160208091040260200160405190810160405280929190818152602001828054610e2990611b2d565b8015610e765780601f10610e4b57610100808354040283529160200191610e76565b820191906000526020600020905b815481529060010190602001808311610e5957829003601f168201915b5050505050908060050154905083565b60056020528060005260406000206000915090508060000154908060010160009054906101000a900460ff16905082565b610ebf610fd8565b60046000838152602001908152602001600020604051806040016040529081600082015481526020016001820160009054906101000a900460ff1615151515815250509050919050565b600760009054906101000a900473ffffffffffffffffffffffffffffffffffffffff1681565b610f37610fd8565b600560003373ffffffffffffffffffffffffffffffffffffffff1673ffffffffffffffffffffffffffffffffffffffff168152602001908152602001600020604051806040016040529081600082015481526020016001820160009054906101000a900460ff161515151581525050905090565b60405180602001604052806001905b610fc2610ff4565b815260200190600190039081610fba5790505090565b6040518060400160405280600081526020016000151581525090565b6040518060c001604052806000815260200160608152602001606081526020016060815260200160608152602001600081525090565b600061103d6110388461192d565b611908565b90508281526020810184848401111561105957611058611bf3565b5b611064848285611aeb565b509392505050565b600061107f61107a8461192d565b611908565b90508281526020810184848401111561109b5761109a611bf3565b5b6110a6848285611afa565b509392505050565b6000813590506110bd81611d00565b92915050565b600082601f8301126110d8576110d7611bee565b5b81356110e884826020860161102a565b91505092915050565b600082601f83011261110657611105611bee565b5b815161111684826020860161106c565b91505092915050565b60008135905061112e81611d17565b92915050565b60008151905061114381611d17565b92915050565b60006020828403121561115f5761115e611bfd565b5b600061116d848285016110ae565b91505092915050565b6000806040838503121561118d5761118c611bfd565b5b600061119b858286016110ae565b925050602083013567ffffffffffffffff8111156111bc576111bb611bf8565b5b6111c8858286016110c3565b9150509250929050565b6000602082840312156111e8576111e7611bfd565b5b600082013567ffffffffffffffff81111561120657611205611bf8565b5b611212848285016110c3565b91505092915050565b60006020828403121561123157611230611bfd565b5b600082015167ffffffffffffffff81111561124f5761124e611bf8565b5b61125b848285016110f1565b91505092915050565b60006020828403121561127a57611279611bfd565b5b60006112888482850161111f565b91505092915050565b6000602082840312156112a7576112a6611bfd565b5b60006112b584828501611134565b91505092915050565b60006112ca8383611316565b60208301905092915050565b60006112e28383611534565b905092915050565b60006112f6838361163e565b905092915050565b600061130a83836116dc565b60208301905092915050565b61131f81611a63565b82525050565b61132e81611a63565b82525050565b600061133f82611998565b6113498185611a03565b93506113548361195e565b8060005b8381101561138557815161136c88826112be565b9750611377836119cf565b925050600181019050611358565b5085935050505092915050565b600061139d826119a3565b6113a78185611a14565b9350836020820285016113b98561196e565b8060005b858110156113f557848403895281516113d685826112d6565b94506113e1836119dc565b925060208a019950506001810190506113bd565b50829750879550505050505092915050565b6000611412826119ae565b61141c8185611a25565b93508360208202850161142e8561197e565b8060005b8581101561146a578484038952815161144b85826112ea565b9450611456836119e9565b925060208a01995050600181019050611432565b50829750879550505050505092915050565b6000611487826119b9565b6114918185611a30565b935061149c83611988565b8060005b838110156114cd5781516114b488826112fe565b97506114bf836119f6565b9250506001810190506114a0565b5085935050505092915050565b6114e381611a75565b82525050565b6114f281611a75565b82525050565b61150181611ab5565b82525050565b61151081611a81565b82525050565b61151f81611a81565b82525050565b61152e81611ad9565b82525050565b600061153f826119c4565b6115498185611a41565b9350611559818560208601611afa565b61156281611c02565b840191505092915050565b6000611578826119c4565b6115828185611a52565b9350611592818560208601611afa565b61159b81611c02565b840191505092915050565b60006115b3602283611a52565b91506115be82611c13565b604082019050919050565b60006115d6602683611a52565b91506115e182611c62565b604082019050919050565b60006115f9602883611a52565b915061160482611cb1565b604082019050919050565b60408201600082015161162560008501826116dc565b50602082015161163860208501826114da565b50505050565b600060c08301600083015161165660008601826116dc565b506020830151848203602086015261166e8282611534565b915050604083015184820360408601526116888282611334565b915050606083015184820360608601526116a28282611392565b915050608083015184820360808601526116bc828261147c565b91505060a08301516116d160a0860182611507565b508091505092915050565b6116e581611aab565b82525050565b6116f481611aab565b82525050565b600060208201905061170f6000830184611325565b92915050565b600060408201905061172a6000830185611325565b6117376020830184611525565b9392505050565b60006040820190506117536000830185611325565b8181036020830152611765818461156d565b90509392505050565b600060208201905081810360008301526117888184611407565b905092915050565b60006020820190506117a560008301846114f8565b92915050565b600060208201905081810360008301526117c5818461156d565b905092915050565b600060208201905081810360008301526117e6816115a6565b9050919050565b60006020820190508181036000830152611806816115c9565b9050919050565b60006020820190508181036000830152611826816115ec565b9050919050565b6000604082019050611842600083018461160f565b92915050565b600060208201905061185d60008301846116eb565b92915050565b600060608201905061187860008301866116eb565b6118856020830185611325565b8181036040830152611897818461156d565b9050949350505050565b60006040820190506118b660008301856116eb565b6118c360208301846114e9565b9392505050565b60006060820190506118df60008301866116eb565b81810360208301526118f1818561156d565b90506119006040830184611516565b949350505050565b6000611912611923565b905061191e8282611b5f565b919050565b6000604051905090565b600067ffffffffffffffff82111561194857611947611bbf565b5b61195182611c02565b9050602081019050919050565b6000819050602082019050919050565b6000819050602082019050919050565b6000819050919050565b6000819050602082019050919050565b600081519050919050565b600081519050919050565b600060019050919050565b600081519050919050565b600081519050919050565b6000602082019050919050565b6000602082019050919050565b6000602082019050919050565b6000602082019050919050565b600082825260208201905092915050565b600082825260208201905092915050565b600081905092915050565b600082825260208201905092915050565b600082825260208201905092915050565b600082825260208201905092915050565b6000611a6e82611a8b565b9050919050565b60008115159050919050565b6000819050919050565b600073ffffffffffffffffffffffffffffffffffffffff82169050919050565b6000819050919050565b6000611ac082611ac7565b9050919050565b6000611ad282611a8b565b9050919050565b6000611ae482611aab565b9050919050565b82818337600083830152505050565b60005b83811015611b18578082015181840152602081019050611afd565b83811115611b27576000848401525b50505050565b60006002820490506001821680611b4557607f821691505b60208210811415611b5957611b58611b90565b5b50919050565b611b6882611c02565b810181811067ffffffffffffffff82111715611b8757611b86611bbf565b5b80604052505050565b7f4e487b7100000000000000000000000000000000000000000000000000000000600052602260045260246000fd5b7f4e487b7100000000000000000000000000000000000000000000000000000000600052604160045260246000fd5b600080fd5b600080fd5b600080fd5b600080fd5b6000601f19601f8301169050919050565b7f4f6e6c792061646d696e206d617920706572666f726d2074686973206163746960008201527f6f6e000000000000000000000000000000000000000000000000000000000000602082015250565b7f41646d696e20616c72656164792065786973747320666f72207468697320636f60008201527f6e74726163740000000000000000000000000000000000000000000000000000602082015250565b7f416e2061646472657373206d6179206f6e6c79206f776e206f6e65204163636560008201527f737320546f6b656e000000000000000000000000000000000000000000000000602082015250565b611d0981611a63565b8114611d1457600080fd5b50565b611d2081611aab565b8114611d2b57600080fd5b5056fea26469706673582212201d9b320e49a466e355554538505cbc81701bda0f5b5b69a3887390a20838281d64736f6c63430008060033",
  "immutableReferences": {},
  "source": "// SPDX-License-Identifier: UNLICENSED\npragma solidity ^0.8.6;\n\nimport \"./AccessToken.sol\";\n\ncontract VotingContract {\n\n    /* I figure having these events is good practice\n    but i'm not sure if there are more things I should \n    include to make it a complete event or whatever.\n    Still just a young padawan. */\n    event TokenCreated (\n        uint tokenId,\n        address owner,\n        string contractAddr\n    );\n\n    event PollCreated(\n        uint id,\n        string issue\n    );\n\n    event VoteCasted(\n        uint pollId,\n        uint optionId,\n        address voter,\n        bool decided\n    );\n\n    event AdminUpdated(\n        uint contractIndex\n    );\n\n    event Debug(\n        string description\n    );\n\n    // Admin can create multiple polls for their organization to vote on\n    /* I wanted to have a mapping of uint => OptionStruct\n    but could NOT get it to work so I'm working with a \n    more rudimentary approached. While not as sophisticated,\n    it works and that's what makes me happy. This is my first\n    real capstone project so I can't try and get too fancy */ \n    struct Poll {\n        uint id;\n        // issue on which voters are deciding on\n        string issue;\n        address[] voters;\n        string[] options;\n        uint[] results;\n        // If -1, no result has been determined.\n        // If other number, index of option won.\n        int result;\n    }\n\n    struct AccessRef {\n        uint tokenId;\n        bool isAdmin;\n    }\n    \n    string public name;\n    bool adminExists;\n    uint numPolls;\n    mapping(uint => Poll) public polls;\n    mapping(uint => AccessRef) public approvedTokens;\n    mapping(address => AccessRef) public tokenOwners;\n    // stores whether voter has voted in a particular poll\n    // mapping(voterAddress => mapping(pollId => bool))\n    mapping(address => mapping(uint => bool)) hasVoted;\n    AccessToken public accessToken;\n    \n\n    constructor(string memory _name, address tokenAddr) {\n        name = _name;\n        accessToken = AccessToken(tokenAddr);\n    }\n\n    function getAccessRef(uint tokenId) external view returns(AccessRef memory){\n        return approvedTokens[tokenId];\n    }\n\n    function getOwnerToken() external view returns(AccessRef memory){\n        return tokenOwners[msg.sender];\n    }\n\n    function getPoll(uint pollId) external view returns(Poll[1] memory) {\n        /* Using this as a workaround to retrieve a particular, \n        since Poll doesn't return arrays within struct when \n        call mapping polls() function. Would like to know \n        if there's a better way to accomplish this */\n        Poll[1] memory pollArr = [polls[pollId]];\n        return pollArr;\n    }\n\n    function generateAdmin(string memory contractAddr) external {\n        require(!adminExists, \"Admin already exists for this contract\");\n        uint tokenId = accessToken.mintToken(msg.sender, contractAddr);\n        AccessRef memory ar = AccessRef(\n            tokenId,\n            true\n        );\n        approvedTokens[tokenId] = ar;\n        tokenOwners[msg.sender] = ar;    \n        adminExists = true;\n        emit TokenCreated(tokenId, msg.sender, accessToken.tokenURI(tokenId));\n    }\n\n\n    function generateAccessToken(address approved, string memory contractAddr) external onlyAdmin() {\n        uint balanceOf = accessToken.balanceOf(approved);\n        require(balanceOf == 0, \n        \"An address may only own one Access Token\");\n        uint tokenId = accessToken.mintToken(approved, contractAddr);\n        AccessRef memory ar = AccessRef(\n        tokenId,\n        false\n        );\n        approvedTokens[tokenId] = ar;\n        tokenOwners[approved] = ar;\n        emit TokenCreated(tokenId, approved, accessToken.tokenURI(tokenId));\n    }\n\n    // function removeApprovedVoter(address unapproved) external onlyAdmin() validAddress(unapproved) {                \n    //     require(unapproved != admin, \"Admin may not be removed from approved list\");\n        \n    //     uint unapprovedIndex;\n    //     bool foundIndex = false;\n        \n    //     for(uint i = 0; i < approved.length; i++){\n    //         if(approved[i] == unapproved){\n    //             unapprovedIndex = i;\n    //             foundIndex = true;\n    //             // stops forLoop if found index of unapproved\n    //             break;\n    //         }\n    //     }\n\n    //     if(foundIndex){\n    //         delete approved[unapprovedIndex];\n    //         // replaces deleted spot with last element of array\n    //         /* I questionn whether i need to explicitly delete\n    //         the unapprovedIndex element as i do above or if i \n    //         can just skip straight to replacing it as i do below */\n    //         approved[unapprovedIndex] = approved[approved.length - 1];\n    //         /* then removes last element from array to ensure the replacer \n    //         approved address doesn't show up twice in array */\n    //         approved.pop();\n    //     }\n    // }\n\n    // /* This updates who is the current admin. there may only be \n    // one admin per VotingContract */\n    // // Purposely requiring that newAdmin is an approvedAddress for safety\n    // function updateAdmin(address newAdmin) external onlyAdmin() validAddress(newAdmin) {\n    //     require(newAdmin != admin, \"Cannot replace admin with same address\");\n\n    //     // address oldAdmin = admin;\n    //     bool newAdminIsApproved = false;\n\n    //     // checks if newAdmin is already approved\n    //     for(uint i = 0; i < approved.length; i++){\n    //         if(newAdmin == approved[i]){\n    //             newAdminIsApproved = true;\n    //         }\n    //     }\n\n    //     require(newAdminIsApproved, \n    //         \"New admin must be an already approved voter\");\n\n    //     // newAdmin is added only if they are already an approved voter\n    //     // redundant check after the above require statement \n    //     if(newAdminIsApproved){\n    //         /* should wait until creatorContract.updateContractAdmin() returns success\n    //         before assigning admin */\n    //         admin = newAdmin;\n    //         /* Not sure how I feel about passing msg.sender as a parameter vs\n    //         calling the function AS msg.sender. I'd prefer to do that. If you're \n    //         reading this it means I need help lol. Would just like to know \n    //         how to call updateContractAdmin AS msg.sender instead of sending it \n    //         as a parameter */ \n    //         /* I believe the solution to this ^ would be to use tx.origin inside\n    //         CreatorContract. Have yet to try */\n    //         uint contractIndex = creatorContract.updateContractAdmin(newAdmin, msg.sender, address(this));\n    //         emit AdminUpdated(contractIndex);\n    //     }\n    // }\n\n    // function createPoll(string calldata issue, string[] memory _options) \n    //     external \n    //     onlyAdmin()\n    //     stringLength(issue) {\n    //         require(_options.length > 0, \n    //             \"Options parameter must not be empty\");\n    //         Poll storage p = polls[numPolls];\n    //         p.id = numPolls;\n    //         p.issue = issue;\n    //         p.options = _options;\n    //         p.result = -1;\n    //         for(uint i = 0; i < _options.length; i++){\n    //             p.results.push(0);\n    //         }\n            \n    //         emit PollCreated(p.id, p.issue);\n    //         numPolls++;\n    // }\n\n    // function vote(uint pollId, uint optionId) external onlyApproved() {\n    //     require(pollId < numPolls, \n    //         \"Must pass a valid poll ID\");\n    //     Poll storage p = polls[pollId];\n\n    //     require(optionId < p.options.length, \n    //         \"Must pass a valid option ID\");\n    //     require(p.result == -1, \n    //         \"Cannot cast vote on an already decided poll\");\n    //     require(!hasVoted[msg.sender][pollId], \n    //         \"Cannot vote on same poll twice\");\n\n\n    //     p.voters.push(msg.sender);\n    //     p.results[optionId]++;\n    //     hasVoted[msg.sender][pollId] = true;\n        \n    //     emit VoteCasted(pollId, optionId, msg.sender, decideResult(pollId));\n    // }\n\n    // /* Should I require that a valid Poll ID is passed? \n    // Would be redundant since vote() (the function that calls this)\n    // already checks for a valid pollId  */\n    // // Need to handle draws.\n    // function decideResult(uint pollId) internal returns(bool) {\n    //     Poll storage p = polls[pollId];\n    //     // Not sure if i should use a require, or the IF statement as I currently am\n    //     // require(!p.decided, \"This poll has already been decided\");\n    //     if(p.result != -1) {\n    //         return false;\n    //     }\n\n    //     /* Not sure if i want this. What if admin wants to decide a vote before\n    //     all approved vote? What if admin wants poll to be open\n    //     only during a particular time period? */\n    //     // require(p.voters.length == approved.length, \"All approved addresses must vote\");\n    //     if(p.voters.length != approved.length) {\n    //         return false;\n    //     }\n\n    //     uint mostVotes;\n    //     uint winnerIndex;\n    //     for(uint i = 0; i < p.results.length; i++){\n    //         /* \"should\" always work since this function won't be called\n    //         until someone casts a vote. will consider adding a check */ \n    //         if(p.results[i] > mostVotes) {\n    //             winnerIndex = i;\n    //         }\n    //     }\n    //     p.result = int(winnerIndex);\n\n    //     return true;\n    // }\n\n    modifier onlyApproved() {\n        uint balanceOf = accessToken.balanceOf(msg.sender);\n        require(balanceOf == 1,\n        \"Must hold an access token to perform this action\");\n        _;\n    }\n\n    modifier onlyAdmin() {\n        uint balanceOf = accessToken.balanceOf(msg.sender);\n        require(balanceOf == 1,\n        \"Only admin may perform this action\");\n        uint ownerIndex = accessToken.tokenOfOwnerByIndex(msg.sender, 0);\n        require(approvedTokens[ownerIndex].isAdmin == true,\n        \"Only admin may perform this action\");\n        _;\n    }\n\n    modifier validAddress(address _address) {\n        require(_address != address(0), \n            \"A valid address must be passed\");\n        _;\n    }\n\n    modifier stringLength(string calldata str) {\n        require(bytes(str).length > 0, \n            \"String parameter must be of a valid length\");\n        _;\n    }    \n}",
  "sourcePath": "/home/odon/code/bloc/self-directed/vote_per_organization/backend/contracts/VotingContract.sol",
  "compiler": {
    "name": "solc",
    "version": "0.8.6+commit.11564f7e.Emscripten.clang"
  },
  "schemaVersion": "3.4.1",
  "updatedAt": "2021-08-06T19:02:28.626Z",
  "networkType": "ethereum",
  "devdoc": {
    "kind": "dev",
    "methods": {},
    "version": 1
  },
  "userdoc": {
    "kind": "user",
    "methods": {},
    "version": 1
  }
}