{
  "contractName": "VotingContract",
  "abi": [
    {
      "inputs": [
        {
          "internalType": "string",
          "name": "_name",
          "type": "string"
        },
        {
          "internalType": "address",
          "name": "tokenAddr",
          "type": "address"
        }
      ],
      "stateMutability": "nonpayable",
      "type": "constructor"
    },
    {
      "anonymous": false,
      "inputs": [
        {
          "indexed": false,
          "internalType": "string",
          "name": "description",
          "type": "string"
        }
      ],
      "name": "Debug",
      "type": "event"
    },
    {
      "anonymous": false,
      "inputs": [
        {
          "indexed": false,
          "internalType": "uint256",
          "name": "id",
          "type": "uint256"
        },
        {
          "indexed": false,
          "internalType": "string",
          "name": "issue",
          "type": "string"
        }
      ],
      "name": "PollCreated",
      "type": "event"
    },
    {
      "anonymous": false,
      "inputs": [
        {
          "indexed": false,
          "internalType": "uint256",
          "name": "tokenId",
          "type": "uint256"
        },
        {
          "indexed": false,
          "internalType": "address",
          "name": "owner",
          "type": "address"
        },
        {
          "indexed": false,
          "internalType": "string",
          "name": "contractAddr",
          "type": "string"
        }
      ],
      "name": "TokenCreated",
      "type": "event"
    },
    {
      "anonymous": false,
      "inputs": [
        {
          "indexed": false,
          "internalType": "uint256",
          "name": "pollId",
          "type": "uint256"
        },
        {
          "indexed": false,
          "internalType": "uint256",
          "name": "optionId",
          "type": "uint256"
        },
        {
          "indexed": false,
          "internalType": "address",
          "name": "voter",
          "type": "address"
        },
        {
          "indexed": false,
          "internalType": "bool",
          "name": "decided",
          "type": "bool"
        }
      ],
      "name": "VoteCasted",
      "type": "event"
    },
    {
      "inputs": [],
      "name": "accessToken",
      "outputs": [
        {
          "internalType": "contract AccessToken",
          "name": "",
          "type": "address"
        }
      ],
      "stateMutability": "view",
      "type": "function",
      "constant": true
    },
    {
      "inputs": [
        {
          "internalType": "uint256",
          "name": "",
          "type": "uint256"
        }
      ],
      "name": "approvedTokens",
      "outputs": [
        {
          "internalType": "uint256",
          "name": "tokenId",
          "type": "uint256"
        },
        {
          "internalType": "address",
          "name": "owner",
          "type": "address"
        },
        {
          "internalType": "bool",
          "name": "isAdmin",
          "type": "bool"
        }
      ],
      "stateMutability": "view",
      "type": "function",
      "constant": true
    },
    {
      "inputs": [],
      "name": "name",
      "outputs": [
        {
          "internalType": "string",
          "name": "",
          "type": "string"
        }
      ],
      "stateMutability": "view",
      "type": "function",
      "constant": true
    },
    {
      "inputs": [
        {
          "internalType": "uint256",
          "name": "",
          "type": "uint256"
        }
      ],
      "name": "polls",
      "outputs": [
        {
          "internalType": "uint256",
          "name": "id",
          "type": "uint256"
        },
        {
          "internalType": "string",
          "name": "issue",
          "type": "string"
        },
        {
          "internalType": "int256",
          "name": "result",
          "type": "int256"
        }
      ],
      "stateMutability": "view",
      "type": "function",
      "constant": true
    },
    {
      "inputs": [
        {
          "internalType": "uint256",
          "name": "tokenId",
          "type": "uint256"
        }
      ],
      "name": "getAccessRef",
      "outputs": [
        {
          "components": [
            {
              "internalType": "uint256",
              "name": "tokenId",
              "type": "uint256"
            },
            {
              "internalType": "address",
              "name": "owner",
              "type": "address"
            },
            {
              "internalType": "bool",
              "name": "isAdmin",
              "type": "bool"
            }
          ],
          "internalType": "struct VotingContract.AccessRef",
          "name": "",
          "type": "tuple"
        }
      ],
      "stateMutability": "view",
      "type": "function",
      "constant": true
    },
    {
      "inputs": [
        {
          "internalType": "uint256",
          "name": "pollId",
          "type": "uint256"
        }
      ],
      "name": "getPoll",
      "outputs": [
        {
          "components": [
            {
              "internalType": "uint256",
              "name": "id",
              "type": "uint256"
            },
            {
              "internalType": "string",
              "name": "issue",
              "type": "string"
            },
            {
              "internalType": "uint256[]",
              "name": "voters",
              "type": "uint256[]"
            },
            {
              "internalType": "string[]",
              "name": "options",
              "type": "string[]"
            },
            {
              "internalType": "uint256[]",
              "name": "results",
              "type": "uint256[]"
            },
            {
              "internalType": "int256",
              "name": "result",
              "type": "int256"
            }
          ],
          "internalType": "struct VotingContract.Poll[1]",
          "name": "",
          "type": "tuple[1]"
        }
      ],
      "stateMutability": "view",
      "type": "function",
      "constant": true
    },
    {
      "inputs": [
        {
          "internalType": "string",
          "name": "contractAddr",
          "type": "string"
        }
      ],
      "name": "generateAdmin",
      "outputs": [],
      "stateMutability": "nonpayable",
      "type": "function"
    },
    {
      "inputs": [
        {
          "internalType": "address",
          "name": "approved",
          "type": "address"
        },
        {
          "internalType": "string",
          "name": "contractAddr",
          "type": "string"
        }
      ],
      "name": "generateAccessToken",
      "outputs": [],
      "stateMutability": "nonpayable",
      "type": "function"
    },
    {
      "inputs": [
        {
          "internalType": "address",
          "name": "unapproved",
          "type": "address"
        }
      ],
      "name": "removeApprovedVoter",
      "outputs": [],
      "stateMutability": "nonpayable",
      "type": "function"
    },
    {
      "inputs": [
        {
          "internalType": "address",
          "name": "newAdmin",
          "type": "address"
        }
      ],
      "name": "updateAdmin",
      "outputs": [],
      "stateMutability": "nonpayable",
      "type": "function"
    },
    {
      "inputs": [
        {
          "internalType": "string",
          "name": "issue",
          "type": "string"
        },
        {
          "internalType": "string[]",
          "name": "_options",
          "type": "string[]"
        }
      ],
      "name": "createPoll",
      "outputs": [],
      "stateMutability": "nonpayable",
      "type": "function"
    },
    {
      "inputs": [
        {
          "internalType": "uint256",
          "name": "pollId",
          "type": "uint256"
        },
        {
          "internalType": "uint256",
          "name": "optionId",
          "type": "uint256"
        }
      ],
      "name": "vote",
      "outputs": [],
      "stateMutability": "nonpayable",
      "type": "function"
    }
  ],
  "bytecode": "0x60806040523480156200001157600080fd5b5060405162004904380380620049048339818101604052810190620000379190620001de565b81600090805190602001906200004f92919062000099565b5080600760006101000a81548173ffffffffffffffffffffffffffffffffffffffff021916908373ffffffffffffffffffffffffffffffffffffffff160217905550505062000416565b828054620000a7906200030d565b90600052602060002090601f016020900481019282620000cb576000855562000117565b82601f10620000e657805160ff191683800117855562000117565b8280016001018555821562000117579182015b8281111562000116578251825591602001919060010190620000f9565b5b5090506200012691906200012a565b5090565b5b80821115620001455760008160009055506001016200012b565b5090565b6000620001606200015a846200026d565b62000244565b9050828152602081018484840111156200017f576200017e620003dc565b5b6200018c848285620002d7565b509392505050565b600081519050620001a581620003fc565b92915050565b600082601f830112620001c357620001c2620003d7565b5b8151620001d584826020860162000149565b91505092915050565b60008060408385031215620001f857620001f7620003e6565b5b600083015167ffffffffffffffff811115620002195762000218620003e1565b5b6200022785828601620001ab565b92505060206200023a8582860162000194565b9150509250929050565b60006200025062000263565b90506200025e828262000343565b919050565b6000604051905090565b600067ffffffffffffffff8211156200028b576200028a620003a8565b5b6200029682620003eb565b9050602081019050919050565b6000620002b082620002b7565b9050919050565b600073ffffffffffffffffffffffffffffffffffffffff82169050919050565b60005b83811015620002f7578082015181840152602081019050620002da565b8381111562000307576000848401525b50505050565b600060028204905060018216806200032657607f821691505b602082108114156200033d576200033c62000379565b5b50919050565b6200034e82620003eb565b810181811067ffffffffffffffff8211171562000370576200036f620003a8565b5b80604052505050565b7f4e487b7100000000000000000000000000000000000000000000000000000000600052602260045260246000fd5b7f4e487b7100000000000000000000000000000000000000000000000000000000600052604160045260246000fd5b600080fd5b600080fd5b600080fd5b600080fd5b6000601f19601f8301169050919050565b6200040781620002a3565b81146200041357600080fd5b50565b6144de80620004266000396000f3fe608060405234801561001057600080fd5b50600436106100b45760003560e01c8063ac2f007411610071578063ac2f00741461018d578063b384abef146101bf578063bc7c5eef146101db578063e243c5fb1461020b578063e2f273bd14610229578063f674b24d14610245576100b4565b806306fdde03146100b95780631a8cbcaa146100d75780631dafede01461010757806343148fb3146101395780637e3d71c314610155578063842f564a14610171575b600080fd5b6100c1610261565b6040516100ce919061395f565b60405180910390f35b6100f160048036038101906100ec91906131ef565b6102ef565b6040516100fe9190613922565b60405180910390f35b610121600480360381019061011c91906131ef565b61055f565b60405161013093929190613b97565b60405180910390f35b610153600480360381019061014e919061315d565b6105b6565b005b61016f600480360381019061016a91906130e1565b61089a565b005b61018b60048036038101906101869190613085565b610d04565b005b6101a760048036038101906101a291906131ef565b611386565b6040516101b693929190613c0c565b60405180910390f35b6101d960048036038101906101d49190613249565b611438565b005b6101f560048036038101906101f091906131ef565b611984565b6040516102029190613b61565b60405180910390f35b610213611a2c565b6040516102209190613944565b60405180910390f35b610243600480360381019061023e9190613058565b611a52565b005b61025f600480360381019061025a9190613058565b6123db565b005b6000805461026e90613eda565b80601f016020809104026020016040519081016040528092919081815260200182805461029a90613eda565b80156102e75780601f106102bc576101008083540402835291602001916102e7565b820191906000526020600020905b8154815290600101906020018083116102ca57829003601f168201915b505050505081565b6102f7612b51565b60006040518060200160405280600460008681526020019081526020016000206040518060c00160405290816000820154815260200160018201805461033c90613eda565b80601f016020809104026020016040519081016040528092919081815260200182805461036890613eda565b80156103b55780601f1061038a576101008083540402835291602001916103b5565b820191906000526020600020905b81548152906001019060200180831161039857829003601f168201915b505050505081526020016002820180548060200260200160405190810160405280929190818152602001828054801561040d57602002820191906000526020600020905b8154815260200190600101908083116103f9575b5050505050815260200160038201805480602002602001604051908101604052809291908181526020016000905b828210156104e757838290600052602060002001805461045a90613eda565b80601f016020809104026020016040519081016040528092919081815260200182805461048690613eda565b80156104d35780601f106104a8576101008083540402835291602001916104d3565b820191906000526020600020905b8154815290600101906020018083116104b657829003601f168201915b50505050508152602001906001019061043b565b5050505081526020016004820180548060200260200160405190810160405280929190818152602001828054801561053e57602002820191906000526020600020905b81548152602001906001019080831161052a575b50505050508152602001600582015481525050815250905080915050919050565b60056020528060005260406000206000915090508060000154908060010160009054906101000a900473ffffffffffffffffffffffffffffffffffffffff16908060010160149054906101000a900460ff16905083565b600160009054906101000a900460ff1615610606576040517f08c379a00000000000000000000000000000000000000000000000000000000081526004016105fd90613a81565b60405180910390fd5b6000600760009054906101000a900473ffffffffffffffffffffffffffffffffffffffff1673ffffffffffffffffffffffffffffffffffffffff16633d02d0c933846040518363ffffffff1660e01b81526004016106659291906138c9565b602060405180830381600087803b15801561067f57600080fd5b505af1158015610693573d6000803e3d6000fd5b505050506040513d601f19601f820116820180604052508101906106b7919061321c565b9050600060405180606001604052808381526020013373ffffffffffffffffffffffffffffffffffffffff16815260200160011515815250905080600560008481526020019081526020016000206000820151816000015560208201518160010160006101000a81548173ffffffffffffffffffffffffffffffffffffffff021916908373ffffffffffffffffffffffffffffffffffffffff16021790555060408201518160010160146101000a81548160ff02191690831515021790555090505060018060006101000a81548160ff021916908315150217905550600360008154809291906107a690613f3d565b91905055507f82a09cc58c9cecf0eb61d8994283ec804165931801f8b77e42dcb3b556c5c5be8233600760009054906101000a900473ffffffffffffffffffffffffffffffffffffffff1673ffffffffffffffffffffffffffffffffffffffff1663c87b56dd866040518263ffffffff1660e01b81526004016108299190613b7c565b60006040518083038186803b15801561084157600080fd5b505afa158015610855573d6000803e3d6000fd5b505050506040513d6000823e3d601f19601f8201168201806040525081019061087e91906131a6565b60405161088d93929190613bce565b60405180910390a1505050565b6000600760009054906101000a900473ffffffffffffffffffffffffffffffffffffffff1673ffffffffffffffffffffffffffffffffffffffff166370a08231336040518263ffffffff1660e01b81526004016108f79190613877565b60206040518083038186803b15801561090f57600080fd5b505afa158015610923573d6000803e3d6000fd5b505050506040513d601f19601f82011682018060405250810190610947919061321c565b90506000811161098c576040517f08c379a000000000000000000000000000000000000000000000000000000000815260040161098390613a21565b60405180910390fd5b600080600090505b82811015610acf576000600760009054906101000a900473ffffffffffffffffffffffffffffffffffffffff1673ffffffffffffffffffffffffffffffffffffffff16632f745c5933846040518363ffffffff1660e01b81526004016109fb9291906138f9565b60206040518083038186803b158015610a1357600080fd5b505afa158015610a27573d6000803e3d6000fd5b505050506040513d601f19601f82011682018060405250810190610a4b919061321c565b90503373ffffffffffffffffffffffffffffffffffffffff166005600083815260200190815260200160002060010160009054906101000a900473ffffffffffffffffffffffffffffffffffffffff1673ffffffffffffffffffffffffffffffffffffffff161415610abb578092505b508080610ac790613f3d565b915050610994565b50600115156005600083815260200190815260200160002060010160149054906101000a900460ff16151514610b3a576040517f08c379a0000000000000000000000000000000000000000000000000000000008152600401610b3190613a21565b60405180910390fd5b848460008282905011610b82576040517f08c379a0000000000000000000000000000000000000000000000000000000008152600401610b7990613b41565b60405180910390fd5b6000855111610bc6576040517f08c379a0000000000000000000000000000000000000000000000000000000008152600401610bbd90613ac1565b60405180910390fd5b6000600460006002548152602001908152602001600020905060025481600001819055508787826001019190610bfd929190612b7e565b5085816003019080519060200190610c16929190612c04565b507fffffffffffffffffffffffffffffffffffffffffffffffffffffffffffffffff8160050181905550855167ffffffffffffffff811115610c5b57610c5a614013565b5b604051908082528060200260200182016040528015610c895781602001602082028036833780820191505090505b50816004019080519060200190610ca1929190612c64565b507f65d5ac2bf1bca69566bef1affdfca5bb37b9577fc0b3af4c7c4638225e67b39c816000015482600101604051610cda929190613c4a565b60405180910390a160026000815480929190610cf590613f3d565b91905055505050505050505050565b6000600760009054906101000a900473ffffffffffffffffffffffffffffffffffffffff1673ffffffffffffffffffffffffffffffffffffffff166370a08231336040518263ffffffff1660e01b8152600401610d619190613877565b60206040518083038186803b158015610d7957600080fd5b505afa158015610d8d573d6000803e3d6000fd5b505050506040513d601f19601f82011682018060405250810190610db1919061321c565b905060008111610df6576040517f08c379a0000000000000000000000000000000000000000000000000000000008152600401610ded90613a21565b60405180910390fd5b600080600090505b82811015610f39576000600760009054906101000a900473ffffffffffffffffffffffffffffffffffffffff1673ffffffffffffffffffffffffffffffffffffffff16632f745c5933846040518363ffffffff1660e01b8152600401610e659291906138f9565b60206040518083038186803b158015610e7d57600080fd5b505afa158015610e91573d6000803e3d6000fd5b505050506040513d601f19601f82011682018060405250810190610eb5919061321c565b90503373ffffffffffffffffffffffffffffffffffffffff166005600083815260200190815260200160002060010160009054906101000a900473ffffffffffffffffffffffffffffffffffffffff1673ffffffffffffffffffffffffffffffffffffffff161415610f25578092505b508080610f3190613f3d565b915050610dfe565b50600115156005600083815260200190815260200160002060010160149054906101000a900460ff16151514610fa4576040517f08c379a0000000000000000000000000000000000000000000000000000000008152600401610f9b90613a21565b60405180910390fd5b83600073ffffffffffffffffffffffffffffffffffffffff168173ffffffffffffffffffffffffffffffffffffffff161415611015576040517f08c379a000000000000000000000000000000000000000000000000000000000815260040161100c90613981565b60405180910390fd5b6000600760009054906101000a900473ffffffffffffffffffffffffffffffffffffffff1673ffffffffffffffffffffffffffffffffffffffff166370a08231876040518263ffffffff1660e01b81526004016110729190613877565b60206040518083038186803b15801561108a57600080fd5b505afa15801561109e573d6000803e3d6000fd5b505050506040513d601f19601f820116820180604052508101906110c2919061321c565b905060008114611107576040517f08c379a00000000000000000000000000000000000000000000000000000000081526004016110fe90613ae1565b60405180910390fd5b6000600760009054906101000a900473ffffffffffffffffffffffffffffffffffffffff1673ffffffffffffffffffffffffffffffffffffffff16633d02d0c988886040518363ffffffff1660e01b81526004016111669291906138c9565b602060405180830381600087803b15801561118057600080fd5b505af1158015611194573d6000803e3d6000fd5b505050506040513d601f19601f820116820180604052508101906111b8919061321c565b9050600060405180606001604052808381526020018973ffffffffffffffffffffffffffffffffffffffff16815260200160001515815250905080600560008481526020019081526020016000206000820151816000015560208201518160010160006101000a81548173ffffffffffffffffffffffffffffffffffffffff021916908373ffffffffffffffffffffffffffffffffffffffff16021790555060408201518160010160146101000a81548160ff0219169083151502179055509050506003600081548092919061128d90613f3d565b91905055507f82a09cc58c9cecf0eb61d8994283ec804165931801f8b77e42dcb3b556c5c5be8289600760009054906101000a900473ffffffffffffffffffffffffffffffffffffffff1673ffffffffffffffffffffffffffffffffffffffff1663c87b56dd866040518263ffffffff1660e01b81526004016113109190613b7c565b60006040518083038186803b15801561132857600080fd5b505afa15801561133c573d6000803e3d6000fd5b505050506040513d6000823e3d601f19601f8201168201806040525081019061136591906131a6565b60405161137493929190613bce565b60405180910390a15050505050505050565b60046020528060005260406000206000915090508060000154908060010180546113af90613eda565b80601f01602080910402602001604051908101604052809291908181526020018280546113db90613eda565b80156114285780601f106113fd57610100808354040283529160200191611428565b820191906000526020600020905b81548152906001019060200180831161140b57829003601f168201915b5050505050908060050154905083565b6000600760009054906101000a900473ffffffffffffffffffffffffffffffffffffffff1673ffffffffffffffffffffffffffffffffffffffff166370a08231336040518263ffffffff1660e01b81526004016114959190613877565b60206040518083038186803b1580156114ad57600080fd5b505afa1580156114c1573d6000803e3d6000fd5b505050506040513d601f19601f820116820180604052508101906114e5919061321c565b90506001811461152a576040517f08c379a0000000000000000000000000000000000000000000000000000000008152600401611521906139a1565b60405180910390fd5b600254831061156e576040517f08c379a000000000000000000000000000000000000000000000000000000000815260040161156590613a61565b60405180910390fd5b6000600460008581526020019081526020016000209050806003018054905083106115ce576040517f08c379a00000000000000000000000000000000000000000000000000000000081526004016115c590613aa1565b60405180910390fd5b7fffffffffffffffffffffffffffffffffffffffffffffffffffffffffffffffff816005015414611634576040517f08c379a000000000000000000000000000000000000000000000000000000000815260040161162b90613a01565b60405180910390fd5b6000600760009054906101000a900473ffffffffffffffffffffffffffffffffffffffff1673ffffffffffffffffffffffffffffffffffffffff166370a08231336040518263ffffffff1660e01b81526004016116919190613877565b60206040518083038186803b1580156116a957600080fd5b505afa1580156116bd573d6000803e3d6000fd5b505050506040513d601f19601f820116820180604052508101906116e1919061321c565b9050600080600090505b82811015611826576000600760009054906101000a900473ffffffffffffffffffffffffffffffffffffffff1673ffffffffffffffffffffffffffffffffffffffff16632f745c5933846040518363ffffffff1660e01b81526004016117529291906138f9565b60206040518083038186803b15801561176a57600080fd5b505afa15801561177e573d6000803e3d6000fd5b505050506040513d601f19601f820116820180604052508101906117a2919061321c565b90503373ffffffffffffffffffffffffffffffffffffffff166005600083815260200190815260200160002060010160009054906101000a900473ffffffffffffffffffffffffffffffffffffffff1673ffffffffffffffffffffffffffffffffffffffff161415611812578092505b50808061181e90613f3d565b9150506116eb565b5060066000828152602001908152602001600020600087815260200190815260200160002060009054906101000a900460ff1615611899576040517f08c379a000000000000000000000000000000000000000000000000000000000815260040161189090613a41565b60405180910390fd5b826002018190806001815401808255809150506001900390600052602060002001600090919091909150558260040185815481106118da576118d9613fe4565b5b9060005260206000200160008154809291906118f590613f3d565b9190505550600160066000838152602001908152602001600020600088815260200190815260200160002060006101000a81548160ff0219169083151502179055507fe828180429d50fecc65a7389299b1bf5f97fd5bec6ca0b9648c35255ee0a11ab8686336119648a612a7f565b6040516119749493929190613c7a565b60405180910390a1505050505050565b61198c612cb1565b60056000838152602001908152602001600020604051806060016040529081600082015481526020016001820160009054906101000a900473ffffffffffffffffffffffffffffffffffffffff1673ffffffffffffffffffffffffffffffffffffffff1673ffffffffffffffffffffffffffffffffffffffff1681526020016001820160149054906101000a900460ff1615151515815250509050919050565b600760009054906101000a900473ffffffffffffffffffffffffffffffffffffffff1681565b6000600760009054906101000a900473ffffffffffffffffffffffffffffffffffffffff1673ffffffffffffffffffffffffffffffffffffffff166370a08231336040518263ffffffff1660e01b8152600401611aaf9190613877565b60206040518083038186803b158015611ac757600080fd5b505afa158015611adb573d6000803e3d6000fd5b505050506040513d601f19601f82011682018060405250810190611aff919061321c565b905060008111611b44576040517f08c379a0000000000000000000000000000000000000000000000000000000008152600401611b3b90613a21565b60405180910390fd5b600080600090505b82811015611c87576000600760009054906101000a900473ffffffffffffffffffffffffffffffffffffffff1673ffffffffffffffffffffffffffffffffffffffff16632f745c5933846040518363ffffffff1660e01b8152600401611bb39291906138f9565b60206040518083038186803b158015611bcb57600080fd5b505afa158015611bdf573d6000803e3d6000fd5b505050506040513d601f19601f82011682018060405250810190611c03919061321c565b90503373ffffffffffffffffffffffffffffffffffffffff166005600083815260200190815260200160002060010160009054906101000a900473ffffffffffffffffffffffffffffffffffffffff1673ffffffffffffffffffffffffffffffffffffffff161415611c73578092505b508080611c7f90613f3d565b915050611b4c565b50600115156005600083815260200190815260200160002060010160149054906101000a900460ff16151514611cf2576040517f08c379a0000000000000000000000000000000000000000000000000000000008152600401611ce990613a21565b60405180910390fd5b82600073ffffffffffffffffffffffffffffffffffffffff168173ffffffffffffffffffffffffffffffffffffffff161415611d63576040517f08c379a0000000000000000000000000000000000000000000000000000000008152600401611d5a90613981565b60405180910390fd5b3373ffffffffffffffffffffffffffffffffffffffff168473ffffffffffffffffffffffffffffffffffffffff161415611dd2576040517f08c379a0000000000000000000000000000000000000000000000000000000008152600401611dc990613b01565b60405180910390fd5b600080600760009054906101000a900473ffffffffffffffffffffffffffffffffffffffff1673ffffffffffffffffffffffffffffffffffffffff166370a08231876040518263ffffffff1660e01b8152600401611e309190613877565b60206040518083038186803b158015611e4857600080fd5b505afa158015611e5c573d6000803e3d6000fd5b505050506040513d601f19601f82011682018060405250810190611e80919061321c565b9050600080600090505b82811015611fc9576000600760009054906101000a900473ffffffffffffffffffffffffffffffffffffffff1673ffffffffffffffffffffffffffffffffffffffff16632f745c598a846040518363ffffffff1660e01b8152600401611ef19291906138f9565b60206040518083038186803b158015611f0957600080fd5b505afa158015611f1d573d6000803e3d6000fd5b505050506040513d601f19601f82011682018060405250810190611f41919061321c565b90508873ffffffffffffffffffffffffffffffffffffffff166005600083815260200190815260200160002060010160009054906101000a900473ffffffffffffffffffffffffffffffffffffffff1673ffffffffffffffffffffffffffffffffffffffff161415611fb557809250600194505b508080611fc190613f3d565b915050611e8a565b508261200a576040517f08c379a0000000000000000000000000000000000000000000000000000000008152600401612001906139e1565b60405180910390fd5b6000600760009054906101000a900473ffffffffffffffffffffffffffffffffffffffff1673ffffffffffffffffffffffffffffffffffffffff166370a08231336040518263ffffffff1660e01b81526004016120679190613877565b60206040518083038186803b15801561207f57600080fd5b505afa158015612093573d6000803e3d6000fd5b505050506040513d601f19601f820116820180604052508101906120b7919061321c565b9050600080600090505b828110156121fc576000600760009054906101000a900473ffffffffffffffffffffffffffffffffffffffff1673ffffffffffffffffffffffffffffffffffffffff16632f745c5933846040518363ffffffff1660e01b81526004016121289291906138f9565b60206040518083038186803b15801561214057600080fd5b505afa158015612154573d6000803e3d6000fd5b505050506040513d601f19601f82011682018060405250810190612178919061321c565b90503373ffffffffffffffffffffffffffffffffffffffff166005600083815260200190815260200160002060010160009054906101000a900473ffffffffffffffffffffffffffffffffffffffff1673ffffffffffffffffffffffffffffffffffffffff1614156121e8578092505b5080806121f490613f3d565b9150506120c1565b5084156123d057600760009054906101000a900473ffffffffffffffffffffffffffffffffffffffff1673ffffffffffffffffffffffffffffffffffffffff1663f5537ede338b846040518463ffffffff1660e01b815260040161226293929190613892565b600060405180830381600087803b15801561227c57600080fd5b505af1158015612290573d6000803e3d6000fd5b50505050600760009054906101000a900473ffffffffffffffffffffffffffffffffffffffff1673ffffffffffffffffffffffffffffffffffffffff1663f5537ede8a33866040518463ffffffff1660e01b81526004016122f393929190613892565b600060405180830381600087803b15801561230d57600080fd5b505af1158015612321573d6000803e3d6000fd5b50505050886005600083815260200190815260200160002060010160006101000a81548173ffffffffffffffffffffffffffffffffffffffff021916908373ffffffffffffffffffffffffffffffffffffffff160217905550336005600085815260200190815260200160002060010160006101000a81548173ffffffffffffffffffffffffffffffffffffffff021916908373ffffffffffffffffffffffffffffffffffffffff1602179055505b505050505050505050565b6000600760009054906101000a900473ffffffffffffffffffffffffffffffffffffffff1673ffffffffffffffffffffffffffffffffffffffff166370a08231336040518263ffffffff1660e01b81526004016124389190613877565b60206040518083038186803b15801561245057600080fd5b505afa158015612464573d6000803e3d6000fd5b505050506040513d601f19601f82011682018060405250810190612488919061321c565b9050600081116124cd576040517f08c379a00000000000000000000000000000000000000000000000000000000081526004016124c490613a21565b60405180910390fd5b600080600090505b82811015612610576000600760009054906101000a900473ffffffffffffffffffffffffffffffffffffffff1673ffffffffffffffffffffffffffffffffffffffff16632f745c5933846040518363ffffffff1660e01b815260040161253c9291906138f9565b60206040518083038186803b15801561255457600080fd5b505afa158015612568573d6000803e3d6000fd5b505050506040513d601f19601f8201168201806040525081019061258c919061321c565b90503373ffffffffffffffffffffffffffffffffffffffff166005600083815260200190815260200160002060010160009054906101000a900473ffffffffffffffffffffffffffffffffffffffff1673ffffffffffffffffffffffffffffffffffffffff1614156125fc578092505b50808061260890613f3d565b9150506124d5565b50600115156005600083815260200190815260200160002060010160149054906101000a900460ff1615151461267b576040517f08c379a000000000000000000000000000000000000000000000000000000000815260040161267290613a21565b60405180910390fd5b82600073ffffffffffffffffffffffffffffffffffffffff168173ffffffffffffffffffffffffffffffffffffffff1614156126ec576040517f08c379a00000000000000000000000000000000000000000000000000000000081526004016126e390613981565b60405180910390fd5b3373ffffffffffffffffffffffffffffffffffffffff168473ffffffffffffffffffffffffffffffffffffffff16141561275b576040517f08c379a000000000000000000000000000000000000000000000000000000000815260040161275290613b21565b60405180910390fd5b6000600760009054906101000a900473ffffffffffffffffffffffffffffffffffffffff1673ffffffffffffffffffffffffffffffffffffffff166370a08231866040518263ffffffff1660e01b81526004016127b89190613877565b60206040518083038186803b1580156127d057600080fd5b505afa1580156127e4573d6000803e3d6000fd5b505050506040513d601f19601f82011682018060405250810190612808919061321c565b905060008060005b8381101561294f576000600760009054906101000a900473ffffffffffffffffffffffffffffffffffffffff1673ffffffffffffffffffffffffffffffffffffffff16632f745c598a846040518363ffffffff1660e01b81526004016128779291906138f9565b60206040518083038186803b15801561288f57600080fd5b505afa1580156128a3573d6000803e3d6000fd5b505050506040513d601f19601f820116820180604052508101906128c7919061321c565b90508873ffffffffffffffffffffffffffffffffffffffff166005600083815260200190815260200160002060010160009054906101000a900473ffffffffffffffffffffffffffffffffffffffff1673ffffffffffffffffffffffffffffffffffffffff16141561293b57809250600193505b50808061294790613f3d565b915050612810565b5081612990576040517f08c379a0000000000000000000000000000000000000000000000000000000008152600401612987906139c1565b60405180910390fd5b600760009054906101000a900473ffffffffffffffffffffffffffffffffffffffff1673ffffffffffffffffffffffffffffffffffffffff166342966c68826040518263ffffffff1660e01b81526004016129eb9190613b7c565b600060405180830381600087803b158015612a0557600080fd5b505af1158015612a19573d6000803e3d6000fd5b50505050600560008281526020019081526020016000206000808201600090556001820160006101000a81549073ffffffffffffffffffffffffffffffffffffffff02191690556001820160146101000a81549060ff0219169055505050505050505050565b6000806004600084815260200190815260200160002090507fffffffffffffffffffffffffffffffffffffffffffffffffffffffffffffffff816005015414612acc576000915050612b4c565b600354816002018054905014612ae6576000915050612b4c565b60008060005b8360040180549050811015612b3a5782846004018281548110612b1257612b11613fe4565b5b90600052602060002001541115612b27578091505b8080612b3290613f3d565b915050612aec565b50808360050181905550600193505050505b919050565b60405180602001604052806001905b612b68612cea565b815260200190600190039081612b605790505090565b828054612b8a90613eda565b90600052602060002090601f016020900481019282612bac5760008555612bf3565b82601f10612bc557803560ff1916838001178555612bf3565b82800160010185558215612bf3579182015b82811115612bf2578235825591602001919060010190612bd7565b5b509050612c009190612d20565b5090565b828054828255906000526020600020908101928215612c53579160200282015b82811115612c52578251829080519060200190612c42929190612d3d565b5091602001919060010190612c24565b5b509050612c609190612dc3565b5090565b828054828255906000526020600020908101928215612ca0579160200282015b82811115612c9f578251825591602001919060010190612c84565b5b509050612cad9190612d20565b5090565b604051806060016040528060008152602001600073ffffffffffffffffffffffffffffffffffffffff1681526020016000151581525090565b6040518060c001604052806000815260200160608152602001606081526020016060815260200160608152602001600081525090565b5b80821115612d39576000816000905550600101612d21565b5090565b828054612d4990613eda565b90600052602060002090601f016020900481019282612d6b5760008555612db2565b82601f10612d8457805160ff1916838001178555612db2565b82800160010185558215612db2579182015b82811115612db1578251825591602001919060010190612d96565b5b509050612dbf9190612d20565b5090565b5b80821115612de35760008181612dda9190612de7565b50600101612dc4565b5090565b508054612df390613eda565b6000825580601f10612e055750612e24565b601f016020900490600052602060002090810190612e239190612d20565b5b50565b6000612e3a612e3584613ce4565b613cbf565b90508083825260208201905082856020860282011115612e5d57612e5c61404c565b5b60005b85811015612eab57813567ffffffffffffffff811115612e8357612e82614047565b5b808601612e908982612fd2565b85526020850194506020840193505050600181019050612e60565b5050509392505050565b6000612ec8612ec384613d10565b613cbf565b905082815260208101848484011115612ee457612ee3614051565b5b612eef848285613e98565b509392505050565b6000612f0a612f0584613d10565b613cbf565b905082815260208101848484011115612f2657612f25614051565b5b612f31848285613ea7565b509392505050565b600081359050612f488161447a565b92915050565b600082601f830112612f6357612f62614047565b5b8135612f73848260208601612e27565b91505092915050565b60008083601f840112612f9257612f91614047565b5b8235905067ffffffffffffffff811115612faf57612fae614042565b5b602083019150836001820283011115612fcb57612fca61404c565b5b9250929050565b600082601f830112612fe757612fe6614047565b5b8135612ff7848260208601612eb5565b91505092915050565b600082601f83011261301557613014614047565b5b8151613025848260208601612ef7565b91505092915050565b60008135905061303d81614491565b92915050565b60008151905061305281614491565b92915050565b60006020828403121561306e5761306d61405b565b5b600061307c84828501612f39565b91505092915050565b6000806040838503121561309c5761309b61405b565b5b60006130aa85828601612f39565b925050602083013567ffffffffffffffff8111156130cb576130ca614056565b5b6130d785828601612fd2565b9150509250929050565b6000806000604084860312156130fa576130f961405b565b5b600084013567ffffffffffffffff81111561311857613117614056565b5b61312486828701612f7c565b9350935050602084013567ffffffffffffffff81111561314757613146614056565b5b61315386828701612f4e565b9150509250925092565b6000602082840312156131735761317261405b565b5b600082013567ffffffffffffffff81111561319157613190614056565b5b61319d84828501612fd2565b91505092915050565b6000602082840312156131bc576131bb61405b565b5b600082015167ffffffffffffffff8111156131da576131d9614056565b5b6131e684828501613000565b91505092915050565b6000602082840312156132055761320461405b565b5b60006132138482850161302e565b91505092915050565b6000602082840312156132325761323161405b565b5b600061324084828501613043565b91505092915050565b600080604083850312156132605761325f61405b565b5b600061326e8582860161302e565b925050602061327f8582860161302e565b9150509250929050565b6000613295838361347a565b905092915050565b60006132a983836137bb565b905092915050565b60006132bd8383613859565b60208301905092915050565b6132d281613e22565b82525050565b6132e181613e22565b82525050565b60006132f282613d80565b6132fc8185613dd3565b93508360208202850161330e85613d41565b8060005b8581101561334a578484038952815161332b8582613289565b945061333683613dac565b925060208a01995050600181019050613312565b50829750879550505050505092915050565b600061336782613d8b565b6133718185613de4565b93508360208202850161338385613d51565b8060005b858110156133bf57848403895281516133a0858261329d565b94506133ab83613db9565b925060208a01995050600181019050613387565b50829750879550505050505092915050565b60006133dc82613d96565b6133e68185613def565b93506133f183613d5b565b8060005b8381101561342257815161340988826132b1565b975061341483613dc6565b9250506001810190506133f5565b5085935050505092915050565b61343881613e34565b82525050565b61344781613e34565b82525050565b61345681613e74565b82525050565b61346581613e40565b82525050565b61347481613e40565b82525050565b600061348582613da1565b61348f8185613e00565b935061349f818560208601613ea7565b6134a881614060565b840191505092915050565b60006134be82613da1565b6134c88185613e11565b93506134d8818560208601613ea7565b6134e181614060565b840191505092915050565b600081546134f981613eda565b6135038186613e11565b9450600182166000811461351e576001811461353057613563565b60ff1983168652602086019350613563565b61353985613d6b565b60005b8381101561355b5781548189015260018201915060208101905061353c565b808801955050505b50505092915050565b6000613579601e83613e11565b915061358482614071565b602082019050919050565b600061359c603083613e11565b91506135a78261409a565b604082019050919050565b60006135bf602283613e11565b91506135ca826140e9565b604082019050919050565b60006135e2602383613e11565b91506135ed82614138565b604082019050919050565b6000613605602b83613e11565b915061361082614187565b604082019050919050565b6000613628602283613e11565b9150613633826141d6565b604082019050919050565b600061364b601e83613e11565b915061365682614225565b602082019050919050565b600061366e601983613e11565b91506136798261424e565b602082019050919050565b6000613691602683613e11565b915061369c82614277565b604082019050919050565b60006136b4601b83613e11565b91506136bf826142c6565b602082019050919050565b60006136d7602383613e11565b91506136e2826142ef565b604082019050919050565b60006136fa602883613e11565b91506137058261433e565b604082019050919050565b600061371d602683613e11565b91506137288261438d565b604082019050919050565b6000613740602b83613e11565b915061374b826143dc565b604082019050919050565b6000613763602a83613e11565b915061376e8261442b565b604082019050919050565b60608201600082015161378f6000850182613859565b5060208201516137a260208501826132c9565b5060408201516137b5604085018261342f565b50505050565b600060c0830160008301516137d36000860182613859565b50602083015184820360208601526137eb828261347a565b9150506040830151848203604086015261380582826133d1565b9150506060830151848203606086015261381f82826132e7565b9150506080830151848203608086015261383982826133d1565b91505060a083015161384e60a086018261345c565b508091505092915050565b61386281613e6a565b82525050565b61387181613e6a565b82525050565b600060208201905061388c60008301846132d8565b92915050565b60006060820190506138a760008301866132d8565b6138b460208301856132d8565b6138c16040830184613868565b949350505050565b60006040820190506138de60008301856132d8565b81810360208301526138f081846134b3565b90509392505050565b600060408201905061390e60008301856132d8565b61391b6020830184613868565b9392505050565b6000602082019050818103600083015261393c818461335c565b905092915050565b6000602082019050613959600083018461344d565b92915050565b6000602082019050818103600083015261397981846134b3565b905092915050565b6000602082019050818103600083015261399a8161356c565b9050919050565b600060208201905081810360008301526139ba8161358f565b9050919050565b600060208201905081810360008301526139da816135b2565b9050919050565b600060208201905081810360008301526139fa816135d5565b9050919050565b60006020820190508181036000830152613a1a816135f8565b9050919050565b60006020820190508181036000830152613a3a8161361b565b9050919050565b60006020820190508181036000830152613a5a8161363e565b9050919050565b60006020820190508181036000830152613a7a81613661565b9050919050565b60006020820190508181036000830152613a9a81613684565b9050919050565b60006020820190508181036000830152613aba816136a7565b9050919050565b60006020820190508181036000830152613ada816136ca565b9050919050565b60006020820190508181036000830152613afa816136ed565b9050919050565b60006020820190508181036000830152613b1a81613710565b9050919050565b60006020820190508181036000830152613b3a81613733565b9050919050565b60006020820190508181036000830152613b5a81613756565b9050919050565b6000606082019050613b766000830184613779565b92915050565b6000602082019050613b916000830184613868565b92915050565b6000606082019050613bac6000830186613868565b613bb960208301856132d8565b613bc6604083018461343e565b949350505050565b6000606082019050613be36000830186613868565b613bf060208301856132d8565b8181036040830152613c0281846134b3565b9050949350505050565b6000606082019050613c216000830186613868565b8181036020830152613c3381856134b3565b9050613c42604083018461346b565b949350505050565b6000604082019050613c5f6000830185613868565b8181036020830152613c7181846134ec565b90509392505050565b6000608082019050613c8f6000830187613868565b613c9c6020830186613868565b613ca960408301856132d8565b613cb6606083018461343e565b95945050505050565b6000613cc9613cda565b9050613cd58282613f0c565b919050565b6000604051905090565b600067ffffffffffffffff821115613cff57613cfe614013565b5b602082029050602081019050919050565b600067ffffffffffffffff821115613d2b57613d2a614013565b5b613d3482614060565b9050602081019050919050565b6000819050602082019050919050565b6000819050919050565b6000819050602082019050919050565b60008190508160005260206000209050919050565b600081519050919050565b600060019050919050565b600081519050919050565b600081519050919050565b6000602082019050919050565b6000602082019050919050565b6000602082019050919050565b600082825260208201905092915050565b600081905092915050565b600082825260208201905092915050565b600082825260208201905092915050565b600082825260208201905092915050565b6000613e2d82613e4a565b9050919050565b60008115159050919050565b6000819050919050565b600073ffffffffffffffffffffffffffffffffffffffff82169050919050565b6000819050919050565b6000613e7f82613e86565b9050919050565b6000613e9182613e4a565b9050919050565b82818337600083830152505050565b60005b83811015613ec5578082015181840152602081019050613eaa565b83811115613ed4576000848401525b50505050565b60006002820490506001821680613ef257607f821691505b60208210811415613f0657613f05613fb5565b5b50919050565b613f1582614060565b810181811067ffffffffffffffff82111715613f3457613f33614013565b5b80604052505050565b6000613f4882613e6a565b91507fffffffffffffffffffffffffffffffffffffffffffffffffffffffffffffffff821415613f7b57613f7a613f86565b5b600182019050919050565b7f4e487b7100000000000000000000000000000000000000000000000000000000600052601160045260246000fd5b7f4e487b7100000000000000000000000000000000000000000000000000000000600052602260045260246000fd5b7f4e487b7100000000000000000000000000000000000000000000000000000000600052603260045260246000fd5b7f4e487b7100000000000000000000000000000000000000000000000000000000600052604160045260246000fd5b600080fd5b600080fd5b600080fd5b600080fd5b600080fd5b600080fd5b6000601f19601f8301169050919050565b7f412076616c69642061646472657373206d757374206265207061737365640000600082015250565b7f4d75737420686f6c6420616e2061636365737320746f6b656e20746f2070657260008201527f666f726d207468697320616374696f6e00000000000000000000000000000000602082015250565b7f43616e6e6f742072656d6f76652061206e6f6e2d6578697374696e6720746f6b60008201527f656e000000000000000000000000000000000000000000000000000000000000602082015250565b7f4e65772061646d696e206d757374206861766520616e2061636365737320746f60008201527f6b656e0000000000000000000000000000000000000000000000000000000000602082015250565b7f43616e6e6f74206361737420766f7465206f6e20616e20616c7265616479206460008201527f65636964656420706f6c6c000000000000000000000000000000000000000000602082015250565b7f4f6e6c792061646d696e206d617920706572666f726d2074686973206163746960008201527f6f6e000000000000000000000000000000000000000000000000000000000000602082015250565b7f43616e6e6f7420766f7465206f6e2073616d6520706f6c6c2074776963650000600082015250565b7f4d757374207061737320612076616c696420706f6c6c20494400000000000000600082015250565b7f41646d696e20616c72656164792065786973747320666f72207468697320636f60008201527f6e74726163740000000000000000000000000000000000000000000000000000602082015250565b7f4d757374207061737320612076616c6964206f7074696f6e2049440000000000600082015250565b7f4f7074696f6e7320706172616d65746572206d757374206e6f7420626520656d60008201527f7074790000000000000000000000000000000000000000000000000000000000602082015250565b7f416e2061646472657373206d6179206f6e6c79206f776e206f6e65204163636560008201527f737320546f6b656e000000000000000000000000000000000000000000000000602082015250565b7f43616e6e6f74207265706c6163652061646d696e20776974682073616d65206160008201527f6464726573730000000000000000000000000000000000000000000000000000602082015250565b7f41646d696e206d6179206e6f742062652072656d6f7665642066726f6d20617060008201527f70726f766564206c697374000000000000000000000000000000000000000000602082015250565b7f537472696e6720706172616d65746572206d757374206265206f66206120766160008201527f6c6964206c656e67746800000000000000000000000000000000000000000000602082015250565b61448381613e22565b811461448e57600080fd5b50565b61449a81613e6a565b81146144a557600080fd5b5056fea2646970667358221220641ff6ee16d52085aa9c8e83ce0eacbc02c0dd72dc4f58f5c8940d09e8dbc09364736f6c63430008060033",
  "immutableReferences": {},
  "source": "// SPDX-License-Identifier: UNLICENSED\npragma solidity ^0.8.6;\n\nimport \"./AccessToken.sol\";\n\ncontract VotingContract {\n\n    /* I figure having these events is good practice\n    but i'm not sure if there are more things I should \n    include to make it a complete event or whatever.\n    Still just a young padawan. */\n    event TokenCreated (\n        uint tokenId,\n        address owner,\n        string contractAddr\n    );\n\n    event PollCreated(\n        uint id,\n        string issue\n    );\n\n    event VoteCasted(\n        uint pollId,\n        uint optionId,\n        address voter,\n        bool decided\n    );\n\n    // event AdminUpdated(\n    //     uint contractIndex\n    // );\n\n    event Debug(\n        string description\n    );\n\n    // Admin can create multiple polls for their organization to vote on\n    /* I wanted to have a mapping of uint => OptionStruct\n    but could NOT get it to work so I'm working with a \n    more rudimentary approached. While not as sophisticated,\n    it works and that's what makes me happy. This is my first\n    real capstone project so I can't try and get too fancy */ \n    struct Poll {\n        uint id;\n        // issue on which voters are deciding on\n        string issue;\n        uint[] voters;\n        string[] options;\n        uint[] results;\n        // If -1, no result has been determined.\n        // If other number, index of option won.\n        int result;\n    }\n\n    struct AccessRef {\n        uint tokenId;\n        address owner;\n        bool isAdmin;\n    }\n    \n    string public name;\n    bool adminExists;\n    uint numPolls;\n    uint numTokens;\n    mapping(uint => Poll) public polls;\n    mapping(uint => AccessRef) public approvedTokens;\n    // stores whether token has voted in a particular poll\n    // mapping(tokenId => mapping(pollId => bool))\n    mapping(uint => mapping(uint => bool)) hasVoted;\n    AccessToken public accessToken;\n    \n\n    constructor(string memory _name, address tokenAddr) {\n        name = _name;\n        accessToken = AccessToken(tokenAddr);\n    }\n\n    function getAccessRef(uint tokenId) external view returns(AccessRef memory){\n        return approvedTokens[tokenId];\n    }\n\n    function getPoll(uint pollId) external view returns(Poll[1] memory) {\n        /* Using this as a workaround to retrieve a particular, \n        since Poll doesn't return arrays within struct when \n        call mapping polls() function. Would like to know \n        if there's a better way to accomplish this */\n        Poll[1] memory pollArr = [polls[pollId]];\n        return pollArr;\n    }\n\n    function generateAdmin(string memory contractAddr) external {\n        require(!adminExists, \"Admin already exists for this contract\");\n        uint tokenId = accessToken.mintToken(msg.sender, contractAddr);\n        AccessRef memory ar = AccessRef(\n            tokenId,\n            msg.sender,\n            true\n        );\n        approvedTokens[tokenId] = ar;\n        adminExists = true;\n        numTokens++;\n        emit TokenCreated(tokenId, msg.sender, accessToken.tokenURI(tokenId));\n    }\n\n\n    function generateAccessToken(address approved, string memory contractAddr) \n        external \n        onlyAdmin()\n        validAddress(approved) {\n            uint balanceOf = accessToken.balanceOf(approved);\n            /* Need to fix this check. Will make it so that address may only\n            have one access token per voting contract*/\n            require(balanceOf == 0, \n            \"An address may only own one Access Token\");\n            uint tokenId = accessToken.mintToken(approved, contractAddr);\n            AccessRef memory ar = AccessRef(\n                tokenId,\n                approved,\n                false\n            );\n            approvedTokens[tokenId] = ar;\n            numTokens++;\n            emit TokenCreated(tokenId, approved, accessToken.tokenURI(tokenId));\n    }\n\n    function removeApprovedVoter(address unapproved) external onlyAdmin() validAddress(unapproved) {                \n        require(unapproved != msg.sender, \"Admin may not be removed from approved list\");\n        \n        uint balanceOf = accessToken.balanceOf(unapproved);\n        bool unapprovedHasToken;\n        // Saves unapproved's current tokenId\n        uint tokenId;\n        // checks if unapproved has an access token\n        for(uint i = 0; i < balanceOf; i++){\n            uint currentTokenId = accessToken.tokenOfOwnerByIndex(unapproved, i);\n            if(approvedTokens[currentTokenId].owner == unapproved){\n                tokenId = currentTokenId;\n                unapprovedHasToken = true;\n            }\n        }\n\n        require(unapprovedHasToken, \"Cannot remove a non-existing token\");\n\n        accessToken.burn(tokenId);\n        delete approvedTokens[tokenId];\n    }\n\n    /* This updates who is the current admin. there may only be \n    one admin per VotingContract */\n    // Purposely requiring that newAdmin already holds an access token\n    function updateAdmin(address newAdmin) external onlyAdmin() validAddress(newAdmin) {\n        require(newAdmin != msg.sender, \"Cannot replace admin with same address\");\n\n        bool newAdminIsApproved = false;\n        uint balanceOf = accessToken.balanceOf(newAdmin);\n        // Saves newAdmin's current tokenId\n        uint tokenId;\n        // checks if newAdmin has an access token\n        for(uint i = 0; i < balanceOf; i++){\n            uint currentTokenId = accessToken.tokenOfOwnerByIndex(newAdmin, i);\n            if(approvedTokens[currentTokenId].owner == newAdmin){\n                tokenId = currentTokenId;\n                newAdminIsApproved = true;\n            }\n        }\n        require(newAdminIsApproved, \n            \"New admin must have an access token\");\n\n        uint adminBalanceOf = accessToken.balanceOf(msg.sender);\n        // Saves current admin's tokenId\n        uint adminTokenId;\n        for(uint i = 0; i < adminBalanceOf; i++){\n            uint currentTokenId = accessToken.tokenOfOwnerByIndex(msg.sender, i);\n            if(approvedTokens[currentTokenId].owner == msg.sender){\n                adminTokenId = currentTokenId;\n            }\n        }\n\n        // newAdmin is added only if they are already an approved voter\n        // redundant check after the above require statement \n        if(newAdminIsApproved){\n            accessToken.transferToken(msg.sender, newAdmin, adminTokenId);\n            accessToken.transferToken(newAdmin, msg.sender, tokenId);\n\n            approvedTokens[adminTokenId].owner = newAdmin;\n            approvedTokens[tokenId].owner = msg.sender;\n        }\n    }\n\n    function createPoll(string calldata issue, string[] memory _options) \n        external \n        onlyAdmin()\n        stringLength(issue) {\n            require(_options.length > 0, \n                \"Options parameter must not be empty\");\n            Poll storage p = polls[numPolls];\n            p.id = numPolls;\n            p.issue = issue;\n            p.options = _options;\n            p.result = -1;\n            p.results = new uint[](_options.length);\n            \n            emit PollCreated(p.id, p.issue);\n            numPolls++;\n    }\n\n    function vote(uint pollId, uint optionId) external onlyApproved() {\n        require(pollId < numPolls, \n            \"Must pass a valid poll ID\");\n        Poll storage p = polls[pollId];\n        require(optionId < p.options.length, \n            \"Must pass a valid option ID\");\n        require(p.result == -1, \n            \"Cannot cast vote on an already decided poll\");\n\n        uint balanceOf = accessToken.balanceOf(msg.sender);\n        uint tokenId; \n        for(uint i = 0; i < balanceOf; i++){\n            uint currentTokenId = accessToken.tokenOfOwnerByIndex(msg.sender, i);\n            if(approvedTokens[currentTokenId].owner == msg.sender){\n                tokenId = currentTokenId;\n            }\n        }\n        require(!hasVoted[tokenId][pollId], \n            \"Cannot vote on same poll twice\");\n\n        p.voters.push(tokenId);\n        p.results[optionId]++;\n        hasVoted[tokenId][pollId] = true;\n        \n        emit VoteCasted(pollId, optionId, msg.sender, decideResult(pollId));\n    }\n\n    /* Should I require that a valid Poll ID is passed? \n    Would be redundant since vote() (the function that calls this)\n    already checks for a valid pollId  */\n    // Need to handle draws.\n    /* On draw, I think i should reset poll, but only with the top options\n    (if 3 options got highest vote, then those three options remain, rest leave) */\n    function decideResult(uint pollId) internal returns(bool) {\n        Poll storage p = polls[pollId];\n        // Not sure if i should use a require, or the IF statement as I currently am\n        // require(!p.decided, \"This poll has already been decided\");\n        if(p.result != -1) {\n            return false;\n        }\n\n        /* Not sure if i want this. What if admin wants to decide a vote before\n        all approved vote? What if admin wants poll to be open\n        only during a particular time period? */\n        // require(p.voters.length == approved.length, \"All approved addresses must vote\");\n        if(p.voters.length != numTokens) {\n            return false;\n        }\n\n        uint mostVotes;\n        uint winnerIndex;\n        for(uint i = 0; i < p.results.length; i++){\n            /* \"should\" always work since this function won't be called\n            until someone casts a vote. will consider adding a check */ \n            if(p.results[i] > mostVotes) {\n                winnerIndex = i;\n            }\n        }\n        p.result = int(winnerIndex);\n\n        return true;\n    }\n\n    modifier onlyApproved() {\n        uint balanceOf = accessToken.balanceOf(msg.sender);\n        require(balanceOf == 1,\n        \"Must hold an access token to perform this action\");\n        _;\n    }\n\n    modifier onlyAdmin() {\n        uint balanceOf = accessToken.balanceOf(msg.sender);\n        require(balanceOf > 0,\n            \"Only admin may perform this action\");\n        uint tokenId; \n        for(uint i = 0; i < balanceOf; i++){\n            uint currentTokenId = accessToken.tokenOfOwnerByIndex(msg.sender, i);\n            if(approvedTokens[currentTokenId].owner == msg.sender){\n                tokenId = currentTokenId;\n            }\n        }\n        require(approvedTokens[tokenId].isAdmin == true,\n            \"Only admin may perform this action\");\n        _;\n    }\n\n    modifier validAddress(address _address) {\n        require(_address != address(0),\"A valid address must be passed\");\n        _;\n    }\n\n    modifier stringLength(string calldata str) {\n        require(bytes(str).length > 0, \n            \"String parameter must be of a valid length\");\n        _;\n    }    \n}",
  "sourcePath": "/home/odon/code/bloc/self-directed/vote_per_organization/backend/contracts/VotingContract.sol",
  "compiler": {
    "name": "solc",
    "version": "0.8.6+commit.11564f7e.Emscripten.clang"
  },
  "schemaVersion": "3.4.1",
  "updatedAt": "2021-08-08T18:49:14.966Z",
  "networkType": "ethereum",
  "devdoc": {
    "kind": "dev",
    "methods": {},
    "version": 1
  },
  "userdoc": {
    "kind": "user",
    "methods": {},
    "version": 1
  }
}