{
  "contractName": "VotingContract",
  "abi": [
    {
      "inputs": [
        {
          "internalType": "string",
          "name": "_name",
          "type": "string"
        },
        {
          "internalType": "address",
          "name": "_admin",
          "type": "address"
        },
        {
          "internalType": "address",
          "name": "_creator",
          "type": "address"
        }
      ],
      "stateMutability": "nonpayable",
      "type": "constructor"
    },
    {
      "anonymous": false,
      "inputs": [
        {
          "indexed": false,
          "internalType": "string",
          "name": "description",
          "type": "string"
        }
      ],
      "name": "Debug",
      "type": "event"
    },
    {
      "anonymous": false,
      "inputs": [
        {
          "indexed": false,
          "internalType": "string",
          "name": "opt",
          "type": "string"
        }
      ],
      "name": "OptionAdded",
      "type": "event"
    },
    {
      "anonymous": false,
      "inputs": [
        {
          "indexed": false,
          "internalType": "uint256",
          "name": "id",
          "type": "uint256"
        },
        {
          "indexed": false,
          "internalType": "string",
          "name": "issue",
          "type": "string"
        }
      ],
      "name": "PollCreated",
      "type": "event"
    },
    {
      "inputs": [],
      "name": "admin",
      "outputs": [
        {
          "internalType": "address",
          "name": "",
          "type": "address"
        }
      ],
      "stateMutability": "view",
      "type": "function"
    },
    {
      "inputs": [
        {
          "internalType": "uint256",
          "name": "",
          "type": "uint256"
        }
      ],
      "name": "approved",
      "outputs": [
        {
          "internalType": "address",
          "name": "",
          "type": "address"
        }
      ],
      "stateMutability": "view",
      "type": "function"
    },
    {
      "inputs": [],
      "name": "creatorContract",
      "outputs": [
        {
          "internalType": "contract CreatorContract",
          "name": "",
          "type": "address"
        }
      ],
      "stateMutability": "view",
      "type": "function"
    },
    {
      "inputs": [],
      "name": "name",
      "outputs": [
        {
          "internalType": "string",
          "name": "",
          "type": "string"
        }
      ],
      "stateMutability": "view",
      "type": "function"
    },
    {
      "inputs": [
        {
          "internalType": "uint256",
          "name": "",
          "type": "uint256"
        }
      ],
      "name": "polls",
      "outputs": [
        {
          "internalType": "uint256",
          "name": "id",
          "type": "uint256"
        },
        {
          "internalType": "string",
          "name": "issue",
          "type": "string"
        },
        {
          "internalType": "int256",
          "name": "result",
          "type": "int256"
        },
        {
          "internalType": "bool",
          "name": "decided",
          "type": "bool"
        }
      ],
      "stateMutability": "view",
      "type": "function"
    },
    {
      "stateMutability": "payable",
      "type": "receive"
    },
    {
      "inputs": [],
      "name": "getApproved",
      "outputs": [
        {
          "internalType": "address[]",
          "name": "",
          "type": "address[]"
        }
      ],
      "stateMutability": "view",
      "type": "function"
    },
    {
      "inputs": [
        {
          "internalType": "address[]",
          "name": "approvedList",
          "type": "address[]"
        }
      ],
      "name": "approveVoters",
      "outputs": [],
      "stateMutability": "nonpayable",
      "type": "function"
    },
    {
      "inputs": [
        {
          "internalType": "address",
          "name": "unapproved",
          "type": "address"
        }
      ],
      "name": "removeApprovedVoter",
      "outputs": [],
      "stateMutability": "nonpayable",
      "type": "function"
    },
    {
      "inputs": [
        {
          "internalType": "address",
          "name": "newAdmin",
          "type": "address"
        }
      ],
      "name": "updateAdmin",
      "outputs": [],
      "stateMutability": "nonpayable",
      "type": "function"
    },
    {
      "inputs": [
        {
          "internalType": "string",
          "name": "issue",
          "type": "string"
        }
      ],
      "name": "createPoll",
      "outputs": [],
      "stateMutability": "nonpayable",
      "type": "function"
    },
    {
      "inputs": [
        {
          "internalType": "uint256",
          "name": "pollId",
          "type": "uint256"
        },
        {
          "internalType": "string",
          "name": "option",
          "type": "string"
        }
      ],
      "name": "addOption",
      "outputs": [],
      "stateMutability": "nonpayable",
      "type": "function"
    },
    {
      "inputs": [
        {
          "internalType": "uint256",
          "name": "pollId",
          "type": "uint256"
        }
      ],
      "name": "addOptionResult",
      "outputs": [],
      "stateMutability": "nonpayable",
      "type": "function"
    },
    {
      "inputs": [],
      "name": "getPolls",
      "outputs": [
        {
          "components": [
            {
              "internalType": "uint256",
              "name": "id",
              "type": "uint256"
            },
            {
              "internalType": "string",
              "name": "issue",
              "type": "string"
            },
            {
              "internalType": "address[]",
              "name": "voters",
              "type": "address[]"
            },
            {
              "internalType": "string[]",
              "name": "options",
              "type": "string[]"
            },
            {
              "internalType": "uint256[]",
              "name": "results",
              "type": "uint256[]"
            },
            {
              "internalType": "int256",
              "name": "result",
              "type": "int256"
            },
            {
              "internalType": "bool",
              "name": "decided",
              "type": "bool"
            }
          ],
          "internalType": "struct VotingContract.Poll[]",
          "name": "",
          "type": "tuple[]"
        }
      ],
      "stateMutability": "view",
      "type": "function"
    }
  ],
  "bytecode": "0x60806040523480156200001157600080fd5b5060405162002bf738038062002bf78339818101604052810190620000379190620002a5565b82600090805190602001906200004f92919062000160565b5081600160006101000a81548173ffffffffffffffffffffffffffffffffffffffff021916908373ffffffffffffffffffffffffffffffffffffffff16021790555080600560006101000a81548173ffffffffffffffffffffffffffffffffffffffff021916908373ffffffffffffffffffffffffffffffffffffffff1602179055506003600160009054906101000a900473ffffffffffffffffffffffffffffffffffffffff169080600181540180825580915050600190039060005260206000200160009091909190916101000a81548173ffffffffffffffffffffffffffffffffffffffff021916908373ffffffffffffffffffffffffffffffffffffffff160217905550505050620004f2565b8280546200016e90620003e9565b90600052602060002090601f016020900481019282620001925760008555620001de565b82601f10620001ad57805160ff1916838001178555620001de565b82800160010185558215620001de579182015b82811115620001dd578251825591602001919060010190620001c0565b5b509050620001ed9190620001f1565b5090565b5b808211156200020c576000816000905550600101620001f2565b5090565b600062000227620002218462000349565b62000320565b905082815260208101848484011115620002465762000245620004b8565b5b62000253848285620003b3565b509392505050565b6000815190506200026c81620004d8565b92915050565b600082601f8301126200028a5762000289620004b3565b5b81516200029c84826020860162000210565b91505092915050565b600080600060608486031215620002c157620002c0620004c2565b5b600084015167ffffffffffffffff811115620002e257620002e1620004bd565b5b620002f08682870162000272565b935050602062000303868287016200025b565b925050604062000316868287016200025b565b9150509250925092565b60006200032c6200033f565b90506200033a82826200041f565b919050565b6000604051905090565b600067ffffffffffffffff82111562000367576200036662000484565b5b6200037282620004c7565b9050602081019050919050565b60006200038c8262000393565b9050919050565b600073ffffffffffffffffffffffffffffffffffffffff82169050919050565b60005b83811015620003d3578082015181840152602081019050620003b6565b83811115620003e3576000848401525b50505050565b600060028204905060018216806200040257607f821691505b6020821081141562000419576200041862000455565b5b50919050565b6200042a82620004c7565b810181811067ffffffffffffffff821117156200044c576200044b62000484565b5b80604052505050565b7f4e487b7100000000000000000000000000000000000000000000000000000000600052602260045260246000fd5b7f4e487b7100000000000000000000000000000000000000000000000000000000600052604160045260246000fd5b600080fd5b600080fd5b600080fd5b600080fd5b6000601f19601f8301169050919050565b620004e3816200037f565b8114620004ef57600080fd5b50565b6126f580620005026000396000f3fe6080604052600436106100c65760003560e01c8063ac2f00741161007f578063e2f273bd11610059578063e2f273bd14610276578063ea57d5d41461029f578063f674b24d146102c8578063f851a440146102f1576100cd565b8063ac2f0074146101e2578063b8684aba14610222578063d07b77b51461024b576100cd565b806306fdde03146100d2578063120fe89b146100fd578063189a563f146101285780633dae35ce1461015157806374a9ced91461017c5780637d4061e6146101a5576100cd565b366100cd57005b600080fd5b3480156100de57600080fd5b506100e761031c565b6040516100f49190611ef7565b60405180910390f35b34801561010957600080fd5b506101126103aa565b60405161011f9190611eba565b60405180910390f35b34801561013457600080fd5b5061014f600480360381019061014a919061180a565b610689565b005b34801561015d57600080fd5b506101666108e6565b6040516101739190611edc565b60405180910390f35b34801561018857600080fd5b506101a3600480360381019061019e9190611853565b61090c565b005b3480156101b157600080fd5b506101cc60048036038101906101c7919061189c565b610b40565b6040516101d99190611e7d565b60405180910390f35b3480156101ee57600080fd5b506102096004803603810190610204919061189c565b610b7f565b6040516102199493929190611ffb565b60405180910390f35b34801561022e57600080fd5b506102496004803603810190610244919061189c565b610c54565b005b34801561025757600080fd5b50610260610caa565b60405161026d9190611e98565b60405180910390f35b34801561028257600080fd5b5061029d600480360381019061029891906117dd565b610d38565b005b3480156102ab57600080fd5b506102c660048036038101906102c191906118c9565b610ff3565b005b3480156102d457600080fd5b506102ef60048036038101906102ea91906117dd565b6110c5565b005b3480156102fd57600080fd5b50610306611441565b6040516103139190611e7d565b60405180910390f35b600080546103299061231c565b80601f01602080910402602001604051908101604052809291908181526020018280546103559061231c565b80156103a25780601f10610377576101008083540402835291602001916103a2565b820191906000526020600020905b81548152906001019060200180831161038557829003601f168201915b505050505081565b60606002805480602002602001604051908101604052809291908181526020016000905b8282101561068057838290600052602060002090600702016040518060e00160405290816000820154815260200160018201805461040b9061231c565b80601f01602080910402602001604051908101604052809291908181526020018280546104379061231c565b80156104845780601f1061045957610100808354040283529160200191610484565b820191906000526020600020905b81548152906001019060200180831161046757829003601f168201915b505050505081526020016002820180548060200260200160405190810160405280929190818152602001828054801561051257602002820191906000526020600020905b8160009054906101000a900473ffffffffffffffffffffffffffffffffffffffff1673ffffffffffffffffffffffffffffffffffffffff16815260200190600101908083116104c8575b5050505050815260200160038201805480602002602001604051908101604052809291908181526020016000905b828210156105ec57838290600052602060002001805461055f9061231c565b80601f016020809104026020016040519081016040528092919081815260200182805461058b9061231c565b80156105d85780601f106105ad576101008083540402835291602001916105d8565b820191906000526020600020905b8154815290600101906020018083116105bb57829003601f168201915b505050505081526020019060010190610540565b5050505081526020016004820180548060200260200160405190810160405280929190818152602001828054801561064357602002820191906000526020600020905b81548152602001906001019080831161062f575b50505050508152602001600582015481526020016006820160009054906101000a900460ff161515151581525050815260200190600101906103ce565b50505050905090565b600160009054906101000a900473ffffffffffffffffffffffffffffffffffffffff1673ffffffffffffffffffffffffffffffffffffffff163373ffffffffffffffffffffffffffffffffffffffff1614610719576040517f08c379a000000000000000000000000000000000000000000000000000000000815260040161071090611f5b565b60405180910390fd5b600081511161075d576040517f08c379a000000000000000000000000000000000000000000000000000000000815260040161075490611f9b565b60405180910390fd5b60005b81518110156108e257600082828151811061077e5761077d612455565b5b60200260200101519050600073ffffffffffffffffffffffffffffffffffffffff168173ffffffffffffffffffffffffffffffffffffffff1614156107c357506108cf565b6000805b600380549050811015610862578273ffffffffffffffffffffffffffffffffffffffff16600382815481106107ff576107fe612455565b5b9060005260206000200160009054906101000a900473ffffffffffffffffffffffffffffffffffffffff1673ffffffffffffffffffffffffffffffffffffffff16141561084f5760019150610862565b808061085a9061237f565b9150506107c7565b50806108cc576003829080600181540180825580915050600190039060005260206000200160009091909190916101000a81548173ffffffffffffffffffffffffffffffffffffffff021916908373ffffffffffffffffffffffffffffffffffffffff1602179055505b50505b80806108da9061237f565b915050610760565b5050565b600560009054906101000a900473ffffffffffffffffffffffffffffffffffffffff1681565b600160009054906101000a900473ffffffffffffffffffffffffffffffffffffffff1673ffffffffffffffffffffffffffffffffffffffff163373ffffffffffffffffffffffffffffffffffffffff161461099c576040517f08c379a000000000000000000000000000000000000000000000000000000000815260040161099390611f5b565b60405180910390fd5b60608060606000600280549050905060026040518060e0016040528083815260200187815260200186815260200185815260200184815260200160008152602001600015158152509080600181540180825580915050600190039060005260206000209060070201600090919091909150600082015181600001556020820151816001019080519060200190610a33929190611467565b506040820151816002019080519060200190610a509291906114ed565b506060820151816003019080519060200190610a6d929190611577565b506080820151816004019080519060200190610a8a9291906115d7565b5060a0820151816005015560c08201518160060160006101000a81548160ff02191690831515021790555050507f65d5ac2bf1bca69566bef1affdfca5bb37b9577fc0b3af4c7c4638225e67b39c60028281548110610aec57610aeb612455565b5b90600052602060002090600702016000015460028381548110610b1257610b11612455565b5b9060005260206000209060070201600101604051610b31929190612047565b60405180910390a15050505050565b60038181548110610b5057600080fd5b906000526020600020016000915054906101000a900473ffffffffffffffffffffffffffffffffffffffff1681565b60028181548110610b8f57600080fd5b9060005260206000209060070201600091509050806000015490806001018054610bb89061231c565b80601f0160208091040260200160405190810160405280929190818152602001828054610be49061231c565b8015610c315780601f10610c0657610100808354040283529160200191610c31565b820191906000526020600020905b815481529060010190602001808311610c1457829003601f168201915b5050505050908060050154908060060160009054906101000a900460ff16905084565b600060028281548110610c6a57610c69612455565b5b9060005260206000209060070201905080600401600090806001815401808255809150506001900390600052602060002001600090919091909150555050565b60606003805480602002602001604051908101604052809291908181526020018280548015610d2e57602002820191906000526020600020905b8160009054906101000a900473ffffffffffffffffffffffffffffffffffffffff1673ffffffffffffffffffffffffffffffffffffffff1681526020019060010190808311610ce4575b5050505050905090565b600160009054906101000a900473ffffffffffffffffffffffffffffffffffffffff1673ffffffffffffffffffffffffffffffffffffffff163373ffffffffffffffffffffffffffffffffffffffff1614610dc8576040517f08c379a0000000000000000000000000000000000000000000000000000000008152600401610dbf90611f5b565b60405180910390fd5b80600073ffffffffffffffffffffffffffffffffffffffff168173ffffffffffffffffffffffffffffffffffffffff161415610e39576040517f08c379a0000000000000000000000000000000000000000000000000000000008152600401610e3090611f3b565b60405180910390fd5b600160009054906101000a900473ffffffffffffffffffffffffffffffffffffffff1673ffffffffffffffffffffffffffffffffffffffff168273ffffffffffffffffffffffffffffffffffffffff161415610eca576040517f08c379a0000000000000000000000000000000000000000000000000000000008152600401610ec190611fbb565b60405180910390fd5b6000805b600380549050811015610f655760038181548110610eef57610eee612455565b5b9060005260206000200160009054906101000a900473ffffffffffffffffffffffffffffffffffffffff1673ffffffffffffffffffffffffffffffffffffffff168473ffffffffffffffffffffffffffffffffffffffff161415610f5257600191505b8080610f5d9061237f565b915050610ece565b5080610fa6576040517f08c379a0000000000000000000000000000000000000000000000000000000008152600401610f9d90611f7b565b60405180910390fd5b8015610fee5782600160006101000a81548173ffffffffffffffffffffffffffffffffffffffff021916908373ffffffffffffffffffffffffffffffffffffffff1602179055505b505050565b60006002838154811061100957611008612455565b5b906000526020600020906007020190508060030182908060018154018082558091505060019003906000526020600020016000909190919091509080519060200190611056929190611467565b507f7ae014784367f0374d742689207407b5b2c4ada3f3d257bbc563362c2c2a86f481600301600183600301805490506110909190612230565b815481106110a1576110a0612455565b5b906000526020600020016040516110b89190611f19565b60405180910390a1505050565b600160009054906101000a900473ffffffffffffffffffffffffffffffffffffffff1673ffffffffffffffffffffffffffffffffffffffff163373ffffffffffffffffffffffffffffffffffffffff1614611155576040517f08c379a000000000000000000000000000000000000000000000000000000000815260040161114c90611f5b565b60405180910390fd5b80600073ffffffffffffffffffffffffffffffffffffffff168173ffffffffffffffffffffffffffffffffffffffff1614156111c6576040517f08c379a00000000000000000000000000000000000000000000000000000000081526004016111bd90611f3b565b60405180910390fd5b600160009054906101000a900473ffffffffffffffffffffffffffffffffffffffff1673ffffffffffffffffffffffffffffffffffffffff168273ffffffffffffffffffffffffffffffffffffffff161415611257576040517f08c379a000000000000000000000000000000000000000000000000000000000815260040161124e90611fdb565b60405180910390fd5b6000806000905060005b6003805490508110156112ff578473ffffffffffffffffffffffffffffffffffffffff166003828154811061129957611298612455565b5b9060005260206000200160009054906101000a900473ffffffffffffffffffffffffffffffffffffffff1673ffffffffffffffffffffffffffffffffffffffff1614156112ec57809250600191506112ff565b80806112f79061237f565b915050611261565b50801561143b576003828154811061131a57611319612455565b5b9060005260206000200160006101000a81549073ffffffffffffffffffffffffffffffffffffffff02191690556003600160038054905061135b9190612230565b8154811061136c5761136b612455565b5b9060005260206000200160009054906101000a900473ffffffffffffffffffffffffffffffffffffffff16600383815481106113ab576113aa612455565b5b9060005260206000200160006101000a81548173ffffffffffffffffffffffffffffffffffffffff021916908373ffffffffffffffffffffffffffffffffffffffff160217905550600380548061140557611404612426565b5b6001900381819060005260206000200160006101000a81549073ffffffffffffffffffffffffffffffffffffffff021916905590555b50505050565b600160009054906101000a900473ffffffffffffffffffffffffffffffffffffffff1681565b8280546114739061231c565b90600052602060002090601f01602090048101928261149557600085556114dc565b82601f106114ae57805160ff19168380011785556114dc565b828001600101855582156114dc579182015b828111156114db5782518255916020019190600101906114c0565b5b5090506114e99190611624565b5090565b828054828255906000526020600020908101928215611566579160200282015b828111156115655782518260006101000a81548173ffffffffffffffffffffffffffffffffffffffff021916908373ffffffffffffffffffffffffffffffffffffffff1602179055509160200191906001019061150d565b5b5090506115739190611624565b5090565b8280548282559060005260206000209081019282156115c6579160200282015b828111156115c55782518290805190602001906115b5929190611467565b5091602001919060010190611597565b5b5090506115d39190611641565b5090565b828054828255906000526020600020908101928215611613579160200282015b828111156116125782518255916020019190600101906115f7565b5b5090506116209190611624565b5090565b5b8082111561163d576000816000905550600101611625565b5090565b5b8082111561166157600081816116589190611665565b50600101611642565b5090565b5080546116719061231c565b6000825580601f1061168357506116a2565b601f0160209004906000526020600020908101906116a19190611624565b5b50565b60006116b86116b38461209c565b612077565b905080838252602082019050828560208602820111156116db576116da6124b8565b5b60005b8581101561170b57816116f18882611757565b8452602084019350602083019250506001810190506116de565b5050509392505050565b6000611728611723846120c8565b612077565b905082815260208101848484011115611744576117436124bd565b5b61174f8482856122da565b509392505050565b60008135905061176681612691565b92915050565b600082601f830112611781576117806124b3565b5b81356117918482602086016116a5565b91505092915050565b600082601f8301126117af576117ae6124b3565b5b81356117bf848260208601611715565b91505092915050565b6000813590506117d7816126a8565b92915050565b6000602082840312156117f3576117f26124c7565b5b600061180184828501611757565b91505092915050565b6000602082840312156118205761181f6124c7565b5b600082013567ffffffffffffffff81111561183e5761183d6124c2565b5b61184a8482850161176c565b91505092915050565b600060208284031215611869576118686124c7565b5b600082013567ffffffffffffffff811115611887576118866124c2565b5b6118938482850161179a565b91505092915050565b6000602082840312156118b2576118b16124c7565b5b60006118c0848285016117c8565b91505092915050565b600080604083850312156118e0576118df6124c7565b5b60006118ee858286016117c8565b925050602083013567ffffffffffffffff81111561190f5761190e6124c2565b5b61191b8582860161179a565b9150509250929050565b6000611931838361197d565b60208301905092915050565b60006119498383611bea565b905092915050565b600061195d8383611dae565b905092915050565b60006119718383611e5f565b60208301905092915050565b61198681612264565b82525050565b61199581612264565b82525050565b60006119a68261214e565b6119b081856121b9565b93506119bb836120f9565b8060005b838110156119ec5781516119d38882611925565b97506119de83612185565b9250506001810190506119bf565b5085935050505092915050565b6000611a048261214e565b611a0e81856121ca565b9350611a19836120f9565b8060005b83811015611a4a578151611a318882611925565b9750611a3c83612185565b925050600181019050611a1d565b5085935050505092915050565b6000611a6282612159565b611a6c81856121db565b935083602082028501611a7e85612109565b8060005b85811015611aba5784840389528151611a9b858261193d565b9450611aa683612192565b925060208a01995050600181019050611a82565b50829750879550505050505092915050565b6000611ad782612164565b611ae181856121ec565b935083602082028501611af385612119565b8060005b85811015611b2f5784840389528151611b108582611951565b9450611b1b8361219f565b925060208a01995050600181019050611af7565b50829750879550505050505092915050565b6000611b4c8261216f565b611b5681856121fd565b9350611b6183612129565b8060005b83811015611b92578151611b798882611965565b9750611b84836121ac565b925050600181019050611b65565b5085935050505092915050565b611ba881612276565b82525050565b611bb781612276565b82525050565b611bc6816122b6565b82525050565b611bd581612282565b82525050565b611be481612282565b82525050565b6000611bf58261217a565b611bff818561220e565b9350611c0f8185602086016122e9565b611c18816124cc565b840191505092915050565b6000611c2e8261217a565b611c38818561221f565b9350611c488185602086016122e9565b611c51816124cc565b840191505092915050565b60008154611c698161231c565b611c73818661221f565b94506001821660008114611c8e5760018114611ca057611cd3565b60ff1983168652602086019350611cd3565b611ca985612139565b60005b83811015611ccb57815481890152600182019150602081019050611cac565b808801955050505b50505092915050565b6000611ce9601e8361221f565b9150611cf4826124dd565b602082019050919050565b6000611d0c60228361221f565b9150611d1782612506565b604082019050919050565b6000611d2f602b8361221f565b9150611d3a82612555565b604082019050919050565b6000611d5260268361221f565b9150611d5d826125a4565b604082019050919050565b6000611d7560268361221f565b9150611d80826125f3565b604082019050919050565b6000611d98602b8361221f565b9150611da382612642565b604082019050919050565b600060e083016000830151611dc66000860182611e5f565b5060208301518482036020860152611dde8282611bea565b91505060408301518482036040860152611df8828261199b565b91505060608301518482036060860152611e128282611a57565b91505060808301518482036080860152611e2c8282611b41565b91505060a0830151611e4160a0860182611bcc565b5060c0830151611e5460c0860182611b9f565b508091505092915050565b611e68816122ac565b82525050565b611e77816122ac565b82525050565b6000602082019050611e92600083018461198c565b92915050565b60006020820190508181036000830152611eb281846119f9565b905092915050565b60006020820190508181036000830152611ed48184611acc565b905092915050565b6000602082019050611ef16000830184611bbd565b92915050565b60006020820190508181036000830152611f118184611c23565b905092915050565b60006020820190508181036000830152611f338184611c5c565b905092915050565b60006020820190508181036000830152611f5481611cdc565b9050919050565b60006020820190508181036000830152611f7481611cff565b9050919050565b60006020820190508181036000830152611f9481611d22565b9050919050565b60006020820190508181036000830152611fb481611d45565b9050919050565b60006020820190508181036000830152611fd481611d68565b9050919050565b60006020820190508181036000830152611ff481611d8b565b9050919050565b60006080820190506120106000830187611e6e565b81810360208301526120228186611c23565b90506120316040830185611bdb565b61203e6060830184611bae565b95945050505050565b600060408201905061205c6000830185611e6e565b818103602083015261206e8184611c5c565b90509392505050565b6000612081612092565b905061208d828261234e565b919050565b6000604051905090565b600067ffffffffffffffff8211156120b7576120b6612484565b5b602082029050602081019050919050565b600067ffffffffffffffff8211156120e3576120e2612484565b5b6120ec826124cc565b9050602081019050919050565b6000819050602082019050919050565b6000819050602082019050919050565b6000819050602082019050919050565b6000819050602082019050919050565b60008190508160005260206000209050919050565b600081519050919050565b600081519050919050565b600081519050919050565b600081519050919050565b600081519050919050565b6000602082019050919050565b6000602082019050919050565b6000602082019050919050565b6000602082019050919050565b600082825260208201905092915050565b600082825260208201905092915050565b600082825260208201905092915050565b600082825260208201905092915050565b600082825260208201905092915050565b600082825260208201905092915050565b600082825260208201905092915050565b600061223b826122ac565b9150612246836122ac565b925082821015612259576122586123c8565b5b828203905092915050565b600061226f8261228c565b9050919050565b60008115159050919050565b6000819050919050565b600073ffffffffffffffffffffffffffffffffffffffff82169050919050565b6000819050919050565b60006122c1826122c8565b9050919050565b60006122d38261228c565b9050919050565b82818337600083830152505050565b60005b838110156123075780820151818401526020810190506122ec565b83811115612316576000848401525b50505050565b6000600282049050600182168061233457607f821691505b60208210811415612348576123476123f7565b5b50919050565b612357826124cc565b810181811067ffffffffffffffff8211171561237657612375612484565b5b80604052505050565b600061238a826122ac565b91507fffffffffffffffffffffffffffffffffffffffffffffffffffffffffffffffff8214156123bd576123bc6123c8565b5b600182019050919050565b7f4e487b7100000000000000000000000000000000000000000000000000000000600052601160045260246000fd5b7f4e487b7100000000000000000000000000000000000000000000000000000000600052602260045260246000fd5b7f4e487b7100000000000000000000000000000000000000000000000000000000600052603160045260246000fd5b7f4e487b7100000000000000000000000000000000000000000000000000000000600052603260045260246000fd5b7f4e487b7100000000000000000000000000000000000000000000000000000000600052604160045260246000fd5b600080fd5b600080fd5b600080fd5b600080fd5b600080fd5b6000601f19601f8301169050919050565b7f412076616c69642061646472657373206d757374206265207061737365640000600082015250565b7f4f6e6c792061646d696e206d617920706572666f726d2074686973206163746960008201527f6f6e000000000000000000000000000000000000000000000000000000000000602082015250565b7f4e65772061646d696e206d75737420626520616e20616c72656164792061707060008201527f726f76656420766f746572000000000000000000000000000000000000000000602082015250565b7f4d757374206e6f74207061737320656d707479206172726179206f662061646460008201527f7265737365730000000000000000000000000000000000000000000000000000602082015250565b7f43616e6e6f74207265706c6163652061646d696e20776974682073616d65206160008201527f6464726573730000000000000000000000000000000000000000000000000000602082015250565b7f41646d696e206d6179206e6f742062652072656d6f7665642066726f6d20617060008201527f70726f766564206c697374000000000000000000000000000000000000000000602082015250565b61269a81612264565b81146126a557600080fd5b50565b6126b1816122ac565b81146126bc57600080fd5b5056fea2646970667358221220b2317961fbf3c66ca5034f0154a687930cd025bbb1a6a7c2b24da17dca9d778c64736f6c63430008060033",
  "immutableReferences": {},
  "source": "// SPDX-License-Identifier: UNLICENSED\npragma solidity ^0.8.6;\n\nimport \"./CreatorContract.sol\";\n\ncontract VotingContract {\n\n    event PollCreated(\n        uint id,\n        string issue\n    );\n\n    event OptionAdded(\n        string opt\n    );\n\n    // Admin can create multiple polls for their organization to vote on\n    /* I wanted to have a mapping of uint => OptionStruct\n    but could NOT get it to work so I'm working with a \n    more rudimentary approached. While not as sophisticated,\n    it works and that's what makes me happy. This is my first\n    real capstone project so I can't try and get too fancy */ \n    struct Poll {\n        uint id;\n        // issue on which voters are deciding on\n        string issue;\n        address[] voters;\n        string[] options;\n        uint[] results;\n        // If -1, no result has been determined.\n        // If other number, index of option won.\n        int result;\n        bool decided;\n    }\n\n    event Debug(\n        string description\n    );\n\n    string public name;\n    address public admin;\n    // uint numPolls;\n    // mapping(uint => Poll) public polls;\n    Poll[] public polls;\n    // array of approved addresses\n    address[] public approved;\n    // stores whether voter has voted in a particular poll\n    // mapping(voterAddress => mapping(pollId => bool))\n    mapping(address => mapping(uint => bool)) hasVoted;\n    /* Stores CreatorContract to update the reference to votingContract name\n    as well as admin rights if necessary */\n    /* Even though it doesn't fucking work :/ for some reason I get\n    an error when I call a function inside creatorContract from this \n    smartContract which modifies the state in CreatorContract */ \n    CreatorContract public creatorContract;\n    \n\n    constructor(string memory _name, address _admin, address _creator) {\n        /* Added this thinking it'd be useful but it seems that the contract \n        constructor automatically does a string length check */\n        // require(bytes(_name).length > 0, \"Contract name must not be empty\");\n        name = _name;\n        admin = _admin;\n        creatorContract = CreatorContract(_creator);\n        approved.push(admin);\n    }\n\n    receive() external payable {}\n\n    function getApproved() external view returns(address[] memory) {\n        return approved;\n    }\n\n    // Should I add a limit to the approvedList array?\n    function approveVoters(address[] memory approvedList) external onlyAdmin() {\n        require(approvedList.length > 0, \"Must not pass empty array of addresses\");\n        // should do a check to ensure not adding voter who is already approved\n\n        /* adds addresses from approvedList to approved\n        while simultaneously checking for repeats */\n        for(uint i = 0; i < approvedList.length; i++){\n            address current = approvedList[i];\n            // skips address if equal to address(0)\n            if(current == address(0)) {\n                continue;\n            }\n            bool repeat = false;\n            for(uint j = 0; j < approved.length; j++){\n                if(approved[j] == current) {\n                    repeat = true;\n                    break;\n                } \n            }\n            // ensures address is not a repeat before pushing to array\n            if(!repeat) {\n                approved.push(current);\n            }\n        }\n    }\n\n    function removeApprovedVoter(address unapproved) external onlyAdmin() validAddress(unapproved) {                \n        require(unapproved != admin, \"Admin may not be removed from approved list\");\n        \n        uint unapprovedIndex;\n        bool foundIndex = false;\n        \n        for(uint i = 0; i < approved.length; i++){\n            if(approved[i] == unapproved){\n                unapprovedIndex = i;\n                foundIndex = true;\n                // stops forLoop if found index of unapproved\n                break;\n            }\n        }\n\n        if(foundIndex){\n            delete approved[unapprovedIndex];\n            // replaces deleted spot with last element of array\n            /* I questionn whether i need to explicitly delete\n            the unapprovedIndex element or if i can just skip\n            straight to replacing it as i do below */\n            approved[unapprovedIndex] = approved[approved.length - 1];\n            /* then removes last element from array to ensure the approved\n            address doesn't show up twice in array */\n            approved.pop();\n        }\n    }\n\n    /* This updates who is the current admin. there may only be \n    one admin per VotingContract */\n    // Purposely requiring that newAdmin is an approvedAddress for safety\n    function updateAdmin(address newAdmin) external onlyAdmin() validAddress(newAdmin) {\n        require(newAdmin != admin, \"Cannot replace admin with same address\");\n\n        // address oldAdmin = admin;\n        bool newAdminIsApproved = false;\n\n        // checks if newAdmin is already approved\n        for(uint i = 0; i < approved.length; i++){\n            if(newAdmin == approved[i]){\n                newAdminIsApproved = true;\n            }\n        }\n\n        require(newAdminIsApproved, \n            \"New admin must be an already approved voter\");\n\n        // newAdmin is added only if they are already an approved voter\n        // redundant check after the above require statement \n        if(newAdminIsApproved){\n            // should wait until creatorContract.updateContractAdmin() returns success\n            admin = newAdmin;\n            // updates who has admin access to contract on CreatorContract.sol\n            /* Not sure how I feel about passing msg.sender as a parameter vs\n            calling the function AS msg.sender. I'd prefer to do that. If you're \n            reading this it means I need help lol. Would just like to know \n            how to call updateContractAdmin AS msg.sender instead of sending it \n            as a parameter */ \n            /* this SHOULD be called, but i'm getting a revert error when \n            calling directly from this SmartContract, not when calling \n            as account1 or whatever. Going to look into this in the future\n            but I need to move on right now or else my head will fucking explode.  */ \n            // creatorContract.updateContractAdmin(newAdmin, msg.sender, address(this));\n        }\n    }\n\n    function createPoll(string memory issue) external onlyAdmin() {\n        address[] memory _voters;\n        string[] memory _options;\n        uint[] memory _results;\n        uint pollIndex = polls.length;\n        polls.push(Poll(\n            pollIndex,\n            issue,\n            _voters,\n            _options,\n            _results,\n            // final result\n            0,\n            // Whether poll has been decided\n            false\n        ));\n\n        emit PollCreated(polls[pollIndex].id, polls[pollIndex].issue);\n    }\n\n    /* For some reason, I can only add one option at a time.\n    Tried doing a forloop to add each option from incoming array \n    but that wouldn't work. */ \n    /* ALSO tried adding options inside of createPoll() but \n    for some reason that wouldn't work. Has to be a separate function\n    call and I still don't understand why. */\n    function addOption(uint pollId, string memory option) external {\n        Poll storage p = polls[pollId];\n        p.options.push(option);\n        emit OptionAdded(p.options[p.options.length - 1]);\n    }\n\n    function addOptionResult(uint pollId) external {\n        Poll storage p = polls[pollId];\n        p.results.push(0);\n    }\n\n    function getPolls() external view returns(Poll[] memory) {\n        return polls;\n    }\n\n    modifier onlyAdmin() {\n        require(msg.sender == admin, \n            \"Only admin may perform this action\");\n        _;\n    }\n\n    modifier validAddress(address _address) {\n        require(_address != address(0), \n            \"A valid address must be passed\");\n        _;\n    }\n\n    \n}",
  "sourcePath": "/home/odon/code/bloc/self-directed/vote_per_organization/backend/contracts/VotingContract.sol",
  "compiler": {
    "name": "solc",
    "version": "0.8.6+commit.11564f7e.Emscripten.clang"
  },
  "schemaVersion": "3.4.1",
  "updatedAt": "2021-08-01T21:57:39.995Z",
  "networkType": "ethereum",
  "devdoc": {
    "kind": "dev",
    "methods": {},
    "version": 1
  },
  "userdoc": {
    "kind": "user",
    "methods": {},
    "version": 1
  }
}