{
  "contractName": "VotingContract",
  "abi": [
    {
      "inputs": [
        {
          "internalType": "string",
          "name": "_name",
          "type": "string"
        },
        {
          "internalType": "address",
          "name": "_admin",
          "type": "address"
        },
        {
          "internalType": "address",
          "name": "_creator",
          "type": "address"
        }
      ],
      "stateMutability": "nonpayable",
      "type": "constructor"
    },
    {
      "anonymous": false,
      "inputs": [
        {
          "indexed": false,
          "internalType": "string",
          "name": "description",
          "type": "string"
        }
      ],
      "name": "Debug",
      "type": "event"
    },
    {
      "anonymous": false,
      "inputs": [
        {
          "indexed": false,
          "internalType": "string",
          "name": "opt",
          "type": "string"
        }
      ],
      "name": "OptionAdded",
      "type": "event"
    },
    {
      "anonymous": false,
      "inputs": [
        {
          "indexed": false,
          "internalType": "uint256",
          "name": "id",
          "type": "uint256"
        },
        {
          "indexed": false,
          "internalType": "string",
          "name": "issue",
          "type": "string"
        }
      ],
      "name": "PollCreated",
      "type": "event"
    },
    {
      "anonymous": false,
      "inputs": [
        {
          "indexed": false,
          "internalType": "uint256",
          "name": "pollId",
          "type": "uint256"
        },
        {
          "indexed": false,
          "internalType": "uint256",
          "name": "optionId",
          "type": "uint256"
        },
        {
          "indexed": false,
          "internalType": "address",
          "name": "voter",
          "type": "address"
        },
        {
          "indexed": false,
          "internalType": "bool",
          "name": "decided",
          "type": "bool"
        }
      ],
      "name": "VoteCasted",
      "type": "event"
    },
    {
      "inputs": [],
      "name": "admin",
      "outputs": [
        {
          "internalType": "address",
          "name": "",
          "type": "address"
        }
      ],
      "stateMutability": "view",
      "type": "function",
      "constant": true
    },
    {
      "inputs": [
        {
          "internalType": "uint256",
          "name": "",
          "type": "uint256"
        }
      ],
      "name": "approved",
      "outputs": [
        {
          "internalType": "address",
          "name": "",
          "type": "address"
        }
      ],
      "stateMutability": "view",
      "type": "function",
      "constant": true
    },
    {
      "inputs": [],
      "name": "creatorContract",
      "outputs": [
        {
          "internalType": "contract CreatorContract",
          "name": "",
          "type": "address"
        }
      ],
      "stateMutability": "view",
      "type": "function",
      "constant": true
    },
    {
      "inputs": [],
      "name": "name",
      "outputs": [
        {
          "internalType": "string",
          "name": "",
          "type": "string"
        }
      ],
      "stateMutability": "view",
      "type": "function",
      "constant": true
    },
    {
      "inputs": [
        {
          "internalType": "uint256",
          "name": "",
          "type": "uint256"
        }
      ],
      "name": "polls",
      "outputs": [
        {
          "internalType": "uint256",
          "name": "id",
          "type": "uint256"
        },
        {
          "internalType": "string",
          "name": "issue",
          "type": "string"
        },
        {
          "internalType": "uint256",
          "name": "result",
          "type": "uint256"
        },
        {
          "internalType": "bool",
          "name": "decided",
          "type": "bool"
        }
      ],
      "stateMutability": "view",
      "type": "function",
      "constant": true
    },
    {
      "inputs": [],
      "name": "getPolls",
      "outputs": [
        {
          "components": [
            {
              "internalType": "uint256",
              "name": "id",
              "type": "uint256"
            },
            {
              "internalType": "string",
              "name": "issue",
              "type": "string"
            },
            {
              "internalType": "address[]",
              "name": "voters",
              "type": "address[]"
            },
            {
              "internalType": "string[]",
              "name": "options",
              "type": "string[]"
            },
            {
              "internalType": "uint256[]",
              "name": "results",
              "type": "uint256[]"
            },
            {
              "internalType": "uint256",
              "name": "result",
              "type": "uint256"
            },
            {
              "internalType": "bool",
              "name": "decided",
              "type": "bool"
            }
          ],
          "internalType": "struct VotingContract.Poll[]",
          "name": "",
          "type": "tuple[]"
        }
      ],
      "stateMutability": "view",
      "type": "function",
      "constant": true
    },
    {
      "inputs": [],
      "name": "getApproved",
      "outputs": [
        {
          "internalType": "address[]",
          "name": "",
          "type": "address[]"
        }
      ],
      "stateMutability": "view",
      "type": "function",
      "constant": true
    },
    {
      "inputs": [
        {
          "internalType": "address[]",
          "name": "approvedList",
          "type": "address[]"
        }
      ],
      "name": "approveVoters",
      "outputs": [],
      "stateMutability": "nonpayable",
      "type": "function"
    },
    {
      "inputs": [
        {
          "internalType": "address",
          "name": "unapproved",
          "type": "address"
        }
      ],
      "name": "removeApprovedVoter",
      "outputs": [],
      "stateMutability": "nonpayable",
      "type": "function"
    },
    {
      "inputs": [
        {
          "internalType": "address",
          "name": "newAdmin",
          "type": "address"
        }
      ],
      "name": "updateAdmin",
      "outputs": [],
      "stateMutability": "nonpayable",
      "type": "function"
    },
    {
      "inputs": [
        {
          "internalType": "string",
          "name": "issue",
          "type": "string"
        }
      ],
      "name": "createPoll",
      "outputs": [],
      "stateMutability": "nonpayable",
      "type": "function"
    },
    {
      "inputs": [
        {
          "internalType": "uint256",
          "name": "pollId",
          "type": "uint256"
        },
        {
          "internalType": "string",
          "name": "option",
          "type": "string"
        }
      ],
      "name": "addOption",
      "outputs": [],
      "stateMutability": "nonpayable",
      "type": "function"
    },
    {
      "inputs": [
        {
          "internalType": "uint256",
          "name": "pollId",
          "type": "uint256"
        }
      ],
      "name": "addOptionResult",
      "outputs": [],
      "stateMutability": "nonpayable",
      "type": "function"
    },
    {
      "inputs": [
        {
          "internalType": "uint256",
          "name": "pollId",
          "type": "uint256"
        },
        {
          "internalType": "uint256",
          "name": "optionId",
          "type": "uint256"
        }
      ],
      "name": "vote",
      "outputs": [],
      "stateMutability": "nonpayable",
      "type": "function"
    }
  ],
  "bytecode": "0x60806040523480156200001157600080fd5b50604051620034dc380380620034dc8339818101604052810190620000379190620002a5565b82600090805190602001906200004f92919062000160565b5081600160006101000a81548173ffffffffffffffffffffffffffffffffffffffff021916908373ffffffffffffffffffffffffffffffffffffffff16021790555080600560006101000a81548173ffffffffffffffffffffffffffffffffffffffff021916908373ffffffffffffffffffffffffffffffffffffffff1602179055506003600160009054906101000a900473ffffffffffffffffffffffffffffffffffffffff169080600181540180825580915050600190039060005260206000200160009091909190916101000a81548173ffffffffffffffffffffffffffffffffffffffff021916908373ffffffffffffffffffffffffffffffffffffffff160217905550505050620004f2565b8280546200016e90620003e9565b90600052602060002090601f016020900481019282620001925760008555620001de565b82601f10620001ad57805160ff1916838001178555620001de565b82800160010185558215620001de579182015b82811115620001dd578251825591602001919060010190620001c0565b5b509050620001ed9190620001f1565b5090565b5b808211156200020c576000816000905550600101620001f2565b5090565b600062000227620002218462000349565b62000320565b905082815260208101848484011115620002465762000245620004b8565b5b62000253848285620003b3565b509392505050565b6000815190506200026c81620004d8565b92915050565b600082601f8301126200028a5762000289620004b3565b5b81516200029c84826020860162000210565b91505092915050565b600080600060608486031215620002c157620002c0620004c2565b5b600084015167ffffffffffffffff811115620002e257620002e1620004bd565b5b620002f08682870162000272565b935050602062000303868287016200025b565b925050604062000316868287016200025b565b9150509250925092565b60006200032c6200033f565b90506200033a82826200041f565b919050565b6000604051905090565b600067ffffffffffffffff82111562000367576200036662000484565b5b6200037282620004c7565b9050602081019050919050565b60006200038c8262000393565b9050919050565b600073ffffffffffffffffffffffffffffffffffffffff82169050919050565b60005b83811015620003d3578082015181840152602081019050620003b6565b83811115620003e3576000848401525b50505050565b600060028204905060018216806200040257607f821691505b6020821081141562000419576200041862000455565b5b50919050565b6200042a82620004c7565b810181811067ffffffffffffffff821117156200044c576200044b62000484565b5b80604052505050565b7f4e487b7100000000000000000000000000000000000000000000000000000000600052602260045260246000fd5b7f4e487b7100000000000000000000000000000000000000000000000000000000600052604160045260246000fd5b600080fd5b600080fd5b600080fd5b600080fd5b6000601f19601f8301169050919050565b620004e3816200037f565b8114620004ef57600080fd5b50565b612fda80620005026000396000f3fe608060405234801561001057600080fd5b50600436106100ea5760003560e01c8063b384abef1161008c578063e2f273bd11610066578063e2f273bd1461023a578063ea57d5d414610256578063f674b24d14610272578063f851a4401461028e576100ea565b8063b384abef146101e4578063b8684aba14610200578063d07b77b51461021c576100ea565b80633dae35ce116100c85780633dae35ce1461014757806374a9ced9146101655780637d4061e614610181578063ac2f0074146101b1576100ea565b806306fdde03146100ef578063120fe89b1461010d578063189a563f1461012b575b600080fd5b6100f76102ac565b6040516101049190612539565b60405180910390f35b61011561033a565b60405161012291906124fc565b60405180910390f35b61014560048036038101906101409190611d2d565b610619565b005b61014f610876565b60405161015c919061251e565b60405180910390f35b61017f600480360381019061017a9190611d76565b61089c565b005b61019b60048036038101906101969190611dc3565b610b5f565b6040516101a891906124bf565b60405180910390f35b6101cb60048036038101906101c69190611dc3565b610b9e565b6040516101db949392919061271d565b60405180910390f35b6101fe60048036038101906101f99190611e50565b610c73565b005b61021a60048036038101906102159190611dc3565b610efb565b005b610224611084565b60405161023191906124da565b60405180910390f35b610254600480360381019061024f9190611d00565b611112565b005b610270600480360381019061026b9190611df0565b6113cd565b005b61028c60048036038101906102879190611d00565b61157c565b005b6102966118f8565b6040516102a391906124bf565b60405180910390f35b600080546102b990612a4a565b80601f01602080910402602001604051908101604052809291908181526020018280546102e590612a4a565b80156103325780601f1061030757610100808354040283529160200191610332565b820191906000526020600020905b81548152906001019060200180831161031557829003601f168201915b505050505081565b60606002805480602002602001604051908101604052809291908181526020016000905b8282101561061057838290600052602060002090600702016040518060e00160405290816000820154815260200160018201805461039b90612a4a565b80601f01602080910402602001604051908101604052809291908181526020018280546103c790612a4a565b80156104145780601f106103e957610100808354040283529160200191610414565b820191906000526020600020905b8154815290600101906020018083116103f757829003601f168201915b50505050508152602001600282018054806020026020016040519081016040528092919081815260200182805480156104a257602002820191906000526020600020905b8160009054906101000a900473ffffffffffffffffffffffffffffffffffffffff1673ffffffffffffffffffffffffffffffffffffffff1681526020019060010190808311610458575b5050505050815260200160038201805480602002602001604051908101604052809291908181526020016000905b8282101561057c5783829060005260206000200180546104ef90612a4a565b80601f016020809104026020016040519081016040528092919081815260200182805461051b90612a4a565b80156105685780601f1061053d57610100808354040283529160200191610568565b820191906000526020600020905b81548152906001019060200180831161054b57829003601f168201915b5050505050815260200190600101906104d0565b505050508152602001600482018054806020026020016040519081016040528092919081815260200182805480156105d357602002820191906000526020600020905b8154815260200190600101908083116105bf575b50505050508152602001600582015481526020016006820160009054906101000a900460ff1615151515815250508152602001906001019061035e565b50505050905090565b600160009054906101000a900473ffffffffffffffffffffffffffffffffffffffff1673ffffffffffffffffffffffffffffffffffffffff163373ffffffffffffffffffffffffffffffffffffffff16146106a9576040517f08c379a00000000000000000000000000000000000000000000000000000000081526004016106a0906125dd565b60405180910390fd5b60008151116106ed576040517f08c379a00000000000000000000000000000000000000000000000000000000081526004016106e49061265d565b60405180910390fd5b60005b815181101561087257600082828151811061070e5761070d612b83565b5b60200260200101519050600073ffffffffffffffffffffffffffffffffffffffff168173ffffffffffffffffffffffffffffffffffffffff161415610753575061085f565b6000805b6003805490508110156107f2578273ffffffffffffffffffffffffffffffffffffffff166003828154811061078f5761078e612b83565b5b9060005260206000200160009054906101000a900473ffffffffffffffffffffffffffffffffffffffff1673ffffffffffffffffffffffffffffffffffffffff1614156107df57600191506107f2565b80806107ea90612aad565b915050610757565b508061085c576003829080600181540180825580915050600190039060005260206000200160009091909190916101000a81548173ffffffffffffffffffffffffffffffffffffffff021916908373ffffffffffffffffffffffffffffffffffffffff1602179055505b50505b808061086a90612aad565b9150506106f0565b5050565b600560009054906101000a900473ffffffffffffffffffffffffffffffffffffffff1681565b600160009054906101000a900473ffffffffffffffffffffffffffffffffffffffff1673ffffffffffffffffffffffffffffffffffffffff163373ffffffffffffffffffffffffffffffffffffffff161461092c576040517f08c379a0000000000000000000000000000000000000000000000000000000008152600401610923906125dd565b60405180910390fd5b818160008282905011610974576040517f08c379a000000000000000000000000000000000000000000000000000000000815260040161096b906126fd565b60405180910390fd5b60608060606000600280549050905060026040518060e001604052808381526020018a8a8080601f016020809104026020016040519081016040528093929190818152602001838380828437600081840152601f19601f82011690508083019250505050505050815260200186815260200185815260200184815260200160008152602001600015158152509080600181540180825580915050600190039060005260206000209060070201600090919091909150600082015181600001556020820151816001019080519060200190610a4f92919061191e565b506040820151816002019080519060200190610a6c9291906119a4565b506060820151816003019080519060200190610a89929190611a2e565b506080820151816004019080519060200190610aa6929190611a8e565b5060a0820151816005015560c08201518160060160006101000a81548160ff02191690831515021790555050507f65d5ac2bf1bca69566bef1affdfca5bb37b9577fc0b3af4c7c4638225e67b39c60028281548110610b0857610b07612b83565b5b90600052602060002090600702016000015460028381548110610b2e57610b2d612b83565b5b9060005260206000209060070201600101604051610b4d929190612769565b60405180910390a15050505050505050565b60038181548110610b6f57600080fd5b906000526020600020016000915054906101000a900473ffffffffffffffffffffffffffffffffffffffff1681565b60028181548110610bae57600080fd5b9060005260206000209060070201600091509050806000015490806001018054610bd790612a4a565b80601f0160208091040260200160405190810160405280929190818152602001828054610c0390612a4a565b8015610c505780601f10610c2557610100808354040283529160200191610c50565b820191906000526020600020905b815481529060010190602001808311610c3357829003601f168201915b5050505050908060050154908060060160009054906101000a900460ff16905084565b6000805b600380549050811015610d0e573373ffffffffffffffffffffffffffffffffffffffff1660038281548110610caf57610cae612b83565b5b9060005260206000200160009054906101000a900473ffffffffffffffffffffffffffffffffffffffff1673ffffffffffffffffffffffffffffffffffffffff161415610cfb57600191505b8080610d0690612aad565b915050610c77565b5080610d4f576040517f08c379a0000000000000000000000000000000000000000000000000000000008152600401610d469061257d565b60405180910390fd5b6002805490508310610d96576040517f08c379a0000000000000000000000000000000000000000000000000000000008152600401610d8d9061261d565b60405180910390fd5b600060028481548110610dac57610dab612b83565b5b9060005260206000209060070201905080600301805490508310610e05576040517f08c379a0000000000000000000000000000000000000000000000000000000008152600401610dfc9061267d565b60405180910390fd5b8060060160009054906101000a900460ff1615610e57576040517f08c379a0000000000000000000000000000000000000000000000000000000008152600401610e4e906125bd565b60405180910390fd5b600460003373ffffffffffffffffffffffffffffffffffffffff1673ffffffffffffffffffffffffffffffffffffffff168152602001908152602001600020600085815260200190815260200160002060009054906101000a900460ff1615610ef5576040517f08c379a0000000000000000000000000000000000000000000000000000000008152600401610eec906125fd565b60405180910390fd5b50505050565b600160009054906101000a900473ffffffffffffffffffffffffffffffffffffffff1673ffffffffffffffffffffffffffffffffffffffff163373ffffffffffffffffffffffffffffffffffffffff1614610f8b576040517f08c379a0000000000000000000000000000000000000000000000000000000008152600401610f82906125dd565b60405180910390fd5b6002805490508110610fd2576040517f08c379a0000000000000000000000000000000000000000000000000000000008152600401610fc99061261d565b60405180910390fd5b600060028281548110610fe857610fe7612b83565b5b906000526020600020906007020190506001816004018054905061100c9190612921565b816003018054905014611054576040517f08c379a000000000000000000000000000000000000000000000000000000000815260040161104b9061269d565b60405180910390fd5b80600401600090806001815401808255809150506001900390600052602060002001600090919091909150555050565b6060600380548060200260200160405190810160405280929190818152602001828054801561110857602002820191906000526020600020905b8160009054906101000a900473ffffffffffffffffffffffffffffffffffffffff1673ffffffffffffffffffffffffffffffffffffffff16815260200190600101908083116110be575b5050505050905090565b600160009054906101000a900473ffffffffffffffffffffffffffffffffffffffff1673ffffffffffffffffffffffffffffffffffffffff163373ffffffffffffffffffffffffffffffffffffffff16146111a2576040517f08c379a0000000000000000000000000000000000000000000000000000000008152600401611199906125dd565b60405180910390fd5b80600073ffffffffffffffffffffffffffffffffffffffff168173ffffffffffffffffffffffffffffffffffffffff161415611213576040517f08c379a000000000000000000000000000000000000000000000000000000000815260040161120a9061259d565b60405180910390fd5b600160009054906101000a900473ffffffffffffffffffffffffffffffffffffffff1673ffffffffffffffffffffffffffffffffffffffff168273ffffffffffffffffffffffffffffffffffffffff1614156112a4576040517f08c379a000000000000000000000000000000000000000000000000000000000815260040161129b906126bd565b60405180910390fd5b6000805b60038054905081101561133f57600381815481106112c9576112c8612b83565b5b9060005260206000200160009054906101000a900473ffffffffffffffffffffffffffffffffffffffff1673ffffffffffffffffffffffffffffffffffffffff168473ffffffffffffffffffffffffffffffffffffffff16141561132c57600191505b808061133790612aad565b9150506112a8565b5080611380576040517f08c379a00000000000000000000000000000000000000000000000000000000081526004016113779061263d565b60405180910390fd5b80156113c85782600160006101000a81548173ffffffffffffffffffffffffffffffffffffffff021916908373ffffffffffffffffffffffffffffffffffffffff1602179055505b505050565b600160009054906101000a900473ffffffffffffffffffffffffffffffffffffffff1673ffffffffffffffffffffffffffffffffffffffff163373ffffffffffffffffffffffffffffffffffffffff161461145d576040517f08c379a0000000000000000000000000000000000000000000000000000000008152600401611454906125dd565b60405180910390fd5b8181600082829050116114a5576040517f08c379a000000000000000000000000000000000000000000000000000000000815260040161149c906126fd565b60405180910390fd5b6000600286815481106114bb576114ba612b83565b5b906000526020600020906007020190508060030185859091806001815401808255809150506001900390600052602060002001600090919290919290919290919250919061150a929190611adb565b507f7ae014784367f0374d742689207407b5b2c4ada3f3d257bbc563362c2c2a86f481600301600183600301805490506115449190612977565b8154811061155557611554612b83565b5b9060005260206000200160405161156c919061255b565b60405180910390a1505050505050565b600160009054906101000a900473ffffffffffffffffffffffffffffffffffffffff1673ffffffffffffffffffffffffffffffffffffffff163373ffffffffffffffffffffffffffffffffffffffff161461160c576040517f08c379a0000000000000000000000000000000000000000000000000000000008152600401611603906125dd565b60405180910390fd5b80600073ffffffffffffffffffffffffffffffffffffffff168173ffffffffffffffffffffffffffffffffffffffff16141561167d576040517f08c379a00000000000000000000000000000000000000000000000000000000081526004016116749061259d565b60405180910390fd5b600160009054906101000a900473ffffffffffffffffffffffffffffffffffffffff1673ffffffffffffffffffffffffffffffffffffffff168273ffffffffffffffffffffffffffffffffffffffff16141561170e576040517f08c379a0000000000000000000000000000000000000000000000000000000008152600401611705906126dd565b60405180910390fd5b6000806000905060005b6003805490508110156117b6578473ffffffffffffffffffffffffffffffffffffffff16600382815481106117505761174f612b83565b5b9060005260206000200160009054906101000a900473ffffffffffffffffffffffffffffffffffffffff1673ffffffffffffffffffffffffffffffffffffffff1614156117a357809250600191506117b6565b80806117ae90612aad565b915050611718565b5080156118f257600382815481106117d1576117d0612b83565b5b9060005260206000200160006101000a81549073ffffffffffffffffffffffffffffffffffffffff0219169055600360016003805490506118129190612977565b8154811061182357611822612b83565b5b9060005260206000200160009054906101000a900473ffffffffffffffffffffffffffffffffffffffff166003838154811061186257611861612b83565b5b9060005260206000200160006101000a81548173ffffffffffffffffffffffffffffffffffffffff021916908373ffffffffffffffffffffffffffffffffffffffff16021790555060038054806118bc576118bb612b54565b5b6001900381819060005260206000200160006101000a81549073ffffffffffffffffffffffffffffffffffffffff021916905590555b50505050565b600160009054906101000a900473ffffffffffffffffffffffffffffffffffffffff1681565b82805461192a90612a4a565b90600052602060002090601f01602090048101928261194c5760008555611993565b82601f1061196557805160ff1916838001178555611993565b82800160010185558215611993579182015b82811115611992578251825591602001919060010190611977565b5b5090506119a09190611b61565b5090565b828054828255906000526020600020908101928215611a1d579160200282015b82811115611a1c5782518260006101000a81548173ffffffffffffffffffffffffffffffffffffffff021916908373ffffffffffffffffffffffffffffffffffffffff160217905550916020019190600101906119c4565b5b509050611a2a9190611b61565b5090565b828054828255906000526020600020908101928215611a7d579160200282015b82811115611a7c578251829080519060200190611a6c92919061191e565b5091602001919060010190611a4e565b5b509050611a8a9190611b7e565b5090565b828054828255906000526020600020908101928215611aca579160200282015b82811115611ac9578251825591602001919060010190611aae565b5b509050611ad79190611b61565b5090565b828054611ae790612a4a565b90600052602060002090601f016020900481019282611b095760008555611b50565b82601f10611b2257803560ff1916838001178555611b50565b82800160010185558215611b50579182015b82811115611b4f578235825591602001919060010190611b34565b5b509050611b5d9190611b61565b5090565b5b80821115611b7a576000816000905550600101611b62565b5090565b5b80821115611b9e5760008181611b959190611ba2565b50600101611b7f565b5090565b508054611bae90612a4a565b6000825580601f10611bc05750611bdf565b601f016020900490600052602060002090810190611bde9190611b61565b5b50565b6000611bf5611bf0846127be565b612799565b90508083825260208201905082856020860282011115611c1857611c17612beb565b5b60005b85811015611c485781611c2e8882611c52565b845260208401935060208301925050600181019050611c1b565b5050509392505050565b600081359050611c6181612f76565b92915050565b600082601f830112611c7c57611c7b612be6565b5b8135611c8c848260208601611be2565b91505092915050565b60008083601f840112611cab57611caa612be6565b5b8235905067ffffffffffffffff811115611cc857611cc7612be1565b5b602083019150836001820283011115611ce457611ce3612beb565b5b9250929050565b600081359050611cfa81612f8d565b92915050565b600060208284031215611d1657611d15612bf5565b5b6000611d2484828501611c52565b91505092915050565b600060208284031215611d4357611d42612bf5565b5b600082013567ffffffffffffffff811115611d6157611d60612bf0565b5b611d6d84828501611c67565b91505092915050565b60008060208385031215611d8d57611d8c612bf5565b5b600083013567ffffffffffffffff811115611dab57611daa612bf0565b5b611db785828601611c95565b92509250509250929050565b600060208284031215611dd957611dd8612bf5565b5b6000611de784828501611ceb565b91505092915050565b600080600060408486031215611e0957611e08612bf5565b5b6000611e1786828701611ceb565b935050602084013567ffffffffffffffff811115611e3857611e37612bf0565b5b611e4486828701611c95565b92509250509250925092565b60008060408385031215611e6757611e66612bf5565b5b6000611e7585828601611ceb565b9250506020611e8685828601611ceb565b9150509250929050565b6000611e9c8383611ee8565b60208301905092915050565b6000611eb48383612137565b905092915050565b6000611ec883836123f0565b905092915050565b6000611edc83836124a1565b60208301905092915050565b611ef1816129ab565b82525050565b611f00816129ab565b82525050565b6000611f118261283f565b611f1b81856128aa565b9350611f26836127ea565b8060005b83811015611f57578151611f3e8882611e90565b9750611f4983612876565b925050600181019050611f2a565b5085935050505092915050565b6000611f6f8261283f565b611f7981856128bb565b9350611f84836127ea565b8060005b83811015611fb5578151611f9c8882611e90565b9750611fa783612876565b925050600181019050611f88565b5085935050505092915050565b6000611fcd8261284a565b611fd781856128cc565b935083602082028501611fe9856127fa565b8060005b8581101561202557848403895281516120068582611ea8565b945061201183612883565b925060208a01995050600181019050611fed565b50829750879550505050505092915050565b600061204282612855565b61204c81856128dd565b93508360208202850161205e8561280a565b8060005b8581101561209a578484038952815161207b8582611ebc565b945061208683612890565b925060208a01995050600181019050612062565b50829750879550505050505092915050565b60006120b782612860565b6120c181856128ee565b93506120cc8361281a565b8060005b838110156120fd5781516120e48882611ed0565b97506120ef8361289d565b9250506001810190506120d0565b5085935050505092915050565b612113816129bd565b82525050565b612122816129bd565b82525050565b612131816129f3565b82525050565b60006121428261286b565b61214c81856128ff565b935061215c818560208601612a17565b61216581612bfa565b840191505092915050565b600061217b8261286b565b6121858185612910565b9350612195818560208601612a17565b61219e81612bfa565b840191505092915050565b600081546121b681612a4a565b6121c08186612910565b945060018216600081146121db57600181146121ed57612220565b60ff1983168652602086019350612220565b6121f68561282a565b60005b83811015612218578154818901526001820191506020810190506121f9565b808801955050505b50505092915050565b6000612236602f83612910565b915061224182612c0b565b604082019050919050565b6000612259601e83612910565b915061226482612c5a565b602082019050919050565b600061227c602b83612910565b915061228782612c83565b604082019050919050565b600061229f602283612910565b91506122aa82612cd2565b604082019050919050565b60006122c2601e83612910565b91506122cd82612d21565b602082019050919050565b60006122e5601983612910565b91506122f082612d4a565b602082019050919050565b6000612308602b83612910565b915061231382612d73565b604082019050919050565b600061232b602683612910565b915061233682612dc2565b604082019050919050565b600061234e601b83612910565b915061235982612e11565b602082019050919050565b6000612371603383612910565b915061237c82612e3a565b604082019050919050565b6000612394602683612910565b915061239f82612e89565b604082019050919050565b60006123b7602b83612910565b91506123c282612ed8565b604082019050919050565b60006123da602a83612910565b91506123e582612f27565b604082019050919050565b600060e08301600083015161240860008601826124a1565b50602083015184820360208601526124208282612137565b9150506040830151848203604086015261243a8282611f06565b915050606083015184820360608601526124548282611fc2565b9150506080830151848203608086015261246e82826120ac565b91505060a083015161248360a08601826124a1565b5060c083015161249660c086018261210a565b508091505092915050565b6124aa816129e9565b82525050565b6124b9816129e9565b82525050565b60006020820190506124d46000830184611ef7565b92915050565b600060208201905081810360008301526124f48184611f64565b905092915050565b600060208201905081810360008301526125168184612037565b905092915050565b60006020820190506125336000830184612128565b92915050565b600060208201905081810360008301526125538184612170565b905092915050565b6000602082019050818103600083015261257581846121a9565b905092915050565b6000602082019050818103600083015261259681612229565b9050919050565b600060208201905081810360008301526125b68161224c565b9050919050565b600060208201905081810360008301526125d68161226f565b9050919050565b600060208201905081810360008301526125f681612292565b9050919050565b60006020820190508181036000830152612616816122b5565b9050919050565b60006020820190508181036000830152612636816122d8565b9050919050565b60006020820190508181036000830152612656816122fb565b9050919050565b600060208201905081810360008301526126768161231e565b9050919050565b6000602082019050818103600083015261269681612341565b9050919050565b600060208201905081810360008301526126b681612364565b9050919050565b600060208201905081810360008301526126d681612387565b9050919050565b600060208201905081810360008301526126f6816123aa565b9050919050565b60006020820190508181036000830152612716816123cd565b9050919050565b600060808201905061273260008301876124b0565b81810360208301526127448186612170565b905061275360408301856124b0565b6127606060830184612119565b95945050505050565b600060408201905061277e60008301856124b0565b818103602083015261279081846121a9565b90509392505050565b60006127a36127b4565b90506127af8282612a7c565b919050565b6000604051905090565b600067ffffffffffffffff8211156127d9576127d8612bb2565b5b602082029050602081019050919050565b6000819050602082019050919050565b6000819050602082019050919050565b6000819050602082019050919050565b6000819050602082019050919050565b60008190508160005260206000209050919050565b600081519050919050565b600081519050919050565b600081519050919050565b600081519050919050565b600081519050919050565b6000602082019050919050565b6000602082019050919050565b6000602082019050919050565b6000602082019050919050565b600082825260208201905092915050565b600082825260208201905092915050565b600082825260208201905092915050565b600082825260208201905092915050565b600082825260208201905092915050565b600082825260208201905092915050565b600082825260208201905092915050565b600061292c826129e9565b9150612937836129e9565b9250827fffffffffffffffffffffffffffffffffffffffffffffffffffffffffffffffff0382111561296c5761296b612af6565b5b828201905092915050565b6000612982826129e9565b915061298d836129e9565b9250828210156129a05761299f612af6565b5b828203905092915050565b60006129b6826129c9565b9050919050565b60008115159050919050565b600073ffffffffffffffffffffffffffffffffffffffff82169050919050565b6000819050919050565b60006129fe82612a05565b9050919050565b6000612a10826129c9565b9050919050565b60005b83811015612a35578082015181840152602081019050612a1a565b83811115612a44576000848401525b50505050565b60006002820490506001821680612a6257607f821691505b60208210811415612a7657612a75612b25565b5b50919050565b612a8582612bfa565b810181811067ffffffffffffffff82111715612aa457612aa3612bb2565b5b80604052505050565b6000612ab8826129e9565b91507fffffffffffffffffffffffffffffffffffffffffffffffffffffffffffffffff821415612aeb57612aea612af6565b5b600182019050919050565b7f4e487b7100000000000000000000000000000000000000000000000000000000600052601160045260246000fd5b7f4e487b7100000000000000000000000000000000000000000000000000000000600052602260045260246000fd5b7f4e487b7100000000000000000000000000000000000000000000000000000000600052603160045260246000fd5b7f4e487b7100000000000000000000000000000000000000000000000000000000600052603260045260246000fd5b7f4e487b7100000000000000000000000000000000000000000000000000000000600052604160045260246000fd5b600080fd5b600080fd5b600080fd5b600080fd5b600080fd5b6000601f19601f8301169050919050565b7f4f6e6c7920617070726f76656420616464726573736573206d6179207065726660008201527f6f726d207468697320616374696f6e0000000000000000000000000000000000602082015250565b7f412076616c69642061646472657373206d757374206265207061737365640000600082015250565b7f43616e6e6f74206361737420766f7465206f6e20616e20616c7265616479206460008201527f65636964656420706f6c6c000000000000000000000000000000000000000000602082015250565b7f4f6e6c792061646d696e206d617920706572666f726d2074686973206163746960008201527f6f6e000000000000000000000000000000000000000000000000000000000000602082015250565b7f43616e6e6f7420766f7465206f6e2073616d6520706f6c6c2074776963650000600082015250565b7f4d757374207061737320612076616c696420706f6c6c20494400000000000000600082015250565b7f4e65772061646d696e206d75737420626520616e20616c72656164792061707060008201527f726f76656420766f746572000000000000000000000000000000000000000000602082015250565b7f4d757374206e6f74207061737320656d707479206172726179206f662061646460008201527f7265737365730000000000000000000000000000000000000000000000000000602082015250565b7f4d757374207061737320612076616c6964206f7074696f6e2049440000000000600082015250565b7f4d6179206e6f742061646420616e204f7074696f6e526573756c7420756e746960008201527f6c20796f752061646420616e206f7074696f6e00000000000000000000000000602082015250565b7f43616e6e6f74207265706c6163652061646d696e20776974682073616d65206160008201527f6464726573730000000000000000000000000000000000000000000000000000602082015250565b7f41646d696e206d6179206e6f742062652072656d6f7665642066726f6d20617060008201527f70726f766564206c697374000000000000000000000000000000000000000000602082015250565b7f537472696e6720706172616d65746572206d757374206265206f66206120766160008201527f6c6964206c656e67746800000000000000000000000000000000000000000000602082015250565b612f7f816129ab565b8114612f8a57600080fd5b50565b612f96816129e9565b8114612fa157600080fd5b5056fea264697066735822122055e5e620e83ad140d6270fa7f2a0038b6c29f52d4064fff81be1dcca9faafb8f64736f6c63430008060033",
  "immutableReferences": {},
  "source": "// SPDX-License-Identifier: UNLICENSED\npragma solidity ^0.8.6;\n\nimport \"./CreatorContract.sol\";\n\ncontract VotingContract {\n\n    /* I figure having this event is good practice\n    but i'm not sure if there are more things I should \n    include to make it a complete event or whatever.\n    Still just a young padawan. */\n    event PollCreated(\n        uint id,\n        string issue\n    );\n\n    event OptionAdded(\n        string opt\n    );\n\n    event VoteCasted(\n        uint pollId,\n        uint optionId,\n        address voter,\n        bool decided\n    );\n\n    event Debug(\n        string description\n    );\n\n    // Admin can create multiple polls for their organization to vote on\n    /* I wanted to have a mapping of uint => OptionStruct\n    but could NOT get it to work so I'm working with a \n    more rudimentary approached. While not as sophisticated,\n    it works and that's what makes me happy. This is my first\n    real capstone project so I can't try and get too fancy */ \n    struct Poll {\n        uint id;\n        // issue on which voters are deciding on\n        string issue;\n        address[] voters;\n        string[] options;\n        uint[] results;\n        // If -1, no result has been determined.\n        // If other number, index of option won.\n        uint result;\n        bool decided;\n    }\n\n    string public name;\n    address public admin;\n    // uint numPolls;\n    // mapping(uint => Poll) public polls;\n    Poll[] public polls;\n    // array of approved addresses\n    // Not sure if to keep this public. Don't think i'll need it\n    address[] public approved;\n    // stores whether voter has voted in a particular poll\n    // mapping(voterAddress => mapping(pollId => bool))\n    mapping(address => mapping(uint => bool)) hasVoted;\n    /* Stores CreatorContract to update the reference to votingContract name\n    as well as admin rights if necessary */\n    /* Even though it doesn't fucking work :/ for some reason I get\n    an error when I call a function inside creatorContract from this \n    smartContract which modifies the state in CreatorContract */ \n    CreatorContract public creatorContract;\n    \n\n    constructor(string memory _name, address _admin, address _creator) {\n        /* Added this thinking it'd be useful but it seems that the contract \n        constructor automatically does a string length check */\n        // require(bytes(_name).length > 0, \"Contract name must not be empty\");\n        name = _name;\n        admin = _admin;\n        creatorContract = CreatorContract(_creator);\n        approved.push(admin);\n    }\n\n    function getPolls() external view returns(Poll[] memory) {\n        return polls;\n    }\n\n    function getApproved() external view returns(address[] memory) {\n        return approved;\n    }\n\n    // Should I add a limit to the approvedList array?\n    function approveVoters(address[] memory approvedList) external onlyAdmin() {\n        require(approvedList.length > 0, \"Must not pass empty array of addresses\");\n        // should do a check to ensure not adding voter who is already approved\n\n        /* adds addresses from approvedList to approved\n        while simultaneously checking for repeats */\n        for(uint i = 0; i < approvedList.length; i++){\n            address current = approvedList[i];\n            // skips address if equal to address(0)\n            if(current == address(0)) {\n                continue;\n            }\n            bool repeat = false;\n            for(uint j = 0; j < approved.length; j++){\n                if(approved[j] == current) {\n                    repeat = true;\n                    break;\n                } \n            }\n            // ensures address is not a repeat before pushing to array\n            if(!repeat) {\n                approved.push(current);\n            }\n        }\n    }\n\n    function removeApprovedVoter(address unapproved) external onlyAdmin() validAddress(unapproved) {                \n        require(unapproved != admin, \"Admin may not be removed from approved list\");\n        \n        uint unapprovedIndex;\n        bool foundIndex = false;\n        \n        for(uint i = 0; i < approved.length; i++){\n            if(approved[i] == unapproved){\n                unapprovedIndex = i;\n                foundIndex = true;\n                // stops forLoop if found index of unapproved\n                break;\n            }\n        }\n\n        if(foundIndex){\n            delete approved[unapprovedIndex];\n            // replaces deleted spot with last element of array\n            /* I questionn whether i need to explicitly delete\n            the unapprovedIndex element or if i can just skip\n            straight to replacing it as i do below */\n            approved[unapprovedIndex] = approved[approved.length - 1];\n            /* then removes last element from array to ensure the approved\n            address doesn't show up twice in array */\n            approved.pop();\n        }\n    }\n\n    /* This updates who is the current admin. there may only be \n    one admin per VotingContract */\n    // Purposely requiring that newAdmin is an approvedAddress for safety\n    function updateAdmin(address newAdmin) external onlyAdmin() validAddress(newAdmin) {\n        require(newAdmin != admin, \"Cannot replace admin with same address\");\n\n        // address oldAdmin = admin;\n        bool newAdminIsApproved = false;\n\n        // checks if newAdmin is already approved\n        for(uint i = 0; i < approved.length; i++){\n            if(newAdmin == approved[i]){\n                newAdminIsApproved = true;\n            }\n        }\n\n        require(newAdminIsApproved, \n            \"New admin must be an already approved voter\");\n\n        // newAdmin is added only if they are already an approved voter\n        // redundant check after the above require statement \n        if(newAdminIsApproved){\n            // should wait until creatorContract.updateContractAdmin() returns success\n            admin = newAdmin;\n            // updates who has admin access to contract on CreatorContract.sol\n            /* Not sure how I feel about passing msg.sender as a parameter vs\n            calling the function AS msg.sender. I'd prefer to do that. If you're \n            reading this it means I need help lol. Would just like to know \n            how to call updateContractAdmin AS msg.sender instead of sending it \n            as a parameter */ \n            /* this SHOULD be called, but i'm getting a revert error when \n            calling directly from this SmartContract, not when calling \n            as account1 or whatever. Going to look into this in the future\n            but I need to move on right now or else my head will fucking explode.  */ \n            // creatorContract.updateContractAdmin(newAdmin, msg.sender, address(this));\n        }\n    }\n\n    function createPoll(string calldata issue) \n        external \n        onlyAdmin()\n        stringLength(issue) {\n            address[] memory _voters;\n            string[] memory _options;\n            uint[] memory _results;\n            uint pollIndex = polls.length;\n            polls.push(Poll(\n                pollIndex,\n                issue,\n                _voters,\n                _options,\n                _results,\n                // final result\n                0,\n                // Whether poll has been decided\n                false\n            ));\n\n            emit PollCreated(polls[pollIndex].id, polls[pollIndex].issue);\n    }\n\n    /* For some reason, I can only add one option at a time.\n    Tried doing a forloop to add each option from incoming array \n    but that wouldn't work. */ \n    /* ALSO tried adding options inside of createPoll() but \n    for some reason that wouldn't work. Has to be a separate function\n    call and I still don't understand why. */\n    function addOption(uint pollId, string calldata option) \n        external \n        onlyAdmin()\n        stringLength(option) {\n            Poll storage p = polls[pollId];\n            p.options.push(option);\n            emit OptionAdded(p.options[p.options.length - 1]);\n    }\n\n    /* Similar issue with what's happening with addOption. couldn't\n    addOptionResult() inside addOption() so it has to be called separately\n    from frontend. The way things currently stand, I have to call three\n    separate functions to create a poll from the front end.\n    createPoll() to create the actual poll. addOption() to add each individual\n    option. & addOptionResult to correctly setup the results array inside\n    poll struct */\n    function addOptionResult(uint pollId) external onlyAdmin() {\n        require(pollId < polls.length, \"Must pass a valid poll ID\");\n        Poll storage p = polls[pollId];\n        /* Originally had p.options.length - 1 ... but that\n        caused an integer underflow so switched to p.results.length + 1 */ \n        require(p.options.length == p.results.length + 1,\n            \"May not add an OptionResult until you add an option\");\n        p.results.push(0);\n    }\n\n    function vote(uint pollId, uint optionId) external onlyApproved() {\n        require(pollId < polls.length, \n            \"Must pass a valid poll ID\");\n        Poll storage p = polls[pollId];\n\n        require(optionId < p.options.length, \n            \"Must pass a valid option ID\");\n        require(!p.decided, \n            \"Cannot cast vote on an already decided poll\");\n        require(!hasVoted[msg.sender][pollId], \n            \"Cannot vote on same poll twice\");\n\n\n        // p.voters.push(msg.sender);\n        // p.results[optionId]++;\n        // hasVoted[msg.sender][pollId] = true;\n\n        // decideResult(pollId);\n        \n        // emit VoteCasted(pollId, optionId, msg.sender, decideResult(pollId));\n    }\n\n    /* Should I require that a valid Poll ID is passed? \n    Would be redundant since vote() (the function that calls this)\n    already checks for a valid pollId  */\n    function decideResult(uint pollId) internal returns(bool) {\n        Poll storage p = polls[pollId];\n        // Not sure if i should use a require, or the IF statement as I currently am\n        // require(!p.decided, \"This poll has already been decided\");\n        if(p.decided) {\n            return p.decided;\n        }\n\n        /* Not sure if i want this. What if admin wants to decide a vote before\n        all approved vote? What if admin wants poll to be open\n        only during a particular time period? */\n        // require(p.voters.length == approved.length, \"All approved addresses must vote\");\n        if(p.voters.length != approved.length) {\n            // Return p.decided since it should be false;\n            return p.decided;\n        }\n\n        uint mostVotes;\n        uint winnerIndex;\n        for(uint i = 0; i < p.results.length; i++){\n            /* \"should\" always work since this function won't be called\n            until someone casts a vote. will consider adding a check */ \n            if(p.results[i] > mostVotes) {\n                winnerIndex = i;\n            }\n        }\n        p.result = winnerIndex;\n        p.decided = true;\n\n        return p.decided;\n    }\n\n    modifier onlyApproved() {\n        bool isApproved = false;\n        for(uint i=0; i < approved.length; i++){\n            if(approved[i] == msg.sender){\n                isApproved = true;\n            }\n        }\n        require(isApproved, \"Only approved addresses may perform this action\");\n        _;\n    }\n\n    modifier onlyAdmin() {\n        require(msg.sender == admin, \n            \"Only admin may perform this action\");\n        _;\n    }\n\n    modifier validAddress(address _address) {\n        require(_address != address(0), \n            \"A valid address must be passed\");\n        _;\n    }\n\n    modifier stringLength(string calldata str) {\n        require(bytes(str).length > 0, \n            \"String parameter must be of a valid length\");\n        _;\n    }    \n}",
  "sourcePath": "/home/odon/code/bloc/self-directed/vote_per_organization/backend/contracts/VotingContract.sol",
  "compiler": {
    "name": "solc",
    "version": "0.8.6+commit.11564f7e.Emscripten.clang"
  },
  "schemaVersion": "3.4.1",
  "updatedAt": "2021-08-02T01:48:44.520Z",
  "networkType": "ethereum",
  "devdoc": {
    "kind": "dev",
    "methods": {},
    "version": 1
  },
  "userdoc": {
    "kind": "user",
    "methods": {},
    "version": 1
  }
}