{
  "contractName": "VotingContract",
  "abi": [
    {
      "inputs": [
        {
          "internalType": "string",
          "name": "_name",
          "type": "string"
        },
        {
          "internalType": "address",
          "name": "tokenAddr",
          "type": "address"
        }
      ],
      "stateMutability": "nonpayable",
      "type": "constructor"
    },
    {
      "anonymous": false,
      "inputs": [
        {
          "indexed": false,
          "internalType": "string",
          "name": "description",
          "type": "string"
        }
      ],
      "name": "Debug",
      "type": "event"
    },
    {
      "anonymous": false,
      "inputs": [
        {
          "indexed": false,
          "internalType": "uint256",
          "name": "id",
          "type": "uint256"
        },
        {
          "indexed": false,
          "internalType": "string",
          "name": "issue",
          "type": "string"
        }
      ],
      "name": "PollCreated",
      "type": "event"
    },
    {
      "anonymous": false,
      "inputs": [
        {
          "indexed": false,
          "internalType": "uint256",
          "name": "tokenId",
          "type": "uint256"
        },
        {
          "indexed": false,
          "internalType": "address",
          "name": "owner",
          "type": "address"
        },
        {
          "indexed": false,
          "internalType": "string",
          "name": "contractAddr",
          "type": "string"
        }
      ],
      "name": "TokenCreated",
      "type": "event"
    },
    {
      "anonymous": false,
      "inputs": [
        {
          "indexed": false,
          "internalType": "uint256",
          "name": "pollId",
          "type": "uint256"
        },
        {
          "indexed": false,
          "internalType": "uint256",
          "name": "optionId",
          "type": "uint256"
        },
        {
          "indexed": false,
          "internalType": "address",
          "name": "voter",
          "type": "address"
        },
        {
          "indexed": false,
          "internalType": "bool",
          "name": "decided",
          "type": "bool"
        }
      ],
      "name": "VoteCasted",
      "type": "event"
    },
    {
      "inputs": [],
      "name": "accessToken",
      "outputs": [
        {
          "internalType": "contract AccessToken",
          "name": "",
          "type": "address"
        }
      ],
      "stateMutability": "view",
      "type": "function",
      "constant": true
    },
    {
      "inputs": [
        {
          "internalType": "uint256",
          "name": "",
          "type": "uint256"
        }
      ],
      "name": "approvedTokens",
      "outputs": [
        {
          "internalType": "uint256",
          "name": "tokenId",
          "type": "uint256"
        },
        {
          "internalType": "address",
          "name": "owner",
          "type": "address"
        },
        {
          "internalType": "bool",
          "name": "isAdmin",
          "type": "bool"
        }
      ],
      "stateMutability": "view",
      "type": "function",
      "constant": true
    },
    {
      "inputs": [],
      "name": "name",
      "outputs": [
        {
          "internalType": "string",
          "name": "",
          "type": "string"
        }
      ],
      "stateMutability": "view",
      "type": "function",
      "constant": true
    },
    {
      "inputs": [
        {
          "internalType": "uint256",
          "name": "",
          "type": "uint256"
        }
      ],
      "name": "polls",
      "outputs": [
        {
          "internalType": "uint256",
          "name": "id",
          "type": "uint256"
        },
        {
          "internalType": "string",
          "name": "issue",
          "type": "string"
        },
        {
          "internalType": "int256",
          "name": "result",
          "type": "int256"
        }
      ],
      "stateMutability": "view",
      "type": "function",
      "constant": true
    },
    {
      "inputs": [
        {
          "internalType": "address",
          "name": "",
          "type": "address"
        }
      ],
      "name": "tokenOwners",
      "outputs": [
        {
          "internalType": "uint256",
          "name": "tokenId",
          "type": "uint256"
        },
        {
          "internalType": "address",
          "name": "owner",
          "type": "address"
        },
        {
          "internalType": "bool",
          "name": "isAdmin",
          "type": "bool"
        }
      ],
      "stateMutability": "view",
      "type": "function",
      "constant": true
    },
    {
      "inputs": [
        {
          "internalType": "uint256",
          "name": "tokenId",
          "type": "uint256"
        }
      ],
      "name": "getAccessRef",
      "outputs": [
        {
          "components": [
            {
              "internalType": "uint256",
              "name": "tokenId",
              "type": "uint256"
            },
            {
              "internalType": "address",
              "name": "owner",
              "type": "address"
            },
            {
              "internalType": "bool",
              "name": "isAdmin",
              "type": "bool"
            }
          ],
          "internalType": "struct VotingContract.AccessRef",
          "name": "",
          "type": "tuple"
        }
      ],
      "stateMutability": "view",
      "type": "function",
      "constant": true
    },
    {
      "inputs": [],
      "name": "getOwnerToken",
      "outputs": [
        {
          "components": [
            {
              "internalType": "uint256",
              "name": "tokenId",
              "type": "uint256"
            },
            {
              "internalType": "address",
              "name": "owner",
              "type": "address"
            },
            {
              "internalType": "bool",
              "name": "isAdmin",
              "type": "bool"
            }
          ],
          "internalType": "struct VotingContract.AccessRef",
          "name": "",
          "type": "tuple"
        }
      ],
      "stateMutability": "view",
      "type": "function",
      "constant": true
    },
    {
      "inputs": [
        {
          "internalType": "uint256",
          "name": "pollId",
          "type": "uint256"
        }
      ],
      "name": "getPoll",
      "outputs": [
        {
          "components": [
            {
              "internalType": "uint256",
              "name": "id",
              "type": "uint256"
            },
            {
              "internalType": "string",
              "name": "issue",
              "type": "string"
            },
            {
              "internalType": "uint256[]",
              "name": "voters",
              "type": "uint256[]"
            },
            {
              "internalType": "string[]",
              "name": "options",
              "type": "string[]"
            },
            {
              "internalType": "uint256[]",
              "name": "results",
              "type": "uint256[]"
            },
            {
              "internalType": "int256",
              "name": "result",
              "type": "int256"
            }
          ],
          "internalType": "struct VotingContract.Poll[1]",
          "name": "",
          "type": "tuple[1]"
        }
      ],
      "stateMutability": "view",
      "type": "function",
      "constant": true
    },
    {
      "inputs": [
        {
          "internalType": "string",
          "name": "contractAddr",
          "type": "string"
        }
      ],
      "name": "generateAdmin",
      "outputs": [],
      "stateMutability": "nonpayable",
      "type": "function"
    },
    {
      "inputs": [
        {
          "internalType": "address",
          "name": "approved",
          "type": "address"
        },
        {
          "internalType": "string",
          "name": "contractAddr",
          "type": "string"
        }
      ],
      "name": "generateAccessToken",
      "outputs": [],
      "stateMutability": "nonpayable",
      "type": "function"
    },
    {
      "inputs": [
        {
          "internalType": "address",
          "name": "newAdmin",
          "type": "address"
        }
      ],
      "name": "updateAdmin",
      "outputs": [],
      "stateMutability": "nonpayable",
      "type": "function"
    },
    {
      "inputs": [
        {
          "internalType": "string",
          "name": "issue",
          "type": "string"
        },
        {
          "internalType": "string[]",
          "name": "_options",
          "type": "string[]"
        }
      ],
      "name": "createPoll",
      "outputs": [],
      "stateMutability": "nonpayable",
      "type": "function"
    },
    {
      "inputs": [
        {
          "internalType": "uint256",
          "name": "pollId",
          "type": "uint256"
        },
        {
          "internalType": "uint256",
          "name": "optionId",
          "type": "uint256"
        }
      ],
      "name": "vote",
      "outputs": [],
      "stateMutability": "nonpayable",
      "type": "function"
    }
  ],
  "bytecode": "0x60806040523480156200001157600080fd5b5060405162004372380380620043728339818101604052810190620000379190620001de565b81600090805190602001906200004f92919062000099565b5080600860006101000a81548173ffffffffffffffffffffffffffffffffffffffff021916908373ffffffffffffffffffffffffffffffffffffffff160217905550505062000416565b828054620000a7906200030d565b90600052602060002090601f016020900481019282620000cb576000855562000117565b82601f10620000e657805160ff191683800117855562000117565b8280016001018555821562000117579182015b8281111562000116578251825591602001919060010190620000f9565b5b5090506200012691906200012a565b5090565b5b80821115620001455760008160009055506001016200012b565b5090565b6000620001606200015a846200026d565b62000244565b9050828152602081018484840111156200017f576200017e620003dc565b5b6200018c848285620002d7565b509392505050565b600081519050620001a581620003fc565b92915050565b600082601f830112620001c357620001c2620003d7565b5b8151620001d584826020860162000149565b91505092915050565b60008060408385031215620001f857620001f7620003e6565b5b600083015167ffffffffffffffff811115620002195762000218620003e1565b5b6200022785828601620001ab565b92505060206200023a8582860162000194565b9150509250929050565b60006200025062000263565b90506200025e828262000343565b919050565b6000604051905090565b600067ffffffffffffffff8211156200028b576200028a620003a8565b5b6200029682620003eb565b9050602081019050919050565b6000620002b082620002b7565b9050919050565b600073ffffffffffffffffffffffffffffffffffffffff82169050919050565b60005b83811015620002f7578082015181840152602081019050620002da565b8381111562000307576000848401525b50505050565b600060028204905060018216806200032657607f821691505b602082108114156200033d576200033c62000379565b5b50919050565b6200034e82620003eb565b810181811067ffffffffffffffff8211171562000370576200036f620003a8565b5b80604052505050565b7f4e487b7100000000000000000000000000000000000000000000000000000000600052602260045260246000fd5b7f4e487b7100000000000000000000000000000000000000000000000000000000600052604160045260246000fd5b600080fd5b600080fd5b600080fd5b600080fd5b6000601f19601f8301169050919050565b6200040781620002a3565b81146200041357600080fd5b50565b613f4c80620004266000396000f3fe608060405234801561001057600080fd5b50600436106100cf5760003560e01c8063ac2f00741161008c578063bc7c5eef11610066578063bc7c5eef14610228578063e243c5fb14610258578063e2f273bd14610276578063f941c01a14610292576100cf565b8063ac2f0074146101a8578063ad79e94b146101da578063b384abef1461020c576100cf565b806306fdde03146100d45780631a8cbcaa146100f25780631dafede01461012257806343148fb3146101545780637e3d71c314610170578063842f564a1461018c575b600080fd5b6100dc6102b0565b6040516100e991906134ab565b60405180910390f35b61010c60048036038101906101079190612d81565b61033e565b604051610119919061346e565b60405180910390f35b61013c60048036038101906101379190612d81565b6105ae565b60405161014b939291906136a3565b60405180910390f35b61016e60048036038101906101699190612cef565b610605565b005b61018a60048036038101906101859190612c73565b61099d565b005b6101a660048036038101906101a19190612c17565b610e07565b005b6101c260048036038101906101bd9190612d81565b61153d565b6040516101d193929190613718565b60405180910390f35b6101f460048036038101906101ef9190612bea565b6115ef565b604051610203939291906136a3565b60405180910390f35b61022660048036038101906102219190612ddb565b611646565b005b610242600480360381019061023d9190612d81565b611b92565b60405161024f919061366d565b60405180910390f35b610260611c3a565b60405161026d9190613490565b60405180910390f35b610290600480360381019061028b9190612bea565b611c60565b005b61029a61253f565b6040516102a7919061366d565b60405180910390f35b600080546102bd906139e6565b80601f01602080910402602001604051908101604052809291908181526020018280546102e9906139e6565b80156103365780601f1061030b57610100808354040283529160200191610336565b820191906000526020600020905b81548152906001019060200180831161031957829003601f168201915b505050505081565b6103466126e3565b60006040518060200160405280600460008681526020019081526020016000206040518060c00160405290816000820154815260200160018201805461038b906139e6565b80601f01602080910402602001604051908101604052809291908181526020018280546103b7906139e6565b80156104045780601f106103d957610100808354040283529160200191610404565b820191906000526020600020905b8154815290600101906020018083116103e757829003601f168201915b505050505081526020016002820180548060200260200160405190810160405280929190818152602001828054801561045c57602002820191906000526020600020905b815481526020019060010190808311610448575b5050505050815260200160038201805480602002602001604051908101604052809291908181526020016000905b828210156105365783829060005260206000200180546104a9906139e6565b80601f01602080910402602001604051908101604052809291908181526020018280546104d5906139e6565b80156105225780601f106104f757610100808354040283529160200191610522565b820191906000526020600020905b81548152906001019060200180831161050557829003601f168201915b50505050508152602001906001019061048a565b5050505081526020016004820180548060200260200160405190810160405280929190818152602001828054801561058d57602002820191906000526020600020905b815481526020019060010190808311610579575b50505050508152602001600582015481525050815250905080915050919050565b60056020528060005260406000206000915090508060000154908060010160009054906101000a900473ffffffffffffffffffffffffffffffffffffffff16908060010160149054906101000a900460ff16905083565b600160009054906101000a900460ff1615610655576040517f08c379a000000000000000000000000000000000000000000000000000000000815260040161064c906135ad565b60405180910390fd5b6000600860009054906101000a900473ffffffffffffffffffffffffffffffffffffffff1673ffffffffffffffffffffffffffffffffffffffff16633d02d0c933846040518363ffffffff1660e01b81526004016106b4929190613415565b602060405180830381600087803b1580156106ce57600080fd5b505af11580156106e2573d6000803e3d6000fd5b505050506040513d601f19601f820116820180604052508101906107069190612dae565b9050600060405180606001604052808381526020013373ffffffffffffffffffffffffffffffffffffffff16815260200160011515815250905080600560008481526020019081526020016000206000820151816000015560208201518160010160006101000a81548173ffffffffffffffffffffffffffffffffffffffff021916908373ffffffffffffffffffffffffffffffffffffffff16021790555060408201518160010160146101000a81548160ff02191690831515021790555090505080600660003373ffffffffffffffffffffffffffffffffffffffff1673ffffffffffffffffffffffffffffffffffffffff1681526020019081526020016000206000820151816000015560208201518160010160006101000a81548173ffffffffffffffffffffffffffffffffffffffff021916908373ffffffffffffffffffffffffffffffffffffffff16021790555060408201518160010160146101000a81548160ff02191690831515021790555090505060018060006101000a81548160ff021916908315150217905550600360008154809291906108a990613a49565b91905055507f82a09cc58c9cecf0eb61d8994283ec804165931801f8b77e42dcb3b556c5c5be8233600860009054906101000a900473ffffffffffffffffffffffffffffffffffffffff1673ffffffffffffffffffffffffffffffffffffffff1663c87b56dd866040518263ffffffff1660e01b815260040161092c9190613688565b60006040518083038186803b15801561094457600080fd5b505afa158015610958573d6000803e3d6000fd5b505050506040513d6000823e3d601f19601f820116820180604052508101906109819190612d38565b604051610990939291906136da565b60405180910390a1505050565b6000600860009054906101000a900473ffffffffffffffffffffffffffffffffffffffff1673ffffffffffffffffffffffffffffffffffffffff166370a08231336040518263ffffffff1660e01b81526004016109fa91906133c3565b60206040518083038186803b158015610a1257600080fd5b505afa158015610a26573d6000803e3d6000fd5b505050506040513d601f19601f82011682018060405250810190610a4a9190612dae565b905060008111610a8f576040517f08c379a0000000000000000000000000000000000000000000000000000000008152600401610a869061354d565b60405180910390fd5b600080600090505b82811015610bd2576000600860009054906101000a900473ffffffffffffffffffffffffffffffffffffffff1673ffffffffffffffffffffffffffffffffffffffff16632f745c5933846040518363ffffffff1660e01b8152600401610afe929190613445565b60206040518083038186803b158015610b1657600080fd5b505afa158015610b2a573d6000803e3d6000fd5b505050506040513d601f19601f82011682018060405250810190610b4e9190612dae565b90503373ffffffffffffffffffffffffffffffffffffffff166005600083815260200190815260200160002060010160009054906101000a900473ffffffffffffffffffffffffffffffffffffffff1673ffffffffffffffffffffffffffffffffffffffff161415610bbe578092505b508080610bca90613a49565b915050610a97565b50600115156005600083815260200190815260200160002060010160149054906101000a900460ff16151514610c3d576040517f08c379a0000000000000000000000000000000000000000000000000000000008152600401610c349061354d565b60405180910390fd5b848460008282905011610c85576040517f08c379a0000000000000000000000000000000000000000000000000000000008152600401610c7c9061364d565b60405180910390fd5b6000855111610cc9576040517f08c379a0000000000000000000000000000000000000000000000000000000008152600401610cc0906135ed565b60405180910390fd5b6000600460006002548152602001908152602001600020905060025481600001819055508787826001019190610d00929190612710565b5085816003019080519060200190610d19929190612796565b507fffffffffffffffffffffffffffffffffffffffffffffffffffffffffffffffff8160050181905550855167ffffffffffffffff811115610d5e57610d5d613b1f565b5b604051908082528060200260200182016040528015610d8c5781602001602082028036833780820191505090505b50816004019080519060200190610da49291906127f6565b507f65d5ac2bf1bca69566bef1affdfca5bb37b9577fc0b3af4c7c4638225e67b39c816000015482600101604051610ddd929190613756565b60405180910390a160026000815480929190610df890613a49565b91905055505050505050505050565b6000600860009054906101000a900473ffffffffffffffffffffffffffffffffffffffff1673ffffffffffffffffffffffffffffffffffffffff166370a08231336040518263ffffffff1660e01b8152600401610e6491906133c3565b60206040518083038186803b158015610e7c57600080fd5b505afa158015610e90573d6000803e3d6000fd5b505050506040513d601f19601f82011682018060405250810190610eb49190612dae565b905060008111610ef9576040517f08c379a0000000000000000000000000000000000000000000000000000000008152600401610ef09061354d565b60405180910390fd5b600080600090505b8281101561103c576000600860009054906101000a900473ffffffffffffffffffffffffffffffffffffffff1673ffffffffffffffffffffffffffffffffffffffff16632f745c5933846040518363ffffffff1660e01b8152600401610f68929190613445565b60206040518083038186803b158015610f8057600080fd5b505afa158015610f94573d6000803e3d6000fd5b505050506040513d601f19601f82011682018060405250810190610fb89190612dae565b90503373ffffffffffffffffffffffffffffffffffffffff166005600083815260200190815260200160002060010160009054906101000a900473ffffffffffffffffffffffffffffffffffffffff1673ffffffffffffffffffffffffffffffffffffffff161415611028578092505b50808061103490613a49565b915050610f01565b50600115156005600083815260200190815260200160002060010160149054906101000a900460ff161515146110a7576040517f08c379a000000000000000000000000000000000000000000000000000000000815260040161109e9061354d565b60405180910390fd5b83600073ffffffffffffffffffffffffffffffffffffffff168173ffffffffffffffffffffffffffffffffffffffff161415611118576040517f08c379a000000000000000000000000000000000000000000000000000000000815260040161110f906134cd565b60405180910390fd5b6000600860009054906101000a900473ffffffffffffffffffffffffffffffffffffffff1673ffffffffffffffffffffffffffffffffffffffff166370a08231876040518263ffffffff1660e01b815260040161117591906133c3565b60206040518083038186803b15801561118d57600080fd5b505afa1580156111a1573d6000803e3d6000fd5b505050506040513d601f19601f820116820180604052508101906111c59190612dae565b90506000811461120a576040517f08c379a00000000000000000000000000000000000000000000000000000000081526004016112019061360d565b60405180910390fd5b6000600860009054906101000a900473ffffffffffffffffffffffffffffffffffffffff1673ffffffffffffffffffffffffffffffffffffffff16633d02d0c988886040518363ffffffff1660e01b8152600401611269929190613415565b602060405180830381600087803b15801561128357600080fd5b505af1158015611297573d6000803e3d6000fd5b505050506040513d601f19601f820116820180604052508101906112bb9190612dae565b9050600060405180606001604052808381526020018973ffffffffffffffffffffffffffffffffffffffff16815260200160001515815250905080600560008481526020019081526020016000206000820151816000015560208201518160010160006101000a81548173ffffffffffffffffffffffffffffffffffffffff021916908373ffffffffffffffffffffffffffffffffffffffff16021790555060408201518160010160146101000a81548160ff02191690831515021790555090505080600660008a73ffffffffffffffffffffffffffffffffffffffff1673ffffffffffffffffffffffffffffffffffffffff1681526020019081526020016000206000820151816000015560208201518160010160006101000a81548173ffffffffffffffffffffffffffffffffffffffff021916908373ffffffffffffffffffffffffffffffffffffffff16021790555060408201518160010160146101000a81548160ff0219169083151502179055509050506003600081548092919061144490613a49565b91905055507f82a09cc58c9cecf0eb61d8994283ec804165931801f8b77e42dcb3b556c5c5be8289600860009054906101000a900473ffffffffffffffffffffffffffffffffffffffff1673ffffffffffffffffffffffffffffffffffffffff1663c87b56dd866040518263ffffffff1660e01b81526004016114c79190613688565b60006040518083038186803b1580156114df57600080fd5b505afa1580156114f3573d6000803e3d6000fd5b505050506040513d6000823e3d601f19601f8201168201806040525081019061151c9190612d38565b60405161152b939291906136da565b60405180910390a15050505050505050565b6004602052806000526040600020600091509050806000015490806001018054611566906139e6565b80601f0160208091040260200160405190810160405280929190818152602001828054611592906139e6565b80156115df5780601f106115b4576101008083540402835291602001916115df565b820191906000526020600020905b8154815290600101906020018083116115c257829003601f168201915b5050505050908060050154905083565b60066020528060005260406000206000915090508060000154908060010160009054906101000a900473ffffffffffffffffffffffffffffffffffffffff16908060010160149054906101000a900460ff16905083565b6000600860009054906101000a900473ffffffffffffffffffffffffffffffffffffffff1673ffffffffffffffffffffffffffffffffffffffff166370a08231336040518263ffffffff1660e01b81526004016116a391906133c3565b60206040518083038186803b1580156116bb57600080fd5b505afa1580156116cf573d6000803e3d6000fd5b505050506040513d601f19601f820116820180604052508101906116f39190612dae565b905060018114611738576040517f08c379a000000000000000000000000000000000000000000000000000000000815260040161172f906134ed565b60405180910390fd5b600254831061177c576040517f08c379a00000000000000000000000000000000000000000000000000000000081526004016117739061358d565b60405180910390fd5b6000600460008581526020019081526020016000209050806003018054905083106117dc576040517f08c379a00000000000000000000000000000000000000000000000000000000081526004016117d3906135cd565b60405180910390fd5b7fffffffffffffffffffffffffffffffffffffffffffffffffffffffffffffffff816005015414611842576040517f08c379a00000000000000000000000000000000000000000000000000000000081526004016118399061352d565b60405180910390fd5b6000600860009054906101000a900473ffffffffffffffffffffffffffffffffffffffff1673ffffffffffffffffffffffffffffffffffffffff166370a08231336040518263ffffffff1660e01b815260040161189f91906133c3565b60206040518083038186803b1580156118b757600080fd5b505afa1580156118cb573d6000803e3d6000fd5b505050506040513d601f19601f820116820180604052508101906118ef9190612dae565b9050600080600090505b82811015611a34576000600860009054906101000a900473ffffffffffffffffffffffffffffffffffffffff1673ffffffffffffffffffffffffffffffffffffffff16632f745c5933846040518363ffffffff1660e01b8152600401611960929190613445565b60206040518083038186803b15801561197857600080fd5b505afa15801561198c573d6000803e3d6000fd5b505050506040513d601f19601f820116820180604052508101906119b09190612dae565b90503373ffffffffffffffffffffffffffffffffffffffff166005600083815260200190815260200160002060010160009054906101000a900473ffffffffffffffffffffffffffffffffffffffff1673ffffffffffffffffffffffffffffffffffffffff161415611a20578092505b508080611a2c90613a49565b9150506118f9565b5060076000828152602001908152602001600020600087815260200190815260200160002060009054906101000a900460ff1615611aa7576040517f08c379a0000000000000000000000000000000000000000000000000000000008152600401611a9e9061356d565b60405180910390fd5b82600201819080600181540180825580915050600190039060005260206000200160009091909190915055826004018581548110611ae857611ae7613af0565b5b906000526020600020016000815480929190611b0390613a49565b9190505550600160076000838152602001908152602001600020600088815260200190815260200160002060006101000a81548160ff0219169083151502179055507fe828180429d50fecc65a7389299b1bf5f97fd5bec6ca0b9648c35255ee0a11ab868633611b728a612611565b604051611b829493929190613786565b60405180910390a1505050505050565b611b9a612843565b60056000838152602001908152602001600020604051806060016040529081600082015481526020016001820160009054906101000a900473ffffffffffffffffffffffffffffffffffffffff1673ffffffffffffffffffffffffffffffffffffffff1673ffffffffffffffffffffffffffffffffffffffff1681526020016001820160149054906101000a900460ff1615151515815250509050919050565b600860009054906101000a900473ffffffffffffffffffffffffffffffffffffffff1681565b6000600860009054906101000a900473ffffffffffffffffffffffffffffffffffffffff1673ffffffffffffffffffffffffffffffffffffffff166370a08231336040518263ffffffff1660e01b8152600401611cbd91906133c3565b60206040518083038186803b158015611cd557600080fd5b505afa158015611ce9573d6000803e3d6000fd5b505050506040513d601f19601f82011682018060405250810190611d0d9190612dae565b905060008111611d52576040517f08c379a0000000000000000000000000000000000000000000000000000000008152600401611d499061354d565b60405180910390fd5b600080600090505b82811015611e95576000600860009054906101000a900473ffffffffffffffffffffffffffffffffffffffff1673ffffffffffffffffffffffffffffffffffffffff16632f745c5933846040518363ffffffff1660e01b8152600401611dc1929190613445565b60206040518083038186803b158015611dd957600080fd5b505afa158015611ded573d6000803e3d6000fd5b505050506040513d601f19601f82011682018060405250810190611e119190612dae565b90503373ffffffffffffffffffffffffffffffffffffffff166005600083815260200190815260200160002060010160009054906101000a900473ffffffffffffffffffffffffffffffffffffffff1673ffffffffffffffffffffffffffffffffffffffff161415611e81578092505b508080611e8d90613a49565b915050611d5a565b50600115156005600083815260200190815260200160002060010160149054906101000a900460ff16151514611f00576040517f08c379a0000000000000000000000000000000000000000000000000000000008152600401611ef79061354d565b60405180910390fd5b82600073ffffffffffffffffffffffffffffffffffffffff168173ffffffffffffffffffffffffffffffffffffffff161415611f71576040517f08c379a0000000000000000000000000000000000000000000000000000000008152600401611f68906134cd565b60405180910390fd5b3373ffffffffffffffffffffffffffffffffffffffff168473ffffffffffffffffffffffffffffffffffffffff161415611fe0576040517f08c379a0000000000000000000000000000000000000000000000000000000008152600401611fd79061362d565b60405180910390fd5b600080600860009054906101000a900473ffffffffffffffffffffffffffffffffffffffff1673ffffffffffffffffffffffffffffffffffffffff166370a08231876040518263ffffffff1660e01b815260040161203e91906133c3565b60206040518083038186803b15801561205657600080fd5b505afa15801561206a573d6000803e3d6000fd5b505050506040513d601f19601f8201168201806040525081019061208e9190612dae565b9050600080600090505b828110156121d7576000600860009054906101000a900473ffffffffffffffffffffffffffffffffffffffff1673ffffffffffffffffffffffffffffffffffffffff16632f745c598a846040518363ffffffff1660e01b81526004016120ff929190613445565b60206040518083038186803b15801561211757600080fd5b505afa15801561212b573d6000803e3d6000fd5b505050506040513d601f19601f8201168201806040525081019061214f9190612dae565b90508873ffffffffffffffffffffffffffffffffffffffff166005600083815260200190815260200160002060010160009054906101000a900473ffffffffffffffffffffffffffffffffffffffff1673ffffffffffffffffffffffffffffffffffffffff1614156121c357809250600194505b5080806121cf90613a49565b915050612098565b5082612218576040517f08c379a000000000000000000000000000000000000000000000000000000000815260040161220f9061350d565b60405180910390fd5b6000600860009054906101000a900473ffffffffffffffffffffffffffffffffffffffff1673ffffffffffffffffffffffffffffffffffffffff166370a08231336040518263ffffffff1660e01b815260040161227591906133c3565b60206040518083038186803b15801561228d57600080fd5b505afa1580156122a1573d6000803e3d6000fd5b505050506040513d601f19601f820116820180604052508101906122c59190612dae565b9050600080600090505b8281101561240a576000600860009054906101000a900473ffffffffffffffffffffffffffffffffffffffff1673ffffffffffffffffffffffffffffffffffffffff16632f745c5933846040518363ffffffff1660e01b8152600401612336929190613445565b60206040518083038186803b15801561234e57600080fd5b505afa158015612362573d6000803e3d6000fd5b505050506040513d601f19601f820116820180604052508101906123869190612dae565b90503373ffffffffffffffffffffffffffffffffffffffff166005600083815260200190815260200160002060010160009054906101000a900473ffffffffffffffffffffffffffffffffffffffff1673ffffffffffffffffffffffffffffffffffffffff1614156123f6578092505b50808061240290613a49565b9150506122cf565b50841561253457600860009054906101000a900473ffffffffffffffffffffffffffffffffffffffff1673ffffffffffffffffffffffffffffffffffffffff1663f5537ede338b846040518463ffffffff1660e01b8152600401612470939291906133de565b600060405180830381600087803b15801561248a57600080fd5b505af115801561249e573d6000803e3d6000fd5b50505050600860009054906101000a900473ffffffffffffffffffffffffffffffffffffffff1673ffffffffffffffffffffffffffffffffffffffff1663f5537ede8a33866040518463ffffffff1660e01b8152600401612501939291906133de565b600060405180830381600087803b15801561251b57600080fd5b505af115801561252f573d6000803e3d6000fd5b505050505b505050505050505050565b612547612843565b600660003373ffffffffffffffffffffffffffffffffffffffff1673ffffffffffffffffffffffffffffffffffffffff168152602001908152602001600020604051806060016040529081600082015481526020016001820160009054906101000a900473ffffffffffffffffffffffffffffffffffffffff1673ffffffffffffffffffffffffffffffffffffffff1673ffffffffffffffffffffffffffffffffffffffff1681526020016001820160149054906101000a900460ff161515151581525050905090565b6000806004600084815260200190815260200160002090507fffffffffffffffffffffffffffffffffffffffffffffffffffffffffffffffff81600501541461265e5760009150506126de565b6003548160020180549050146126785760009150506126de565b60008060005b83600401805490508110156126cc57828460040182815481106126a4576126a3613af0565b5b906000526020600020015411156126b9578091505b80806126c490613a49565b91505061267e565b50808360050181905550600193505050505b919050565b60405180602001604052806001905b6126fa61287c565b8152602001906001900390816126f25790505090565b82805461271c906139e6565b90600052602060002090601f01602090048101928261273e5760008555612785565b82601f1061275757803560ff1916838001178555612785565b82800160010185558215612785579182015b82811115612784578235825591602001919060010190612769565b5b50905061279291906128b2565b5090565b8280548282559060005260206000209081019282156127e5579160200282015b828111156127e45782518290805190602001906127d49291906128cf565b50916020019190600101906127b6565b5b5090506127f29190612955565b5090565b828054828255906000526020600020908101928215612832579160200282015b82811115612831578251825591602001919060010190612816565b5b50905061283f91906128b2565b5090565b604051806060016040528060008152602001600073ffffffffffffffffffffffffffffffffffffffff1681526020016000151581525090565b6040518060c001604052806000815260200160608152602001606081526020016060815260200160608152602001600081525090565b5b808211156128cb5760008160009055506001016128b3565b5090565b8280546128db906139e6565b90600052602060002090601f0160209004810192826128fd5760008555612944565b82601f1061291657805160ff1916838001178555612944565b82800160010185558215612944579182015b82811115612943578251825591602001919060010190612928565b5b50905061295191906128b2565b5090565b5b80821115612975576000818161296c9190612979565b50600101612956565b5090565b508054612985906139e6565b6000825580601f1061299757506129b6565b601f0160209004906000526020600020908101906129b591906128b2565b5b50565b60006129cc6129c7846137f0565b6137cb565b905080838252602082019050828560208602820111156129ef576129ee613b58565b5b60005b85811015612a3d57813567ffffffffffffffff811115612a1557612a14613b53565b5b808601612a228982612b64565b855260208501945060208401935050506001810190506129f2565b5050509392505050565b6000612a5a612a558461381c565b6137cb565b905082815260208101848484011115612a7657612a75613b5d565b5b612a818482856139a4565b509392505050565b6000612a9c612a978461381c565b6137cb565b905082815260208101848484011115612ab857612ab7613b5d565b5b612ac38482856139b3565b509392505050565b600081359050612ada81613ee8565b92915050565b600082601f830112612af557612af4613b53565b5b8135612b058482602086016129b9565b91505092915050565b60008083601f840112612b2457612b23613b53565b5b8235905067ffffffffffffffff811115612b4157612b40613b4e565b5b602083019150836001820283011115612b5d57612b5c613b58565b5b9250929050565b600082601f830112612b7957612b78613b53565b5b8135612b89848260208601612a47565b91505092915050565b600082601f830112612ba757612ba6613b53565b5b8151612bb7848260208601612a89565b91505092915050565b600081359050612bcf81613eff565b92915050565b600081519050612be481613eff565b92915050565b600060208284031215612c0057612bff613b67565b5b6000612c0e84828501612acb565b91505092915050565b60008060408385031215612c2e57612c2d613b67565b5b6000612c3c85828601612acb565b925050602083013567ffffffffffffffff811115612c5d57612c5c613b62565b5b612c6985828601612b64565b9150509250929050565b600080600060408486031215612c8c57612c8b613b67565b5b600084013567ffffffffffffffff811115612caa57612ca9613b62565b5b612cb686828701612b0e565b9350935050602084013567ffffffffffffffff811115612cd957612cd8613b62565b5b612ce586828701612ae0565b9150509250925092565b600060208284031215612d0557612d04613b67565b5b600082013567ffffffffffffffff811115612d2357612d22613b62565b5b612d2f84828501612b64565b91505092915050565b600060208284031215612d4e57612d4d613b67565b5b600082015167ffffffffffffffff811115612d6c57612d6b613b62565b5b612d7884828501612b92565b91505092915050565b600060208284031215612d9757612d96613b67565b5b6000612da584828501612bc0565b91505092915050565b600060208284031215612dc457612dc3613b67565b5b6000612dd284828501612bd5565b91505092915050565b60008060408385031215612df257612df1613b67565b5b6000612e0085828601612bc0565b9250506020612e1185828601612bc0565b9150509250929050565b6000612e27838361300c565b905092915050565b6000612e3b8383613307565b905092915050565b6000612e4f83836133a5565b60208301905092915050565b612e648161392e565b82525050565b612e738161392e565b82525050565b6000612e848261388c565b612e8e81856138df565b935083602082028501612ea08561384d565b8060005b85811015612edc5784840389528151612ebd8582612e1b565b9450612ec8836138b8565b925060208a01995050600181019050612ea4565b50829750879550505050505092915050565b6000612ef982613897565b612f0381856138f0565b935083602082028501612f158561385d565b8060005b85811015612f515784840389528151612f328582612e2f565b9450612f3d836138c5565b925060208a01995050600181019050612f19565b50829750879550505050505092915050565b6000612f6e826138a2565b612f7881856138fb565b9350612f8383613867565b8060005b83811015612fb4578151612f9b8882612e43565b9750612fa6836138d2565b925050600181019050612f87565b5085935050505092915050565b612fca81613940565b82525050565b612fd981613940565b82525050565b612fe881613980565b82525050565b612ff78161394c565b82525050565b6130068161394c565b82525050565b6000613017826138ad565b613021818561390c565b93506130318185602086016139b3565b61303a81613b6c565b840191505092915050565b6000613050826138ad565b61305a818561391d565b935061306a8185602086016139b3565b61307381613b6c565b840191505092915050565b6000815461308b816139e6565b613095818661391d565b945060018216600081146130b057600181146130c2576130f5565b60ff19831686526020860193506130f5565b6130cb85613877565b60005b838110156130ed578154818901526001820191506020810190506130ce565b808801955050505b50505092915050565b600061310b601e8361391d565b915061311682613b7d565b602082019050919050565b600061312e60308361391d565b915061313982613ba6565b604082019050919050565b600061315160238361391d565b915061315c82613bf5565b604082019050919050565b6000613174602b8361391d565b915061317f82613c44565b604082019050919050565b600061319760228361391d565b91506131a282613c93565b604082019050919050565b60006131ba601e8361391d565b91506131c582613ce2565b602082019050919050565b60006131dd60198361391d565b91506131e882613d0b565b602082019050919050565b600061320060268361391d565b915061320b82613d34565b604082019050919050565b6000613223601b8361391d565b915061322e82613d83565b602082019050919050565b600061324660238361391d565b915061325182613dac565b604082019050919050565b600061326960288361391d565b915061327482613dfb565b604082019050919050565b600061328c60268361391d565b915061329782613e4a565b604082019050919050565b60006132af602a8361391d565b91506132ba82613e99565b604082019050919050565b6060820160008201516132db60008501826133a5565b5060208201516132ee6020850182612e5b565b5060408201516133016040850182612fc1565b50505050565b600060c08301600083015161331f60008601826133a5565b5060208301518482036020860152613337828261300c565b915050604083015184820360408601526133518282612f63565b9150506060830151848203606086015261336b8282612e79565b915050608083015184820360808601526133858282612f63565b91505060a083015161339a60a0860182612fee565b508091505092915050565b6133ae81613976565b82525050565b6133bd81613976565b82525050565b60006020820190506133d86000830184612e6a565b92915050565b60006060820190506133f36000830186612e6a565b6134006020830185612e6a565b61340d60408301846133b4565b949350505050565b600060408201905061342a6000830185612e6a565b818103602083015261343c8184613045565b90509392505050565b600060408201905061345a6000830185612e6a565b61346760208301846133b4565b9392505050565b600060208201905081810360008301526134888184612eee565b905092915050565b60006020820190506134a56000830184612fdf565b92915050565b600060208201905081810360008301526134c58184613045565b905092915050565b600060208201905081810360008301526134e6816130fe565b9050919050565b6000602082019050818103600083015261350681613121565b9050919050565b6000602082019050818103600083015261352681613144565b9050919050565b6000602082019050818103600083015261354681613167565b9050919050565b600060208201905081810360008301526135668161318a565b9050919050565b60006020820190508181036000830152613586816131ad565b9050919050565b600060208201905081810360008301526135a6816131d0565b9050919050565b600060208201905081810360008301526135c6816131f3565b9050919050565b600060208201905081810360008301526135e681613216565b9050919050565b6000602082019050818103600083015261360681613239565b9050919050565b600060208201905081810360008301526136268161325c565b9050919050565b600060208201905081810360008301526136468161327f565b9050919050565b60006020820190508181036000830152613666816132a2565b9050919050565b600060608201905061368260008301846132c5565b92915050565b600060208201905061369d60008301846133b4565b92915050565b60006060820190506136b860008301866133b4565b6136c56020830185612e6a565b6136d26040830184612fd0565b949350505050565b60006060820190506136ef60008301866133b4565b6136fc6020830185612e6a565b818103604083015261370e8184613045565b9050949350505050565b600060608201905061372d60008301866133b4565b818103602083015261373f8185613045565b905061374e6040830184612ffd565b949350505050565b600060408201905061376b60008301856133b4565b818103602083015261377d818461307e565b90509392505050565b600060808201905061379b60008301876133b4565b6137a860208301866133b4565b6137b56040830185612e6a565b6137c26060830184612fd0565b95945050505050565b60006137d56137e6565b90506137e18282613a18565b919050565b6000604051905090565b600067ffffffffffffffff82111561380b5761380a613b1f565b5b602082029050602081019050919050565b600067ffffffffffffffff82111561383757613836613b1f565b5b61384082613b6c565b9050602081019050919050565b6000819050602082019050919050565b6000819050919050565b6000819050602082019050919050565b60008190508160005260206000209050919050565b600081519050919050565b600060019050919050565b600081519050919050565b600081519050919050565b6000602082019050919050565b6000602082019050919050565b6000602082019050919050565b600082825260208201905092915050565b600081905092915050565b600082825260208201905092915050565b600082825260208201905092915050565b600082825260208201905092915050565b600061393982613956565b9050919050565b60008115159050919050565b6000819050919050565b600073ffffffffffffffffffffffffffffffffffffffff82169050919050565b6000819050919050565b600061398b82613992565b9050919050565b600061399d82613956565b9050919050565b82818337600083830152505050565b60005b838110156139d15780820151818401526020810190506139b6565b838111156139e0576000848401525b50505050565b600060028204905060018216806139fe57607f821691505b60208210811415613a1257613a11613ac1565b5b50919050565b613a2182613b6c565b810181811067ffffffffffffffff82111715613a4057613a3f613b1f565b5b80604052505050565b6000613a5482613976565b91507fffffffffffffffffffffffffffffffffffffffffffffffffffffffffffffffff821415613a8757613a86613a92565b5b600182019050919050565b7f4e487b7100000000000000000000000000000000000000000000000000000000600052601160045260246000fd5b7f4e487b7100000000000000000000000000000000000000000000000000000000600052602260045260246000fd5b7f4e487b7100000000000000000000000000000000000000000000000000000000600052603260045260246000fd5b7f4e487b7100000000000000000000000000000000000000000000000000000000600052604160045260246000fd5b600080fd5b600080fd5b600080fd5b600080fd5b600080fd5b600080fd5b6000601f19601f8301169050919050565b7f412076616c69642061646472657373206d757374206265207061737365640000600082015250565b7f4d75737420686f6c6420616e2061636365737320746f6b656e20746f2070657260008201527f666f726d207468697320616374696f6e00000000000000000000000000000000602082015250565b7f4e65772061646d696e206d757374206861766520616e2061636365737320746f60008201527f6b656e0000000000000000000000000000000000000000000000000000000000602082015250565b7f43616e6e6f74206361737420766f7465206f6e20616e20616c7265616479206460008201527f65636964656420706f6c6c000000000000000000000000000000000000000000602082015250565b7f4f6e6c792061646d696e206d617920706572666f726d2074686973206163746960008201527f6f6e000000000000000000000000000000000000000000000000000000000000602082015250565b7f43616e6e6f7420766f7465206f6e2073616d6520706f6c6c2074776963650000600082015250565b7f4d757374207061737320612076616c696420706f6c6c20494400000000000000600082015250565b7f41646d696e20616c72656164792065786973747320666f72207468697320636f60008201527f6e74726163740000000000000000000000000000000000000000000000000000602082015250565b7f4d757374207061737320612076616c6964206f7074696f6e2049440000000000600082015250565b7f4f7074696f6e7320706172616d65746572206d757374206e6f7420626520656d60008201527f7074790000000000000000000000000000000000000000000000000000000000602082015250565b7f416e2061646472657373206d6179206f6e6c79206f776e206f6e65204163636560008201527f737320546f6b656e000000000000000000000000000000000000000000000000602082015250565b7f43616e6e6f74207265706c6163652061646d696e20776974682073616d65206160008201527f6464726573730000000000000000000000000000000000000000000000000000602082015250565b7f537472696e6720706172616d65746572206d757374206265206f66206120766160008201527f6c6964206c656e67746800000000000000000000000000000000000000000000602082015250565b613ef18161392e565b8114613efc57600080fd5b50565b613f0881613976565b8114613f1357600080fd5b5056fea264697066735822122045ea35f607ce9ab2d7f04d5147bff088bf790feeb70813d64901a36d36b8905c64736f6c63430008060033",
  "immutableReferences": {},
  "source": "// SPDX-License-Identifier: UNLICENSED\npragma solidity ^0.8.6;\n\nimport \"./AccessToken.sol\";\n\ncontract VotingContract {\n\n    /* I figure having these events is good practice\n    but i'm not sure if there are more things I should \n    include to make it a complete event or whatever.\n    Still just a young padawan. */\n    event TokenCreated (\n        uint tokenId,\n        address owner,\n        string contractAddr\n    );\n\n    event PollCreated(\n        uint id,\n        string issue\n    );\n\n    event VoteCasted(\n        uint pollId,\n        uint optionId,\n        address voter,\n        bool decided\n    );\n\n    // event AdminUpdated(\n    //     uint contractIndex\n    // );\n\n    event Debug(\n        string description\n    );\n\n    // Admin can create multiple polls for their organization to vote on\n    /* I wanted to have a mapping of uint => OptionStruct\n    but could NOT get it to work so I'm working with a \n    more rudimentary approached. While not as sophisticated,\n    it works and that's what makes me happy. This is my first\n    real capstone project so I can't try and get too fancy */ \n    struct Poll {\n        uint id;\n        // issue on which voters are deciding on\n        string issue;\n        uint[] voters;\n        string[] options;\n        uint[] results;\n        // If -1, no result has been determined.\n        // If other number, index of option won.\n        int result;\n    }\n\n    struct AccessRef {\n        uint tokenId;\n        address owner;\n        bool isAdmin;\n    }\n    \n    string public name;\n    bool adminExists;\n    uint numPolls;\n    uint numTokens;\n    mapping(uint => Poll) public polls;\n    mapping(uint => AccessRef) public approvedTokens;\n    mapping(address => AccessRef) public tokenOwners;\n    // stores whether token has voted in a particular poll\n    // mapping(tokenId => mapping(pollId => bool))\n    mapping(uint => mapping(uint => bool)) hasVoted;\n    AccessToken public accessToken;\n    \n\n    constructor(string memory _name, address tokenAddr) {\n        name = _name;\n        accessToken = AccessToken(tokenAddr);\n    }\n\n    function getAccessRef(uint tokenId) external view returns(AccessRef memory){\n        return approvedTokens[tokenId];\n    }\n\n    function getOwnerToken() external view returns(AccessRef memory){\n        return tokenOwners[msg.sender];\n    }\n\n    function getPoll(uint pollId) external view returns(Poll[1] memory) {\n        /* Using this as a workaround to retrieve a particular, \n        since Poll doesn't return arrays within struct when \n        call mapping polls() function. Would like to know \n        if there's a better way to accomplish this */\n        Poll[1] memory pollArr = [polls[pollId]];\n        return pollArr;\n    }\n\n    function generateAdmin(string memory contractAddr) external {\n        require(!adminExists, \"Admin already exists for this contract\");\n        uint tokenId = accessToken.mintToken(msg.sender, contractAddr);\n        AccessRef memory ar = AccessRef(\n            tokenId,\n            msg.sender,\n            true\n        );\n        approvedTokens[tokenId] = ar;\n        tokenOwners[msg.sender] = ar;    \n        adminExists = true;\n        numTokens++;\n        emit TokenCreated(tokenId, msg.sender, accessToken.tokenURI(tokenId));\n    }\n\n\n    function generateAccessToken(address approved, string memory contractAddr) \n        external \n        onlyAdmin()\n        validAddress(approved) {\n            uint balanceOf = accessToken.balanceOf(approved);\n            /* Need to fix this check. Will make it so that address may only\n            have one access token per voting contract*/\n            require(balanceOf == 0, \n            \"An address may only own one Access Token\");\n            uint tokenId = accessToken.mintToken(approved, contractAddr);\n            AccessRef memory ar = AccessRef(\n                tokenId,\n                approved,\n                false\n            );\n            approvedTokens[tokenId] = ar;\n            tokenOwners[approved] = ar;\n            numTokens++;\n            emit TokenCreated(tokenId, approved, accessToken.tokenURI(tokenId));\n    }\n\n    // function removeApprovedVoter(address unapproved) external onlyAdmin() validAddress(unapproved) {                \n    //     require(unapproved != admin, \"Admin may not be removed from approved list\");\n        \n    //     uint unapprovedIndex;\n    //     bool foundIndex = false;\n        \n    //     for(uint i = 0; i < approved.length; i++){\n    //         if(approved[i] == unapproved){\n    //             unapprovedIndex = i;\n    //             foundIndex = true;\n    //             // stops forLoop if found index of unapproved\n    //             break;\n    //         }\n    //     }\n\n    //     if(foundIndex){\n    //         delete approved[unapprovedIndex];\n    //         // replaces deleted spot with last element of array\n    //         /* I questionn whether i need to explicitly delete\n    //         the unapprovedIndex element as i do above or if i \n    //         can just skip straight to replacing it as i do below */\n    //         approved[unapprovedIndex] = approved[approved.length - 1];\n    //         /* then removes last element from array to ensure the replacer \n    //         approved address doesn't show up twice in array */\n    //         approved.pop();\n    //     }\n    // }\n\n    /* This updates who is the current admin. there may only be \n    one admin per VotingContract */\n    // Purposely requiring that newAdmin already holds an access token\n    function updateAdmin(address newAdmin) external onlyAdmin() validAddress(newAdmin) {\n        require(newAdmin != msg.sender, \"Cannot replace admin with same address\");\n\n        bool newAdminIsApproved = false;\n        uint balanceOf = accessToken.balanceOf(newAdmin);\n        // Saves newAdmin's current tokenId\n        uint tokenId;\n        // checks if newAdmin has an access token\n        for(uint i = 0; i < balanceOf; i++){\n            uint currentTokenId = accessToken.tokenOfOwnerByIndex(newAdmin, i);\n            if(approvedTokens[currentTokenId].owner == newAdmin){\n                tokenId = currentTokenId;\n                newAdminIsApproved = true;\n            }\n        }\n        require(newAdminIsApproved, \n            \"New admin must have an access token\");\n\n        uint adminBalanceOf = accessToken.balanceOf(msg.sender);\n        // Saves current admin's tokenId\n        uint adminTokenId;\n        for(uint i = 0; i < adminBalanceOf; i++){\n            uint currentTokenId = accessToken.tokenOfOwnerByIndex(msg.sender, i);\n            if(approvedTokens[currentTokenId].owner == msg.sender){\n                adminTokenId = currentTokenId;\n            }\n        }\n\n        // newAdmin is added only if they are already an approved voter\n        // redundant check after the above require statement \n        if(newAdminIsApproved){\n            accessToken.transferToken(msg.sender, newAdmin, adminTokenId);\n            accessToken.transferToken(newAdmin, msg.sender, tokenId);\n\n            /* Before I start transfering tokens, I need to think through\n            the following: admin will transfer their token to newAdmin, but\n            newAdmin needs to have approved the transfer of their token to admin.\n            Not sure how exactly to work this out but I believe I will need an approve\n            function within this contract for newAdmin to approve transfer of \n            their token before admin called updateAdmin. To keep it simple, I think\n            i will just have a settings tab where someone can come in and approve the \n            transfer of their token to admin at any time. Would love to work something \n            out in-app, but for now I will assume that admin & newAdmin came to an \n            agreement offline, and newAdmin hits approveTransfer before admin assigns newAdmin */ \n            /* I think admin might also have to approve their token transfer, since msg.sender \n            inside of accessToken.call() will be this contract's address instead of admin... */\n            /* Wait a second I'm looking at ERC721 methods and _transfer imposes no restrictions on\n            msg.sender. this is good. since this is my first smart contract working with ERC721, I think\n            I will stick to _transfer and not worry about approvals for now. I will leave that for future \n            sophistication. */\n\n            // emit AdminUpdated(contractIndex);\n        }\n    }\n\n    function createPoll(string calldata issue, string[] memory _options) \n        external \n        onlyAdmin()\n        stringLength(issue) {\n            require(_options.length > 0, \n                \"Options parameter must not be empty\");\n            Poll storage p = polls[numPolls];\n            p.id = numPolls;\n            p.issue = issue;\n            p.options = _options;\n            p.result = -1;\n            p.results = new uint[](_options.length);\n            \n            emit PollCreated(p.id, p.issue);\n            numPolls++;\n    }\n\n    function vote(uint pollId, uint optionId) external onlyApproved() {\n        require(pollId < numPolls, \n            \"Must pass a valid poll ID\");\n        Poll storage p = polls[pollId];\n        require(optionId < p.options.length, \n            \"Must pass a valid option ID\");\n        require(p.result == -1, \n            \"Cannot cast vote on an already decided poll\");\n\n        uint balanceOf = accessToken.balanceOf(msg.sender);\n        uint tokenId; \n        for(uint i = 0; i < balanceOf; i++){\n            uint currentTokenId = accessToken.tokenOfOwnerByIndex(msg.sender, i);\n            if(approvedTokens[currentTokenId].owner == msg.sender){\n                tokenId = currentTokenId;\n            }\n        }\n        require(!hasVoted[tokenId][pollId], \n            \"Cannot vote on same poll twice\");\n\n        p.voters.push(tokenId);\n        p.results[optionId]++;\n        hasVoted[tokenId][pollId] = true;\n        \n        emit VoteCasted(pollId, optionId, msg.sender, decideResult(pollId));\n    }\n\n    /* Should I require that a valid Poll ID is passed? \n    Would be redundant since vote() (the function that calls this)\n    already checks for a valid pollId  */\n    // Need to handle draws.\n    /* On draw, I think i should reset poll, but only with the top options\n    (if 3 options got highest vote, then those three options remain, rest leave) */\n    function decideResult(uint pollId) internal returns(bool) {\n        Poll storage p = polls[pollId];\n        // Not sure if i should use a require, or the IF statement as I currently am\n        // require(!p.decided, \"This poll has already been decided\");\n        if(p.result != -1) {\n            return false;\n        }\n\n        /* Not sure if i want this. What if admin wants to decide a vote before\n        all approved vote? What if admin wants poll to be open\n        only during a particular time period? */\n        // require(p.voters.length == approved.length, \"All approved addresses must vote\");\n        if(p.voters.length != numTokens) {\n            return false;\n        }\n\n        uint mostVotes;\n        uint winnerIndex;\n        for(uint i = 0; i < p.results.length; i++){\n            /* \"should\" always work since this function won't be called\n            until someone casts a vote. will consider adding a check */ \n            if(p.results[i] > mostVotes) {\n                winnerIndex = i;\n            }\n        }\n        p.result = int(winnerIndex);\n\n        return true;\n    }\n\n    modifier onlyApproved() {\n        uint balanceOf = accessToken.balanceOf(msg.sender);\n        require(balanceOf == 1,\n        \"Must hold an access token to perform this action\");\n        _;\n    }\n\n    modifier onlyAdmin() {\n        uint balanceOf = accessToken.balanceOf(msg.sender);\n        require(balanceOf > 0,\n            \"Only admin may perform this action\");\n        uint tokenId; \n        for(uint i = 0; i < balanceOf; i++){\n            uint currentTokenId = accessToken.tokenOfOwnerByIndex(msg.sender, i);\n            if(approvedTokens[currentTokenId].owner == msg.sender){\n                tokenId = currentTokenId;\n            }\n        }\n        require(approvedTokens[tokenId].isAdmin == true,\n            \"Only admin may perform this action\");\n        _;\n    }\n\n    modifier validAddress(address _address) {\n        require(_address != address(0),\"A valid address must be passed\");\n        _;\n    }\n\n    modifier stringLength(string calldata str) {\n        require(bytes(str).length > 0, \n            \"String parameter must be of a valid length\");\n        _;\n    }    \n}",
  "sourcePath": "/home/odon/code/bloc/self-directed/vote_per_organization/backend/contracts/VotingContract.sol",
  "compiler": {
    "name": "solc",
    "version": "0.8.6+commit.11564f7e.Emscripten.clang"
  },
  "schemaVersion": "3.4.1",
  "updatedAt": "2021-08-07T16:12:41.780Z",
  "networkType": "ethereum",
  "devdoc": {
    "kind": "dev",
    "methods": {},
    "version": 1
  },
  "userdoc": {
    "kind": "user",
    "methods": {},
    "version": 1
  }
}