{
  "contractName": "VotingContract",
  "abi": [
    {
      "inputs": [
        {
          "internalType": "string",
          "name": "_name",
          "type": "string"
        },
        {
          "internalType": "address",
          "name": "_admin",
          "type": "address"
        },
        {
          "internalType": "address",
          "name": "_creator",
          "type": "address"
        }
      ],
      "stateMutability": "nonpayable",
      "type": "constructor"
    },
    {
      "anonymous": false,
      "inputs": [
        {
          "indexed": false,
          "internalType": "string",
          "name": "description",
          "type": "string"
        }
      ],
      "name": "Debug",
      "type": "event"
    },
    {
      "inputs": [],
      "name": "admin",
      "outputs": [
        {
          "internalType": "address",
          "name": "",
          "type": "address"
        }
      ],
      "stateMutability": "view",
      "type": "function"
    },
    {
      "inputs": [
        {
          "internalType": "uint256",
          "name": "",
          "type": "uint256"
        }
      ],
      "name": "approved",
      "outputs": [
        {
          "internalType": "address",
          "name": "",
          "type": "address"
        }
      ],
      "stateMutability": "view",
      "type": "function"
    },
    {
      "inputs": [],
      "name": "creatorContract",
      "outputs": [
        {
          "internalType": "contract CreatorContract",
          "name": "",
          "type": "address"
        }
      ],
      "stateMutability": "view",
      "type": "function"
    },
    {
      "inputs": [],
      "name": "name",
      "outputs": [
        {
          "internalType": "string",
          "name": "",
          "type": "string"
        }
      ],
      "stateMutability": "view",
      "type": "function"
    },
    {
      "inputs": [
        {
          "internalType": "uint256",
          "name": "",
          "type": "uint256"
        }
      ],
      "name": "polls",
      "outputs": [
        {
          "internalType": "uint256",
          "name": "id",
          "type": "uint256"
        },
        {
          "internalType": "string",
          "name": "issue",
          "type": "string"
        },
        {
          "internalType": "uint256",
          "name": "votersLeft",
          "type": "uint256"
        },
        {
          "internalType": "uint256",
          "name": "numOfVoters",
          "type": "uint256"
        },
        {
          "internalType": "string",
          "name": "result",
          "type": "string"
        },
        {
          "internalType": "bool",
          "name": "decided",
          "type": "bool"
        }
      ],
      "stateMutability": "view",
      "type": "function"
    },
    {
      "stateMutability": "payable",
      "type": "receive"
    },
    {
      "inputs": [],
      "name": "getApproved",
      "outputs": [
        {
          "internalType": "address[]",
          "name": "",
          "type": "address[]"
        }
      ],
      "stateMutability": "view",
      "type": "function"
    },
    {
      "inputs": [
        {
          "internalType": "address[]",
          "name": "approvedList",
          "type": "address[]"
        }
      ],
      "name": "approveVoters",
      "outputs": [],
      "stateMutability": "nonpayable",
      "type": "function"
    },
    {
      "inputs": [
        {
          "internalType": "address",
          "name": "unapproved",
          "type": "address"
        }
      ],
      "name": "removeApprovedVoter",
      "outputs": [],
      "stateMutability": "nonpayable",
      "type": "function"
    },
    {
      "inputs": [
        {
          "internalType": "address",
          "name": "newAdmin",
          "type": "address"
        }
      ],
      "name": "updateAdmin",
      "outputs": [],
      "stateMutability": "nonpayable",
      "type": "function"
    }
  ],
  "bytecode": "0x60806040523480156200001157600080fd5b5060405162001dd738038062001dd78339818101604052810190620000379190620002a5565b82600090805190602001906200004f92919062000160565b5081600160006101000a81548173ffffffffffffffffffffffffffffffffffffffff021916908373ffffffffffffffffffffffffffffffffffffffff16021790555080600560006101000a81548173ffffffffffffffffffffffffffffffffffffffff021916908373ffffffffffffffffffffffffffffffffffffffff1602179055506003600160009054906101000a900473ffffffffffffffffffffffffffffffffffffffff169080600181540180825580915050600190039060005260206000200160009091909190916101000a81548173ffffffffffffffffffffffffffffffffffffffff021916908373ffffffffffffffffffffffffffffffffffffffff160217905550505050620004f2565b8280546200016e90620003e9565b90600052602060002090601f016020900481019282620001925760008555620001de565b82601f10620001ad57805160ff1916838001178555620001de565b82800160010185558215620001de579182015b82811115620001dd578251825591602001919060010190620001c0565b5b509050620001ed9190620001f1565b5090565b5b808211156200020c576000816000905550600101620001f2565b5090565b600062000227620002218462000349565b62000320565b905082815260208101848484011115620002465762000245620004b8565b5b62000253848285620003b3565b509392505050565b6000815190506200026c81620004d8565b92915050565b600082601f8301126200028a5762000289620004b3565b5b81516200029c84826020860162000210565b91505092915050565b600080600060608486031215620002c157620002c0620004c2565b5b600084015167ffffffffffffffff811115620002e257620002e1620004bd565b5b620002f08682870162000272565b935050602062000303868287016200025b565b925050604062000316868287016200025b565b9150509250925092565b60006200032c6200033f565b90506200033a82826200041f565b919050565b6000604051905090565b600067ffffffffffffffff82111562000367576200036662000484565b5b6200037282620004c7565b9050602081019050919050565b60006200038c8262000393565b9050919050565b600073ffffffffffffffffffffffffffffffffffffffff82169050919050565b60005b83811015620003d3578082015181840152602081019050620003b6565b83811115620003e3576000848401525b50505050565b600060028204905060018216806200040257607f821691505b6020821081141562000419576200041862000455565b5b50919050565b6200042a82620004c7565b810181811067ffffffffffffffff821117156200044c576200044b62000484565b5b80604052505050565b7f4e487b7100000000000000000000000000000000000000000000000000000000600052602260045260246000fd5b7f4e487b7100000000000000000000000000000000000000000000000000000000600052604160045260246000fd5b600080fd5b600080fd5b600080fd5b600080fd5b6000601f19601f8301169050919050565b620004e3816200037f565b8114620004ef57600080fd5b50565b6118d580620005026000396000f3fe60806040526004361061008a5760003560e01c8063ac2f007411610059578063ac2f007414610152578063d07b77b514610194578063e2f273bd146101bf578063f674b24d146101e8578063f851a4401461021157610091565b806306fdde0314610096578063189a563f146100c15780633dae35ce146100ea5780637d4061e61461011557610091565b3661009157005b600080fd5b3480156100a257600080fd5b506100ab61023c565b6040516100b89190611237565b60405180910390f35b3480156100cd57600080fd5b506100e860048036038101906100e39190610f66565b6102ca565b005b3480156100f657600080fd5b506100ff610527565b60405161010c919061121c565b60405180910390f35b34801561012157600080fd5b5061013c60048036038101906101379190610faf565b61054d565b60405161014991906111a8565b60405180910390f35b34801561015e57600080fd5b5061017960048036038101906101749190610faf565b61058c565b60405161018b96959493929190611319565b60405180910390f35b3480156101a057600080fd5b506101a96106f5565b6040516101b691906111fa565b60405180910390f35b3480156101cb57600080fd5b506101e660048036038101906101e19190610f39565b610783565b005b3480156101f457600080fd5b5061020f600480360381019061020a9190610f39565b610acf565b005b34801561021d57600080fd5b50610226610e4b565b60405161023391906111a8565b60405180910390f35b6000805461024990611501565b80601f016020809104026020016040519081016040528092919081815260200182805461027590611501565b80156102c25780601f10610297576101008083540402835291602001916102c2565b820191906000526020600020905b8154815290600101906020018083116102a557829003601f168201915b505050505081565b600160009054906101000a900473ffffffffffffffffffffffffffffffffffffffff1673ffffffffffffffffffffffffffffffffffffffff163373ffffffffffffffffffffffffffffffffffffffff161461035a576040517f08c379a000000000000000000000000000000000000000000000000000000000815260040161035190611279565b60405180910390fd5b600081511161039e576040517f08c379a0000000000000000000000000000000000000000000000000000000008152600401610395906112b9565b60405180910390fd5b60005b81518110156105235760008282815181106103bf576103be61163a565b5b60200260200101519050600073ffffffffffffffffffffffffffffffffffffffff168173ffffffffffffffffffffffffffffffffffffffff1614156104045750610510565b6000805b6003805490508110156104a3578273ffffffffffffffffffffffffffffffffffffffff16600382815481106104405761043f61163a565b5b9060005260206000200160009054906101000a900473ffffffffffffffffffffffffffffffffffffffff1673ffffffffffffffffffffffffffffffffffffffff16141561049057600191506104a3565b808061049b90611564565b915050610408565b508061050d576003829080600181540180825580915050600190039060005260206000200160009091909190916101000a81548173ffffffffffffffffffffffffffffffffffffffff021916908373ffffffffffffffffffffffffffffffffffffffff1602179055505b50505b808061051b90611564565b9150506103a1565b5050565b600560009054906101000a900473ffffffffffffffffffffffffffffffffffffffff1681565b6003818154811061055d57600080fd5b906000526020600020016000915054906101000a900473ffffffffffffffffffffffffffffffffffffffff1681565b6002818154811061059c57600080fd5b90600052602060002090600802016000915090508060000154908060010180546105c590611501565b80601f01602080910402602001604051908101604052809291908181526020018280546105f190611501565b801561063e5780601f106106135761010080835404028352916020019161063e565b820191906000526020600020905b81548152906001019060200180831161062157829003601f168201915b50505050509080600201549080600301549080600601805461065f90611501565b80601f016020809104026020016040519081016040528092919081815260200182805461068b90611501565b80156106d85780601f106106ad576101008083540402835291602001916106d8565b820191906000526020600020905b8154815290600101906020018083116106bb57829003601f168201915b5050505050908060070160009054906101000a900460ff16905086565b6060600380548060200260200160405190810160405280929190818152602001828054801561077957602002820191906000526020600020905b8160009054906101000a900473ffffffffffffffffffffffffffffffffffffffff1673ffffffffffffffffffffffffffffffffffffffff168152602001906001019080831161072f575b5050505050905090565b600160009054906101000a900473ffffffffffffffffffffffffffffffffffffffff1673ffffffffffffffffffffffffffffffffffffffff163373ffffffffffffffffffffffffffffffffffffffff1614610813576040517f08c379a000000000000000000000000000000000000000000000000000000000815260040161080a90611279565b60405180910390fd5b80600073ffffffffffffffffffffffffffffffffffffffff168173ffffffffffffffffffffffffffffffffffffffff161415610884576040517f08c379a000000000000000000000000000000000000000000000000000000000815260040161087b90611259565b60405180910390fd5b600160009054906101000a900473ffffffffffffffffffffffffffffffffffffffff1673ffffffffffffffffffffffffffffffffffffffff168273ffffffffffffffffffffffffffffffffffffffff161415610915576040517f08c379a000000000000000000000000000000000000000000000000000000000815260040161090c906112d9565b60405180910390fd5b6000805b6003805490508110156109b0576003818154811061093a5761093961163a565b5b9060005260206000200160009054906101000a900473ffffffffffffffffffffffffffffffffffffffff1673ffffffffffffffffffffffffffffffffffffffff168473ffffffffffffffffffffffffffffffffffffffff16141561099d57600191505b80806109a890611564565b915050610919565b50806109f1576040517f08c379a00000000000000000000000000000000000000000000000000000000081526004016109e890611299565b60405180910390fd5b8015610aca5782600160006101000a81548173ffffffffffffffffffffffffffffffffffffffff021916908373ffffffffffffffffffffffffffffffffffffffff160217905550600560009054906101000a900473ffffffffffffffffffffffffffffffffffffffff1673ffffffffffffffffffffffffffffffffffffffff1663d5506adf8433306040518463ffffffff1660e01b8152600401610a97939291906111c3565b600060405180830381600087803b158015610ab157600080fd5b505af1158015610ac5573d6000803e3d6000fd5b505050505b505050565b600160009054906101000a900473ffffffffffffffffffffffffffffffffffffffff1673ffffffffffffffffffffffffffffffffffffffff163373ffffffffffffffffffffffffffffffffffffffff1614610b5f576040517f08c379a0000000000000000000000000000000000000000000000000000000008152600401610b5690611279565b60405180910390fd5b80600073ffffffffffffffffffffffffffffffffffffffff168173ffffffffffffffffffffffffffffffffffffffff161415610bd0576040517f08c379a0000000000000000000000000000000000000000000000000000000008152600401610bc790611259565b60405180910390fd5b600160009054906101000a900473ffffffffffffffffffffffffffffffffffffffff1673ffffffffffffffffffffffffffffffffffffffff168273ffffffffffffffffffffffffffffffffffffffff161415610c61576040517f08c379a0000000000000000000000000000000000000000000000000000000008152600401610c58906112f9565b60405180910390fd5b6000806000905060005b600380549050811015610d09578473ffffffffffffffffffffffffffffffffffffffff1660038281548110610ca357610ca261163a565b5b9060005260206000200160009054906101000a900473ffffffffffffffffffffffffffffffffffffffff1673ffffffffffffffffffffffffffffffffffffffff161415610cf65780925060019150610d09565b8080610d0190611564565b915050610c6b565b508015610e455760038281548110610d2457610d2361163a565b5b9060005260206000200160006101000a81549073ffffffffffffffffffffffffffffffffffffffff021916905560036001600380549050610d65919061142e565b81548110610d7657610d7561163a565b5b9060005260206000200160009054906101000a900473ffffffffffffffffffffffffffffffffffffffff1660038381548110610db557610db461163a565b5b9060005260206000200160006101000a81548173ffffffffffffffffffffffffffffffffffffffff021916908373ffffffffffffffffffffffffffffffffffffffff1602179055506003805480610e0f57610e0e61160b565b5b6001900381819060005260206000200160006101000a81549073ffffffffffffffffffffffffffffffffffffffff021916905590555b50505050565b600160009054906101000a900473ffffffffffffffffffffffffffffffffffffffff1681565b6000610e84610e7f846113ad565b611388565b90508083825260208201905082856020860282011115610ea757610ea661169d565b5b60005b85811015610ed75781610ebd8882610ee1565b845260208401935060208301925050600181019050610eaa565b5050509392505050565b600081359050610ef081611871565b92915050565b600082601f830112610f0b57610f0a611698565b5b8135610f1b848260208601610e71565b91505092915050565b600081359050610f3381611888565b92915050565b600060208284031215610f4f57610f4e6116a7565b5b6000610f5d84828501610ee1565b91505092915050565b600060208284031215610f7c57610f7b6116a7565b5b600082013567ffffffffffffffff811115610f9a57610f996116a2565b5b610fa684828501610ef6565b91505092915050565b600060208284031215610fc557610fc46116a7565b5b6000610fd384828501610f24565b91505092915050565b6000610fe88383610ff4565b60208301905092915050565b610ffd81611462565b82525050565b61100c81611462565b82525050565b600061101d826113e9565b611027818561140c565b9350611032836113d9565b8060005b8381101561106357815161104a8882610fdc565b9750611055836113ff565b925050600181019050611036565b5085935050505092915050565b61107981611474565b82525050565b611088816114aa565b82525050565b6000611099826113f4565b6110a3818561141d565b93506110b38185602086016114ce565b6110bc816116ac565b840191505092915050565b60006110d4601e8361141d565b91506110df826116bd565b602082019050919050565b60006110f760228361141d565b9150611102826116e6565b604082019050919050565b600061111a602b8361141d565b915061112582611735565b604082019050919050565b600061113d60268361141d565b915061114882611784565b604082019050919050565b600061116060268361141d565b915061116b826117d3565b604082019050919050565b6000611183602b8361141d565b915061118e82611822565b604082019050919050565b6111a2816114a0565b82525050565b60006020820190506111bd6000830184611003565b92915050565b60006060820190506111d86000830186611003565b6111e56020830185611003565b6111f26040830184611003565b949350505050565b600060208201905081810360008301526112148184611012565b905092915050565b6000602082019050611231600083018461107f565b92915050565b60006020820190508181036000830152611251818461108e565b905092915050565b60006020820190508181036000830152611272816110c7565b9050919050565b60006020820190508181036000830152611292816110ea565b9050919050565b600060208201905081810360008301526112b28161110d565b9050919050565b600060208201905081810360008301526112d281611130565b9050919050565b600060208201905081810360008301526112f281611153565b9050919050565b6000602082019050818103600083015261131281611176565b9050919050565b600060c08201905061132e6000830189611199565b8181036020830152611340818861108e565b905061134f6040830187611199565b61135c6060830186611199565b818103608083015261136e818561108e565b905061137d60a0830184611070565b979650505050505050565b60006113926113a3565b905061139e8282611533565b919050565b6000604051905090565b600067ffffffffffffffff8211156113c8576113c7611669565b5b602082029050602081019050919050565b6000819050602082019050919050565b600081519050919050565b600081519050919050565b6000602082019050919050565b600082825260208201905092915050565b600082825260208201905092915050565b6000611439826114a0565b9150611444836114a0565b925082821015611457576114566115ad565b5b828203905092915050565b600061146d82611480565b9050919050565b60008115159050919050565b600073ffffffffffffffffffffffffffffffffffffffff82169050919050565b6000819050919050565b60006114b5826114bc565b9050919050565b60006114c782611480565b9050919050565b60005b838110156114ec5780820151818401526020810190506114d1565b838111156114fb576000848401525b50505050565b6000600282049050600182168061151957607f821691505b6020821081141561152d5761152c6115dc565b5b50919050565b61153c826116ac565b810181811067ffffffffffffffff8211171561155b5761155a611669565b5b80604052505050565b600061156f826114a0565b91507fffffffffffffffffffffffffffffffffffffffffffffffffffffffffffffffff8214156115a2576115a16115ad565b5b600182019050919050565b7f4e487b7100000000000000000000000000000000000000000000000000000000600052601160045260246000fd5b7f4e487b7100000000000000000000000000000000000000000000000000000000600052602260045260246000fd5b7f4e487b7100000000000000000000000000000000000000000000000000000000600052603160045260246000fd5b7f4e487b7100000000000000000000000000000000000000000000000000000000600052603260045260246000fd5b7f4e487b7100000000000000000000000000000000000000000000000000000000600052604160045260246000fd5b600080fd5b600080fd5b600080fd5b600080fd5b6000601f19601f8301169050919050565b7f412076616c69642061646472657373206d757374206265207061737365640000600082015250565b7f4f6e6c792061646d696e206d617920706572666f726d2074686973206163746960008201527f6f6e000000000000000000000000000000000000000000000000000000000000602082015250565b7f4e65772061646d696e206d75737420626520616e20616c72656164792061707060008201527f726f76656420766f746572000000000000000000000000000000000000000000602082015250565b7f4d757374206e6f74207061737320656d707479206172726179206f662061646460008201527f7265737365730000000000000000000000000000000000000000000000000000602082015250565b7f43616e6e6f74207265706c6163652061646d696e20776974682073616d65206160008201527f6464726573730000000000000000000000000000000000000000000000000000602082015250565b7f41646d696e206d6179206e6f742062652072656d6f7665642066726f6d20617060008201527f70726f766564206c697374000000000000000000000000000000000000000000602082015250565b61187a81611462565b811461188557600080fd5b50565b611891816114a0565b811461189c57600080fd5b5056fea2646970667358221220fe440793b8e2b498176b514b92d61207a14fa87d42b52d8af086da333552bf8164736f6c63430008060033",
  "immutableReferences": {},
  "source": "pragma solidity ^0.8.6;\n\nimport \"./CreatorContract.sol\";\n\ncontract VotingContract {\n\n    // Admin can create multiple polls for their organization to vote on\n    struct Poll {\n        uint id;\n        // issue on which voters are deciding on\n        string issue;\n        // num of voters yet to vote\n        uint votersLeft;\n        // num of casted ballots\n        uint numOfVoters;\n        // options to vote on decided by poll creator\n        string[] options;\n        // stores number of votes per option\n        mapping(string => uint) results;\n        // final result\n        string result;\n        // whether this poll is active or closed\n        bool decided;\n    }\n\n    event Debug(\n        string description\n    );\n\n    string public name;\n    address public admin;\n    Poll[] public polls;\n    // array of approved addresses\n    address[] public approved;\n    // stores whether voter has voted in a particular poll\n    // mapping(voterAddress => mapping(pollId => bool))\n    mapping(address => mapping(uint => bool)) hasVoted;\n    /* Stores CreatorContract to updated the reference to votingContract name\n    as well as admin rights if necessary */\n    CreatorContract public creatorContract;\n    \n\n    constructor(string memory _name, address _admin, address _creator) {\n        /* Added this thinking it'd be useful but it seems that the contract \n        constructor automatically does a string length check */\n        // require(bytes(_name).length > 0, \"Contract name must not be empty\");\n        name = _name;\n        admin = _admin;\n        creatorContract = CreatorContract(_creator);\n        approved.push(admin);\n    }\n\n    receive() external payable {}\n\n    function getApproved() external view returns(address[] memory) {\n        return approved;\n    }\n\n    // Should I add a limit to the approvedList array?\n    function approveVoters(address[] memory approvedList) external onlyAdmin() {\n        require(approvedList.length > 0, \"Must not pass empty array of addresses\");\n        // should do a check to ensure not adding voter who is already approved\n\n        /* adds addresses from approvedList to approved\n        while simultaneously checking for repeats */\n        for(uint i = 0; i < approvedList.length; i++){\n            address current = approvedList[i];\n            // skips address if equal to address(0)\n            if(current == address(0)) {\n                continue;\n            }\n            bool repeat = false;\n            for(uint j = 0; j < approved.length; j++){\n                if(approved[j] == current) {\n                    repeat = true;\n                    break;\n                } \n            }\n            // ensures address is not a repeat before pushing to array\n            if(!repeat) {\n                approved.push(current);\n            }\n        }\n    }\n\n    function removeApprovedVoter(address unapproved) external onlyAdmin() validAddress(unapproved) {                \n        require(unapproved != admin, \"Admin may not be removed from approved list\");\n        \n        uint unapprovedIndex;\n        bool foundIndex = false;\n        \n        for(uint i = 0; i < approved.length; i++){\n            if(approved[i] == unapproved){\n                unapprovedIndex = i;\n                foundIndex = true;\n                // stops forLoop if found index of unapproved\n                break;\n            }\n        }\n\n        if(foundIndex){\n            delete approved[unapprovedIndex];\n            // replaces deleted spot with last element of array\n            /* I questionn whether i need to explicitly delete\n            the unapprovedIndex element or if i can just skip\n            straight to replacing it as i do below */\n            approved[unapprovedIndex] = approved[approved.length - 1];\n            /* then removes last element from array to ensure the approved\n            address doesn't show up twice in array */\n            approved.pop();\n        }\n    }\n\n    /* This updates who is the current admin. there may only be \n    one admin per VotingContract */\n    // Purposely requiring that newAdmin is an approvedAddress for safety\n    function updateAdmin(address newAdmin) external onlyAdmin() validAddress(newAdmin) {\n        require(newAdmin != admin, \"Cannot replace admin with same address\");\n\n        // address oldAdmin = admin;\n        bool newAdminIsApproved = false;\n\n        // checks if newAdmin is already approved\n        for(uint i = 0; i < approved.length; i++){\n            if(newAdmin == approved[i]){\n                newAdminIsApproved = true;\n            }\n        }\n\n        require(newAdminIsApproved, \n            \"New admin must be an already approved voter\");\n\n        // newAdmin is added only if they are already an approved voter\n        // redundant check after the above require statement \n        if(newAdminIsApproved){\n            // should wait until creatorContract.updateContractAdmin() returns success\n            admin = newAdmin;\n            // updates who has admin access to contract on CreatorContract.sol\n            /* Not sure how I feel about passing msg.sender as a parameter vs\n            calling the function AS msg.sender. I'd prefer to do that. If you're \n            reading this it means I need help lol. Would just like to know \n            how to call updateContractAdmin AS msg.sender instead of sending it \n            as a parameter */ \n            creatorContract.updateContractAdmin(newAdmin, msg.sender, address(this));\n        }\n    }\n\n\n\n    modifier onlyAdmin() {\n        require(msg.sender == admin, \n            \"Only admin may perform this action\");\n        _;\n    }\n\n    modifier validAddress(address _address) {\n        require(_address != address(0), \n            \"A valid address must be passed\");\n        _;\n    }\n\n    \n}",
  "sourcePath": "/home/odon/code/bloc/self-directed/vote_per_organization/backend/contracts/VotingContract.sol",
  "compiler": {
    "name": "solc",
    "version": "0.8.6+commit.11564f7e.Emscripten.clang"
  },
  "schemaVersion": "3.4.1",
  "updatedAt": "2021-07-31T16:51:44.619Z",
  "networkType": "ethereum",
  "devdoc": {
    "kind": "dev",
    "methods": {},
    "version": 1
  },
  "userdoc": {
    "kind": "user",
    "methods": {},
    "version": 1
  }
}