{
  "contractName": "AccessToken",
  "abi": [
    {
      "inputs": [],
      "stateMutability": "nonpayable",
      "type": "constructor"
    },
    {
      "anonymous": false,
      "inputs": [
        {
          "indexed": true,
          "internalType": "address",
          "name": "owner",
          "type": "address"
        },
        {
          "indexed": true,
          "internalType": "address",
          "name": "approved",
          "type": "address"
        },
        {
          "indexed": true,
          "internalType": "uint256",
          "name": "tokenId",
          "type": "uint256"
        }
      ],
      "name": "Approval",
      "type": "event"
    },
    {
      "anonymous": false,
      "inputs": [
        {
          "indexed": true,
          "internalType": "address",
          "name": "owner",
          "type": "address"
        },
        {
          "indexed": true,
          "internalType": "address",
          "name": "operator",
          "type": "address"
        },
        {
          "indexed": false,
          "internalType": "bool",
          "name": "approved",
          "type": "bool"
        }
      ],
      "name": "ApprovalForAll",
      "type": "event"
    },
    {
      "anonymous": false,
      "inputs": [
        {
          "indexed": true,
          "internalType": "address",
          "name": "from",
          "type": "address"
        },
        {
          "indexed": true,
          "internalType": "address",
          "name": "to",
          "type": "address"
        },
        {
          "indexed": true,
          "internalType": "uint256",
          "name": "tokenId",
          "type": "uint256"
        }
      ],
      "name": "Transfer",
      "type": "event"
    },
    {
      "inputs": [
        {
          "internalType": "address",
          "name": "to",
          "type": "address"
        },
        {
          "internalType": "uint256",
          "name": "tokenId",
          "type": "uint256"
        }
      ],
      "name": "approve",
      "outputs": [],
      "stateMutability": "nonpayable",
      "type": "function"
    },
    {
      "inputs": [
        {
          "internalType": "address",
          "name": "owner",
          "type": "address"
        }
      ],
      "name": "balanceOf",
      "outputs": [
        {
          "internalType": "uint256",
          "name": "",
          "type": "uint256"
        }
      ],
      "stateMutability": "view",
      "type": "function",
      "constant": true
    },
    {
      "inputs": [
        {
          "internalType": "uint256",
          "name": "tokenId",
          "type": "uint256"
        }
      ],
      "name": "getApproved",
      "outputs": [
        {
          "internalType": "address",
          "name": "",
          "type": "address"
        }
      ],
      "stateMutability": "view",
      "type": "function",
      "constant": true
    },
    {
      "inputs": [
        {
          "internalType": "address",
          "name": "owner",
          "type": "address"
        },
        {
          "internalType": "address",
          "name": "operator",
          "type": "address"
        }
      ],
      "name": "isApprovedForAll",
      "outputs": [
        {
          "internalType": "bool",
          "name": "",
          "type": "bool"
        }
      ],
      "stateMutability": "view",
      "type": "function",
      "constant": true
    },
    {
      "inputs": [],
      "name": "name",
      "outputs": [
        {
          "internalType": "string",
          "name": "",
          "type": "string"
        }
      ],
      "stateMutability": "view",
      "type": "function",
      "constant": true
    },
    {
      "inputs": [
        {
          "internalType": "uint256",
          "name": "tokenId",
          "type": "uint256"
        }
      ],
      "name": "ownerOf",
      "outputs": [
        {
          "internalType": "address",
          "name": "",
          "type": "address"
        }
      ],
      "stateMutability": "view",
      "type": "function",
      "constant": true
    },
    {
      "inputs": [
        {
          "internalType": "address",
          "name": "from",
          "type": "address"
        },
        {
          "internalType": "address",
          "name": "to",
          "type": "address"
        },
        {
          "internalType": "uint256",
          "name": "tokenId",
          "type": "uint256"
        }
      ],
      "name": "safeTransferFrom",
      "outputs": [],
      "stateMutability": "nonpayable",
      "type": "function"
    },
    {
      "inputs": [
        {
          "internalType": "address",
          "name": "from",
          "type": "address"
        },
        {
          "internalType": "address",
          "name": "to",
          "type": "address"
        },
        {
          "internalType": "uint256",
          "name": "tokenId",
          "type": "uint256"
        },
        {
          "internalType": "bytes",
          "name": "_data",
          "type": "bytes"
        }
      ],
      "name": "safeTransferFrom",
      "outputs": [],
      "stateMutability": "nonpayable",
      "type": "function"
    },
    {
      "inputs": [
        {
          "internalType": "address",
          "name": "operator",
          "type": "address"
        },
        {
          "internalType": "bool",
          "name": "approved",
          "type": "bool"
        }
      ],
      "name": "setApprovalForAll",
      "outputs": [],
      "stateMutability": "nonpayable",
      "type": "function"
    },
    {
      "inputs": [
        {
          "internalType": "bytes4",
          "name": "interfaceId",
          "type": "bytes4"
        }
      ],
      "name": "supportsInterface",
      "outputs": [
        {
          "internalType": "bool",
          "name": "",
          "type": "bool"
        }
      ],
      "stateMutability": "view",
      "type": "function",
      "constant": true
    },
    {
      "inputs": [],
      "name": "symbol",
      "outputs": [
        {
          "internalType": "string",
          "name": "",
          "type": "string"
        }
      ],
      "stateMutability": "view",
      "type": "function",
      "constant": true
    },
    {
      "inputs": [
        {
          "internalType": "uint256",
          "name": "index",
          "type": "uint256"
        }
      ],
      "name": "tokenByIndex",
      "outputs": [
        {
          "internalType": "uint256",
          "name": "",
          "type": "uint256"
        }
      ],
      "stateMutability": "view",
      "type": "function",
      "constant": true
    },
    {
      "inputs": [
        {
          "internalType": "address",
          "name": "owner",
          "type": "address"
        },
        {
          "internalType": "uint256",
          "name": "index",
          "type": "uint256"
        }
      ],
      "name": "tokenOfOwnerByIndex",
      "outputs": [
        {
          "internalType": "uint256",
          "name": "",
          "type": "uint256"
        }
      ],
      "stateMutability": "view",
      "type": "function",
      "constant": true
    },
    {
      "inputs": [
        {
          "internalType": "uint256",
          "name": "tokenId",
          "type": "uint256"
        }
      ],
      "name": "tokenURI",
      "outputs": [
        {
          "internalType": "string",
          "name": "",
          "type": "string"
        }
      ],
      "stateMutability": "view",
      "type": "function",
      "constant": true
    },
    {
      "inputs": [],
      "name": "totalSupply",
      "outputs": [
        {
          "internalType": "uint256",
          "name": "",
          "type": "uint256"
        }
      ],
      "stateMutability": "view",
      "type": "function",
      "constant": true
    },
    {
      "inputs": [
        {
          "internalType": "address",
          "name": "from",
          "type": "address"
        },
        {
          "internalType": "address",
          "name": "to",
          "type": "address"
        },
        {
          "internalType": "uint256",
          "name": "tokenId",
          "type": "uint256"
        }
      ],
      "name": "transferFrom",
      "outputs": [],
      "stateMutability": "nonpayable",
      "type": "function"
    },
    {
      "inputs": [
        {
          "internalType": "address",
          "name": "approvedAddr",
          "type": "address"
        },
        {
          "internalType": "string",
          "name": "vc",
          "type": "string"
        }
      ],
      "name": "mintToken",
      "outputs": [
        {
          "internalType": "uint256",
          "name": "",
          "type": "uint256"
        }
      ],
      "stateMutability": "nonpayable",
      "type": "function"
    },
    {
      "inputs": [
        {
          "internalType": "address",
          "name": "from",
          "type": "address"
        },
        {
          "internalType": "address",
          "name": "to",
          "type": "address"
        },
        {
          "internalType": "uint256",
          "name": "tokenId",
          "type": "uint256"
        }
      ],
      "name": "transferToken",
      "outputs": [],
      "stateMutability": "nonpayable",
      "type": "function"
    },
    {
      "inputs": [
        {
          "internalType": "uint256",
          "name": "tokenId",
          "type": "uint256"
        }
      ],
      "name": "burn",
      "outputs": [],
      "stateMutability": "nonpayable",
      "type": "function"
    },
    {
      "inputs": [
        {
          "internalType": "uint256",
          "name": "tokenId",
          "type": "uint256"
        }
      ],
      "name": "checkExists",
      "outputs": [
        {
          "internalType": "bool",
          "name": "",
          "type": "bool"
        }
      ],
      "stateMutability": "view",
      "type": "function",
      "constant": true
    }
  ],
  "bytecode": "0x60806040523480156200001157600080fd5b506040518060400160405280600c81526020017f41636365737320546f6b656e00000000000000000000000000000000000000008152506040518060400160405280600481526020017f4143544b00000000000000000000000000000000000000000000000000000000815250816000908051906020019062000096929190620000b8565b508060019080519060200190620000af929190620000b8565b505050620001cd565b828054620000c69062000168565b90600052602060002090601f016020900481019282620000ea576000855562000136565b82601f106200010557805160ff191683800117855562000136565b8280016001018555821562000136579182015b828111156200013557825182559160200191906001019062000118565b5b50905062000145919062000149565b5090565b5b80821115620001645760008160009055506001016200014a565b5090565b600060028204905060018216806200018157607f821691505b602082108114156200019857620001976200019e565b5b50919050565b7f4e487b7100000000000000000000000000000000000000000000000000000000600052602260045260246000fd5b6135a680620001dd6000396000f3fe608060405234801561001057600080fd5b506004361061012c5760003560e01c806342966c68116100ad578063a22cb46511610071578063a22cb4651461037b578063b88d4fde14610397578063c87b56dd146103b3578063e985e9c5146103e3578063f5537ede146104135761012c565b806342966c68146102b15780634f6ccce7146102cd5780636352211e146102fd57806370a082311461032d57806395d89b411461035d5761012c565b806318160ddd116100f457806318160ddd146101fb57806323b872dd146102195780632f745c59146102355780633d02d0c91461026557806342842e0e146102955761012c565b806301ffc9a71461013157806306fdde0314610161578063081812fc1461017f578063095ea7b3146101af5780630e2e44e8146101cb575b600080fd5b61014b600480360381019061014691906124b1565b61042f565b6040516101589190612909565b60405180910390f35b6101696104a9565b6040516101769190612924565b60405180910390f35b6101996004803603810190610194919061250b565b61053b565b6040516101a691906128a2565b60405180910390f35b6101c960048036038101906101c49190612471565b6105c0565b005b6101e560048036038101906101e0919061250b565b6106d8565b6040516101f29190612909565b60405180910390f35b6102036106ea565b6040516102109190612b86565b60405180910390f35b610233600480360381019061022e91906122ff565b6106f7565b005b61024f600480360381019061024a9190612471565b610757565b60405161025c9190612b86565b60405180910390f35b61027f600480360381019061027a9190612415565b6107fc565b60405161028c9190612b86565b60405180910390f35b6102af60048036038101906102aa91906122ff565b610833565b005b6102cb60048036038101906102c6919061250b565b610853565b005b6102e760048036038101906102e2919061250b565b61085f565b6040516102f49190612b86565b60405180910390f35b6103176004803603810190610312919061250b565b6108d0565b60405161032491906128a2565b60405180910390f35b61034760048036038101906103429190612292565b610982565b6040516103549190612b86565b60405180910390f35b610365610a3a565b6040516103729190612924565b60405180910390f35b610395600480360381019061039091906123d5565b610acc565b005b6103b160048036038101906103ac9190612352565b610c4d565b005b6103cd60048036038101906103c8919061250b565b610caf565b6040516103da9190612924565b60405180910390f35b6103fd60048036038101906103f891906122bf565b610e01565b60405161040a9190612909565b60405180910390f35b61042d600480360381019061042891906122ff565b610e95565b005b60007f780e9d63000000000000000000000000000000000000000000000000000000007bffffffffffffffffffffffffffffffffffffffffffffffffffffffff1916827bffffffffffffffffffffffffffffffffffffffffffffffffffffffff191614806104a257506104a182610ea5565b5b9050919050565b6060600080546104b890612ddc565b80601f01602080910402602001604051908101604052809291908181526020018280546104e490612ddc565b80156105315780601f1061050657610100808354040283529160200191610531565b820191906000526020600020905b81548152906001019060200180831161051457829003601f168201915b5050505050905090565b600061054682610f87565b610585576040517f08c379a000000000000000000000000000000000000000000000000000000000815260040161057c90612ac6565b60405180910390fd5b6004600083815260200190815260200160002060009054906101000a900473ffffffffffffffffffffffffffffffffffffffff169050919050565b60006105cb826108d0565b90508073ffffffffffffffffffffffffffffffffffffffff168373ffffffffffffffffffffffffffffffffffffffff16141561063c576040517f08c379a000000000000000000000000000000000000000000000000000000000815260040161063390612b26565b60405180910390fd5b8073ffffffffffffffffffffffffffffffffffffffff1661065b610ff3565b73ffffffffffffffffffffffffffffffffffffffff16148061068a575061068981610684610ff3565b610e01565b5b6106c9576040517f08c379a00000000000000000000000000000000000000000000000000000000081526004016106c090612a06565b60405180910390fd5b6106d38383610ffb565b505050565b60006106e382610f87565b9050919050565b6000600980549050905090565b610708610702610ff3565b826110b4565b610747576040517f08c379a000000000000000000000000000000000000000000000000000000000815260040161073e90612b46565b60405180910390fd5b610752838383611192565b505050565b600061076283610982565b82106107a3576040517f08c379a000000000000000000000000000000000000000000000000000000000815260040161079a90612946565b60405180910390fd5b600760008473ffffffffffffffffffffffffffffffffffffffff1673ffffffffffffffffffffffffffffffffffffffff168152602001908152602001600020600083815260200190815260200160002054905092915050565b600080610809600b6113ee565b905061081584826113fc565b61081f81846115ca565b610829600b61163e565b8091505092915050565b61084e83838360405180602001604052806000815250610c4d565b505050565b61085c81611654565b50565b60006108696106ea565b82106108aa576040517f08c379a00000000000000000000000000000000000000000000000000000000081526004016108a190612b66565b60405180910390fd5b600982815481106108be576108bd612f75565b5b90600052602060002001549050919050565b6000806002600084815260200190815260200160002060009054906101000a900473ffffffffffffffffffffffffffffffffffffffff169050600073ffffffffffffffffffffffffffffffffffffffff168173ffffffffffffffffffffffffffffffffffffffff161415610979576040517f08c379a000000000000000000000000000000000000000000000000000000000815260040161097090612a46565b60405180910390fd5b80915050919050565b60008073ffffffffffffffffffffffffffffffffffffffff168273ffffffffffffffffffffffffffffffffffffffff1614156109f3576040517f08c379a00000000000000000000000000000000000000000000000000000000081526004016109ea90612a26565b60405180910390fd5b600360008373ffffffffffffffffffffffffffffffffffffffff1673ffffffffffffffffffffffffffffffffffffffff168152602001908152602001600020549050919050565b606060018054610a4990612ddc565b80601f0160208091040260200160405190810160405280929190818152602001828054610a7590612ddc565b8015610ac25780601f10610a9757610100808354040283529160200191610ac2565b820191906000526020600020905b815481529060010190602001808311610aa557829003601f168201915b5050505050905090565b610ad4610ff3565b73ffffffffffffffffffffffffffffffffffffffff168273ffffffffffffffffffffffffffffffffffffffff161415610b42576040517f08c379a0000000000000000000000000000000000000000000000000000000008152600401610b39906129c6565b60405180910390fd5b8060056000610b4f610ff3565b73ffffffffffffffffffffffffffffffffffffffff1673ffffffffffffffffffffffffffffffffffffffff16815260200190815260200160002060008473ffffffffffffffffffffffffffffffffffffffff1673ffffffffffffffffffffffffffffffffffffffff16815260200190815260200160002060006101000a81548160ff0219169083151502179055508173ffffffffffffffffffffffffffffffffffffffff16610bfc610ff3565b73ffffffffffffffffffffffffffffffffffffffff167f17307eab39ab6107e8899845ad3d59bd9653f200f220920489ca2b5937696c3183604051610c419190612909565b60405180910390a35050565b610c5e610c58610ff3565b836110b4565b610c9d576040517f08c379a0000000000000000000000000000000000000000000000000000000008152600401610c9490612b46565b60405180910390fd5b610ca9848484846116a7565b50505050565b6060610cba82610f87565b610cf9576040517f08c379a0000000000000000000000000000000000000000000000000000000008152600401610cf090612aa6565b60405180910390fd5b6000600660008481526020019081526020016000208054610d1990612ddc565b80601f0160208091040260200160405190810160405280929190818152602001828054610d4590612ddc565b8015610d925780601f10610d6757610100808354040283529160200191610d92565b820191906000526020600020905b815481529060010190602001808311610d7557829003601f168201915b505050505090506000610da3611703565b9050600081511415610db9578192505050610dfc565b600082511115610dee578082604051602001610dd692919061287e565b60405160208183030381529060405292505050610dfc565b610df78461171a565b925050505b919050565b6000600560008473ffffffffffffffffffffffffffffffffffffffff1673ffffffffffffffffffffffffffffffffffffffff16815260200190815260200160002060008373ffffffffffffffffffffffffffffffffffffffff1673ffffffffffffffffffffffffffffffffffffffff16815260200190815260200160002060009054906101000a900460ff16905092915050565b610ea0838383611192565b505050565b60007f80ac58cd000000000000000000000000000000000000000000000000000000007bffffffffffffffffffffffffffffffffffffffffffffffffffffffff1916827bffffffffffffffffffffffffffffffffffffffffffffffffffffffff19161480610f7057507f5b5e139f000000000000000000000000000000000000000000000000000000007bffffffffffffffffffffffffffffffffffffffffffffffffffffffff1916827bffffffffffffffffffffffffffffffffffffffffffffffffffffffff1916145b80610f805750610f7f826117c1565b5b9050919050565b60008073ffffffffffffffffffffffffffffffffffffffff166002600084815260200190815260200160002060009054906101000a900473ffffffffffffffffffffffffffffffffffffffff1673ffffffffffffffffffffffffffffffffffffffff1614159050919050565b600033905090565b816004600083815260200190815260200160002060006101000a81548173ffffffffffffffffffffffffffffffffffffffff021916908373ffffffffffffffffffffffffffffffffffffffff160217905550808273ffffffffffffffffffffffffffffffffffffffff1661106e836108d0565b73ffffffffffffffffffffffffffffffffffffffff167f8c5be1e5ebec7d5bd14f71427d1e84f3dd0314c0f7b2291e5b200ac8c7c3b92560405160405180910390a45050565b60006110bf82610f87565b6110fe576040517f08c379a00000000000000000000000000000000000000000000000000000000081526004016110f5906129e6565b60405180910390fd5b6000611109836108d0565b90508073ffffffffffffffffffffffffffffffffffffffff168473ffffffffffffffffffffffffffffffffffffffff16148061117857508373ffffffffffffffffffffffffffffffffffffffff166111608461053b565b73ffffffffffffffffffffffffffffffffffffffff16145b8061118957506111888185610e01565b5b91505092915050565b8273ffffffffffffffffffffffffffffffffffffffff166111b2826108d0565b73ffffffffffffffffffffffffffffffffffffffff1614611208576040517f08c379a00000000000000000000000000000000000000000000000000000000081526004016111ff90612ae6565b60405180910390fd5b600073ffffffffffffffffffffffffffffffffffffffff168273ffffffffffffffffffffffffffffffffffffffff161415611278576040517f08c379a000000000000000000000000000000000000000000000000000000000815260040161126f906129a6565b60405180910390fd5b61128383838361182b565b61128e600082610ffb565b6001600360008573ffffffffffffffffffffffffffffffffffffffff1673ffffffffffffffffffffffffffffffffffffffff16815260200190815260200160002060008282546112de9190612cf2565b925050819055506001600360008473ffffffffffffffffffffffffffffffffffffffff1673ffffffffffffffffffffffffffffffffffffffff16815260200190815260200160002060008282546113359190612c6b565b92505081905550816002600083815260200190815260200160002060006101000a81548173ffffffffffffffffffffffffffffffffffffffff021916908373ffffffffffffffffffffffffffffffffffffffff160217905550808273ffffffffffffffffffffffffffffffffffffffff168473ffffffffffffffffffffffffffffffffffffffff167fddf252ad1be2c89b69c2b068fc378daa952ba7f163c4a11628f55a4df523b3ef60405160405180910390a4505050565b600081600001549050919050565b600073ffffffffffffffffffffffffffffffffffffffff168273ffffffffffffffffffffffffffffffffffffffff16141561146c576040517f08c379a000000000000000000000000000000000000000000000000000000000815260040161146390612a86565b60405180910390fd5b61147581610f87565b156114b5576040517f08c379a00000000000000000000000000000000000000000000000000000000081526004016114ac90612986565b60405180910390fd5b6114c16000838361182b565b6001600360008473ffffffffffffffffffffffffffffffffffffffff1673ffffffffffffffffffffffffffffffffffffffff16815260200190815260200160002060008282546115119190612c6b565b92505081905550816002600083815260200190815260200160002060006101000a81548173ffffffffffffffffffffffffffffffffffffffff021916908373ffffffffffffffffffffffffffffffffffffffff160217905550808273ffffffffffffffffffffffffffffffffffffffff16600073ffffffffffffffffffffffffffffffffffffffff167fddf252ad1be2c89b69c2b068fc378daa952ba7f163c4a11628f55a4df523b3ef60405160405180910390a45050565b6115d382610f87565b611612576040517f08c379a000000000000000000000000000000000000000000000000000000000815260040161160990612a66565b60405180910390fd5b80600660008481526020019081526020016000209080519060200190611639929190612066565b505050565b6001816000016000828254019250508190555050565b61165d8161193f565b600060066000838152602001908152602001600020805461167d90612ddc565b9050146116a4576006600082815260200190815260200160002060006116a391906120ec565b5b50565b6116b2848484611192565b6116be84848484611a50565b6116fd576040517f08c379a00000000000000000000000000000000000000000000000000000000081526004016116f490612966565b60405180910390fd5b50505050565b606060405180602001604052806000815250905090565b606061172582610f87565b611764576040517f08c379a000000000000000000000000000000000000000000000000000000000815260040161175b90612b06565b60405180910390fd5b600061176e611703565b9050600081511161178e57604051806020016040528060008152506117b9565b8061179884611be7565b6040516020016117a992919061287e565b6040516020818303038152906040525b915050919050565b60007f01ffc9a7000000000000000000000000000000000000000000000000000000007bffffffffffffffffffffffffffffffffffffffffffffffffffffffff1916827bffffffffffffffffffffffffffffffffffffffffffffffffffffffff1916149050919050565b611836838383611d48565b600073ffffffffffffffffffffffffffffffffffffffff168373ffffffffffffffffffffffffffffffffffffffff1614156118795761187481611d4d565b6118b8565b8173ffffffffffffffffffffffffffffffffffffffff168373ffffffffffffffffffffffffffffffffffffffff16146118b7576118b68382611d96565b5b5b600073ffffffffffffffffffffffffffffffffffffffff168273ffffffffffffffffffffffffffffffffffffffff1614156118fb576118f681611f03565b61193a565b8273ffffffffffffffffffffffffffffffffffffffff168273ffffffffffffffffffffffffffffffffffffffff1614611939576119388282611fd4565b5b5b505050565b600061194a826108d0565b90506119588160008461182b565b611963600083610ffb565b6001600360008373ffffffffffffffffffffffffffffffffffffffff1673ffffffffffffffffffffffffffffffffffffffff16815260200190815260200160002060008282546119b39190612cf2565b925050819055506002600083815260200190815260200160002060006101000a81549073ffffffffffffffffffffffffffffffffffffffff021916905581600073ffffffffffffffffffffffffffffffffffffffff168273ffffffffffffffffffffffffffffffffffffffff167fddf252ad1be2c89b69c2b068fc378daa952ba7f163c4a11628f55a4df523b3ef60405160405180910390a45050565b6000611a718473ffffffffffffffffffffffffffffffffffffffff16612053565b15611bda578373ffffffffffffffffffffffffffffffffffffffff1663150b7a02611a9a610ff3565b8786866040518563ffffffff1660e01b8152600401611abc94939291906128bd565b602060405180830381600087803b158015611ad657600080fd5b505af1925050508015611b0757506040513d601f19601f82011682018060405250810190611b0491906124de565b60015b611b8a573d8060008114611b37576040519150601f19603f3d011682016040523d82523d6000602084013e611b3c565b606091505b50600081511415611b82576040517f08c379a0000000000000000000000000000000000000000000000000000000008152600401611b7990612966565b60405180910390fd5b805181602001fd5b63150b7a0260e01b7bffffffffffffffffffffffffffffffffffffffffffffffffffffffff1916817bffffffffffffffffffffffffffffffffffffffffffffffffffffffff191614915050611bdf565b600190505b949350505050565b60606000821415611c2f576040518060400160405280600181526020017f30000000000000000000000000000000000000000000000000000000000000008152509050611d43565b600082905060005b60008214611c61578080611c4a90612e3f565b915050600a82611c5a9190612cc1565b9150611c37565b60008167ffffffffffffffff811115611c7d57611c7c612fa4565b5b6040519080825280601f01601f191660200182016040528015611caf5781602001600182028036833780820191505090505b5090505b60008514611d3c57600182611cc89190612cf2565b9150600a85611cd79190612e88565b6030611ce39190612c6b565b60f81b818381518110611cf957611cf8612f75565b5b60200101907effffffffffffffffffffffffffffffffffffffffffffffffffffffffffffff1916908160001a905350600a85611d359190612cc1565b9450611cb3565b8093505050505b919050565b505050565b600980549050600a600083815260200190815260200160002081905550600981908060018154018082558091505060019003906000526020600020016000909190919091505550565b60006001611da384610982565b611dad9190612cf2565b9050600060086000848152602001908152602001600020549050818114611e92576000600760008673ffffffffffffffffffffffffffffffffffffffff1673ffffffffffffffffffffffffffffffffffffffff168152602001908152602001600020600084815260200190815260200160002054905080600760008773ffffffffffffffffffffffffffffffffffffffff1673ffffffffffffffffffffffffffffffffffffffff168152602001908152602001600020600084815260200190815260200160002081905550816008600083815260200190815260200160002081905550505b6008600084815260200190815260200160002060009055600760008573ffffffffffffffffffffffffffffffffffffffff1673ffffffffffffffffffffffffffffffffffffffff16815260200190815260200160002060008381526020019081526020016000206000905550505050565b60006001600980549050611f179190612cf2565b90506000600a6000848152602001908152602001600020549050600060098381548110611f4757611f46612f75565b5b906000526020600020015490508060098381548110611f6957611f68612f75565b5b906000526020600020018190555081600a600083815260200190815260200160002081905550600a6000858152602001908152602001600020600090556009805480611fb857611fb7612f46565b5b6001900381819060005260206000200160009055905550505050565b6000611fdf83610982565b905081600760008573ffffffffffffffffffffffffffffffffffffffff1673ffffffffffffffffffffffffffffffffffffffff168152602001908152602001600020600083815260200190815260200160002081905550806008600084815260200190815260200160002081905550505050565b600080823b905060008111915050919050565b82805461207290612ddc565b90600052602060002090601f01602090048101928261209457600085556120db565b82601f106120ad57805160ff19168380011785556120db565b828001600101855582156120db579182015b828111156120da5782518255916020019190600101906120bf565b5b5090506120e8919061212c565b5090565b5080546120f890612ddc565b6000825580601f1061210a5750612129565b601f016020900490600052602060002090810190612128919061212c565b5b50565b5b8082111561214557600081600090555060010161212d565b5090565b600061215c61215784612bc6565b612ba1565b90508281526020810184848401111561217857612177612fd8565b5b612183848285612d9a565b509392505050565b600061219e61219984612bf7565b612ba1565b9050828152602081018484840111156121ba576121b9612fd8565b5b6121c5848285612d9a565b509392505050565b6000813590506121dc81613514565b92915050565b6000813590506121f18161352b565b92915050565b60008135905061220681613542565b92915050565b60008151905061221b81613542565b92915050565b600082601f83011261223657612235612fd3565b5b8135612246848260208601612149565b91505092915050565b600082601f83011261226457612263612fd3565b5b813561227484826020860161218b565b91505092915050565b60008135905061228c81613559565b92915050565b6000602082840312156122a8576122a7612fe2565b5b60006122b6848285016121cd565b91505092915050565b600080604083850312156122d6576122d5612fe2565b5b60006122e4858286016121cd565b92505060206122f5858286016121cd565b9150509250929050565b60008060006060848603121561231857612317612fe2565b5b6000612326868287016121cd565b9350506020612337868287016121cd565b92505060406123488682870161227d565b9150509250925092565b6000806000806080858703121561236c5761236b612fe2565b5b600061237a878288016121cd565b945050602061238b878288016121cd565b935050604061239c8782880161227d565b925050606085013567ffffffffffffffff8111156123bd576123bc612fdd565b5b6123c987828801612221565b91505092959194509250565b600080604083850312156123ec576123eb612fe2565b5b60006123fa858286016121cd565b925050602061240b858286016121e2565b9150509250929050565b6000806040838503121561242c5761242b612fe2565b5b600061243a858286016121cd565b925050602083013567ffffffffffffffff81111561245b5761245a612fdd565b5b6124678582860161224f565b9150509250929050565b6000806040838503121561248857612487612fe2565b5b6000612496858286016121cd565b92505060206124a78582860161227d565b9150509250929050565b6000602082840312156124c7576124c6612fe2565b5b60006124d5848285016121f7565b91505092915050565b6000602082840312156124f4576124f3612fe2565b5b60006125028482850161220c565b91505092915050565b60006020828403121561252157612520612fe2565b5b600061252f8482850161227d565b91505092915050565b61254181612d26565b82525050565b61255081612d38565b82525050565b600061256182612c28565b61256b8185612c3e565b935061257b818560208601612da9565b61258481612fe7565b840191505092915050565b600061259a82612c33565b6125a48185612c4f565b93506125b4818560208601612da9565b6125bd81612fe7565b840191505092915050565b60006125d382612c33565b6125dd8185612c60565b93506125ed818560208601612da9565b80840191505092915050565b6000612606602b83612c4f565b915061261182612ff8565b604082019050919050565b6000612629603283612c4f565b915061263482613047565b604082019050919050565b600061264c601c83612c4f565b915061265782613096565b602082019050919050565b600061266f602483612c4f565b915061267a826130bf565b604082019050919050565b6000612692601983612c4f565b915061269d8261310e565b602082019050919050565b60006126b5602c83612c4f565b91506126c082613137565b604082019050919050565b60006126d8603883612c4f565b91506126e382613186565b604082019050919050565b60006126fb602a83612c4f565b9150612706826131d5565b604082019050919050565b600061271e602983612c4f565b915061272982613224565b604082019050919050565b6000612741602e83612c4f565b915061274c82613273565b604082019050919050565b6000612764602083612c4f565b915061276f826132c2565b602082019050919050565b6000612787603183612c4f565b9150612792826132eb565b604082019050919050565b60006127aa602c83612c4f565b91506127b58261333a565b604082019050919050565b60006127cd602983612c4f565b91506127d882613389565b604082019050919050565b60006127f0602f83612c4f565b91506127fb826133d8565b604082019050919050565b6000612813602183612c4f565b915061281e82613427565b604082019050919050565b6000612836603183612c4f565b915061284182613476565b604082019050919050565b6000612859602c83612c4f565b9150612864826134c5565b604082019050919050565b61287881612d90565b82525050565b600061288a82856125c8565b915061289682846125c8565b91508190509392505050565b60006020820190506128b76000830184612538565b92915050565b60006080820190506128d26000830187612538565b6128df6020830186612538565b6128ec604083018561286f565b81810360608301526128fe8184612556565b905095945050505050565b600060208201905061291e6000830184612547565b92915050565b6000602082019050818103600083015261293e818461258f565b905092915050565b6000602082019050818103600083015261295f816125f9565b9050919050565b6000602082019050818103600083015261297f8161261c565b9050919050565b6000602082019050818103600083015261299f8161263f565b9050919050565b600060208201905081810360008301526129bf81612662565b9050919050565b600060208201905081810360008301526129df81612685565b9050919050565b600060208201905081810360008301526129ff816126a8565b9050919050565b60006020820190508181036000830152612a1f816126cb565b9050919050565b60006020820190508181036000830152612a3f816126ee565b9050919050565b60006020820190508181036000830152612a5f81612711565b9050919050565b60006020820190508181036000830152612a7f81612734565b9050919050565b60006020820190508181036000830152612a9f81612757565b9050919050565b60006020820190508181036000830152612abf8161277a565b9050919050565b60006020820190508181036000830152612adf8161279d565b9050919050565b60006020820190508181036000830152612aff816127c0565b9050919050565b60006020820190508181036000830152612b1f816127e3565b9050919050565b60006020820190508181036000830152612b3f81612806565b9050919050565b60006020820190508181036000830152612b5f81612829565b9050919050565b60006020820190508181036000830152612b7f8161284c565b9050919050565b6000602082019050612b9b600083018461286f565b92915050565b6000612bab612bbc565b9050612bb78282612e0e565b919050565b6000604051905090565b600067ffffffffffffffff821115612be157612be0612fa4565b5b612bea82612fe7565b9050602081019050919050565b600067ffffffffffffffff821115612c1257612c11612fa4565b5b612c1b82612fe7565b9050602081019050919050565b600081519050919050565b600081519050919050565b600082825260208201905092915050565b600082825260208201905092915050565b600081905092915050565b6000612c7682612d90565b9150612c8183612d90565b9250827fffffffffffffffffffffffffffffffffffffffffffffffffffffffffffffffff03821115612cb657612cb5612eb9565b5b828201905092915050565b6000612ccc82612d90565b9150612cd783612d90565b925082612ce757612ce6612ee8565b5b828204905092915050565b6000612cfd82612d90565b9150612d0883612d90565b925082821015612d1b57612d1a612eb9565b5b828203905092915050565b6000612d3182612d70565b9050919050565b60008115159050919050565b60007fffffffff0000000000000000000000000000000000000000000000000000000082169050919050565b600073ffffffffffffffffffffffffffffffffffffffff82169050919050565b6000819050919050565b82818337600083830152505050565b60005b83811015612dc7578082015181840152602081019050612dac565b83811115612dd6576000848401525b50505050565b60006002820490506001821680612df457607f821691505b60208210811415612e0857612e07612f17565b5b50919050565b612e1782612fe7565b810181811067ffffffffffffffff82111715612e3657612e35612fa4565b5b80604052505050565b6000612e4a82612d90565b91507fffffffffffffffffffffffffffffffffffffffffffffffffffffffffffffffff821415612e7d57612e7c612eb9565b5b600182019050919050565b6000612e9382612d90565b9150612e9e83612d90565b925082612eae57612ead612ee8565b5b828206905092915050565b7f4e487b7100000000000000000000000000000000000000000000000000000000600052601160045260246000fd5b7f4e487b7100000000000000000000000000000000000000000000000000000000600052601260045260246000fd5b7f4e487b7100000000000000000000000000000000000000000000000000000000600052602260045260246000fd5b7f4e487b7100000000000000000000000000000000000000000000000000000000600052603160045260246000fd5b7f4e487b7100000000000000000000000000000000000000000000000000000000600052603260045260246000fd5b7f4e487b7100000000000000000000000000000000000000000000000000000000600052604160045260246000fd5b600080fd5b600080fd5b600080fd5b600080fd5b6000601f19601f8301169050919050565b7f455243373231456e756d657261626c653a206f776e657220696e646578206f7560008201527f74206f6620626f756e6473000000000000000000000000000000000000000000602082015250565b7f4552433732313a207472616e7366657220746f206e6f6e20455243373231526560008201527f63656976657220696d706c656d656e7465720000000000000000000000000000602082015250565b7f4552433732313a20746f6b656e20616c7265616479206d696e74656400000000600082015250565b7f4552433732313a207472616e7366657220746f20746865207a65726f2061646460008201527f7265737300000000000000000000000000000000000000000000000000000000602082015250565b7f4552433732313a20617070726f766520746f2063616c6c657200000000000000600082015250565b7f4552433732313a206f70657261746f7220717565727920666f72206e6f6e657860008201527f697374656e7420746f6b656e0000000000000000000000000000000000000000602082015250565b7f4552433732313a20617070726f76652063616c6c6572206973206e6f74206f7760008201527f6e6572206e6f7220617070726f76656420666f7220616c6c0000000000000000602082015250565b7f4552433732313a2062616c616e636520717565727920666f7220746865207a6560008201527f726f206164647265737300000000000000000000000000000000000000000000602082015250565b7f4552433732313a206f776e657220717565727920666f72206e6f6e657869737460008201527f656e7420746f6b656e0000000000000000000000000000000000000000000000602082015250565b7f45524337323155524953746f726167653a2055524920736574206f66206e6f6e60008201527f6578697374656e7420746f6b656e000000000000000000000000000000000000602082015250565b7f4552433732313a206d696e7420746f20746865207a65726f2061646472657373600082015250565b7f45524337323155524953746f726167653a2055524920717565727920666f722060008201527f6e6f6e6578697374656e7420746f6b656e000000000000000000000000000000602082015250565b7f4552433732313a20617070726f76656420717565727920666f72206e6f6e657860008201527f697374656e7420746f6b656e0000000000000000000000000000000000000000602082015250565b7f4552433732313a207472616e73666572206f6620746f6b656e2074686174206960008201527f73206e6f74206f776e0000000000000000000000000000000000000000000000602082015250565b7f4552433732314d657461646174613a2055524920717565727920666f72206e6f60008201527f6e6578697374656e7420746f6b656e0000000000000000000000000000000000602082015250565b7f4552433732313a20617070726f76616c20746f2063757272656e74206f776e6560008201527f7200000000000000000000000000000000000000000000000000000000000000602082015250565b7f4552433732313a207472616e736665722063616c6c6572206973206e6f74206f60008201527f776e6572206e6f7220617070726f766564000000000000000000000000000000602082015250565b7f455243373231456e756d657261626c653a20676c6f62616c20696e646578206f60008201527f7574206f6620626f756e64730000000000000000000000000000000000000000602082015250565b61351d81612d26565b811461352857600080fd5b50565b61353481612d38565b811461353f57600080fd5b50565b61354b81612d44565b811461355657600080fd5b50565b61356281612d90565b811461356d57600080fd5b5056fea26469706673582212204d2358020c1287342dd7cf90bf24f875aa7511c212132c6b3edec1f7e688fe7664736f6c63430008060033",
  "immutableReferences": {},
  "source": "// SPDX-License-Identifier: MIT\npragma solidity ^0.8.6;\n\nimport \"@openzeppelin/contracts/token/ERC721/ERC721.sol\";\nimport \"@openzeppelin/contracts/token/ERC721/extensions/ERC721URIStorage.sol\";\nimport '@openzeppelin/contracts/utils/Counters.sol';\n\ncontract AccessToken is ERC721URIStorage {\n  using Counters for Counters.Counter;\n  Counters.Counter private _tokenIds;\n  \n  constructor() \n    ERC721(\"Access Token\", \"ACTK\") {}\n\n  function mintToken(address approvedAddr, string memory vc) external returns (uint) {\n    uint newTokenId = _tokenIds.current();\n    _mint(approvedAddr, newTokenId);\n    _setTokenURI(newTokenId, vc);\n    _tokenIds.increment();  \n    return(newTokenId);\n  }\n\n  function transferToken(address from, address to, uint tokenId) external {\n    _transfer(from, to, tokenId);\n  }\n\n  function burn(uint tokenId) external {\n    _burn(tokenId);\n  }\n\n  function checkExists(uint tokenId) external view returns (bool) {\n    return _exists(tokenId);\n  }\n\n}\n",
  "sourcePath": "/home/odon/code/bloc/self-directed/vote_per_organization/contracts/contracts/AccessToken.sol",
  "compiler": {
    "name": "solc",
    "version": "0.8.6+commit.11564f7e.Emscripten.clang"
  },
  "schemaVersion": "3.4.1",
  "updatedAt": "2021-08-21T00:09:57.357Z",
  "networkType": "ethereum",
  "devdoc": {
    "kind": "dev",
    "methods": {
      "approve(address,uint256)": {
        "details": "See {IERC721-approve}."
      },
      "balanceOf(address)": {
        "details": "See {IERC721-balanceOf}."
      },
      "getApproved(uint256)": {
        "details": "See {IERC721-getApproved}."
      },
      "isApprovedForAll(address,address)": {
        "details": "See {IERC721-isApprovedForAll}."
      },
      "name()": {
        "details": "See {IERC721Metadata-name}."
      },
      "ownerOf(uint256)": {
        "details": "See {IERC721-ownerOf}."
      },
      "safeTransferFrom(address,address,uint256)": {
        "details": "See {IERC721-safeTransferFrom}."
      },
      "safeTransferFrom(address,address,uint256,bytes)": {
        "details": "See {IERC721-safeTransferFrom}."
      },
      "setApprovalForAll(address,bool)": {
        "details": "See {IERC721-setApprovalForAll}."
      },
      "supportsInterface(bytes4)": {
        "details": "See {IERC165-supportsInterface}."
      },
      "symbol()": {
        "details": "See {IERC721Metadata-symbol}."
      },
      "tokenByIndex(uint256)": {
        "details": "See {IERC721Enumerable-tokenByIndex}."
      },
      "tokenOfOwnerByIndex(address,uint256)": {
        "details": "See {IERC721Enumerable-tokenOfOwnerByIndex}."
      },
      "tokenURI(uint256)": {
        "details": "See {IERC721Metadata-tokenURI}."
      },
      "totalSupply()": {
        "details": "See {IERC721Enumerable-totalSupply}."
      },
      "transferFrom(address,address,uint256)": {
        "details": "See {IERC721-transferFrom}."
      }
    },
    "version": 1
  },
  "userdoc": {
    "kind": "user",
    "methods": {},
    "version": 1
  }
}