{
  "contractName": "VotingContract",
  "abi": [
    {
      "inputs": [
        {
          "internalType": "string",
          "name": "_name",
          "type": "string"
        },
        {
          "internalType": "address",
          "name": "tokenAddr",
          "type": "address"
        }
      ],
      "stateMutability": "nonpayable",
      "type": "constructor"
    },
    {
      "anonymous": false,
      "inputs": [
        {
          "indexed": false,
          "internalType": "string",
          "name": "description",
          "type": "string"
        }
      ],
      "name": "Debug",
      "type": "event"
    },
    {
      "anonymous": false,
      "inputs": [
        {
          "indexed": false,
          "internalType": "uint256",
          "name": "id",
          "type": "uint256"
        },
        {
          "indexed": false,
          "internalType": "string",
          "name": "issue",
          "type": "string"
        }
      ],
      "name": "PollCreated",
      "type": "event"
    },
    {
      "anonymous": false,
      "inputs": [
        {
          "indexed": false,
          "internalType": "uint256",
          "name": "tokenId",
          "type": "uint256"
        },
        {
          "indexed": false,
          "internalType": "address",
          "name": "owner",
          "type": "address"
        },
        {
          "indexed": false,
          "internalType": "string",
          "name": "contractAddr",
          "type": "string"
        }
      ],
      "name": "TokenCreated",
      "type": "event"
    },
    {
      "anonymous": false,
      "inputs": [
        {
          "indexed": false,
          "internalType": "uint256",
          "name": "pollId",
          "type": "uint256"
        },
        {
          "indexed": false,
          "internalType": "uint256",
          "name": "optionId",
          "type": "uint256"
        },
        {
          "indexed": false,
          "internalType": "address",
          "name": "voter",
          "type": "address"
        },
        {
          "indexed": false,
          "internalType": "bool",
          "name": "decided",
          "type": "bool"
        }
      ],
      "name": "VoteCasted",
      "type": "event"
    },
    {
      "inputs": [],
      "name": "name",
      "outputs": [
        {
          "internalType": "string",
          "name": "",
          "type": "string"
        }
      ],
      "stateMutability": "view",
      "type": "function",
      "constant": true
    },
    {
      "inputs": [
        {
          "internalType": "uint256",
          "name": "",
          "type": "uint256"
        }
      ],
      "name": "tokenIds",
      "outputs": [
        {
          "internalType": "uint256",
          "name": "",
          "type": "uint256"
        }
      ],
      "stateMutability": "view",
      "type": "function",
      "constant": true
    },
    {
      "inputs": [
        {
          "internalType": "uint256",
          "name": "pollId",
          "type": "uint256"
        }
      ],
      "name": "getPoll",
      "outputs": [
        {
          "components": [
            {
              "internalType": "uint256",
              "name": "id",
              "type": "uint256"
            },
            {
              "internalType": "string",
              "name": "issue",
              "type": "string"
            },
            {
              "internalType": "uint256[]",
              "name": "voters",
              "type": "uint256[]"
            },
            {
              "internalType": "string[]",
              "name": "options",
              "type": "string[]"
            },
            {
              "internalType": "uint256[]",
              "name": "results",
              "type": "uint256[]"
            },
            {
              "internalType": "int256",
              "name": "result",
              "type": "int256"
            }
          ],
          "internalType": "struct VotingContract.Poll",
          "name": "",
          "type": "tuple"
        }
      ],
      "stateMutability": "view",
      "type": "function",
      "constant": true
    },
    {
      "inputs": [],
      "name": "getPolls",
      "outputs": [
        {
          "components": [
            {
              "internalType": "uint256",
              "name": "id",
              "type": "uint256"
            },
            {
              "internalType": "string",
              "name": "issue",
              "type": "string"
            },
            {
              "internalType": "uint256[]",
              "name": "voters",
              "type": "uint256[]"
            },
            {
              "internalType": "string[]",
              "name": "options",
              "type": "string[]"
            },
            {
              "internalType": "uint256[]",
              "name": "results",
              "type": "uint256[]"
            },
            {
              "internalType": "int256",
              "name": "result",
              "type": "int256"
            }
          ],
          "internalType": "struct VotingContract.Poll[]",
          "name": "",
          "type": "tuple[]"
        }
      ],
      "stateMutability": "view",
      "type": "function",
      "constant": true
    },
    {
      "inputs": [
        {
          "internalType": "uint256",
          "name": "tokenId",
          "type": "uint256"
        }
      ],
      "name": "getTokenRef",
      "outputs": [
        {
          "components": [
            {
              "internalType": "uint256",
              "name": "tokenId",
              "type": "uint256"
            },
            {
              "internalType": "address",
              "name": "owner",
              "type": "address"
            },
            {
              "internalType": "bool",
              "name": "isAdmin",
              "type": "bool"
            }
          ],
          "internalType": "struct VotingContract.TokenRef",
          "name": "",
          "type": "tuple"
        }
      ],
      "stateMutability": "view",
      "type": "function",
      "constant": true
    },
    {
      "inputs": [],
      "name": "getTokenIds",
      "outputs": [
        {
          "internalType": "uint256[]",
          "name": "",
          "type": "uint256[]"
        }
      ],
      "stateMutability": "view",
      "type": "function",
      "constant": true
    },
    {
      "inputs": [
        {
          "internalType": "string",
          "name": "newName",
          "type": "string"
        }
      ],
      "name": "changeName",
      "outputs": [],
      "stateMutability": "nonpayable",
      "type": "function"
    },
    {
      "inputs": [
        {
          "internalType": "string",
          "name": "contractAddr",
          "type": "string"
        }
      ],
      "name": "generateAdmin",
      "outputs": [],
      "stateMutability": "nonpayable",
      "type": "function"
    },
    {
      "inputs": [
        {
          "internalType": "address",
          "name": "approved",
          "type": "address"
        },
        {
          "internalType": "string",
          "name": "contractAddr",
          "type": "string"
        }
      ],
      "name": "generateAccessToken",
      "outputs": [],
      "stateMutability": "nonpayable",
      "type": "function"
    },
    {
      "inputs": [
        {
          "internalType": "address",
          "name": "unapproved",
          "type": "address"
        }
      ],
      "name": "removeApprovedVoter",
      "outputs": [],
      "stateMutability": "nonpayable",
      "type": "function"
    },
    {
      "inputs": [
        {
          "internalType": "address",
          "name": "newAdmin",
          "type": "address"
        }
      ],
      "name": "updateAdmin",
      "outputs": [],
      "stateMutability": "nonpayable",
      "type": "function"
    },
    {
      "inputs": [
        {
          "internalType": "string",
          "name": "issue",
          "type": "string"
        },
        {
          "internalType": "string[]",
          "name": "_options",
          "type": "string[]"
        }
      ],
      "name": "createPoll",
      "outputs": [],
      "stateMutability": "nonpayable",
      "type": "function"
    },
    {
      "inputs": [
        {
          "internalType": "uint256",
          "name": "pollId",
          "type": "uint256"
        }
      ],
      "name": "deletePoll",
      "outputs": [],
      "stateMutability": "nonpayable",
      "type": "function"
    },
    {
      "inputs": [
        {
          "internalType": "uint256",
          "name": "pollId",
          "type": "uint256"
        },
        {
          "internalType": "uint256",
          "name": "optionId",
          "type": "uint256"
        }
      ],
      "name": "vote",
      "outputs": [],
      "stateMutability": "nonpayable",
      "type": "function"
    }
  ],
  "bytecode": "0x60806040523480156200001157600080fd5b50604051620045c8380380620045c88339818101604052810190620000379190620001de565b81600090805190602001906200004f92919062000099565b5080600660006101000a81548173ffffffffffffffffffffffffffffffffffffffff021916908373ffffffffffffffffffffffffffffffffffffffff160217905550505062000416565b828054620000a7906200030d565b90600052602060002090601f016020900481019282620000cb576000855562000117565b82601f10620000e657805160ff191683800117855562000117565b8280016001018555821562000117579182015b8281111562000116578251825591602001919060010190620000f9565b5b5090506200012691906200012a565b5090565b5b80821115620001455760008160009055506001016200012b565b5090565b6000620001606200015a846200026d565b62000244565b9050828152602081018484840111156200017f576200017e620003dc565b5b6200018c848285620002d7565b509392505050565b600081519050620001a581620003fc565b92915050565b600082601f830112620001c357620001c2620003d7565b5b8151620001d584826020860162000149565b91505092915050565b60008060408385031215620001f857620001f7620003e6565b5b600083015167ffffffffffffffff811115620002195762000218620003e1565b5b6200022785828601620001ab565b92505060206200023a8582860162000194565b9150509250929050565b60006200025062000263565b90506200025e828262000343565b919050565b6000604051905090565b600067ffffffffffffffff8211156200028b576200028a620003a8565b5b6200029682620003eb565b9050602081019050919050565b6000620002b082620002b7565b9050919050565b600073ffffffffffffffffffffffffffffffffffffffff82169050919050565b60005b83811015620002f7578082015181840152602081019050620002da565b8381111562000307576000848401525b50505050565b600060028204905060018216806200032657607f821691505b602082108114156200033d576200033c62000379565b5b50919050565b6200034e82620003eb565b810181811067ffffffffffffffff8211171562000370576200036f620003a8565b5b80604052505050565b7f4e487b7100000000000000000000000000000000000000000000000000000000600052602260045260246000fd5b7f4e487b7100000000000000000000000000000000000000000000000000000000600052604160045260246000fd5b600080fd5b600080fd5b600080fd5b600080fd5b6000601f19601f8301169050919050565b6200040781620002a3565b81146200041357600080fd5b50565b6141a280620004266000396000f3fe608060405234801561001057600080fd5b50600436106100ea5760003560e01c806367f718a91161008c578063b384abef11610066578063b384abef14610235578063d58778d614610251578063e2f273bd14610281578063f674b24d1461029d576100ea565b806367f718a9146101df5780637e3d71c3146101fd578063842f564a14610219576100ea565b80631f35b51d116100c85780631f35b51d1461015b57806343148fb3146101775780635353a2d8146101935780635544909a146101af576100ea565b806306fdde03146100ef578063120fe89b1461010d5780631a8cbcaa1461012b575b600080fd5b6100f76102b9565b604051610104919061359d565b60405180910390f35b610115610347565b6040516101229190613559565b60405180910390f35b61014560048036038101906101409190612d82565b610687565b60405161015291906137df565b60405180910390f35b61017560048036038101906101709190612d82565b610939565b005b610191600480360381019061018c9190612cf0565b610b6e565b005b6101ad60048036038101906101a89190612cf0565b610e64565b005b6101c960048036038101906101c49190612d82565b610e7e565b6040516101d69190613801565b60405180910390f35b6101e7610fa0565b6040516101f4919061357b565b60405180910390f35b61021760048036038101906102129190612c74565b610ff8565b005b610233600480360381019061022e9190612c18565b611328565b005b61024f600480360381019061024a9190612ddc565b611915565b005b61026b60048036038101906102669190612d82565b611c4b565b604051610278919061381c565b60405180910390f35b61029b60048036038101906102969190612beb565b611c6f565b005b6102b760048036038101906102b29190612beb565b612046565b005b600080546102c690613b1d565b80601f01602080910402602001604051908101604052809291908181526020018280546102f290613b1d565b801561033f5780601f106103145761010080835404028352916020019161033f565b820191906000526020600020905b81548152906001019060200180831161032257829003601f168201915b505050505081565b60606000610354336123e9565b90503373ffffffffffffffffffffffffffffffffffffffff166004600083815260200190815260200160002060010160009054906101000a900473ffffffffffffffffffffffffffffffffffffffff1673ffffffffffffffffffffffffffffffffffffffff16146103fa576040517f08c379a00000000000000000000000000000000000000000000000000000000081526004016103f1906135df565b60405180910390fd5b6003805480602002602001604051908101604052809291908181526020016000905b8282101561067d57838290600052602060002090600602016040518060c00160405290816000820154815260200160018201805461045990613b1d565b80601f016020809104026020016040519081016040528092919081815260200182805461048590613b1d565b80156104d25780601f106104a7576101008083540402835291602001916104d2565b820191906000526020600020905b8154815290600101906020018083116104b557829003601f168201915b505050505081526020016002820180548060200260200160405190810160405280929190818152602001828054801561052a57602002820191906000526020600020905b815481526020019060010190808311610516575b5050505050815260200160038201805480602002602001604051908101604052809291908181526020016000905b8282101561060457838290600052602060002001805461057790613b1d565b80601f01602080910402602001604051908101604052809291908181526020018280546105a390613b1d565b80156105f05780601f106105c5576101008083540402835291602001916105f0565b820191906000526020600020905b8154815290600101906020018083116105d357829003601f168201915b505050505081526020019060010190610558565b5050505081526020016004820180548060200260200160405190810160405280929190818152602001828054801561065b57602002820191906000526020600020905b815481526020019060010190808311610647575b505050505081526020016005820154815250508152602001906001019061041c565b5050505091505090565b61068f612797565b60038054905082106106d6576040517f08c379a00000000000000000000000000000000000000000000000000000000081526004016106cd9061367f565b60405180910390fd5b600382815481106106ea576106e9613c56565b5b90600052602060002090600602016040518060c00160405290816000820154815260200160018201805461071d90613b1d565b80601f016020809104026020016040519081016040528092919081815260200182805461074990613b1d565b80156107965780601f1061076b57610100808354040283529160200191610796565b820191906000526020600020905b81548152906001019060200180831161077957829003601f168201915b50505050508152602001600282018054806020026020016040519081016040528092919081815260200182805480156107ee57602002820191906000526020600020905b8154815260200190600101908083116107da575b5050505050815260200160038201805480602002602001604051908101604052809291908181526020016000905b828210156108c857838290600052602060002001805461083b90613b1d565b80601f016020809104026020016040519081016040528092919081815260200182805461086790613b1d565b80156108b45780601f10610889576101008083540402835291602001916108b4565b820191906000526020600020905b81548152906001019060200180831161089757829003601f168201915b50505050508152602001906001019061081c565b5050505081526020016004820180548060200260200160405190810160405280929190818152602001828054801561091f57602002820191906000526020600020905b81548152602001906001019080831161090b575b505050505081526020016005820154815250509050919050565b6000610944336123e9565b9050600081121561098a576040517f08c379a00000000000000000000000000000000000000000000000000000000081526004016109819061365f565b60405180910390fd5b600115156004600083815260200190815260200160002060010160149054906101000a900460ff161515146109f4576040517f08c379a00000000000000000000000000000000000000000000000000000000081526004016109eb9061365f565b60405180910390fd5b6003805490508210610a3b576040517f08c379a0000000000000000000000000000000000000000000000000000000008152600401610a32906136bf565b60405180910390fd5b60006040518060400160405280600881526020017f5f5f3f3f2f2f3a3a0000000000000000000000000000000000000000000000008152509050610a7d612797565b838160000181815250508181602001819052507ffffffffffffffffffffffffffffffffffffffffffffffffffffffffffffffffe8160a00181815250508060038581548110610acf57610ace613c56565b5b9060005260206000209060060201600082015181600001556020820151816001019080519060200190610b039291906127cd565b506040820151816002019080519060200190610b20929190612853565b506060820151816003019080519060200190610b3d9291906128a0565b506080820151816004019080519060200190610b5a929190612853565b5060a0820151816005015590505050505050565b600260009054906101000a900460ff1615610bbe576040517f08c379a0000000000000000000000000000000000000000000000000000000008152600401610bb5906136df565b60405180910390fd5b6000600660009054906101000a900473ffffffffffffffffffffffffffffffffffffffff1673ffffffffffffffffffffffffffffffffffffffff16633d02d0c933846040518363ffffffff1660e01b8152600401610c1d929190613500565b602060405180830381600087803b158015610c3757600080fd5b505af1158015610c4b573d6000803e3d6000fd5b505050506040513d601f19601f82011682018060405250810190610c6f9190612daf565b9050600060405180606001604052808381526020013373ffffffffffffffffffffffffffffffffffffffff16815260200160011515815250905080600460008481526020019081526020016000206000820151816000015560208201518160010160006101000a81548173ffffffffffffffffffffffffffffffffffffffff021916908373ffffffffffffffffffffffffffffffffffffffff16021790555060408201518160010160146101000a81548160ff0219169083151502179055509050506001600260006101000a81548160ff02191690831515021790555060018290806001815401808255809150506001900390600052602060002001600090919091909150557f82a09cc58c9cecf0eb61d8994283ec804165931801f8b77e42dcb3b556c5c5be8233600660009054906101000a900473ffffffffffffffffffffffffffffffffffffffff1673ffffffffffffffffffffffffffffffffffffffff1663c87b56dd866040518263ffffffff1660e01b8152600401610df3919061381c565b60006040518083038186803b158015610e0b57600080fd5b505afa158015610e1f573d6000803e3d6000fd5b505050506040513d6000823e3d601f19601f82011682018060405250810190610e489190612d39565b604051610e5793929190613837565b60405180910390a1505050565b8060009080519060200190610e7a9291906127cd565b5050565b610e86612900565b600060046000848152602001908152602001600020604051806060016040529081600082015481526020016001820160009054906101000a900473ffffffffffffffffffffffffffffffffffffffff1673ffffffffffffffffffffffffffffffffffffffff1673ffffffffffffffffffffffffffffffffffffffff1681526020016001820160149054906101000a900460ff1615151515815250509050600073ffffffffffffffffffffffffffffffffffffffff16816020015173ffffffffffffffffffffffffffffffffffffffff161415610f97576040517f08c379a0000000000000000000000000000000000000000000000000000000008152600401610f8e9061379f565b60405180910390fd5b80915050919050565b60606001805480602002602001604051908101604052809291908181526020018280548015610fee57602002820191906000526020600020905b815481526020019060010190808311610fda575b5050505050905090565b6000611003336123e9565b90506000811215611049576040517f08c379a00000000000000000000000000000000000000000000000000000000081526004016110409061365f565b60405180910390fd5b600115156004600083815260200190815260200160002060010160149054906101000a900460ff161515146110b3576040517f08c379a00000000000000000000000000000000000000000000000000000000081526004016110aa9061365f565b60405180910390fd5b8383600082829050116110fb576040517f08c379a00000000000000000000000000000000000000000000000000000000081526004016110f2906137bf565b60405180910390fd5b600084511161113f576040517f08c379a00000000000000000000000000000000000000000000000000000000081526004016111369061371f565b60405180910390fd5b611147612797565b60038054905081600001818152505086868080601f016020809104026020016040519081016040528093929190818152602001838380828437600081840152601f19601f8201169050808301925050505050505081602001819052508481606001819052507fffffffffffffffffffffffffffffffffffffffffffffffffffffffffffffffff8160a0018181525050845167ffffffffffffffff8111156111f1576111f0613c85565b5b60405190808252806020026020018201604052801561121f5781602001602082028036833780820191505090505b508160800181905250600381908060018154018082558091505060019003906000526020600020906006020160009091909190915060008201518160000155602082015181600101908051906020019061127a9291906127cd565b506040820151816002019080519060200190611297929190612853565b5060608201518160030190805190602001906112b49291906128a0565b5060808201518160040190805190602001906112d1929190612853565b5060a0820151816005015550507f65d5ac2bf1bca69566bef1affdfca5bb37b9577fc0b3af4c7c4638225e67b39c81600001518260200151604051611317929190613875565b60405180910390a150505050505050565b6000611333336123e9565b90506000811215611379576040517f08c379a00000000000000000000000000000000000000000000000000000000081526004016113709061365f565b60405180910390fd5b600115156004600083815260200190815260200160002060010160149054906101000a900460ff161515146113e3576040517f08c379a00000000000000000000000000000000000000000000000000000000081526004016113da9061365f565b60405180910390fd5b82600073ffffffffffffffffffffffffffffffffffffffff168173ffffffffffffffffffffffffffffffffffffffff161415611454576040517f08c379a000000000000000000000000000000000000000000000000000000000815260040161144b906135bf565b60405180910390fd5b600080600660009054906101000a900473ffffffffffffffffffffffffffffffffffffffff1673ffffffffffffffffffffffffffffffffffffffff166370a08231876040518263ffffffff1660e01b81526004016114b291906134ae565b60206040518083038186803b1580156114ca57600080fd5b505afa1580156114de573d6000803e3d6000fd5b505050506040513d601f19601f820116820180604052508101906115029190612daf565b905060005b81811015611643576000600660009054906101000a900473ffffffffffffffffffffffffffffffffffffffff1673ffffffffffffffffffffffffffffffffffffffff16632f745c5989846040518363ffffffff1660e01b815260040161156e929190613530565b60206040518083038186803b15801561158657600080fd5b505afa15801561159a573d6000803e3d6000fd5b505050506040513d601f19601f820116820180604052508101906115be9190612daf565b90508773ffffffffffffffffffffffffffffffffffffffff166004600083815260200190815260200160002060010160009054906101000a900473ffffffffffffffffffffffffffffffffffffffff1673ffffffffffffffffffffffffffffffffffffffff16141561162f57600193505b50808061163b90613b80565b915050611507565b508115611685576040517f08c379a000000000000000000000000000000000000000000000000000000000815260040161167c9061373f565b60405180910390fd5b6000600660009054906101000a900473ffffffffffffffffffffffffffffffffffffffff1673ffffffffffffffffffffffffffffffffffffffff16633d02d0c988886040518363ffffffff1660e01b81526004016116e4929190613500565b602060405180830381600087803b1580156116fe57600080fd5b505af1158015611712573d6000803e3d6000fd5b505050506040513d601f19601f820116820180604052508101906117369190612daf565b9050600060405180606001604052808381526020018973ffffffffffffffffffffffffffffffffffffffff16815260200160001515815250905080600460008481526020019081526020016000206000820151816000015560208201518160010160006101000a81548173ffffffffffffffffffffffffffffffffffffffff021916908373ffffffffffffffffffffffffffffffffffffffff16021790555060408201518160010160146101000a81548160ff02191690831515021790555090505060018290806001815401808255809150506001900390600052602060002001600090919091909150557f82a09cc58c9cecf0eb61d8994283ec804165931801f8b77e42dcb3b556c5c5be8289600660009054906101000a900473ffffffffffffffffffffffffffffffffffffffff1673ffffffffffffffffffffffffffffffffffffffff1663c87b56dd866040518263ffffffff1660e01b815260040161189f919061381c565b60006040518083038186803b1580156118b757600080fd5b505afa1580156118cb573d6000803e3d6000fd5b505050506040513d6000823e3d601f19601f820116820180604052508101906118f49190612d39565b60405161190393929190613837565b60405180910390a15050505050505050565b6000611920336123e9565b90503373ffffffffffffffffffffffffffffffffffffffff166004600083815260200190815260200160002060010160009054906101000a900473ffffffffffffffffffffffffffffffffffffffff1673ffffffffffffffffffffffffffffffffffffffff16146119c6576040517f08c379a00000000000000000000000000000000000000000000000000000000081526004016119bd906135df565b60405180910390fd5b6003805490508310611a0d576040517f08c379a0000000000000000000000000000000000000000000000000000000008152600401611a04906136bf565b60405180910390fd5b600060038481548110611a2357611a22613c56565b5b9060005260206000209060060201905080600301805490508310611a7c576040517f08c379a0000000000000000000000000000000000000000000000000000000008152600401611a73906136ff565b60405180910390fd5b7fffffffffffffffffffffffffffffffffffffffffffffffffffffffffffffffff816005015414611ae2576040517f08c379a0000000000000000000000000000000000000000000000000000000008152600401611ad99061363f565b60405180910390fd5b6000611aed336123e9565b905060056000828152602001908152602001600020600086815260200190815260200160002060009054906101000a900460ff1615611b61576040517f08c379a0000000000000000000000000000000000000000000000000000000008152600401611b589061369f565b60405180910390fd5b81600201819080600181540180825580915050600190039060005260206000200160009091909190915055816004018481548110611ba257611ba1613c56565b5b906000526020600020016000815480929190611bbd90613b80565b9190505550600160056000838152602001908152602001600020600087815260200190815260200160002060006101000a81548160ff0219169083151502179055507fe828180429d50fecc65a7389299b1bf5f97fd5bec6ca0b9648c35255ee0a11ab858533611c2c896126b3565b604051611c3c94939291906138a5565b60405180910390a15050505050565b60018181548110611c5b57600080fd5b906000526020600020016000915090505481565b6000611c7a336123e9565b90506000811215611cc0576040517f08c379a0000000000000000000000000000000000000000000000000000000008152600401611cb79061365f565b60405180910390fd5b600115156004600083815260200190815260200160002060010160149054906101000a900460ff16151514611d2a576040517f08c379a0000000000000000000000000000000000000000000000000000000008152600401611d219061365f565b60405180910390fd5b81600073ffffffffffffffffffffffffffffffffffffffff168173ffffffffffffffffffffffffffffffffffffffff161415611d9b576040517f08c379a0000000000000000000000000000000000000000000000000000000008152600401611d92906135bf565b60405180910390fd5b3373ffffffffffffffffffffffffffffffffffffffff168373ffffffffffffffffffffffffffffffffffffffff161415611e0a576040517f08c379a0000000000000000000000000000000000000000000000000000000008152600401611e019061375f565b60405180910390fd5b6000611e15846123e9565b90506000808213905080611e5e576040517f08c379a0000000000000000000000000000000000000000000000000000000008152600401611e559061361f565b60405180910390fd5b6000611e69336123e9565b9050811561203e57600660009054906101000a900473ffffffffffffffffffffffffffffffffffffffff1673ffffffffffffffffffffffffffffffffffffffff1663f5537ede3388846040518463ffffffff1660e01b8152600401611ed0939291906134c9565b600060405180830381600087803b158015611eea57600080fd5b505af1158015611efe573d6000803e3d6000fd5b50505050600660009054906101000a900473ffffffffffffffffffffffffffffffffffffffff1673ffffffffffffffffffffffffffffffffffffffff1663f5537ede8733866040518463ffffffff1660e01b8152600401611f61939291906134c9565b600060405180830381600087803b158015611f7b57600080fd5b505af1158015611f8f573d6000803e3d6000fd5b50505050856004600083815260200190815260200160002060010160006101000a81548173ffffffffffffffffffffffffffffffffffffffff021916908373ffffffffffffffffffffffffffffffffffffffff160217905550336004600085815260200190815260200160002060010160006101000a81548173ffffffffffffffffffffffffffffffffffffffff021916908373ffffffffffffffffffffffffffffffffffffffff1602179055505b505050505050565b6000612051336123e9565b90506000811215612097576040517f08c379a000000000000000000000000000000000000000000000000000000000815260040161208e9061365f565b60405180910390fd5b600115156004600083815260200190815260200160002060010160149054906101000a900460ff16151514612101576040517f08c379a00000000000000000000000000000000000000000000000000000000081526004016120f89061365f565b60405180910390fd5b81600073ffffffffffffffffffffffffffffffffffffffff168173ffffffffffffffffffffffffffffffffffffffff161415612172576040517f08c379a0000000000000000000000000000000000000000000000000000000008152600401612169906135bf565b60405180910390fd5b3373ffffffffffffffffffffffffffffffffffffffff168373ffffffffffffffffffffffffffffffffffffffff1614156121e1576040517f08c379a00000000000000000000000000000000000000000000000000000000081526004016121d89061377f565b60405180910390fd5b60006121ec846123e9565b905060008113612231576040517f08c379a0000000000000000000000000000000000000000000000000000000008152600401612228906135ff565b60405180910390fd5b600660009054906101000a900473ffffffffffffffffffffffffffffffffffffffff1673ffffffffffffffffffffffffffffffffffffffff166342966c68826040518263ffffffff1660e01b815260040161228c919061381c565b600060405180830381600087803b1580156122a657600080fd5b505af11580156122ba573d6000803e3d6000fd5b50505050600080600090505b6001805490508110156123105782600182815481106122e8576122e7613c56565b5b906000526020600020015414156122fd578091505b808061230890613b80565b9150506122c6565b5060018080805490506123239190613a55565b8154811061233457612333613c56565b5b90600052602060002001546001828154811061235357612352613c56565b5b9060005260206000200181905550600180548061237357612372613c27565b5b60019003818190600052602060002001600090559055600460008381526020019081526020016000206000808201600090556001820160006101000a81549073ffffffffffffffffffffffffffffffffffffffff02191690556001820160146101000a81549060ff021916905550505050505050565b600080600660009054906101000a900473ffffffffffffffffffffffffffffffffffffffff1673ffffffffffffffffffffffffffffffffffffffff166370a08231846040518263ffffffff1660e01b815260040161244791906134ae565b60206040518083038186803b15801561245f57600080fd5b505afa158015612473573d6000803e3d6000fd5b505050506040513d601f19601f820116820180604052508101906124979190612daf565b905060007fffffffffffffffffffffffffffffffffffffffffffffffffffffffffffffffff905060005b828110156126a8576000600660009054906101000a900473ffffffffffffffffffffffffffffffffffffffff1673ffffffffffffffffffffffffffffffffffffffff16632f745c5987846040518363ffffffff1660e01b8152600401612528929190613530565b60206040518083038186803b15801561254057600080fd5b505afa158015612554573d6000803e3d6000fd5b505050506040513d601f19601f820116820180604052508101906125789190612daf565b90508573ffffffffffffffffffffffffffffffffffffffff166004600083815260200190815260200160002060010160009054906101000a900473ffffffffffffffffffffffffffffffffffffffff1673ffffffffffffffffffffffffffffffffffffffff16141561269457600660009054906101000a900473ffffffffffffffffffffffffffffffffffffffff1673ffffffffffffffffffffffffffffffffffffffff16632f745c5987846040518363ffffffff1660e01b8152600401612641929190613530565b60206040518083038186803b15801561265957600080fd5b505afa15801561266d573d6000803e3d6000fd5b505050506040513d601f19601f820116820180604052508101906126919190612daf565b92505b5080806126a090613b80565b9150506124c1565b508092505050919050565b600080600383815481106126ca576126c9613c56565b5b906000526020600020906006020190507fffffffffffffffffffffffffffffffffffffffffffffffffffffffffffffffff81600501541461270f576000915050612792565b60018054905081600201805490501461272c576000915050612792565b60008060005b8360040180549050811015612780578284600401828154811061275857612757613c56565b5b9060005260206000200154111561276d578091505b808061277890613b80565b915050612732565b50808360050181905550600193505050505b919050565b6040518060c001604052806000815260200160608152602001606081526020016060815260200160608152602001600081525090565b8280546127d990613b1d565b90600052602060002090601f0160209004810192826127fb5760008555612842565b82601f1061281457805160ff1916838001178555612842565b82800160010185558215612842579182015b82811115612841578251825591602001919060010190612826565b5b50905061284f9190612939565b5090565b82805482825590600052602060002090810192821561288f579160200282015b8281111561288e578251825591602001919060010190612873565b5b50905061289c9190612939565b5090565b8280548282559060005260206000209081019282156128ef579160200282015b828111156128ee5782518290805190602001906128de9291906127cd565b50916020019190600101906128c0565b5b5090506128fc9190612956565b5090565b604051806060016040528060008152602001600073ffffffffffffffffffffffffffffffffffffffff1681526020016000151581525090565b5b8082111561295257600081600090555060010161293a565b5090565b5b80821115612976576000818161296d919061297a565b50600101612957565b5090565b50805461298690613b1d565b6000825580601f1061299857506129b7565b601f0160209004906000526020600020908101906129b69190612939565b5b50565b60006129cd6129c88461390f565b6138ea565b905080838252602082019050828560208602820111156129f0576129ef613cbe565b5b60005b85811015612a3e57813567ffffffffffffffff811115612a1657612a15613cb9565b5b808601612a238982612b65565b855260208501945060208401935050506001810190506129f3565b5050509392505050565b6000612a5b612a568461393b565b6138ea565b905082815260208101848484011115612a7757612a76613cc3565b5b612a82848285613adb565b509392505050565b6000612a9d612a988461393b565b6138ea565b905082815260208101848484011115612ab957612ab8613cc3565b5b612ac4848285613aea565b509392505050565b600081359050612adb8161413e565b92915050565b600082601f830112612af657612af5613cb9565b5b8135612b068482602086016129ba565b91505092915050565b60008083601f840112612b2557612b24613cb9565b5b8235905067ffffffffffffffff811115612b4257612b41613cb4565b5b602083019150836001820283011115612b5e57612b5d613cbe565b5b9250929050565b600082601f830112612b7a57612b79613cb9565b5b8135612b8a848260208601612a48565b91505092915050565b600082601f830112612ba857612ba7613cb9565b5b8151612bb8848260208601612a8a565b91505092915050565b600081359050612bd081614155565b92915050565b600081519050612be581614155565b92915050565b600060208284031215612c0157612c00613ccd565b5b6000612c0f84828501612acc565b91505092915050565b60008060408385031215612c2f57612c2e613ccd565b5b6000612c3d85828601612acc565b925050602083013567ffffffffffffffff811115612c5e57612c5d613cc8565b5b612c6a85828601612b65565b9150509250929050565b600080600060408486031215612c8d57612c8c613ccd565b5b600084013567ffffffffffffffff811115612cab57612caa613cc8565b5b612cb786828701612b0f565b9350935050602084013567ffffffffffffffff811115612cda57612cd9613cc8565b5b612ce686828701612ae1565b9150509250925092565b600060208284031215612d0657612d05613ccd565b5b600082013567ffffffffffffffff811115612d2457612d23613cc8565b5b612d3084828501612b65565b91505092915050565b600060208284031215612d4f57612d4e613ccd565b5b600082015167ffffffffffffffff811115612d6d57612d6c613cc8565b5b612d7984828501612b93565b91505092915050565b600060208284031215612d9857612d97613ccd565b5b6000612da684828501612bc1565b91505092915050565b600060208284031215612dc557612dc4613ccd565b5b6000612dd384828501612bd6565b91505092915050565b60008060408385031215612df357612df2613ccd565b5b6000612e0185828601612bc1565b9250506020612e1285828601612bc1565b9150509250929050565b6000612e28838361304d565b905092915050565b6000612e3c8383613312565b905092915050565b6000612e508383613490565b60208301905092915050565b612e6581613a89565b82525050565b612e7481613a89565b82525050565b6000612e858261399c565b612e8f81856139ef565b935083602082028501612ea18561396c565b8060005b85811015612edd5784840389528151612ebe8582612e1c565b9450612ec9836139c8565b925060208a01995050600181019050612ea5565b50829750879550505050505092915050565b6000612efa826139a7565b612f048185613a00565b935083602082028501612f168561397c565b8060005b85811015612f525784840389528151612f338582612e30565b9450612f3e836139d5565b925060208a01995050600181019050612f1a565b50829750879550505050505092915050565b6000612f6f826139b2565b612f798185613a11565b9350612f848361398c565b8060005b83811015612fb5578151612f9c8882612e44565b9750612fa7836139e2565b925050600181019050612f88565b5085935050505092915050565b6000612fcd826139b2565b612fd78185613a22565b9350612fe28361398c565b8060005b83811015613013578151612ffa8882612e44565b9750613005836139e2565b925050600181019050612fe6565b5085935050505092915050565b61302981613a9b565b82525050565b61303881613a9b565b82525050565b61304781613aa7565b82525050565b6000613058826139bd565b6130628185613a33565b9350613072818560208601613aea565b61307b81613cd2565b840191505092915050565b6000613091826139bd565b61309b8185613a44565b93506130ab818560208601613aea565b6130b481613cd2565b840191505092915050565b60006130cc601e83613a44565b91506130d782613ce3565b602082019050919050565b60006130ef603083613a44565b91506130fa82613d0c565b604082019050919050565b6000613112602283613a44565b915061311d82613d5b565b604082019050919050565b6000613135602383613a44565b915061314082613daa565b604082019050919050565b6000613158602b83613a44565b915061316382613df9565b604082019050919050565b600061317b602283613a44565b915061318682613e48565b604082019050919050565b600061319e600f83613a44565b91506131a982613e97565b602082019050919050565b60006131c1601e83613a44565b91506131cc82613ec0565b602082019050919050565b60006131e4601983613a44565b91506131ef82613ee9565b602082019050919050565b6000613207602683613a44565b915061321282613f12565b604082019050919050565b600061322a601b83613a44565b915061323582613f61565b602082019050919050565b600061324d602383613a44565b915061325882613f8a565b604082019050919050565b6000613270602883613a44565b915061327b82613fd9565b604082019050919050565b6000613293602683613a44565b915061329e82614028565b604082019050919050565b60006132b6602b83613a44565b91506132c182614077565b604082019050919050565b60006132d9600f83613a44565b91506132e4826140c6565b602082019050919050565b60006132fc602a83613a44565b9150613307826140ef565b604082019050919050565b600060c08301600083015161332a6000860182613490565b5060208301518482036020860152613342828261304d565b9150506040830151848203604086015261335c8282612f64565b915050606083015184820360608601526133768282612e7a565b915050608083015184820360808601526133908282612f64565b91505060a08301516133a560a086018261303e565b508091505092915050565b600060c0830160008301516133c86000860182613490565b50602083015184820360208601526133e0828261304d565b915050604083015184820360408601526133fa8282612f64565b915050606083015184820360608601526134148282612e7a565b9150506080830151848203608086015261342e8282612f64565b91505060a083015161344360a086018261303e565b508091505092915050565b6060820160008201516134646000850182613490565b5060208201516134776020850182612e5c565b50604082015161348a6040850182613020565b50505050565b61349981613ad1565b82525050565b6134a881613ad1565b82525050565b60006020820190506134c36000830184612e6b565b92915050565b60006060820190506134de6000830186612e6b565b6134eb6020830185612e6b565b6134f8604083018461349f565b949350505050565b60006040820190506135156000830185612e6b565b81810360208301526135278184613086565b90509392505050565b60006040820190506135456000830185612e6b565b613552602083018461349f565b9392505050565b600060208201905081810360008301526135738184612eef565b905092915050565b600060208201905081810360008301526135958184612fc2565b905092915050565b600060208201905081810360008301526135b78184613086565b905092915050565b600060208201905081810360008301526135d8816130bf565b9050919050565b600060208201905081810360008301526135f8816130e2565b9050919050565b6000602082019050818103600083015261361881613105565b9050919050565b6000602082019050818103600083015261363881613128565b9050919050565b600060208201905081810360008301526136588161314b565b9050919050565b600060208201905081810360008301526136788161316e565b9050919050565b6000602082019050818103600083015261369881613191565b9050919050565b600060208201905081810360008301526136b8816131b4565b9050919050565b600060208201905081810360008301526136d8816131d7565b9050919050565b600060208201905081810360008301526136f8816131fa565b9050919050565b600060208201905081810360008301526137188161321d565b9050919050565b6000602082019050818103600083015261373881613240565b9050919050565b6000602082019050818103600083015261375881613263565b9050919050565b6000602082019050818103600083015261377881613286565b9050919050565b60006020820190508181036000830152613798816132a9565b9050919050565b600060208201905081810360008301526137b8816132cc565b9050919050565b600060208201905081810360008301526137d8816132ef565b9050919050565b600060208201905081810360008301526137f981846133b0565b905092915050565b6000606082019050613816600083018461344e565b92915050565b6000602082019050613831600083018461349f565b92915050565b600060608201905061384c600083018661349f565b6138596020830185612e6b565b818103604083015261386b8184613086565b9050949350505050565b600060408201905061388a600083018561349f565b818103602083015261389c8184613086565b90509392505050565b60006080820190506138ba600083018761349f565b6138c7602083018661349f565b6138d46040830185612e6b565b6138e1606083018461302f565b95945050505050565b60006138f4613905565b90506139008282613b4f565b919050565b6000604051905090565b600067ffffffffffffffff82111561392a57613929613c85565b5b602082029050602081019050919050565b600067ffffffffffffffff82111561395657613955613c85565b5b61395f82613cd2565b9050602081019050919050565b6000819050602082019050919050565b6000819050602082019050919050565b6000819050602082019050919050565b600081519050919050565b600081519050919050565b600081519050919050565b600081519050919050565b6000602082019050919050565b6000602082019050919050565b6000602082019050919050565b600082825260208201905092915050565b600082825260208201905092915050565b600082825260208201905092915050565b600082825260208201905092915050565b600082825260208201905092915050565b600082825260208201905092915050565b6000613a6082613ad1565b9150613a6b83613ad1565b925082821015613a7e57613a7d613bc9565b5b828203905092915050565b6000613a9482613ab1565b9050919050565b60008115159050919050565b6000819050919050565b600073ffffffffffffffffffffffffffffffffffffffff82169050919050565b6000819050919050565b82818337600083830152505050565b60005b83811015613b08578082015181840152602081019050613aed565b83811115613b17576000848401525b50505050565b60006002820490506001821680613b3557607f821691505b60208210811415613b4957613b48613bf8565b5b50919050565b613b5882613cd2565b810181811067ffffffffffffffff82111715613b7757613b76613c85565b5b80604052505050565b6000613b8b82613ad1565b91507fffffffffffffffffffffffffffffffffffffffffffffffffffffffffffffffff821415613bbe57613bbd613bc9565b5b600182019050919050565b7f4e487b7100000000000000000000000000000000000000000000000000000000600052601160045260246000fd5b7f4e487b7100000000000000000000000000000000000000000000000000000000600052602260045260246000fd5b7f4e487b7100000000000000000000000000000000000000000000000000000000600052603160045260246000fd5b7f4e487b7100000000000000000000000000000000000000000000000000000000600052603260045260246000fd5b7f4e487b7100000000000000000000000000000000000000000000000000000000600052604160045260246000fd5b600080fd5b600080fd5b600080fd5b600080fd5b600080fd5b600080fd5b6000601f19601f8301169050919050565b7f412076616c69642061646472657373206d757374206265207061737365640000600082015250565b7f4d75737420686f6c6420616e2061636365737320746f6b656e20746f2070657260008201527f666f726d207468697320616374696f6e00000000000000000000000000000000602082015250565b7f43616e6e6f742072656d6f76652061206e6f6e2d6578697374696e6720746f6b60008201527f656e000000000000000000000000000000000000000000000000000000000000602082015250565b7f4e65772061646d696e206d757374206861766520616e2061636365737320746f60008201527f6b656e0000000000000000000000000000000000000000000000000000000000602082015250565b7f43616e6e6f74206361737420766f7465206f6e20616e20616c7265616479206460008201527f65636964656420706f6c6c000000000000000000000000000000000000000000602082015250565b7f4f6e6c792061646d696e206d617920706572666f726d2074686973206163746960008201527f6f6e000000000000000000000000000000000000000000000000000000000000602082015250565b7f496e76616c696420706f6c6c2069640000000000000000000000000000000000600082015250565b7f43616e6e6f7420766f7465206f6e2073616d6520706f6c6c2074776963650000600082015250565b7f4d757374207061737320612076616c696420706f6c6c20494400000000000000600082015250565b7f41646d696e20616c72656164792065786973747320666f72207468697320636f60008201527f6e74726163740000000000000000000000000000000000000000000000000000602082015250565b7f4d757374207061737320612076616c6964206f7074696f6e2049440000000000600082015250565b7f4f7074696f6e7320706172616d65746572206d757374206e6f7420626520656d60008201527f7074790000000000000000000000000000000000000000000000000000000000602082015250565b7f416e2061646472657373206d6179206f6e6c79206f776e206f6e65204163636560008201527f737320546f6b656e000000000000000000000000000000000000000000000000602082015250565b7f43616e6e6f74207265706c6163652061646d696e20776974682073616d65206160008201527f6464726573730000000000000000000000000000000000000000000000000000602082015250565b7f41646d696e206d6179206e6f742062652072656d6f7665642066726f6d20617060008201527f70726f766564206c697374000000000000000000000000000000000000000000602082015250565b7f496e76616c696420546f6b656e49440000000000000000000000000000000000600082015250565b7f537472696e6720706172616d65746572206d757374206265206f66206120766160008201527f6c6964206c656e67746800000000000000000000000000000000000000000000602082015250565b61414781613a89565b811461415257600080fd5b50565b61415e81613ad1565b811461416957600080fd5b5056fea2646970667358221220377a0888def0d7a0078088271770dd168b5e641d823c16987edbecebea0d888f64736f6c63430008060033",
  "immutableReferences": {},
  "source": "// SPDX-License-Identifier: UNLICENSED\npragma solidity ^0.8.6;\n\nimport \"./AccessToken.sol\";\n\ncontract VotingContract {\n\n    /* I figure having these events is good practice\n    but i'm not sure if there are more things I should \n    include to make it a complete event or whatever.\n    Still just a young padawan. */\n    event TokenCreated (\n        uint tokenId,\n        address owner,\n        string contractAddr\n    );\n\n    event PollCreated(\n        uint id,\n        string issue\n    );\n\n    event VoteCasted(\n        uint pollId,\n        uint optionId,\n        address voter,\n        bool decided\n    );\n\n    event Debug(\n        string description\n    );\n\n    // Admin can create multiple polls for their organization to vote on\n    /* I wanted to have a mapping of uint => OptionStruct\n    but could NOT get it to work so I'm working with a \n    more rudimentary approached. While not as sophisticated,\n    it works and that's what makes me happy. This is my first\n    real capstone project so I can't try and get too fancy */ \n    /* ^ this was when i was testing with a web3 instance of \n    votingContract. Now that I can test with an articfacts instance,\n    i might attempt this */\n    struct Poll {\n        uint id;\n        // issue on which voters are deciding on\n        string issue;\n        uint[] voters;\n        string[] options;\n        uint[] results;\n        // If -1, no result has been determined.\n        // If other number, index of option won.\n        int result;\n    }\n\n    struct TokenRef {\n        uint tokenId;\n        address owner;\n        bool isAdmin;\n    }\n    \n    string public name;\n    uint[] public tokenIds;\n    bool adminExists;\n    Poll[] polls;\n    mapping(uint => TokenRef) approvedTokens;\n    // stores whether token has voted in a particular poll\n    // mapping(tokenId => mapping(pollId => bool))\n    mapping(uint => mapping(uint => bool)) hasVoted;\n    AccessToken accessToken;\n    \n\n    constructor(string memory _name, address tokenAddr) {\n        name = _name;\n        accessToken = AccessToken(tokenAddr);\n    }\n\n    function getPoll(uint pollId) external view returns(Poll memory) {\n        require(pollId < polls.length, \"Invalid poll id\");\n        return polls[pollId];\n    }\n\n    function getPolls() external view onlyApproved() returns(Poll[] memory ) {\n        return polls;\n    }\n\n    function getTokenRef(uint tokenId) external view returns(TokenRef memory){\n        TokenRef memory tokenRef = approvedTokens[tokenId];\n        require(tokenRef.owner != address(0), \"Invalid TokenID\");\n        return tokenRef;\n    }\n\n    function getTokenId(address owner) internal view returns(int) {\n        uint balanceOf = accessToken.balanceOf(owner);\n        int tokenId = -1;\n        for(uint i = 0; i < balanceOf; i++){\n            uint currentTokenId = accessToken.tokenOfOwnerByIndex(owner, i);\n            if(approvedTokens[currentTokenId].owner == owner){\n                tokenId = int(accessToken.tokenOfOwnerByIndex(owner, i));\n            }\n        }\n        return tokenId;\n    }\n\n    function getTokenIds() external view returns(uint[] memory) {\n        return tokenIds;\n    }\n\n    function changeName(string memory newName) external {\n        name = newName;\n    }\n\n    /* Would like the ability to generateAdmin within constructor but \n    because i need the votingContract's address in string format (for the tokenURI), \n    don't think it'll be possible */\n    function generateAdmin(string memory contractAddr) external {\n        require(!adminExists, \"Admin already exists for this contract\");\n        uint tokenId = accessToken.mintToken(msg.sender, contractAddr);\n        TokenRef memory ar = TokenRef(\n            tokenId,\n            msg.sender,\n            true\n        );\n        approvedTokens[tokenId] = ar;\n        adminExists = true;\n        tokenIds.push(tokenId);\n        emit TokenCreated(tokenId, msg.sender, accessToken.tokenURI(tokenId));\n    }\n\n\n    function generateAccessToken(address approved, string memory contractAddr) \n        external \n        onlyAdmin()\n        validAddress(approved) {\n            bool hasToken; \n            uint balanceOf = accessToken.balanceOf(approved);\n            for(uint i = 0; i < balanceOf; i++){\n                uint currentTokenId = accessToken.tokenOfOwnerByIndex(approved, i);\n                if(approvedTokens[currentTokenId].owner == approved){\n                    hasToken = true;\n                }\n            }\n            \n            /* Need to fix this check. Will make it so that address may only\n            have one access token per voting contract*/\n            require(!hasToken, \n                \"An address may only own one Access Token\");\n            uint tokenId = accessToken.mintToken(approved, contractAddr);\n            TokenRef memory ar = TokenRef(\n                tokenId,\n                approved,\n                false\n            );\n            approvedTokens[tokenId] = ar;\n            tokenIds.push(tokenId);\n            emit TokenCreated(tokenId, approved, accessToken.tokenURI(tokenId));\n    }\n\n    function removeApprovedVoter(address unapproved) external onlyAdmin() validAddress(unapproved) {                \n        require(unapproved != msg.sender, \"Admin may not be removed from approved list\");\n        \n        // checks if unapproved has an access token\n        int tokenId = getTokenId(unapproved);\n\n        require(tokenId > 0, \"Cannot remove a non-existing token\");\n\n        accessToken.burn(uint(tokenId));\n\n        uint tokenIndex;\n        for(uint i = 0; i < tokenIds.length; i++){\n            if(tokenIds[i] == uint(tokenId)){\n                tokenIndex = i;\n            }\n        }\n        tokenIds[tokenIndex] = tokenIds[tokenIds.length - 1];\n        tokenIds.pop();\n\n        delete approvedTokens[uint(tokenId)];\n    }\n\n    /* This updates who is the current admin. there may only be \n    one admin per VotingContract */\n    // Purposely requiring that newAdmin already holds an access token\n    function updateAdmin(address newAdmin) external onlyAdmin() validAddress(newAdmin) {\n        require(newAdmin != msg.sender, \"Cannot replace admin with same address\");\n\n        // Saves newAdmin's current tokenId\n        int tokenId = getTokenId(newAdmin);\n        // checks if newAdmin has an access token\n        bool newAdminIsApproved = tokenId > 0;\n        require(newAdminIsApproved, \n            \"New admin must have an access token\");\n\n        // Saves current admin's tokenId\n        int adminTokenId = getTokenId(msg.sender);\n\n        // newAdmin is added only if they are already an approved voter\n        // redundant check after the above require statement \n        if(newAdminIsApproved){\n            accessToken.transferToken(msg.sender, newAdmin, uint(adminTokenId));\n            accessToken.transferToken(newAdmin, msg.sender, uint(tokenId));\n\n            approvedTokens[uint(adminTokenId)].owner = newAdmin;\n            approvedTokens[uint(tokenId)].owner = msg.sender;\n        }\n    }\n\n    function createPoll(string calldata issue, string[] memory _options) \n        external \n        onlyAdmin()\n        stringLength(issue) {\n            require(_options.length > 0, \n                \"Options parameter must not be empty\");\n            Poll memory p;\n            p.id = polls.length;\n            p.issue = issue;\n            p.options = _options;\n            p.result = -1;\n            p.results = new uint[](_options.length);\n            \n            polls.push(p);\n            \n            emit PollCreated(p.id, p.issue);\n    }\n\n    /* poll will not _actually_ be deleted in order to discourage\n    admin from carelessly creating polls. poll data will be erased\n    but replaced with deleted-sig values */\n    function deletePoll(uint pollId) external onlyAdmin() {\n        require(pollId < polls.length,\n            \"Must pass a valid poll ID\");\n        string memory deletedPollSignature = \"__??//::\";\n        /* I don't really need this right? solidity will automatically\n        receive pollId as an unsigned int... */\n        // require(pollId > 0,\n        //     \"Poll ID must be greater than 0\");\n        Poll memory p;\n        p.id = pollId;\n        p.issue = deletedPollSignature;\n        p.result = -2;\n\n        polls[pollId] = p;\n    }\n\n    function vote(uint pollId, uint optionId) external onlyApproved() {\n        require(pollId < polls.length, \n            \"Must pass a valid poll ID\");\n        Poll storage p = polls[pollId];\n        require(optionId < p.options.length, \n            \"Must pass a valid option ID\");\n        require(p.result == -1, \n            \"Cannot cast vote on an already decided poll\");\n\n        uint tokenId = uint(getTokenId(msg.sender)); \n        require(!hasVoted[tokenId][pollId], \n            \"Cannot vote on same poll twice\");\n\n        p.voters.push(tokenId);\n        p.results[optionId]++;\n        hasVoted[tokenId][pollId] = true;\n        \n        emit VoteCasted(pollId, optionId, msg.sender, decideResult(pollId));\n    }\n\n    /* Should I require that a valid Poll ID is passed? \n    Would be redundant since vote() (the function that calls this)\n    already checks for a valid pollId  */\n    // Need to handle draws.\n    /* On draw, I think i should reset poll, but only with the top options\n    (if 3 options got highest vote, then those three options remain, rest leave) */\n    function decideResult(uint pollId) internal returns(bool) {\n        Poll storage p = polls[pollId];\n        // Not sure if i should use a require, or the IF statement as I currently am\n        // require(!p.decided, \"This poll has already been decided\");\n        if(p.result != -1) {\n            return false;\n        }\n\n        /* Not sure if i want this. What if admin wants to decide a vote before\n        all approved vote? What if admin wants poll to be open\n        only during a particular time period? */\n        // require(p.voters.length == approved.length, \"All approved addresses must vote\");\n        if(p.voters.length != tokenIds.length) {\n            return false;\n        }\n\n        uint mostVotes;\n        uint winnerIndex;\n        for(uint i = 0; i < p.results.length; i++){\n            /* \"should\" always work since this function won't be called\n            until someone casts a vote. will consider adding a check */ \n            if(p.results[i] > mostVotes) {\n                winnerIndex = i;\n            }\n        }\n        p.result = int(winnerIndex);\n\n        return true;\n    }\n\n    modifier onlyApproved() {\n        int tokenId = getTokenId(msg.sender);\n        require(approvedTokens[uint(tokenId)].owner == msg.sender,\n            \"Must hold an access token to perform this action\");\n        _;\n    }\n\n    modifier onlyAdmin() {\n        int tokenId = getTokenId(msg.sender);\n        require(tokenId >= 0, \n            \"Only admin may perform this action\");\n        require(approvedTokens[uint(tokenId)].isAdmin == true,\n            \"Only admin may perform this action\");\n        _;\n    }\n\n    modifier validAddress(address _address) {\n        require(_address != address(0),\"A valid address must be passed\");\n        _;\n    }\n\n    modifier stringLength(string calldata str) {\n        require(bytes(str).length > 0, \n            \"String parameter must be of a valid length\");\n        _;\n    }    \n}",
  "sourcePath": "/home/odon/code/bloc/self-directed/vote_per_organization/contracts/contracts/VotingContract.sol",
  "compiler": {
    "name": "solc",
    "version": "0.8.6+commit.11564f7e.Emscripten.clang"
  },
  "schemaVersion": "3.4.1",
  "updatedAt": "2021-08-16T21:00:44.678Z",
  "networkType": "ethereum",
  "devdoc": {
    "kind": "dev",
    "methods": {},
    "version": 1
  },
  "userdoc": {
    "kind": "user",
    "methods": {},
    "version": 1
  }
}