{
  "contractName": "VotingContract",
  "abi": [
    {
      "inputs": [
        {
          "internalType": "string",
          "name": "_name",
          "type": "string"
        },
        {
          "internalType": "address",
          "name": "tokenAddr",
          "type": "address"
        }
      ],
      "stateMutability": "nonpayable",
      "type": "constructor"
    },
    {
      "anonymous": false,
      "inputs": [
        {
          "indexed": false,
          "internalType": "string",
          "name": "description",
          "type": "string"
        }
      ],
      "name": "Debug",
      "type": "event"
    },
    {
      "anonymous": false,
      "inputs": [
        {
          "indexed": false,
          "internalType": "uint256",
          "name": "id",
          "type": "uint256"
        },
        {
          "indexed": false,
          "internalType": "string",
          "name": "issue",
          "type": "string"
        }
      ],
      "name": "PollCreated",
      "type": "event"
    },
    {
      "anonymous": false,
      "inputs": [
        {
          "indexed": false,
          "internalType": "uint256",
          "name": "tokenId",
          "type": "uint256"
        },
        {
          "indexed": false,
          "internalType": "address",
          "name": "owner",
          "type": "address"
        },
        {
          "indexed": false,
          "internalType": "string",
          "name": "contractAddr",
          "type": "string"
        }
      ],
      "name": "TokenCreated",
      "type": "event"
    },
    {
      "anonymous": false,
      "inputs": [
        {
          "indexed": false,
          "internalType": "uint256",
          "name": "pollId",
          "type": "uint256"
        },
        {
          "indexed": false,
          "internalType": "uint256",
          "name": "optionId",
          "type": "uint256"
        },
        {
          "indexed": false,
          "internalType": "address",
          "name": "voter",
          "type": "address"
        },
        {
          "indexed": false,
          "internalType": "bool",
          "name": "decided",
          "type": "bool"
        }
      ],
      "name": "VoteCasted",
      "type": "event"
    },
    {
      "inputs": [
        {
          "internalType": "uint256",
          "name": "",
          "type": "uint256"
        },
        {
          "internalType": "uint256",
          "name": "",
          "type": "uint256"
        }
      ],
      "name": "hasVoted",
      "outputs": [
        {
          "internalType": "bool",
          "name": "",
          "type": "bool"
        }
      ],
      "stateMutability": "view",
      "type": "function",
      "constant": true
    },
    {
      "inputs": [],
      "name": "name",
      "outputs": [
        {
          "internalType": "string",
          "name": "",
          "type": "string"
        }
      ],
      "stateMutability": "view",
      "type": "function",
      "constant": true
    },
    {
      "inputs": [
        {
          "internalType": "uint256",
          "name": "",
          "type": "uint256"
        }
      ],
      "name": "tokenIds",
      "outputs": [
        {
          "internalType": "uint256",
          "name": "",
          "type": "uint256"
        }
      ],
      "stateMutability": "view",
      "type": "function",
      "constant": true
    },
    {
      "inputs": [
        {
          "internalType": "uint256",
          "name": "pollId",
          "type": "uint256"
        }
      ],
      "name": "getPoll",
      "outputs": [
        {
          "components": [
            {
              "internalType": "uint256",
              "name": "id",
              "type": "uint256"
            },
            {
              "internalType": "string",
              "name": "issue",
              "type": "string"
            },
            {
              "internalType": "uint256[]",
              "name": "voters",
              "type": "uint256[]"
            },
            {
              "internalType": "string[]",
              "name": "options",
              "type": "string[]"
            },
            {
              "internalType": "uint256[]",
              "name": "results",
              "type": "uint256[]"
            },
            {
              "internalType": "int256",
              "name": "result",
              "type": "int256"
            }
          ],
          "internalType": "struct VotingContract.Poll",
          "name": "",
          "type": "tuple"
        }
      ],
      "stateMutability": "view",
      "type": "function",
      "constant": true
    },
    {
      "inputs": [],
      "name": "getPolls",
      "outputs": [
        {
          "components": [
            {
              "internalType": "uint256",
              "name": "id",
              "type": "uint256"
            },
            {
              "internalType": "string",
              "name": "issue",
              "type": "string"
            },
            {
              "internalType": "uint256[]",
              "name": "voters",
              "type": "uint256[]"
            },
            {
              "internalType": "string[]",
              "name": "options",
              "type": "string[]"
            },
            {
              "internalType": "uint256[]",
              "name": "results",
              "type": "uint256[]"
            },
            {
              "internalType": "int256",
              "name": "result",
              "type": "int256"
            }
          ],
          "internalType": "struct VotingContract.Poll[]",
          "name": "",
          "type": "tuple[]"
        }
      ],
      "stateMutability": "view",
      "type": "function",
      "constant": true
    },
    {
      "inputs": [
        {
          "internalType": "uint256",
          "name": "tokenId",
          "type": "uint256"
        }
      ],
      "name": "getTokenRef",
      "outputs": [
        {
          "components": [
            {
              "internalType": "uint256",
              "name": "tokenId",
              "type": "uint256"
            },
            {
              "internalType": "address",
              "name": "owner",
              "type": "address"
            },
            {
              "internalType": "bool",
              "name": "isAdmin",
              "type": "bool"
            }
          ],
          "internalType": "struct VotingContract.TokenRef",
          "name": "",
          "type": "tuple"
        }
      ],
      "stateMutability": "view",
      "type": "function",
      "constant": true
    },
    {
      "inputs": [],
      "name": "getTokenIds",
      "outputs": [
        {
          "internalType": "uint256[]",
          "name": "",
          "type": "uint256[]"
        }
      ],
      "stateMutability": "view",
      "type": "function",
      "constant": true
    },
    {
      "inputs": [
        {
          "internalType": "string",
          "name": "newName",
          "type": "string"
        }
      ],
      "name": "changeName",
      "outputs": [],
      "stateMutability": "nonpayable",
      "type": "function"
    },
    {
      "inputs": [
        {
          "internalType": "string",
          "name": "contractAddr",
          "type": "string"
        }
      ],
      "name": "generateAdmin",
      "outputs": [],
      "stateMutability": "nonpayable",
      "type": "function"
    },
    {
      "inputs": [
        {
          "internalType": "address",
          "name": "approved",
          "type": "address"
        },
        {
          "internalType": "string",
          "name": "contractAddr",
          "type": "string"
        }
      ],
      "name": "generateAccessToken",
      "outputs": [],
      "stateMutability": "nonpayable",
      "type": "function"
    },
    {
      "inputs": [
        {
          "internalType": "address",
          "name": "unapproved",
          "type": "address"
        }
      ],
      "name": "removeApprovedVoter",
      "outputs": [],
      "stateMutability": "nonpayable",
      "type": "function"
    },
    {
      "inputs": [
        {
          "internalType": "address",
          "name": "newAdmin",
          "type": "address"
        }
      ],
      "name": "updateAdmin",
      "outputs": [],
      "stateMutability": "nonpayable",
      "type": "function"
    },
    {
      "inputs": [
        {
          "internalType": "string",
          "name": "issue",
          "type": "string"
        },
        {
          "internalType": "string[]",
          "name": "_options",
          "type": "string[]"
        }
      ],
      "name": "createPoll",
      "outputs": [],
      "stateMutability": "nonpayable",
      "type": "function"
    },
    {
      "inputs": [
        {
          "internalType": "uint256",
          "name": "pollId",
          "type": "uint256"
        }
      ],
      "name": "deletePoll",
      "outputs": [],
      "stateMutability": "nonpayable",
      "type": "function"
    },
    {
      "inputs": [
        {
          "internalType": "uint256",
          "name": "pollId",
          "type": "uint256"
        },
        {
          "internalType": "uint256",
          "name": "optionId",
          "type": "uint256"
        }
      ],
      "name": "vote",
      "outputs": [],
      "stateMutability": "nonpayable",
      "type": "function"
    }
  ],
  "bytecode": "0x60806040523480156200001157600080fd5b5060405162004c2138038062004c218339818101604052810190620000379190620001de565b81600090805190602001906200004f92919062000099565b5080600660006101000a81548173ffffffffffffffffffffffffffffffffffffffff021916908373ffffffffffffffffffffffffffffffffffffffff160217905550505062000416565b828054620000a7906200030d565b90600052602060002090601f016020900481019282620000cb576000855562000117565b82601f10620000e657805160ff191683800117855562000117565b8280016001018555821562000117579182015b8281111562000116578251825591602001919060010190620000f9565b5b5090506200012691906200012a565b5090565b5b80821115620001455760008160009055506001016200012b565b5090565b6000620001606200015a846200026d565b62000244565b9050828152602081018484840111156200017f576200017e620003dc565b5b6200018c848285620002d7565b509392505050565b600081519050620001a581620003fc565b92915050565b600082601f830112620001c357620001c2620003d7565b5b8151620001d584826020860162000149565b91505092915050565b60008060408385031215620001f857620001f7620003e6565b5b600083015167ffffffffffffffff811115620002195762000218620003e1565b5b6200022785828601620001ab565b92505060206200023a8582860162000194565b9150509250929050565b60006200025062000263565b90506200025e828262000343565b919050565b6000604051905090565b600067ffffffffffffffff8211156200028b576200028a620003a8565b5b6200029682620003eb565b9050602081019050919050565b6000620002b082620002b7565b9050919050565b600073ffffffffffffffffffffffffffffffffffffffff82169050919050565b60005b83811015620002f7578082015181840152602081019050620002da565b8381111562000307576000848401525b50505050565b600060028204905060018216806200032657607f821691505b602082108114156200033d576200033c62000379565b5b50919050565b6200034e82620003eb565b810181811067ffffffffffffffff8211171562000370576200036f620003a8565b5b80604052505050565b7f4e487b7100000000000000000000000000000000000000000000000000000000600052602260045260246000fd5b7f4e487b7100000000000000000000000000000000000000000000000000000000600052604160045260246000fd5b600080fd5b600080fd5b600080fd5b600080fd5b6000601f19601f8301169050919050565b6200040781620002a3565b81146200041357600080fd5b50565b6147fb80620004266000396000f3fe608060405234801561001057600080fd5b50600436106100f55760003560e01c806364390ff111610097578063b384abef11610066578063b384abef14610270578063d58778d61461028c578063e2f273bd146102bc578063f674b24d146102d8576100f5565b806364390ff1146101ea57806367f718a91461021a5780637e3d71c314610238578063842f564a14610254576100f5565b80631f35b51d116100d35780631f35b51d1461016657806343148fb3146101825780635353a2d81461019e5780635544909a146101ba576100f5565b806306fdde03146100fa578063120fe89b146101185780631a8cbcaa14610136575b600080fd5b6101026102f4565b60405161010f9190613bf6565b60405180910390f35b610120610382565b60405161012d9190613b97565b60405180910390f35b610150600480360381019061014b91906133c0565b6106c2565b60405161015d9190613e38565b60405180910390f35b610180600480360381019061017b91906133c0565b610974565b005b61019c6004803603810190610197919061332e565b610c0a565b005b6101b860048036038101906101b3919061332e565b610f00565b005b6101d460048036038101906101cf91906133c0565b610f1a565b6040516101e19190613e5a565b60405180910390f35b61020460048036038101906101ff919061341a565b61103c565b6040516102119190613bdb565b60405180910390f35b61022261106b565b60405161022f9190613bb9565b60405180910390f35b610252600480360381019061024d91906132b2565b6110c3565b005b61026e60048036038101906102699190613256565b611454565b005b61028a6004803603810190610285919061341a565b611aa2565b005b6102a660048036038101906102a191906133c0565b611df3565b6040516102b39190613e75565b60405180910390f35b6102d660048036038101906102d19190613229565b611e17565b005b6102f260048036038101906102ed9190613229565b61224f565b005b6000805461030190614176565b80601f016020809104026020016040519081016040528092919081815260200182805461032d90614176565b801561037a5780601f1061034f5761010080835404028352916020019161037a565b820191906000526020600020905b81548152906001019060200180831161035d57829003601f168201915b505050505081565b6060600061038f336126b6565b90503373ffffffffffffffffffffffffffffffffffffffff166004600083815260200190815260200160002060010160009054906101000a900473ffffffffffffffffffffffffffffffffffffffff1673ffffffffffffffffffffffffffffffffffffffff1614610435576040517f08c379a000000000000000000000000000000000000000000000000000000000815260040161042c90613c38565b60405180910390fd5b6003805480602002602001604051908101604052809291908181526020016000905b828210156106b857838290600052602060002090600602016040518060c00160405290816000820154815260200160018201805461049490614176565b80601f01602080910402602001604051908101604052809291908181526020018280546104c090614176565b801561050d5780601f106104e25761010080835404028352916020019161050d565b820191906000526020600020905b8154815290600101906020018083116104f057829003601f168201915b505050505081526020016002820180548060200260200160405190810160405280929190818152602001828054801561056557602002820191906000526020600020905b815481526020019060010190808311610551575b5050505050815260200160038201805480602002602001604051908101604052809291908181526020016000905b8282101561063f5783829060005260206000200180546105b290614176565b80601f01602080910402602001604051908101604052809291908181526020018280546105de90614176565b801561062b5780601f106106005761010080835404028352916020019161062b565b820191906000526020600020905b81548152906001019060200180831161060e57829003601f168201915b505050505081526020019060010190610593565b5050505081526020016004820180548060200260200160405190810160405280929190818152602001828054801561069657602002820191906000526020600020905b815481526020019060010190808311610682575b5050505050815260200160058201548152505081526020019060010190610457565b5050505091505090565b6106ca612dd5565b6003805490508210610711576040517f08c379a000000000000000000000000000000000000000000000000000000000815260040161070890613cd8565b60405180910390fd5b60038281548110610725576107246142af565b5b90600052602060002090600602016040518060c00160405290816000820154815260200160018201805461075890614176565b80601f016020809104026020016040519081016040528092919081815260200182805461078490614176565b80156107d15780601f106107a6576101008083540402835291602001916107d1565b820191906000526020600020905b8154815290600101906020018083116107b457829003601f168201915b505050505081526020016002820180548060200260200160405190810160405280929190818152602001828054801561082957602002820191906000526020600020905b815481526020019060010190808311610815575b5050505050815260200160038201805480602002602001604051908101604052809291908181526020016000905b8282101561090357838290600052602060002001805461087690614176565b80601f01602080910402602001604051908101604052809291908181526020018280546108a290614176565b80156108ef5780601f106108c4576101008083540402835291602001916108ef565b820191906000526020600020905b8154815290600101906020018083116108d257829003601f168201915b505050505081526020019060010190610857565b5050505081526020016004820180548060200260200160405190810160405280929190818152602001828054801561095a57602002820191906000526020600020905b815481526020019060010190808311610946575b505050505081526020016005820154815250509050919050565b600061097f336126b6565b905060008110156109c5576040517f08c379a00000000000000000000000000000000000000000000000000000000081526004016109bc90613cb8565b60405180910390fd5b60016000815481106109da576109d96142af565b5b90600052602060002001548114610a26576040517f08c379a0000000000000000000000000000000000000000000000000000000008152600401610a1d90613cb8565b60405180910390fd5b600115156004600083815260200190815260200160002060010160149054906101000a900460ff16151514610a90576040517f08c379a0000000000000000000000000000000000000000000000000000000008152600401610a8790613cb8565b60405180910390fd5b6003805490508210610ad7576040517f08c379a0000000000000000000000000000000000000000000000000000000008152600401610ace90613d18565b60405180910390fd5b60006040518060400160405280600881526020017f5f5f3f3f2f2f3a3a0000000000000000000000000000000000000000000000008152509050610b19612dd5565b838160000181815250508181602001819052507ffffffffffffffffffffffffffffffffffffffffffffffffffffffffffffffffe8160a00181815250508060038581548110610b6b57610b6a6142af565b5b9060005260206000209060060201600082015181600001556020820151816001019080519060200190610b9f929190612e0b565b506040820151816002019080519060200190610bbc929190612e91565b506060820151816003019080519060200190610bd9929190612ede565b506080820151816004019080519060200190610bf6929190612e91565b5060a0820151816005015590505050505050565b600260009054906101000a900460ff1615610c5a576040517f08c379a0000000000000000000000000000000000000000000000000000000008152600401610c5190613d38565b60405180910390fd5b6000600660009054906101000a900473ffffffffffffffffffffffffffffffffffffffff1673ffffffffffffffffffffffffffffffffffffffff16633d02d0c933846040518363ffffffff1660e01b8152600401610cb9929190613b3e565b602060405180830381600087803b158015610cd357600080fd5b505af1158015610ce7573d6000803e3d6000fd5b505050506040513d601f19601f82011682018060405250810190610d0b91906133ed565b9050600060405180606001604052808381526020013373ffffffffffffffffffffffffffffffffffffffff16815260200160011515815250905080600460008481526020019081526020016000206000820151816000015560208201518160010160006101000a81548173ffffffffffffffffffffffffffffffffffffffff021916908373ffffffffffffffffffffffffffffffffffffffff16021790555060408201518160010160146101000a81548160ff0219169083151502179055509050506001600260006101000a81548160ff02191690831515021790555060018290806001815401808255809150506001900390600052602060002001600090919091909150557f82a09cc58c9cecf0eb61d8994283ec804165931801f8b77e42dcb3b556c5c5be8233600660009054906101000a900473ffffffffffffffffffffffffffffffffffffffff1673ffffffffffffffffffffffffffffffffffffffff1663c87b56dd866040518263ffffffff1660e01b8152600401610e8f9190613e75565b60006040518083038186803b158015610ea757600080fd5b505afa158015610ebb573d6000803e3d6000fd5b505050506040513d6000823e3d601f19601f82011682018060405250810190610ee49190613377565b604051610ef393929190613e90565b60405180910390a1505050565b8060009080519060200190610f16929190612e0b565b5050565b610f22612f3e565b600060046000848152602001908152602001600020604051806060016040529081600082015481526020016001820160009054906101000a900473ffffffffffffffffffffffffffffffffffffffff1673ffffffffffffffffffffffffffffffffffffffff1673ffffffffffffffffffffffffffffffffffffffff1681526020016001820160149054906101000a900460ff1615151515815250509050600073ffffffffffffffffffffffffffffffffffffffff16816020015173ffffffffffffffffffffffffffffffffffffffff161415611033576040517f08c379a000000000000000000000000000000000000000000000000000000000815260040161102a90613df8565b60405180910390fd5b80915050919050565b60056020528160005260406000206020528060005260406000206000915091509054906101000a900460ff1681565b606060018054806020026020016040519081016040528092919081815260200182805480156110b957602002820191906000526020600020905b8154815260200190600101908083116110a5575b5050505050905090565b60006110ce336126b6565b90506000811015611114576040517f08c379a000000000000000000000000000000000000000000000000000000000815260040161110b90613cb8565b60405180910390fd5b6001600081548110611129576111286142af565b5b90600052602060002001548114611175576040517f08c379a000000000000000000000000000000000000000000000000000000000815260040161116c90613cb8565b60405180910390fd5b600115156004600083815260200190815260200160002060010160149054906101000a900460ff161515146111df576040517f08c379a00000000000000000000000000000000000000000000000000000000081526004016111d690613cb8565b60405180910390fd5b838360008282905011611227576040517f08c379a000000000000000000000000000000000000000000000000000000000815260040161121e90613e18565b60405180910390fd5b600084511161126b576040517f08c379a000000000000000000000000000000000000000000000000000000000815260040161126290613d78565b60405180910390fd5b611273612dd5565b60038054905081600001818152505086868080601f016020809104026020016040519081016040528093929190818152602001838380828437600081840152601f19601f8201169050808301925050505050505081602001819052508481606001819052507fffffffffffffffffffffffffffffffffffffffffffffffffffffffffffffffff8160a0018181525050845167ffffffffffffffff81111561131d5761131c6142de565b5b60405190808252806020026020018201604052801561134b5781602001602082028036833780820191505090505b50816080018190525060038190806001815401808255809150506001900390600052602060002090600602016000909190919091506000820151816000015560208201518160010190805190602001906113a6929190612e0b565b5060408201518160020190805190602001906113c3929190612e91565b5060608201518160030190805190602001906113e0929190612ede565b5060808201518160040190805190602001906113fd929190612e91565b5060a0820151816005015550507f65d5ac2bf1bca69566bef1affdfca5bb37b9577fc0b3af4c7c4638225e67b39c81600001518260200151604051611443929190613ece565b60405180910390a150505050505050565b600061145f336126b6565b905060008110156114a5576040517f08c379a000000000000000000000000000000000000000000000000000000000815260040161149c90613cb8565b60405180910390fd5b60016000815481106114ba576114b96142af565b5b90600052602060002001548114611506576040517f08c379a00000000000000000000000000000000000000000000000000000000081526004016114fd90613cb8565b60405180910390fd5b600115156004600083815260200190815260200160002060010160149054906101000a900460ff16151514611570576040517f08c379a000000000000000000000000000000000000000000000000000000000815260040161156790613cb8565b60405180910390fd5b82600073ffffffffffffffffffffffffffffffffffffffff168173ffffffffffffffffffffffffffffffffffffffff1614156115e1576040517f08c379a00000000000000000000000000000000000000000000000000000000081526004016115d890613c18565b60405180910390fd5b600080600660009054906101000a900473ffffffffffffffffffffffffffffffffffffffff1673ffffffffffffffffffffffffffffffffffffffff166370a08231876040518263ffffffff1660e01b815260040161163f9190613aec565b60206040518083038186803b15801561165757600080fd5b505afa15801561166b573d6000803e3d6000fd5b505050506040513d601f19601f8201168201806040525081019061168f91906133ed565b905060005b818110156117d0576000600660009054906101000a900473ffffffffffffffffffffffffffffffffffffffff1673ffffffffffffffffffffffffffffffffffffffff16632f745c5989846040518363ffffffff1660e01b81526004016116fb929190613b6e565b60206040518083038186803b15801561171357600080fd5b505afa158015611727573d6000803e3d6000fd5b505050506040513d601f19601f8201168201806040525081019061174b91906133ed565b90508773ffffffffffffffffffffffffffffffffffffffff166004600083815260200190815260200160002060010160009054906101000a900473ffffffffffffffffffffffffffffffffffffffff1673ffffffffffffffffffffffffffffffffffffffff1614156117bc57600193505b5080806117c8906141d9565b915050611694565b508115611812576040517f08c379a000000000000000000000000000000000000000000000000000000000815260040161180990613d98565b60405180910390fd5b6000600660009054906101000a900473ffffffffffffffffffffffffffffffffffffffff1673ffffffffffffffffffffffffffffffffffffffff16633d02d0c988886040518363ffffffff1660e01b8152600401611871929190613b3e565b602060405180830381600087803b15801561188b57600080fd5b505af115801561189f573d6000803e3d6000fd5b505050506040513d601f19601f820116820180604052508101906118c391906133ed565b9050600060405180606001604052808381526020018973ffffffffffffffffffffffffffffffffffffffff16815260200160001515815250905080600460008481526020019081526020016000206000820151816000015560208201518160010160006101000a81548173ffffffffffffffffffffffffffffffffffffffff021916908373ffffffffffffffffffffffffffffffffffffffff16021790555060408201518160010160146101000a81548160ff02191690831515021790555090505060018290806001815401808255809150506001900390600052602060002001600090919091909150557f82a09cc58c9cecf0eb61d8994283ec804165931801f8b77e42dcb3b556c5c5be8289600660009054906101000a900473ffffffffffffffffffffffffffffffffffffffff1673ffffffffffffffffffffffffffffffffffffffff1663c87b56dd866040518263ffffffff1660e01b8152600401611a2c9190613e75565b60006040518083038186803b158015611a4457600080fd5b505afa158015611a58573d6000803e3d6000fd5b505050506040513d6000823e3d601f19601f82011682018060405250810190611a819190613377565b604051611a9093929190613e90565b60405180910390a15050505050505050565b6000611aad336126b6565b90503373ffffffffffffffffffffffffffffffffffffffff166004600083815260200190815260200160002060010160009054906101000a900473ffffffffffffffffffffffffffffffffffffffff1673ffffffffffffffffffffffffffffffffffffffff1614611b53576040517f08c379a0000000000000000000000000000000000000000000000000000000008152600401611b4a90613c38565b60405180910390fd5b6003805490508310611b9a576040517f08c379a0000000000000000000000000000000000000000000000000000000008152600401611b9190613d18565b60405180910390fd5b600060038481548110611bb057611baf6142af565b5b9060005260206000209060060201905080600301805490508310611c09576040517f08c379a0000000000000000000000000000000000000000000000000000000008152600401611c0090613d58565b60405180910390fd5b7fffffffffffffffffffffffffffffffffffffffffffffffffffffffffffffffff816005015414611c6f576040517f08c379a0000000000000000000000000000000000000000000000000000000008152600401611c6690613c98565b60405180910390fd5b6000611c7a336126b6565b905060056000828152602001908152602001600020600086815260200190815260200160002060009054906101000a900460ff1615611cee576040517f08c379a0000000000000000000000000000000000000000000000000000000008152600401611ce590613cf8565b60405180910390fd5b81600201819080600181540180825580915050600190039060005260206000200160009091909190915055816004018481548110611d2f57611d2e6142af565b5b906000526020600020016000815480929190611d4a906141d9565b9190505550600160056000838152602001908152602001600020600087815260200190815260200160002060006101000a81548160ff021916908315150217905550600060018054905083600201805490501415611dae57611dab86612980565b90505b7fe828180429d50fecc65a7389299b1bf5f97fd5bec6ca0b9648c35255ee0a11ab86863384604051611de39493929190613efe565b60405180910390a1505050505050565b60018181548110611e0357600080fd5b906000526020600020016000915090505481565b6000611e22336126b6565b90506000811015611e68576040517f08c379a0000000000000000000000000000000000000000000000000000000008152600401611e5f90613cb8565b60405180910390fd5b6001600081548110611e7d57611e7c6142af565b5b90600052602060002001548114611ec9576040517f08c379a0000000000000000000000000000000000000000000000000000000008152600401611ec090613cb8565b60405180910390fd5b600115156004600083815260200190815260200160002060010160149054906101000a900460ff16151514611f33576040517f08c379a0000000000000000000000000000000000000000000000000000000008152600401611f2a90613cb8565b60405180910390fd5b81600073ffffffffffffffffffffffffffffffffffffffff168173ffffffffffffffffffffffffffffffffffffffff161415611fa4576040517f08c379a0000000000000000000000000000000000000000000000000000000008152600401611f9b90613c18565b60405180910390fd5b3373ffffffffffffffffffffffffffffffffffffffff168373ffffffffffffffffffffffffffffffffffffffff161415612013576040517f08c379a000000000000000000000000000000000000000000000000000000000815260040161200a90613db8565b60405180910390fd5b600061201e846126b6565b90506000808213905080612067576040517f08c379a000000000000000000000000000000000000000000000000000000000815260040161205e90613c78565b60405180910390fd5b6000612072336126b6565b9050811561224757600660009054906101000a900473ffffffffffffffffffffffffffffffffffffffff1673ffffffffffffffffffffffffffffffffffffffff1663f5537ede3388846040518463ffffffff1660e01b81526004016120d993929190613b07565b600060405180830381600087803b1580156120f357600080fd5b505af1158015612107573d6000803e3d6000fd5b50505050600660009054906101000a900473ffffffffffffffffffffffffffffffffffffffff1673ffffffffffffffffffffffffffffffffffffffff1663f5537ede8733866040518463ffffffff1660e01b815260040161216a93929190613b07565b600060405180830381600087803b15801561218457600080fd5b505af1158015612198573d6000803e3d6000fd5b50505050856004600083815260200190815260200160002060010160006101000a81548173ffffffffffffffffffffffffffffffffffffffff021916908373ffffffffffffffffffffffffffffffffffffffff160217905550336004600085815260200190815260200160002060010160006101000a81548173ffffffffffffffffffffffffffffffffffffffff021916908373ffffffffffffffffffffffffffffffffffffffff1602179055505b505050505050565b600061225a336126b6565b905060008110156122a0576040517f08c379a000000000000000000000000000000000000000000000000000000000815260040161229790613cb8565b60405180910390fd5b60016000815481106122b5576122b46142af565b5b90600052602060002001548114612301576040517f08c379a00000000000000000000000000000000000000000000000000000000081526004016122f890613cb8565b60405180910390fd5b600115156004600083815260200190815260200160002060010160149054906101000a900460ff1615151461236b576040517f08c379a000000000000000000000000000000000000000000000000000000000815260040161236290613cb8565b60405180910390fd5b81600073ffffffffffffffffffffffffffffffffffffffff168173ffffffffffffffffffffffffffffffffffffffff1614156123dc576040517f08c379a00000000000000000000000000000000000000000000000000000000081526004016123d390613c18565b60405180910390fd5b3373ffffffffffffffffffffffffffffffffffffffff168373ffffffffffffffffffffffffffffffffffffffff16141561244b576040517f08c379a000000000000000000000000000000000000000000000000000000000815260040161244290613dd8565b60405180910390fd5b6000612456846126b6565b9050600073ffffffffffffffffffffffffffffffffffffffff166004600083815260200190815260200160002060010160009054906101000a900473ffffffffffffffffffffffffffffffffffffffff1673ffffffffffffffffffffffffffffffffffffffff1614156124fe576040517f08c379a00000000000000000000000000000000000000000000000000000000081526004016124f590613c58565b60405180910390fd5b600080600090505b600180549050811015612550578260018281548110612528576125276142af565b5b9060005260206000200154141561253d578091505b8080612548906141d9565b915050612506565b50600180808054905061256391906140ae565b81548110612574576125736142af565b5b906000526020600020015460018281548110612593576125926142af565b5b906000526020600020018190555060018054806125b3576125b2614280565b5b60019003818190600052602060002001600090559055600460008381526020019081526020016000206000808201600090556001820160006101000a81549073ffffffffffffffffffffffffffffffffffffffff02191690556001820160146101000a81549060ff02191690555050600660009054906101000a900473ffffffffffffffffffffffffffffffffffffffff1673ffffffffffffffffffffffffffffffffffffffff166342966c68836040518263ffffffff1660e01b815260040161267d9190613e75565b600060405180830381600087803b15801561269757600080fd5b505af11580156126ab573d6000803e3d6000fd5b505050505050505050565b600080600660009054906101000a900473ffffffffffffffffffffffffffffffffffffffff1673ffffffffffffffffffffffffffffffffffffffff166370a08231846040518263ffffffff1660e01b81526004016127149190613aec565b60206040518083038186803b15801561272c57600080fd5b505afa158015612740573d6000803e3d6000fd5b505050506040513d601f19601f8201168201806040525081019061276491906133ed565b905060007fffffffffffffffffffffffffffffffffffffffffffffffffffffffffffffffff905060005b82811015612975576000600660009054906101000a900473ffffffffffffffffffffffffffffffffffffffff1673ffffffffffffffffffffffffffffffffffffffff16632f745c5987846040518363ffffffff1660e01b81526004016127f5929190613b6e565b60206040518083038186803b15801561280d57600080fd5b505afa158015612821573d6000803e3d6000fd5b505050506040513d601f19601f8201168201806040525081019061284591906133ed565b90508573ffffffffffffffffffffffffffffffffffffffff166004600083815260200190815260200160002060010160009054906101000a900473ffffffffffffffffffffffffffffffffffffffff1673ffffffffffffffffffffffffffffffffffffffff16141561296157600660009054906101000a900473ffffffffffffffffffffffffffffffffffffffff1673ffffffffffffffffffffffffffffffffffffffff16632f745c5987846040518363ffffffff1660e01b815260040161290e929190613b6e565b60206040518083038186803b15801561292657600080fd5b505afa15801561293a573d6000803e3d6000fd5b505050506040513d601f19601f8201168201806040525081019061295e91906133ed565b92505b50808061296d906141d9565b91505061278e565b508092505050919050565b60008060038381548110612997576129966142af565b5b906000526020600020906006020190507fffffffffffffffffffffffffffffffffffffffffffffffffffffffffffffffff8160050154146129dc576000915050612dd0565b6001805490508160020180549050146129f9576000915050612dd0565b60008160040160018360030180549050612a1391906140ae565b81548110612a2457612a236142af565b5b90600052602060002001549050600080836003018054905067ffffffffffffffff811115612a5557612a546142de565b5b604051908082528060200260200182016040528015612a835781602001602082028036833780820191505090505b50905060005b8460040180549050811015612b245783856004018281548110612aaf57612aae6142af565b5b906000526020600020015410612b115780828481518110612ad357612ad26142af565b5b602002602001018181525050846004018181548110612af557612af46142af565b5b906000526020600020015493508280612b0d906141d9565b9350505b8080612b1c906141d9565b915050612a89565b506001821415612b5f5780600081518110612b4257612b416142af565b5b602002602001015184600501819055506001945050505050612dd0565b60008267ffffffffffffffff811115612b7b57612b7a6142de565b5b604051908082528060200260200182016040528015612bae57816020015b6060815260200190600190039081612b995790505b5090508267ffffffffffffffff811115612bcb57612bca6142de565b5b604051908082528060200260200182016040528015612bf95781602001602082028036833780820191505090505b50856004019080519060200190612c11929190612e91565b50606080866002019080519060200190612c2c929190612e91565b5060005b84811015612d2c5786600301848281518110612c4f57612c4e6142af565b5b602002602001015181548110612c6857612c676142af565b5b906000526020600020018054612c7d90614176565b80601f0160208091040260200160405190810160405280929190818152602001828054612ca990614176565b8015612cf65780601f10612ccb57610100808354040283529160200191612cf6565b820191906000526020600020905b815481529060010190602001808311612cd957829003601f168201915b5050505050838281518110612d0e57612d0d6142af565b5b60200260200101819052508080612d24906141d9565b915050612c30565b5060005b600180549050811015612dab5760006005600060018481548110612d5757612d566142af565b5b9060005260206000200154815260200190815260200160002060008b815260200190815260200160002060006101000a81548160ff0219169083151502179055508080612da3906141d9565b915050612d30565b5081866003019080519060200190612dc4929190612ede565b50600096505050505050505b919050565b6040518060c001604052806000815260200160608152602001606081526020016060815260200160608152602001600081525090565b828054612e1790614176565b90600052602060002090601f016020900481019282612e395760008555612e80565b82601f10612e5257805160ff1916838001178555612e80565b82800160010185558215612e80579182015b82811115612e7f578251825591602001919060010190612e64565b5b509050612e8d9190612f77565b5090565b828054828255906000526020600020908101928215612ecd579160200282015b82811115612ecc578251825591602001919060010190612eb1565b5b509050612eda9190612f77565b5090565b828054828255906000526020600020908101928215612f2d579160200282015b82811115612f2c578251829080519060200190612f1c929190612e0b565b5091602001919060010190612efe565b5b509050612f3a9190612f94565b5090565b604051806060016040528060008152602001600073ffffffffffffffffffffffffffffffffffffffff1681526020016000151581525090565b5b80821115612f90576000816000905550600101612f78565b5090565b5b80821115612fb45760008181612fab9190612fb8565b50600101612f95565b5090565b508054612fc490614176565b6000825580601f10612fd65750612ff5565b601f016020900490600052602060002090810190612ff49190612f77565b5b50565b600061300b61300684613f68565b613f43565b9050808382526020820190508285602086028201111561302e5761302d614317565b5b60005b8581101561307c57813567ffffffffffffffff81111561305457613053614312565b5b80860161306189826131a3565b85526020850194506020840193505050600181019050613031565b5050509392505050565b600061309961309484613f94565b613f43565b9050828152602081018484840111156130b5576130b461431c565b5b6130c0848285614134565b509392505050565b60006130db6130d684613f94565b613f43565b9050828152602081018484840111156130f7576130f661431c565b5b613102848285614143565b509392505050565b60008135905061311981614797565b92915050565b600082601f83011261313457613133614312565b5b8135613144848260208601612ff8565b91505092915050565b60008083601f84011261316357613162614312565b5b8235905067ffffffffffffffff8111156131805761317f61430d565b5b60208301915083600182028301111561319c5761319b614317565b5b9250929050565b600082601f8301126131b8576131b7614312565b5b81356131c8848260208601613086565b91505092915050565b600082601f8301126131e6576131e5614312565b5b81516131f68482602086016130c8565b91505092915050565b60008135905061320e816147ae565b92915050565b600081519050613223816147ae565b92915050565b60006020828403121561323f5761323e614326565b5b600061324d8482850161310a565b91505092915050565b6000806040838503121561326d5761326c614326565b5b600061327b8582860161310a565b925050602083013567ffffffffffffffff81111561329c5761329b614321565b5b6132a8858286016131a3565b9150509250929050565b6000806000604084860312156132cb576132ca614326565b5b600084013567ffffffffffffffff8111156132e9576132e8614321565b5b6132f58682870161314d565b9350935050602084013567ffffffffffffffff81111561331857613317614321565b5b6133248682870161311f565b9150509250925092565b60006020828403121561334457613343614326565b5b600082013567ffffffffffffffff81111561336257613361614321565b5b61336e848285016131a3565b91505092915050565b60006020828403121561338d5761338c614326565b5b600082015167ffffffffffffffff8111156133ab576133aa614321565b5b6133b7848285016131d1565b91505092915050565b6000602082840312156133d6576133d5614326565b5b60006133e4848285016131ff565b91505092915050565b60006020828403121561340357613402614326565b5b600061341184828501613214565b91505092915050565b6000806040838503121561343157613430614326565b5b600061343f858286016131ff565b9250506020613450858286016131ff565b9150509250929050565b6000613466838361368b565b905092915050565b600061347a8383613950565b905092915050565b600061348e8383613ace565b60208301905092915050565b6134a3816140e2565b82525050565b6134b2816140e2565b82525050565b60006134c382613ff5565b6134cd8185614048565b9350836020820285016134df85613fc5565b8060005b8581101561351b57848403895281516134fc858261345a565b945061350783614021565b925060208a019950506001810190506134e3565b50829750879550505050505092915050565b600061353882614000565b6135428185614059565b93508360208202850161355485613fd5565b8060005b858110156135905784840389528151613571858261346e565b945061357c8361402e565b925060208a01995050600181019050613558565b50829750879550505050505092915050565b60006135ad8261400b565b6135b7818561406a565b93506135c283613fe5565b8060005b838110156135f35781516135da8882613482565b97506135e58361403b565b9250506001810190506135c6565b5085935050505092915050565b600061360b8261400b565b613615818561407b565b935061362083613fe5565b8060005b838110156136515781516136388882613482565b97506136438361403b565b925050600181019050613624565b5085935050505092915050565b613667816140f4565b82525050565b613676816140f4565b82525050565b61368581614100565b82525050565b600061369682614016565b6136a0818561408c565b93506136b0818560208601614143565b6136b98161432b565b840191505092915050565b60006136cf82614016565b6136d9818561409d565b93506136e9818560208601614143565b6136f28161432b565b840191505092915050565b600061370a601e8361409d565b91506137158261433c565b602082019050919050565b600061372d60308361409d565b915061373882614365565b604082019050919050565b600061375060228361409d565b915061375b826143b4565b604082019050919050565b600061377360238361409d565b915061377e82614403565b604082019050919050565b6000613796602b8361409d565b91506137a182614452565b604082019050919050565b60006137b960228361409d565b91506137c4826144a1565b604082019050919050565b60006137dc600f8361409d565b91506137e7826144f0565b602082019050919050565b60006137ff601e8361409d565b915061380a82614519565b602082019050919050565b600061382260198361409d565b915061382d82614542565b602082019050919050565b600061384560268361409d565b91506138508261456b565b604082019050919050565b6000613868601b8361409d565b9150613873826145ba565b602082019050919050565b600061388b60238361409d565b9150613896826145e3565b604082019050919050565b60006138ae60288361409d565b91506138b982614632565b604082019050919050565b60006138d160268361409d565b91506138dc82614681565b604082019050919050565b60006138f4602b8361409d565b91506138ff826146d0565b604082019050919050565b6000613917600f8361409d565b91506139228261471f565b602082019050919050565b600061393a602a8361409d565b915061394582614748565b604082019050919050565b600060c0830160008301516139686000860182613ace565b5060208301518482036020860152613980828261368b565b9150506040830151848203604086015261399a82826135a2565b915050606083015184820360608601526139b482826134b8565b915050608083015184820360808601526139ce82826135a2565b91505060a08301516139e360a086018261367c565b508091505092915050565b600060c083016000830151613a066000860182613ace565b5060208301518482036020860152613a1e828261368b565b91505060408301518482036040860152613a3882826135a2565b91505060608301518482036060860152613a5282826134b8565b91505060808301518482036080860152613a6c82826135a2565b91505060a0830151613a8160a086018261367c565b508091505092915050565b606082016000820151613aa26000850182613ace565b506020820151613ab5602085018261349a565b506040820151613ac8604085018261365e565b50505050565b613ad78161412a565b82525050565b613ae68161412a565b82525050565b6000602082019050613b0160008301846134a9565b92915050565b6000606082019050613b1c60008301866134a9565b613b2960208301856134a9565b613b366040830184613add565b949350505050565b6000604082019050613b5360008301856134a9565b8181036020830152613b6581846136c4565b90509392505050565b6000604082019050613b8360008301856134a9565b613b906020830184613add565b9392505050565b60006020820190508181036000830152613bb1818461352d565b905092915050565b60006020820190508181036000830152613bd38184613600565b905092915050565b6000602082019050613bf0600083018461366d565b92915050565b60006020820190508181036000830152613c1081846136c4565b905092915050565b60006020820190508181036000830152613c31816136fd565b9050919050565b60006020820190508181036000830152613c5181613720565b9050919050565b60006020820190508181036000830152613c7181613743565b9050919050565b60006020820190508181036000830152613c9181613766565b9050919050565b60006020820190508181036000830152613cb181613789565b9050919050565b60006020820190508181036000830152613cd1816137ac565b9050919050565b60006020820190508181036000830152613cf1816137cf565b9050919050565b60006020820190508181036000830152613d11816137f2565b9050919050565b60006020820190508181036000830152613d3181613815565b9050919050565b60006020820190508181036000830152613d5181613838565b9050919050565b60006020820190508181036000830152613d718161385b565b9050919050565b60006020820190508181036000830152613d918161387e565b9050919050565b60006020820190508181036000830152613db1816138a1565b9050919050565b60006020820190508181036000830152613dd1816138c4565b9050919050565b60006020820190508181036000830152613df1816138e7565b9050919050565b60006020820190508181036000830152613e118161390a565b9050919050565b60006020820190508181036000830152613e318161392d565b9050919050565b60006020820190508181036000830152613e5281846139ee565b905092915050565b6000606082019050613e6f6000830184613a8c565b92915050565b6000602082019050613e8a6000830184613add565b92915050565b6000606082019050613ea56000830186613add565b613eb260208301856134a9565b8181036040830152613ec481846136c4565b9050949350505050565b6000604082019050613ee36000830185613add565b8181036020830152613ef581846136c4565b90509392505050565b6000608082019050613f136000830187613add565b613f206020830186613add565b613f2d60408301856134a9565b613f3a606083018461366d565b95945050505050565b6000613f4d613f5e565b9050613f5982826141a8565b919050565b6000604051905090565b600067ffffffffffffffff821115613f8357613f826142de565b5b602082029050602081019050919050565b600067ffffffffffffffff821115613faf57613fae6142de565b5b613fb88261432b565b9050602081019050919050565b6000819050602082019050919050565b6000819050602082019050919050565b6000819050602082019050919050565b600081519050919050565b600081519050919050565b600081519050919050565b600081519050919050565b6000602082019050919050565b6000602082019050919050565b6000602082019050919050565b600082825260208201905092915050565b600082825260208201905092915050565b600082825260208201905092915050565b600082825260208201905092915050565b600082825260208201905092915050565b600082825260208201905092915050565b60006140b98261412a565b91506140c48361412a565b9250828210156140d7576140d6614222565b5b828203905092915050565b60006140ed8261410a565b9050919050565b60008115159050919050565b6000819050919050565b600073ffffffffffffffffffffffffffffffffffffffff82169050919050565b6000819050919050565b82818337600083830152505050565b60005b83811015614161578082015181840152602081019050614146565b83811115614170576000848401525b50505050565b6000600282049050600182168061418e57607f821691505b602082108114156141a2576141a1614251565b5b50919050565b6141b18261432b565b810181811067ffffffffffffffff821117156141d0576141cf6142de565b5b80604052505050565b60006141e48261412a565b91507fffffffffffffffffffffffffffffffffffffffffffffffffffffffffffffffff82141561421757614216614222565b5b600182019050919050565b7f4e487b7100000000000000000000000000000000000000000000000000000000600052601160045260246000fd5b7f4e487b7100000000000000000000000000000000000000000000000000000000600052602260045260246000fd5b7f4e487b7100000000000000000000000000000000000000000000000000000000600052603160045260246000fd5b7f4e487b7100000000000000000000000000000000000000000000000000000000600052603260045260246000fd5b7f4e487b7100000000000000000000000000000000000000000000000000000000600052604160045260246000fd5b600080fd5b600080fd5b600080fd5b600080fd5b600080fd5b600080fd5b6000601f19601f8301169050919050565b7f412076616c69642061646472657373206d757374206265207061737365640000600082015250565b7f4d75737420686f6c6420616e2061636365737320746f6b656e20746f2070657260008201527f666f726d207468697320616374696f6e00000000000000000000000000000000602082015250565b7f43616e6e6f742072656d6f76652061206e6f6e2d6578697374696e6720746f6b60008201527f656e000000000000000000000000000000000000000000000000000000000000602082015250565b7f4e65772061646d696e206d757374206861766520616e2061636365737320746f60008201527f6b656e0000000000000000000000000000000000000000000000000000000000602082015250565b7f43616e6e6f74206361737420766f7465206f6e20616e20616c7265616479206460008201527f65636964656420706f6c6c000000000000000000000000000000000000000000602082015250565b7f4f6e6c792061646d696e206d617920706572666f726d2074686973206163746960008201527f6f6e000000000000000000000000000000000000000000000000000000000000602082015250565b7f496e76616c696420706f6c6c2069640000000000000000000000000000000000600082015250565b7f43616e6e6f7420766f7465206f6e2073616d6520706f6c6c2074776963650000600082015250565b7f4d757374207061737320612076616c696420706f6c6c20494400000000000000600082015250565b7f41646d696e20616c72656164792065786973747320666f72207468697320636f60008201527f6e74726163740000000000000000000000000000000000000000000000000000602082015250565b7f4d757374207061737320612076616c6964206f7074696f6e2049440000000000600082015250565b7f4f7074696f6e7320706172616d65746572206d757374206e6f7420626520656d60008201527f7074790000000000000000000000000000000000000000000000000000000000602082015250565b7f416e2061646472657373206d6179206f6e6c79206f776e206f6e65204163636560008201527f737320546f6b656e000000000000000000000000000000000000000000000000602082015250565b7f43616e6e6f74207265706c6163652061646d696e20776974682073616d65206160008201527f6464726573730000000000000000000000000000000000000000000000000000602082015250565b7f41646d696e206d6179206e6f742062652072656d6f7665642066726f6d20617060008201527f70726f766564206c697374000000000000000000000000000000000000000000602082015250565b7f496e76616c696420546f6b656e49440000000000000000000000000000000000600082015250565b7f537472696e6720706172616d65746572206d757374206265206f66206120766160008201527f6c6964206c656e67746800000000000000000000000000000000000000000000602082015250565b6147a0816140e2565b81146147ab57600080fd5b50565b6147b78161412a565b81146147c257600080fd5b5056fea2646970667358221220dc5b6052bf285fca9692321e61ad0ca05eb641c565512143fc41ef4cc171bfc564736f6c63430008060033",
  "immutableReferences": {},
  "source": "// SPDX-License-Identifier: UNLICENSED\npragma solidity ^0.8.6;\n\nimport \"./AccessToken.sol\";\n\ncontract VotingContract {\n\n    /* I figure having these events is good practice\n    but i'm not sure if there are more things I should \n    include to make it a complete event or whatever.\n    Still just a young padawan. */\n    event TokenCreated (\n        uint tokenId,\n        address owner,\n        string contractAddr\n    );\n\n    event PollCreated(\n        uint id,\n        string issue\n    );\n\n    event VoteCasted(\n        uint pollId,\n        uint optionId,\n        address voter,\n        bool decided\n    );\n\n    event Debug(\n        string description\n    );\n\n    // Admin can create multiple polls for their organization to vote on\n    /* I wanted to have a mapping of uint => OptionStruct\n    but could NOT get it to work so I'm working with a \n    more rudimentary approached. While not as sophisticated,\n    it works and that's what makes me happy. This is my first\n    real capstone project so I can't try and get too fancy */ \n    /* ^ this was when i was testing with a web3 instance of \n    votingContract. Now that I can test with an articfacts instance,\n    i might attempt this */\n    struct Poll {\n        uint id;\n        // issue on which voters are deciding on\n        string issue;\n        // Not even sure i need this votersArr tbh...\n        uint[] voters;\n        string[] options;\n        uint[] results;\n        // If -1, no result has been determined.\n        // If other number, index of option won.\n        int result;\n    }\n\n    struct TokenRef {\n        uint tokenId;\n        address owner;\n        bool isAdmin;\n    }\n    \n    string public name;\n    uint[] public tokenIds;\n    bool adminExists;\n    Poll[] polls;\n    mapping(uint => TokenRef) approvedTokens;\n    // stores whether token has voted in a particular poll\n    // mapping(tokenId => mapping(pollId => bool))\n    mapping(uint => mapping(uint => bool)) public hasVoted;\n    AccessToken accessToken;\n    \n\n    constructor(string memory _name, address tokenAddr) {\n        name = _name;\n        accessToken = AccessToken(tokenAddr);\n    }\n\n    function getPoll(uint pollId) external view returns(Poll memory) {\n        require(pollId < polls.length, \"Invalid poll id\");\n        return polls[pollId];\n    }\n\n    function getPolls() external view onlyApproved() returns(Poll[] memory ) {\n        return polls;\n    }\n\n    function getTokenRef(uint tokenId) external view returns(TokenRef memory){\n        TokenRef memory tokenRef = approvedTokens[tokenId];\n        require(tokenRef.owner != address(0), \"Invalid TokenID\");\n        return tokenRef;\n    }\n\n    function getTokenId(address owner) internal view returns(int) {\n        uint balanceOf = accessToken.balanceOf(owner);\n        int tokenId = -1;\n        for(uint i = 0; i < balanceOf; i++){\n            uint currentTokenId = accessToken.tokenOfOwnerByIndex(owner, i);\n            if(approvedTokens[currentTokenId].owner == owner){\n                tokenId = int(accessToken.tokenOfOwnerByIndex(owner, i));\n            }\n        }\n        return tokenId;\n    }\n\n    function getTokenIds() external view returns(uint[] memory) {\n        return tokenIds;\n    }\n\n    function changeName(string memory newName) external {\n        name = newName;\n    }\n\n    /* Would like the ability to generateAdmin within constructor but \n    because i need the votingContract's address in string format (for the tokenURI), \n    don't think it'll be possible */\n    function generateAdmin(string memory contractAddr) external {\n        require(!adminExists, \"Admin already exists for this contract\");\n        uint tokenId = accessToken.mintToken(msg.sender, contractAddr);\n        TokenRef memory ar = TokenRef(\n            tokenId,\n            msg.sender,\n            true\n        );\n        approvedTokens[tokenId] = ar;\n        adminExists = true;\n        tokenIds.push(tokenId);\n        emit TokenCreated(tokenId, msg.sender, accessToken.tokenURI(tokenId));\n    }\n\n\n    function generateAccessToken(address approved, string memory contractAddr) \n        external \n        onlyAdmin()\n        validAddress(approved) {\n            bool hasToken; \n            uint balanceOf = accessToken.balanceOf(approved);\n            for(uint i = 0; i < balanceOf; i++){\n                uint currentTokenId = accessToken.tokenOfOwnerByIndex(approved, i);\n                if(approvedTokens[currentTokenId].owner == approved){\n                    hasToken = true;\n                }\n            }\n            \n            /* Need to fix this check. Will make it so that address may only\n            have one access token per voting contract*/\n            require(!hasToken, \n                \"An address may only own one Access Token\");\n            uint tokenId = accessToken.mintToken(approved, contractAddr);\n            TokenRef memory ar = TokenRef(\n                tokenId,\n                approved,\n                false\n            );\n            approvedTokens[tokenId] = ar;\n            tokenIds.push(tokenId);\n            emit TokenCreated(tokenId, approved, accessToken.tokenURI(tokenId));\n    }\n\n    function removeApprovedVoter(address unapproved) external onlyAdmin() validAddress(unapproved) {                \n        require(unapproved != msg.sender, \"Admin may not be removed from approved list\");\n        \n        // checks if unapproved has an access token\n        int tokenId = getTokenId(unapproved);\n\n        require(approvedTokens[uint(tokenId)].owner != address(0), \n            \"Cannot remove a non-existing token\");\n\n\n        uint tokenIndex;\n        for(uint i = 0; i < tokenIds.length; i++){\n            if(tokenIds[i] == uint(tokenId)){\n                tokenIndex = i;\n            }\n        }\n        tokenIds[tokenIndex] = tokenIds[tokenIds.length - 1];\n        tokenIds.pop();\n\n        delete approvedTokens[uint(tokenId)];\n        accessToken.burn(uint(tokenId));\n    }\n\n    /* This updates who is the current admin. there may only be \n    one admin per VotingContract */\n    // Purposely requiring that newAdmin already holds an access token\n    function updateAdmin(address newAdmin) external onlyAdmin() validAddress(newAdmin) {\n        require(newAdmin != msg.sender, \"Cannot replace admin with same address\");\n\n        // Saves newAdmin's current tokenId\n        int tokenId = getTokenId(newAdmin);\n        // checks if newAdmin has an access token\n        bool newAdminIsApproved = tokenId > 0;\n        require(newAdminIsApproved, \n            \"New admin must have an access token\");\n\n        // Saves current admin's tokenId\n        int adminTokenId = getTokenId(msg.sender);\n\n        // newAdmin is added only if they are already an approved voter\n        // redundant check after the above require statement \n        if(newAdminIsApproved){\n            accessToken.transferToken(msg.sender, newAdmin, uint(adminTokenId));\n            accessToken.transferToken(newAdmin, msg.sender, uint(tokenId));\n\n            approvedTokens[uint(adminTokenId)].owner = newAdmin;\n            approvedTokens[uint(tokenId)].owner = msg.sender;\n        }\n    }\n\n    function createPoll(string calldata issue, string[] memory _options) \n        external \n        onlyAdmin()\n        stringLength(issue) {\n            require(_options.length > 0, \n                \"Options parameter must not be empty\");\n            Poll memory p;\n            p.id = polls.length;\n            p.issue = issue;\n            p.options = _options;\n            p.result = -1;\n            p.results = new uint[](_options.length);\n            \n            polls.push(p);\n            \n            emit PollCreated(p.id, p.issue);\n    }\n\n    /* poll will not _actually_ be deleted in order to discourage\n    admin from carelessly creating polls. poll data will be erased\n    but replaced with deleted-sig values */\n    function deletePoll(uint pollId) external onlyAdmin() {\n        // Need to require that poll hasn't already been decided\n        require(pollId < polls.length,\n            \"Must pass a valid poll ID\");\n        string memory deletedPollSignature = \"__??//::\";\n        /* I don't really need this right? solidity will automatically\n        receive pollId as an unsigned int... */\n        // require(pollId > 0,\n        //     \"Poll ID must be greater than 0\");\n        Poll memory p;\n        p.id = pollId;\n        p.issue = deletedPollSignature;\n        p.result = -2;\n\n        polls[pollId] = p;\n    }\n\n    function vote(uint pollId, uint optionId) external onlyApproved() {\n        require(pollId < polls.length, \n            \"Must pass a valid poll ID\");\n        Poll storage p = polls[pollId];\n        require(optionId < p.options.length, \n            \"Must pass a valid option ID\");\n        require(p.result == -1, \n            \"Cannot cast vote on an already decided poll\");\n\n        uint tokenId = uint(getTokenId(msg.sender)); \n        require(!hasVoted[tokenId][pollId], \n            \"Cannot vote on same poll twice\");\n\n        p.voters.push(tokenId);\n        p.results[optionId]++;\n        hasVoted[tokenId][pollId] = true;\n        bool decided = false;\n\n        if(p.voters.length == tokenIds.length){\n            decided = decideResult(pollId);\n        }\n        \n        emit VoteCasted(pollId, optionId, msg.sender, decided);\n    }\n\n    /* Should I require that a valid Poll ID is passed? \n    Would be redundant since vote() (the function that calls this)\n    already checks for a valid pollId  */\n    /* ^ I should require valid Poll ID if i ever decide to make poll\n    self-decide at a particular time frame */\n    function decideResult(uint pollId) internal returns(bool) {\n        Poll storage p = polls[pollId];\n        // Not sure if i should use a require, or the IF statement as I currently am\n        // require(!p.decided, \"This poll has already been decided\");\n        if(p.result != -1) {\n            return false;\n        }\n\n        /* Not sure if i want this. What if admin wants to decide a vote before\n        all approved vote? What if admin wants poll to be open\n        only during a particular time period? */\n        // require(p.voters.length == approved.length, \"All approved addresses must vote\");\n        if(p.voters.length != tokenIds.length) {\n            return false;\n        }\n\n        uint mostVotes = p.results[p.options.length - 1];\n        uint winners;\n        uint[] memory winnerIndexes = new uint[](p.options.length);\n        for(uint i = 0; i < p.results.length; i++){\n            /* \"should\" always work since this function won't be called\n            until someone casts a vote. will consider adding a check */ \n            if(p.results[i] >= mostVotes) {\n                winnerIndexes[winners] = i;\n                mostVotes = p.results[i];\n                winners++;\n            }\n        }\n        // winners should _technically_ always be greater than 0\n        if(winners == 1) {\n            p.result = int(winnerIndexes[0]);\n            return true;\n        // Do i need this else statement?\n        } else {\n            string[] memory newOptions = new string[](winners);\n            p.results = new uint[](winners);\n            uint[] memory votersArr;\n            p.voters = votersArr;\n            for(uint i = 0; i < winners; i++){\n                newOptions[i] = p.options[winnerIndexes[i]];\n            }\n            for(uint i = 0; i < tokenIds.length; i++){\n                hasVoted[tokenIds[i]][pollId] = false;\n            }\n            p.options = newOptions;\n\n            return false;\n        }\n    }\n\n    modifier onlyApproved() {\n        int tokenId = getTokenId(msg.sender);\n        require(approvedTokens[uint(tokenId)].owner == msg.sender,\n            \"Must hold an access token to perform this action\");\n        _;\n    }\n\n    modifier onlyAdmin() {\n        int tokenId = getTokenId(msg.sender);\n        // ensures user has a valid tokenId\n        require(uint(tokenId) >= 0,\n            \"Only admin may perform this action\");\n        // admin tokenID will always be the first lmnt in tokenIds array\n        require(uint(tokenId) == tokenIds[0], \n            \"Only admin may perform this action\");\n        require(approvedTokens[uint(tokenId)].isAdmin == true,\n            \"Only admin may perform this action\");\n        _;\n    }\n\n    modifier validAddress(address _address) {\n        require(_address != address(0),\"A valid address must be passed\");\n        _;\n    }\n\n    modifier stringLength(string calldata str) {\n        require(bytes(str).length > 0, \n            \"String parameter must be of a valid length\");\n        _;\n    }    \n}",
  "sourcePath": "/home/odon/code/bloc/self-directed/vote_per_organization/contracts/contracts/VotingContract.sol",
  "compiler": {
    "name": "solc",
    "version": "0.8.6+commit.11564f7e.Emscripten.clang"
  },
  "schemaVersion": "3.4.1",
  "updatedAt": "2021-08-21T00:09:57.385Z",
  "networkType": "ethereum",
  "devdoc": {
    "kind": "dev",
    "methods": {},
    "version": 1
  },
  "userdoc": {
    "kind": "user",
    "methods": {},
    "version": 1
  }
}