{
  "contractName": "VotingContract",
  "abi": [
    {
      "inputs": [
        {
          "internalType": "string",
          "name": "_name",
          "type": "string"
        },
        {
          "internalType": "address",
          "name": "tokenAddr",
          "type": "address"
        }
      ],
      "stateMutability": "nonpayable",
      "type": "constructor"
    },
    {
      "anonymous": false,
      "inputs": [
        {
          "indexed": false,
          "internalType": "string",
          "name": "description",
          "type": "string"
        }
      ],
      "name": "Debug",
      "type": "event"
    },
    {
      "anonymous": false,
      "inputs": [
        {
          "indexed": false,
          "internalType": "uint256",
          "name": "id",
          "type": "uint256"
        },
        {
          "indexed": false,
          "internalType": "string",
          "name": "issue",
          "type": "string"
        }
      ],
      "name": "PollCreated",
      "type": "event"
    },
    {
      "anonymous": false,
      "inputs": [
        {
          "indexed": false,
          "internalType": "uint256",
          "name": "tokenId",
          "type": "uint256"
        },
        {
          "indexed": false,
          "internalType": "address",
          "name": "owner",
          "type": "address"
        },
        {
          "indexed": false,
          "internalType": "string",
          "name": "contractAddr",
          "type": "string"
        }
      ],
      "name": "TokenCreated",
      "type": "event"
    },
    {
      "anonymous": false,
      "inputs": [
        {
          "indexed": false,
          "internalType": "uint256",
          "name": "pollId",
          "type": "uint256"
        },
        {
          "indexed": false,
          "internalType": "uint256",
          "name": "optionId",
          "type": "uint256"
        },
        {
          "indexed": false,
          "internalType": "address",
          "name": "voter",
          "type": "address"
        },
        {
          "indexed": false,
          "internalType": "bool",
          "name": "decided",
          "type": "bool"
        }
      ],
      "name": "VoteCasted",
      "type": "event"
    },
    {
      "inputs": [],
      "name": "name",
      "outputs": [
        {
          "internalType": "string",
          "name": "",
          "type": "string"
        }
      ],
      "stateMutability": "view",
      "type": "function",
      "constant": true
    },
    {
      "inputs": [
        {
          "internalType": "uint256",
          "name": "",
          "type": "uint256"
        }
      ],
      "name": "tokenIds",
      "outputs": [
        {
          "internalType": "uint256",
          "name": "",
          "type": "uint256"
        }
      ],
      "stateMutability": "view",
      "type": "function",
      "constant": true
    },
    {
      "inputs": [
        {
          "internalType": "uint256",
          "name": "pollId",
          "type": "uint256"
        }
      ],
      "name": "getPoll",
      "outputs": [
        {
          "components": [
            {
              "internalType": "uint256",
              "name": "id",
              "type": "uint256"
            },
            {
              "internalType": "string",
              "name": "issue",
              "type": "string"
            },
            {
              "internalType": "uint256[]",
              "name": "voters",
              "type": "uint256[]"
            },
            {
              "internalType": "string[]",
              "name": "options",
              "type": "string[]"
            },
            {
              "internalType": "uint256[]",
              "name": "results",
              "type": "uint256[]"
            },
            {
              "internalType": "int256",
              "name": "result",
              "type": "int256"
            }
          ],
          "internalType": "struct VotingContract.Poll",
          "name": "",
          "type": "tuple"
        }
      ],
      "stateMutability": "view",
      "type": "function",
      "constant": true
    },
    {
      "inputs": [],
      "name": "getPolls",
      "outputs": [
        {
          "components": [
            {
              "internalType": "uint256",
              "name": "id",
              "type": "uint256"
            },
            {
              "internalType": "string",
              "name": "issue",
              "type": "string"
            },
            {
              "internalType": "uint256[]",
              "name": "voters",
              "type": "uint256[]"
            },
            {
              "internalType": "string[]",
              "name": "options",
              "type": "string[]"
            },
            {
              "internalType": "uint256[]",
              "name": "results",
              "type": "uint256[]"
            },
            {
              "internalType": "int256",
              "name": "result",
              "type": "int256"
            }
          ],
          "internalType": "struct VotingContract.Poll[]",
          "name": "",
          "type": "tuple[]"
        }
      ],
      "stateMutability": "view",
      "type": "function",
      "constant": true
    },
    {
      "inputs": [
        {
          "internalType": "uint256",
          "name": "tokenId",
          "type": "uint256"
        }
      ],
      "name": "getTokenRef",
      "outputs": [
        {
          "components": [
            {
              "internalType": "uint256",
              "name": "tokenId",
              "type": "uint256"
            },
            {
              "internalType": "address",
              "name": "owner",
              "type": "address"
            },
            {
              "internalType": "bool",
              "name": "isAdmin",
              "type": "bool"
            }
          ],
          "internalType": "struct VotingContract.TokenRef",
          "name": "",
          "type": "tuple"
        }
      ],
      "stateMutability": "view",
      "type": "function",
      "constant": true
    },
    {
      "inputs": [],
      "name": "getTokenIds",
      "outputs": [
        {
          "internalType": "uint256[]",
          "name": "",
          "type": "uint256[]"
        }
      ],
      "stateMutability": "view",
      "type": "function",
      "constant": true
    },
    {
      "inputs": [
        {
          "internalType": "string",
          "name": "contractAddr",
          "type": "string"
        }
      ],
      "name": "generateAdmin",
      "outputs": [],
      "stateMutability": "nonpayable",
      "type": "function"
    },
    {
      "inputs": [
        {
          "internalType": "address",
          "name": "approved",
          "type": "address"
        },
        {
          "internalType": "string",
          "name": "contractAddr",
          "type": "string"
        }
      ],
      "name": "generateAccessToken",
      "outputs": [],
      "stateMutability": "nonpayable",
      "type": "function"
    },
    {
      "inputs": [
        {
          "internalType": "address",
          "name": "unapproved",
          "type": "address"
        }
      ],
      "name": "removeApprovedVoter",
      "outputs": [],
      "stateMutability": "nonpayable",
      "type": "function"
    },
    {
      "inputs": [
        {
          "internalType": "address",
          "name": "newAdmin",
          "type": "address"
        }
      ],
      "name": "updateAdmin",
      "outputs": [],
      "stateMutability": "nonpayable",
      "type": "function"
    },
    {
      "inputs": [
        {
          "internalType": "string",
          "name": "issue",
          "type": "string"
        },
        {
          "internalType": "string[]",
          "name": "_options",
          "type": "string[]"
        }
      ],
      "name": "createPoll",
      "outputs": [],
      "stateMutability": "nonpayable",
      "type": "function"
    },
    {
      "inputs": [
        {
          "internalType": "uint256",
          "name": "pollId",
          "type": "uint256"
        },
        {
          "internalType": "uint256",
          "name": "optionId",
          "type": "uint256"
        }
      ],
      "name": "vote",
      "outputs": [],
      "stateMutability": "nonpayable",
      "type": "function"
    }
  ],
  "bytecode": "0x60806040523480156200001157600080fd5b506040516200438d3803806200438d8339818101604052810190620000379190620001de565b81600090805190602001906200004f92919062000099565b5080600660006101000a81548173ffffffffffffffffffffffffffffffffffffffff021916908373ffffffffffffffffffffffffffffffffffffffff160217905550505062000416565b828054620000a7906200030d565b90600052602060002090601f016020900481019282620000cb576000855562000117565b82601f10620000e657805160ff191683800117855562000117565b8280016001018555821562000117579182015b8281111562000116578251825591602001919060010190620000f9565b5b5090506200012691906200012a565b5090565b5b80821115620001455760008160009055506001016200012b565b5090565b6000620001606200015a846200026d565b62000244565b9050828152602081018484840111156200017f576200017e620003dc565b5b6200018c848285620002d7565b509392505050565b600081519050620001a581620003fc565b92915050565b600082601f830112620001c357620001c2620003d7565b5b8151620001d584826020860162000149565b91505092915050565b60008060408385031215620001f857620001f7620003e6565b5b600083015167ffffffffffffffff811115620002195762000218620003e1565b5b6200022785828601620001ab565b92505060206200023a8582860162000194565b9150509250929050565b60006200025062000263565b90506200025e828262000343565b919050565b6000604051905090565b600067ffffffffffffffff8211156200028b576200028a620003a8565b5b6200029682620003eb565b9050602081019050919050565b6000620002b082620002b7565b9050919050565b600073ffffffffffffffffffffffffffffffffffffffff82169050919050565b60005b83811015620002f7578082015181840152602081019050620002da565b8381111562000307576000848401525b50505050565b600060028204905060018216806200032657607f821691505b602082108114156200033d576200033c62000379565b5b50919050565b6200034e82620003eb565b810181811067ffffffffffffffff8211171562000370576200036f620003a8565b5b80604052505050565b7f4e487b7100000000000000000000000000000000000000000000000000000000600052602260045260246000fd5b7f4e487b7100000000000000000000000000000000000000000000000000000000600052604160045260246000fd5b600080fd5b600080fd5b600080fd5b600080fd5b6000601f19601f8301169050919050565b6200040781620002a3565b81146200041357600080fd5b50565b613f6780620004266000396000f3fe608060405234801561001057600080fd5b50600436106100b45760003560e01c80637e3d71c3116100715780637e3d71c31461018f578063842f564a146101ab578063b384abef146101c7578063d58778d6146101e3578063e2f273bd14610213578063f674b24d1461022f576100b4565b806306fdde03146100b9578063120fe89b146100d75780631a8cbcaa146100f557806343148fb3146101255780635544909a1461014157806367f718a914610171575b600080fd5b6100c161024b565b6040516100ce9190613362565b60405180910390f35b6100df6102d9565b6040516100ec919061331e565b60405180910390f35b61010f600480360381019061010a9190612b47565b61065a565b60405161011c91906135a4565b60405180910390f35b61013f600480360381019061013a9190612ab5565b61090c565b005b61015b60048036038101906101569190612b47565b610c02565b60405161016891906135c6565b60405180910390f35b610179610d24565b6040516101869190613340565b60405180910390f35b6101a960048036038101906101a49190612a39565b610d7c565b005b6101c560048036038101906101c091906129dd565b6110ac565b005b6101e160048036038101906101dc9190612ba1565b611699565b005b6101fd60048036038101906101f89190612b47565b611a10565b60405161020a91906135e1565b60405180910390f35b61022d600480360381019061022891906129b0565b611a34565b005b610249600480360381019061024491906129b0565b611e0b565b005b60008054610258906138e2565b80601f0160208091040260200160405190810160405280929190818152602001828054610284906138e2565b80156102d15780601f106102a6576101008083540402835291602001916102d1565b820191906000526020600020905b8154815290600101906020018083116102b457829003601f168201915b505050505081565b60606000600660009054906101000a900473ffffffffffffffffffffffffffffffffffffffff1673ffffffffffffffffffffffffffffffffffffffff166370a08231336040518263ffffffff1660e01b81526004016103389190613273565b60206040518083038186803b15801561035057600080fd5b505afa158015610364573d6000803e3d6000fd5b505050506040513d601f19601f820116820180604052508101906103889190612b74565b9050600181146103cd576040517f08c379a00000000000000000000000000000000000000000000000000000000081526004016103c4906133a4565b60405180910390fd5b6003805480602002602001604051908101604052809291908181526020016000905b8282101561065057838290600052602060002090600602016040518060c00160405290816000820154815260200160018201805461042c906138e2565b80601f0160208091040260200160405190810160405280929190818152602001828054610458906138e2565b80156104a55780601f1061047a576101008083540402835291602001916104a5565b820191906000526020600020905b81548152906001019060200180831161048857829003601f168201915b50505050508152602001600282018054806020026020016040519081016040528092919081815260200182805480156104fd57602002820191906000526020600020905b8154815260200190600101908083116104e9575b5050505050815260200160038201805480602002602001604051908101604052809291908181526020016000905b828210156105d757838290600052602060002001805461054a906138e2565b80601f0160208091040260200160405190810160405280929190818152602001828054610576906138e2565b80156105c35780601f10610598576101008083540402835291602001916105c3565b820191906000526020600020905b8154815290600101906020018083116105a657829003601f168201915b50505050508152602001906001019061052b565b5050505081526020016004820180548060200260200160405190810160405280929190818152602001828054801561062e57602002820191906000526020600020905b81548152602001906001019080831161061a575b50505050508152602001600582015481525050815260200190600101906103ef565b5050505091505090565b61066261255c565b60038054905082106106a9576040517f08c379a00000000000000000000000000000000000000000000000000000000081526004016106a090613444565b60405180910390fd5b600382815481106106bd576106bc613a1b565b5b90600052602060002090600602016040518060c0016040529081600082015481526020016001820180546106f0906138e2565b80601f016020809104026020016040519081016040528092919081815260200182805461071c906138e2565b80156107695780601f1061073e57610100808354040283529160200191610769565b820191906000526020600020905b81548152906001019060200180831161074c57829003601f168201915b50505050508152602001600282018054806020026020016040519081016040528092919081815260200182805480156107c157602002820191906000526020600020905b8154815260200190600101908083116107ad575b5050505050815260200160038201805480602002602001604051908101604052809291908181526020016000905b8282101561089b57838290600052602060002001805461080e906138e2565b80601f016020809104026020016040519081016040528092919081815260200182805461083a906138e2565b80156108875780601f1061085c57610100808354040283529160200191610887565b820191906000526020600020905b81548152906001019060200180831161086a57829003601f168201915b5050505050815260200190600101906107ef565b505050508152602001600482018054806020026020016040519081016040528092919081815260200182805480156108f257602002820191906000526020600020905b8154815260200190600101908083116108de575b505050505081526020016005820154815250509050919050565b600260009054906101000a900460ff161561095c576040517f08c379a0000000000000000000000000000000000000000000000000000000008152600401610953906134a4565b60405180910390fd5b6000600660009054906101000a900473ffffffffffffffffffffffffffffffffffffffff1673ffffffffffffffffffffffffffffffffffffffff16633d02d0c933846040518363ffffffff1660e01b81526004016109bb9291906132c5565b602060405180830381600087803b1580156109d557600080fd5b505af11580156109e9573d6000803e3d6000fd5b505050506040513d601f19601f82011682018060405250810190610a0d9190612b74565b9050600060405180606001604052808381526020013373ffffffffffffffffffffffffffffffffffffffff16815260200160011515815250905080600460008481526020019081526020016000206000820151816000015560208201518160010160006101000a81548173ffffffffffffffffffffffffffffffffffffffff021916908373ffffffffffffffffffffffffffffffffffffffff16021790555060408201518160010160146101000a81548160ff0219169083151502179055509050506001600260006101000a81548160ff02191690831515021790555060018290806001815401808255809150506001900390600052602060002001600090919091909150557f82a09cc58c9cecf0eb61d8994283ec804165931801f8b77e42dcb3b556c5c5be8233600660009054906101000a900473ffffffffffffffffffffffffffffffffffffffff1673ffffffffffffffffffffffffffffffffffffffff1663c87b56dd866040518263ffffffff1660e01b8152600401610b9191906135e1565b60006040518083038186803b158015610ba957600080fd5b505afa158015610bbd573d6000803e3d6000fd5b505050506040513d6000823e3d601f19601f82011682018060405250810190610be69190612afe565b604051610bf5939291906135fc565b60405180910390a1505050565b610c0a612592565b600060046000848152602001908152602001600020604051806060016040529081600082015481526020016001820160009054906101000a900473ffffffffffffffffffffffffffffffffffffffff1673ffffffffffffffffffffffffffffffffffffffff1673ffffffffffffffffffffffffffffffffffffffff1681526020016001820160149054906101000a900460ff1615151515815250509050600073ffffffffffffffffffffffffffffffffffffffff16816020015173ffffffffffffffffffffffffffffffffffffffff161415610d1b576040517f08c379a0000000000000000000000000000000000000000000000000000000008152600401610d1290613564565b60405180910390fd5b80915050919050565b60606001805480602002602001604051908101604052809291908181526020018280548015610d7257602002820191906000526020600020905b815481526020019060010190808311610d5e575b5050505050905090565b6000610d87336121ae565b90506000811215610dcd576040517f08c379a0000000000000000000000000000000000000000000000000000000008152600401610dc490613424565b60405180910390fd5b600115156004600083815260200190815260200160002060010160149054906101000a900460ff16151514610e37576040517f08c379a0000000000000000000000000000000000000000000000000000000008152600401610e2e90613424565b60405180910390fd5b838360008282905011610e7f576040517f08c379a0000000000000000000000000000000000000000000000000000000008152600401610e7690613584565b60405180910390fd5b6000845111610ec3576040517f08c379a0000000000000000000000000000000000000000000000000000000008152600401610eba906134e4565b60405180910390fd5b610ecb61255c565b60038054905081600001818152505086868080601f016020809104026020016040519081016040528093929190818152602001838380828437600081840152601f19601f8201169050808301925050505050505081602001819052508481606001819052507fffffffffffffffffffffffffffffffffffffffffffffffffffffffffffffffff8160a0018181525050845167ffffffffffffffff811115610f7557610f74613a4a565b5b604051908082528060200260200182016040528015610fa35781602001602082028036833780820191505090505b5081608001819052506003819080600181540180825580915050600190039060005260206000209060060201600090919091909150600082015181600001556020820151816001019080519060200190610ffe9291906125cb565b50604082015181600201908051906020019061101b929190612651565b50606082015181600301908051906020019061103892919061269e565b506080820151816004019080519060200190611055929190612651565b5060a0820151816005015550507f65d5ac2bf1bca69566bef1affdfca5bb37b9577fc0b3af4c7c4638225e67b39c8160000151826020015160405161109b92919061363a565b60405180910390a150505050505050565b60006110b7336121ae565b905060008112156110fd576040517f08c379a00000000000000000000000000000000000000000000000000000000081526004016110f490613424565b60405180910390fd5b600115156004600083815260200190815260200160002060010160149054906101000a900460ff16151514611167576040517f08c379a000000000000000000000000000000000000000000000000000000000815260040161115e90613424565b60405180910390fd5b82600073ffffffffffffffffffffffffffffffffffffffff168173ffffffffffffffffffffffffffffffffffffffff1614156111d8576040517f08c379a00000000000000000000000000000000000000000000000000000000081526004016111cf90613384565b60405180910390fd5b600080600660009054906101000a900473ffffffffffffffffffffffffffffffffffffffff1673ffffffffffffffffffffffffffffffffffffffff166370a08231876040518263ffffffff1660e01b81526004016112369190613273565b60206040518083038186803b15801561124e57600080fd5b505afa158015611262573d6000803e3d6000fd5b505050506040513d601f19601f820116820180604052508101906112869190612b74565b905060005b818110156113c7576000600660009054906101000a900473ffffffffffffffffffffffffffffffffffffffff1673ffffffffffffffffffffffffffffffffffffffff16632f745c5989846040518363ffffffff1660e01b81526004016112f29291906132f5565b60206040518083038186803b15801561130a57600080fd5b505afa15801561131e573d6000803e3d6000fd5b505050506040513d601f19601f820116820180604052508101906113429190612b74565b90508773ffffffffffffffffffffffffffffffffffffffff166004600083815260200190815260200160002060010160009054906101000a900473ffffffffffffffffffffffffffffffffffffffff1673ffffffffffffffffffffffffffffffffffffffff1614156113b357600193505b5080806113bf90613945565b91505061128b565b508115611409576040517f08c379a000000000000000000000000000000000000000000000000000000000815260040161140090613504565b60405180910390fd5b6000600660009054906101000a900473ffffffffffffffffffffffffffffffffffffffff1673ffffffffffffffffffffffffffffffffffffffff16633d02d0c988886040518363ffffffff1660e01b81526004016114689291906132c5565b602060405180830381600087803b15801561148257600080fd5b505af1158015611496573d6000803e3d6000fd5b505050506040513d601f19601f820116820180604052508101906114ba9190612b74565b9050600060405180606001604052808381526020018973ffffffffffffffffffffffffffffffffffffffff16815260200160001515815250905080600460008481526020019081526020016000206000820151816000015560208201518160010160006101000a81548173ffffffffffffffffffffffffffffffffffffffff021916908373ffffffffffffffffffffffffffffffffffffffff16021790555060408201518160010160146101000a81548160ff02191690831515021790555090505060018290806001815401808255809150506001900390600052602060002001600090919091909150557f82a09cc58c9cecf0eb61d8994283ec804165931801f8b77e42dcb3b556c5c5be8289600660009054906101000a900473ffffffffffffffffffffffffffffffffffffffff1673ffffffffffffffffffffffffffffffffffffffff1663c87b56dd866040518263ffffffff1660e01b815260040161162391906135e1565b60006040518083038186803b15801561163b57600080fd5b505afa15801561164f573d6000803e3d6000fd5b505050506040513d6000823e3d601f19601f820116820180604052508101906116789190612afe565b604051611687939291906135fc565b60405180910390a15050505050505050565b6000600660009054906101000a900473ffffffffffffffffffffffffffffffffffffffff1673ffffffffffffffffffffffffffffffffffffffff166370a08231336040518263ffffffff1660e01b81526004016116f69190613273565b60206040518083038186803b15801561170e57600080fd5b505afa158015611722573d6000803e3d6000fd5b505050506040513d601f19601f820116820180604052508101906117469190612b74565b90506001811461178b576040517f08c379a0000000000000000000000000000000000000000000000000000000008152600401611782906133a4565b60405180910390fd5b60038054905083106117d2576040517f08c379a00000000000000000000000000000000000000000000000000000000081526004016117c990613484565b60405180910390fd5b6000600384815481106117e8576117e7613a1b565b5b9060005260206000209060060201905080600301805490508310611841576040517f08c379a0000000000000000000000000000000000000000000000000000000008152600401611838906134c4565b60405180910390fd5b7fffffffffffffffffffffffffffffffffffffffffffffffffffffffffffffffff8160050154146118a7576040517f08c379a000000000000000000000000000000000000000000000000000000000815260040161189e90613404565b60405180910390fd5b60006118b2336121ae565b905060056000828152602001908152602001600020600086815260200190815260200160002060009054906101000a900460ff1615611926576040517f08c379a000000000000000000000000000000000000000000000000000000000815260040161191d90613464565b60405180910390fd5b8160020181908060018154018082558091505060019003906000526020600020016000909190919091505581600401848154811061196757611966613a1b565b5b90600052602060002001600081548092919061198290613945565b9190505550600160056000838152602001908152602001600020600087815260200190815260200160002060006101000a81548160ff0219169083151502179055507fe828180429d50fecc65a7389299b1bf5f97fd5bec6ca0b9648c35255ee0a11ab8585336119f189612478565b604051611a01949392919061366a565b60405180910390a15050505050565b60018181548110611a2057600080fd5b906000526020600020016000915090505481565b6000611a3f336121ae565b90506000811215611a85576040517f08c379a0000000000000000000000000000000000000000000000000000000008152600401611a7c90613424565b60405180910390fd5b600115156004600083815260200190815260200160002060010160149054906101000a900460ff16151514611aef576040517f08c379a0000000000000000000000000000000000000000000000000000000008152600401611ae690613424565b60405180910390fd5b81600073ffffffffffffffffffffffffffffffffffffffff168173ffffffffffffffffffffffffffffffffffffffff161415611b60576040517f08c379a0000000000000000000000000000000000000000000000000000000008152600401611b5790613384565b60405180910390fd5b3373ffffffffffffffffffffffffffffffffffffffff168373ffffffffffffffffffffffffffffffffffffffff161415611bcf576040517f08c379a0000000000000000000000000000000000000000000000000000000008152600401611bc690613524565b60405180910390fd5b6000611bda846121ae565b90506000808213905080611c23576040517f08c379a0000000000000000000000000000000000000000000000000000000008152600401611c1a906133e4565b60405180910390fd5b6000611c2e336121ae565b90508115611e0357600660009054906101000a900473ffffffffffffffffffffffffffffffffffffffff1673ffffffffffffffffffffffffffffffffffffffff1663f5537ede3388846040518463ffffffff1660e01b8152600401611c959392919061328e565b600060405180830381600087803b158015611caf57600080fd5b505af1158015611cc3573d6000803e3d6000fd5b50505050600660009054906101000a900473ffffffffffffffffffffffffffffffffffffffff1673ffffffffffffffffffffffffffffffffffffffff1663f5537ede8733866040518463ffffffff1660e01b8152600401611d269392919061328e565b600060405180830381600087803b158015611d4057600080fd5b505af1158015611d54573d6000803e3d6000fd5b50505050856004600083815260200190815260200160002060010160006101000a81548173ffffffffffffffffffffffffffffffffffffffff021916908373ffffffffffffffffffffffffffffffffffffffff160217905550336004600085815260200190815260200160002060010160006101000a81548173ffffffffffffffffffffffffffffffffffffffff021916908373ffffffffffffffffffffffffffffffffffffffff1602179055505b505050505050565b6000611e16336121ae565b90506000811215611e5c576040517f08c379a0000000000000000000000000000000000000000000000000000000008152600401611e5390613424565b60405180910390fd5b600115156004600083815260200190815260200160002060010160149054906101000a900460ff16151514611ec6576040517f08c379a0000000000000000000000000000000000000000000000000000000008152600401611ebd90613424565b60405180910390fd5b81600073ffffffffffffffffffffffffffffffffffffffff168173ffffffffffffffffffffffffffffffffffffffff161415611f37576040517f08c379a0000000000000000000000000000000000000000000000000000000008152600401611f2e90613384565b60405180910390fd5b3373ffffffffffffffffffffffffffffffffffffffff168373ffffffffffffffffffffffffffffffffffffffff161415611fa6576040517f08c379a0000000000000000000000000000000000000000000000000000000008152600401611f9d90613544565b60405180910390fd5b6000611fb1846121ae565b905060008113611ff6576040517f08c379a0000000000000000000000000000000000000000000000000000000008152600401611fed906133c4565b60405180910390fd5b600660009054906101000a900473ffffffffffffffffffffffffffffffffffffffff1673ffffffffffffffffffffffffffffffffffffffff166342966c68826040518263ffffffff1660e01b815260040161205191906135e1565b600060405180830381600087803b15801561206b57600080fd5b505af115801561207f573d6000803e3d6000fd5b50505050600080600090505b6001805490508110156120d55782600182815481106120ad576120ac613a1b565b5b906000526020600020015414156120c2578091505b80806120cd90613945565b91505061208b565b5060018080805490506120e8919061381a565b815481106120f9576120f8613a1b565b5b90600052602060002001546001828154811061211857612117613a1b565b5b90600052602060002001819055506001805480612138576121376139ec565b5b60019003818190600052602060002001600090559055600460008381526020019081526020016000206000808201600090556001820160006101000a81549073ffffffffffffffffffffffffffffffffffffffff02191690556001820160146101000a81549060ff021916905550505050505050565b600080600660009054906101000a900473ffffffffffffffffffffffffffffffffffffffff1673ffffffffffffffffffffffffffffffffffffffff166370a08231846040518263ffffffff1660e01b815260040161220c9190613273565b60206040518083038186803b15801561222457600080fd5b505afa158015612238573d6000803e3d6000fd5b505050506040513d601f19601f8201168201806040525081019061225c9190612b74565b905060007fffffffffffffffffffffffffffffffffffffffffffffffffffffffffffffffff905060005b8281101561246d576000600660009054906101000a900473ffffffffffffffffffffffffffffffffffffffff1673ffffffffffffffffffffffffffffffffffffffff16632f745c5987846040518363ffffffff1660e01b81526004016122ed9291906132f5565b60206040518083038186803b15801561230557600080fd5b505afa158015612319573d6000803e3d6000fd5b505050506040513d601f19601f8201168201806040525081019061233d9190612b74565b90508573ffffffffffffffffffffffffffffffffffffffff166004600083815260200190815260200160002060010160009054906101000a900473ffffffffffffffffffffffffffffffffffffffff1673ffffffffffffffffffffffffffffffffffffffff16141561245957600660009054906101000a900473ffffffffffffffffffffffffffffffffffffffff1673ffffffffffffffffffffffffffffffffffffffff16632f745c5987846040518363ffffffff1660e01b81526004016124069291906132f5565b60206040518083038186803b15801561241e57600080fd5b505afa158015612432573d6000803e3d6000fd5b505050506040513d601f19601f820116820180604052508101906124569190612b74565b92505b50808061246590613945565b915050612286565b508092505050919050565b6000806003838154811061248f5761248e613a1b565b5b906000526020600020906006020190507fffffffffffffffffffffffffffffffffffffffffffffffffffffffffffffffff8160050154146124d4576000915050612557565b6001805490508160020180549050146124f1576000915050612557565b60008060005b8360040180549050811015612545578284600401828154811061251d5761251c613a1b565b5b90600052602060002001541115612532578091505b808061253d90613945565b9150506124f7565b50808360050181905550600193505050505b919050565b6040518060c001604052806000815260200160608152602001606081526020016060815260200160608152602001600081525090565b604051806060016040528060008152602001600073ffffffffffffffffffffffffffffffffffffffff1681526020016000151581525090565b8280546125d7906138e2565b90600052602060002090601f0160209004810192826125f95760008555612640565b82601f1061261257805160ff1916838001178555612640565b82800160010185558215612640579182015b8281111561263f578251825591602001919060010190612624565b5b50905061264d91906126fe565b5090565b82805482825590600052602060002090810192821561268d579160200282015b8281111561268c578251825591602001919060010190612671565b5b50905061269a91906126fe565b5090565b8280548282559060005260206000209081019282156126ed579160200282015b828111156126ec5782518290805190602001906126dc9291906125cb565b50916020019190600101906126be565b5b5090506126fa919061271b565b5090565b5b808211156127175760008160009055506001016126ff565b5090565b5b8082111561273b5760008181612732919061273f565b5060010161271c565b5090565b50805461274b906138e2565b6000825580601f1061275d575061277c565b601f01602090049060005260206000209081019061277b91906126fe565b5b50565b600061279261278d846136d4565b6136af565b905080838252602082019050828560208602820111156127b5576127b4613a83565b5b60005b8581101561280357813567ffffffffffffffff8111156127db576127da613a7e565b5b8086016127e8898261292a565b855260208501945060208401935050506001810190506127b8565b5050509392505050565b600061282061281b84613700565b6136af565b90508281526020810184848401111561283c5761283b613a88565b5b6128478482856138a0565b509392505050565b600061286261285d84613700565b6136af565b90508281526020810184848401111561287e5761287d613a88565b5b6128898482856138af565b509392505050565b6000813590506128a081613f03565b92915050565b600082601f8301126128bb576128ba613a7e565b5b81356128cb84826020860161277f565b91505092915050565b60008083601f8401126128ea576128e9613a7e565b5b8235905067ffffffffffffffff81111561290757612906613a79565b5b60208301915083600182028301111561292357612922613a83565b5b9250929050565b600082601f83011261293f5761293e613a7e565b5b813561294f84826020860161280d565b91505092915050565b600082601f83011261296d5761296c613a7e565b5b815161297d84826020860161284f565b91505092915050565b60008135905061299581613f1a565b92915050565b6000815190506129aa81613f1a565b92915050565b6000602082840312156129c6576129c5613a92565b5b60006129d484828501612891565b91505092915050565b600080604083850312156129f4576129f3613a92565b5b6000612a0285828601612891565b925050602083013567ffffffffffffffff811115612a2357612a22613a8d565b5b612a2f8582860161292a565b9150509250929050565b600080600060408486031215612a5257612a51613a92565b5b600084013567ffffffffffffffff811115612a7057612a6f613a8d565b5b612a7c868287016128d4565b9350935050602084013567ffffffffffffffff811115612a9f57612a9e613a8d565b5b612aab868287016128a6565b9150509250925092565b600060208284031215612acb57612aca613a92565b5b600082013567ffffffffffffffff811115612ae957612ae8613a8d565b5b612af58482850161292a565b91505092915050565b600060208284031215612b1457612b13613a92565b5b600082015167ffffffffffffffff811115612b3257612b31613a8d565b5b612b3e84828501612958565b91505092915050565b600060208284031215612b5d57612b5c613a92565b5b6000612b6b84828501612986565b91505092915050565b600060208284031215612b8a57612b89613a92565b5b6000612b988482850161299b565b91505092915050565b60008060408385031215612bb857612bb7613a92565b5b6000612bc685828601612986565b9250506020612bd785828601612986565b9150509250929050565b6000612bed8383612e12565b905092915050565b6000612c0183836130d7565b905092915050565b6000612c158383613255565b60208301905092915050565b612c2a8161384e565b82525050565b612c398161384e565b82525050565b6000612c4a82613761565b612c5481856137b4565b935083602082028501612c6685613731565b8060005b85811015612ca25784840389528151612c838582612be1565b9450612c8e8361378d565b925060208a01995050600181019050612c6a565b50829750879550505050505092915050565b6000612cbf8261376c565b612cc981856137c5565b935083602082028501612cdb85613741565b8060005b85811015612d175784840389528151612cf88582612bf5565b9450612d038361379a565b925060208a01995050600181019050612cdf565b50829750879550505050505092915050565b6000612d3482613777565b612d3e81856137d6565b9350612d4983613751565b8060005b83811015612d7a578151612d618882612c09565b9750612d6c836137a7565b925050600181019050612d4d565b5085935050505092915050565b6000612d9282613777565b612d9c81856137e7565b9350612da783613751565b8060005b83811015612dd8578151612dbf8882612c09565b9750612dca836137a7565b925050600181019050612dab565b5085935050505092915050565b612dee81613860565b82525050565b612dfd81613860565b82525050565b612e0c8161386c565b82525050565b6000612e1d82613782565b612e2781856137f8565b9350612e378185602086016138af565b612e4081613a97565b840191505092915050565b6000612e5682613782565b612e608185613809565b9350612e708185602086016138af565b612e7981613a97565b840191505092915050565b6000612e91601e83613809565b9150612e9c82613aa8565b602082019050919050565b6000612eb4603083613809565b9150612ebf82613ad1565b604082019050919050565b6000612ed7602283613809565b9150612ee282613b20565b604082019050919050565b6000612efa602383613809565b9150612f0582613b6f565b604082019050919050565b6000612f1d602b83613809565b9150612f2882613bbe565b604082019050919050565b6000612f40602283613809565b9150612f4b82613c0d565b604082019050919050565b6000612f63600f83613809565b9150612f6e82613c5c565b602082019050919050565b6000612f86601e83613809565b9150612f9182613c85565b602082019050919050565b6000612fa9601983613809565b9150612fb482613cae565b602082019050919050565b6000612fcc602683613809565b9150612fd782613cd7565b604082019050919050565b6000612fef601b83613809565b9150612ffa82613d26565b602082019050919050565b6000613012602383613809565b915061301d82613d4f565b604082019050919050565b6000613035602883613809565b915061304082613d9e565b604082019050919050565b6000613058602683613809565b915061306382613ded565b604082019050919050565b600061307b602b83613809565b915061308682613e3c565b604082019050919050565b600061309e600f83613809565b91506130a982613e8b565b602082019050919050565b60006130c1602a83613809565b91506130cc82613eb4565b604082019050919050565b600060c0830160008301516130ef6000860182613255565b50602083015184820360208601526131078282612e12565b915050604083015184820360408601526131218282612d29565b9150506060830151848203606086015261313b8282612c3f565b915050608083015184820360808601526131558282612d29565b91505060a083015161316a60a0860182612e03565b508091505092915050565b600060c08301600083015161318d6000860182613255565b50602083015184820360208601526131a58282612e12565b915050604083015184820360408601526131bf8282612d29565b915050606083015184820360608601526131d98282612c3f565b915050608083015184820360808601526131f38282612d29565b91505060a083015161320860a0860182612e03565b508091505092915050565b6060820160008201516132296000850182613255565b50602082015161323c6020850182612c21565b50604082015161324f6040850182612de5565b50505050565b61325e81613896565b82525050565b61326d81613896565b82525050565b60006020820190506132886000830184612c30565b92915050565b60006060820190506132a36000830186612c30565b6132b06020830185612c30565b6132bd6040830184613264565b949350505050565b60006040820190506132da6000830185612c30565b81810360208301526132ec8184612e4b565b90509392505050565b600060408201905061330a6000830185612c30565b6133176020830184613264565b9392505050565b600060208201905081810360008301526133388184612cb4565b905092915050565b6000602082019050818103600083015261335a8184612d87565b905092915050565b6000602082019050818103600083015261337c8184612e4b565b905092915050565b6000602082019050818103600083015261339d81612e84565b9050919050565b600060208201905081810360008301526133bd81612ea7565b9050919050565b600060208201905081810360008301526133dd81612eca565b9050919050565b600060208201905081810360008301526133fd81612eed565b9050919050565b6000602082019050818103600083015261341d81612f10565b9050919050565b6000602082019050818103600083015261343d81612f33565b9050919050565b6000602082019050818103600083015261345d81612f56565b9050919050565b6000602082019050818103600083015261347d81612f79565b9050919050565b6000602082019050818103600083015261349d81612f9c565b9050919050565b600060208201905081810360008301526134bd81612fbf565b9050919050565b600060208201905081810360008301526134dd81612fe2565b9050919050565b600060208201905081810360008301526134fd81613005565b9050919050565b6000602082019050818103600083015261351d81613028565b9050919050565b6000602082019050818103600083015261353d8161304b565b9050919050565b6000602082019050818103600083015261355d8161306e565b9050919050565b6000602082019050818103600083015261357d81613091565b9050919050565b6000602082019050818103600083015261359d816130b4565b9050919050565b600060208201905081810360008301526135be8184613175565b905092915050565b60006060820190506135db6000830184613213565b92915050565b60006020820190506135f66000830184613264565b92915050565b60006060820190506136116000830186613264565b61361e6020830185612c30565b81810360408301526136308184612e4b565b9050949350505050565b600060408201905061364f6000830185613264565b81810360208301526136618184612e4b565b90509392505050565b600060808201905061367f6000830187613264565b61368c6020830186613264565b6136996040830185612c30565b6136a66060830184612df4565b95945050505050565b60006136b96136ca565b90506136c58282613914565b919050565b6000604051905090565b600067ffffffffffffffff8211156136ef576136ee613a4a565b5b602082029050602081019050919050565b600067ffffffffffffffff82111561371b5761371a613a4a565b5b61372482613a97565b9050602081019050919050565b6000819050602082019050919050565b6000819050602082019050919050565b6000819050602082019050919050565b600081519050919050565b600081519050919050565b600081519050919050565b600081519050919050565b6000602082019050919050565b6000602082019050919050565b6000602082019050919050565b600082825260208201905092915050565b600082825260208201905092915050565b600082825260208201905092915050565b600082825260208201905092915050565b600082825260208201905092915050565b600082825260208201905092915050565b600061382582613896565b915061383083613896565b9250828210156138435761384261398e565b5b828203905092915050565b600061385982613876565b9050919050565b60008115159050919050565b6000819050919050565b600073ffffffffffffffffffffffffffffffffffffffff82169050919050565b6000819050919050565b82818337600083830152505050565b60005b838110156138cd5780820151818401526020810190506138b2565b838111156138dc576000848401525b50505050565b600060028204905060018216806138fa57607f821691505b6020821081141561390e5761390d6139bd565b5b50919050565b61391d82613a97565b810181811067ffffffffffffffff8211171561393c5761393b613a4a565b5b80604052505050565b600061395082613896565b91507fffffffffffffffffffffffffffffffffffffffffffffffffffffffffffffffff8214156139835761398261398e565b5b600182019050919050565b7f4e487b7100000000000000000000000000000000000000000000000000000000600052601160045260246000fd5b7f4e487b7100000000000000000000000000000000000000000000000000000000600052602260045260246000fd5b7f4e487b7100000000000000000000000000000000000000000000000000000000600052603160045260246000fd5b7f4e487b7100000000000000000000000000000000000000000000000000000000600052603260045260246000fd5b7f4e487b7100000000000000000000000000000000000000000000000000000000600052604160045260246000fd5b600080fd5b600080fd5b600080fd5b600080fd5b600080fd5b600080fd5b6000601f19601f8301169050919050565b7f412076616c69642061646472657373206d757374206265207061737365640000600082015250565b7f4d75737420686f6c6420616e2061636365737320746f6b656e20746f2070657260008201527f666f726d207468697320616374696f6e00000000000000000000000000000000602082015250565b7f43616e6e6f742072656d6f76652061206e6f6e2d6578697374696e6720746f6b60008201527f656e000000000000000000000000000000000000000000000000000000000000602082015250565b7f4e65772061646d696e206d757374206861766520616e2061636365737320746f60008201527f6b656e0000000000000000000000000000000000000000000000000000000000602082015250565b7f43616e6e6f74206361737420766f7465206f6e20616e20616c7265616479206460008201527f65636964656420706f6c6c000000000000000000000000000000000000000000602082015250565b7f4f6e6c792061646d696e206d617920706572666f726d2074686973206163746960008201527f6f6e000000000000000000000000000000000000000000000000000000000000602082015250565b7f496e76616c696420706f6c6c2069640000000000000000000000000000000000600082015250565b7f43616e6e6f7420766f7465206f6e2073616d6520706f6c6c2074776963650000600082015250565b7f4d757374207061737320612076616c696420706f6c6c20494400000000000000600082015250565b7f41646d696e20616c72656164792065786973747320666f72207468697320636f60008201527f6e74726163740000000000000000000000000000000000000000000000000000602082015250565b7f4d757374207061737320612076616c6964206f7074696f6e2049440000000000600082015250565b7f4f7074696f6e7320706172616d65746572206d757374206e6f7420626520656d60008201527f7074790000000000000000000000000000000000000000000000000000000000602082015250565b7f416e2061646472657373206d6179206f6e6c79206f776e206f6e65204163636560008201527f737320546f6b656e000000000000000000000000000000000000000000000000602082015250565b7f43616e6e6f74207265706c6163652061646d696e20776974682073616d65206160008201527f6464726573730000000000000000000000000000000000000000000000000000602082015250565b7f41646d696e206d6179206e6f742062652072656d6f7665642066726f6d20617060008201527f70726f766564206c697374000000000000000000000000000000000000000000602082015250565b7f496e76616c696420546f6b656e49440000000000000000000000000000000000600082015250565b7f537472696e6720706172616d65746572206d757374206265206f66206120766160008201527f6c6964206c656e67746800000000000000000000000000000000000000000000602082015250565b613f0c8161384e565b8114613f1757600080fd5b50565b613f2381613896565b8114613f2e57600080fd5b5056fea2646970667358221220433936c566fee00f69a3dcdf63582b6ca724d02b4185522bdf5aa1532c11722264736f6c63430008060033",
  "immutableReferences": {},
  "source": "// SPDX-License-Identifier: UNLICENSED\npragma solidity ^0.8.6;\n\nimport \"./AccessToken.sol\";\n\ncontract VotingContract {\n\n    /* I figure having these events is good practice\n    but i'm not sure if there are more things I should \n    include to make it a complete event or whatever.\n    Still just a young padawan. */\n    event TokenCreated (\n        uint tokenId,\n        address owner,\n        string contractAddr\n    );\n\n    event PollCreated(\n        uint id,\n        string issue\n    );\n\n    event VoteCasted(\n        uint pollId,\n        uint optionId,\n        address voter,\n        bool decided\n    );\n\n    event Debug(\n        string description\n    );\n\n    // Admin can create multiple polls for their organization to vote on\n    /* I wanted to have a mapping of uint => OptionStruct\n    but could NOT get it to work so I'm working with a \n    more rudimentary approached. While not as sophisticated,\n    it works and that's what makes me happy. This is my first\n    real capstone project so I can't try and get too fancy */ \n    /* ^ this was when i was testing with a web3 instance of \n    votingContract. Now that I can test with an articfacts instance,\n    i might attempt this */\n    struct Poll {\n        uint id;\n        // issue on which voters are deciding on\n        string issue;\n        uint[] voters;\n        string[] options;\n        uint[] results;\n        // If -1, no result has been determined.\n        // If other number, index of option won.\n        int result;\n    }\n\n    struct TokenRef {\n        uint tokenId;\n        address owner;\n        bool isAdmin;\n    }\n    \n    string public name;\n    uint[] public tokenIds;\n    bool adminExists;\n    Poll[] polls;\n    mapping(uint => TokenRef) approvedTokens;\n    // stores whether token has voted in a particular poll\n    // mapping(tokenId => mapping(pollId => bool))\n    mapping(uint => mapping(uint => bool)) hasVoted;\n    AccessToken accessToken;\n    \n\n    constructor(string memory _name, address tokenAddr) {\n        name = _name;\n        accessToken = AccessToken(tokenAddr);\n    }\n\n    function getPoll(uint pollId) external view returns(Poll memory) {\n        require(pollId < polls.length, \"Invalid poll id\");\n        return polls[pollId];\n    }\n\n    function getPolls() external view onlyApproved() returns(Poll[] memory ) {\n        return polls;\n    }\n\n    function getTokenRef(uint tokenId) external view returns(TokenRef memory){\n        TokenRef memory tokenRef = approvedTokens[tokenId];\n        require(tokenRef.owner != address(0), \"Invalid TokenID\");\n        return tokenRef;\n    }\n\n    function getTokenId(address owner) internal view returns(int) {\n        uint balanceOf = accessToken.balanceOf(owner);\n        int tokenId = -1;\n        for(uint i = 0; i < balanceOf; i++){\n            uint currentTokenId = accessToken.tokenOfOwnerByIndex(owner, i);\n            if(approvedTokens[currentTokenId].owner == owner){\n                tokenId = int(accessToken.tokenOfOwnerByIndex(owner, i));\n            }\n        }\n        return tokenId;\n    }\n\n    function getTokenIds() external view returns(uint[] memory) {\n        return tokenIds;\n    }\n\n    /* Would like the ability to generateAdmin within constructor but \n    because i need the votingContract's address in string format (for the tokenURI), \n    don't think it'll be possible */\n    function generateAdmin(string memory contractAddr) external {\n        require(!adminExists, \"Admin already exists for this contract\");\n        uint tokenId = accessToken.mintToken(msg.sender, contractAddr);\n        TokenRef memory ar = TokenRef(\n            tokenId,\n            msg.sender,\n            true\n        );\n        approvedTokens[tokenId] = ar;\n        adminExists = true;\n        tokenIds.push(tokenId);\n        emit TokenCreated(tokenId, msg.sender, accessToken.tokenURI(tokenId));\n    }\n\n\n    function generateAccessToken(address approved, string memory contractAddr) \n        external \n        onlyAdmin()\n        validAddress(approved) {\n            bool hasToken; \n            uint balanceOf = accessToken.balanceOf(approved);\n            for(uint i = 0; i < balanceOf; i++){\n                uint currentTokenId = accessToken.tokenOfOwnerByIndex(approved, i);\n                if(approvedTokens[currentTokenId].owner == approved){\n                    hasToken = true;\n                }\n            }\n            \n            /* Need to fix this check. Will make it so that address may only\n            have one access token per voting contract*/\n            require(!hasToken, \n                \"An address may only own one Access Token\");\n            uint tokenId = accessToken.mintToken(approved, contractAddr);\n            TokenRef memory ar = TokenRef(\n                tokenId,\n                approved,\n                false\n            );\n            approvedTokens[tokenId] = ar;\n            tokenIds.push(tokenId);\n            emit TokenCreated(tokenId, approved, accessToken.tokenURI(tokenId));\n    }\n\n    function removeApprovedVoter(address unapproved) external onlyAdmin() validAddress(unapproved) {                \n        require(unapproved != msg.sender, \"Admin may not be removed from approved list\");\n        \n        // checks if unapproved has an access token\n        int tokenId = getTokenId(unapproved);\n\n        require(tokenId > 0, \"Cannot remove a non-existing token\");\n\n        accessToken.burn(uint(tokenId));\n\n        uint tokenIndex;\n        for(uint i = 0; i < tokenIds.length; i++){\n            if(tokenIds[i] == uint(tokenId)){\n                tokenIndex = i;\n            }\n        }\n        tokenIds[tokenIndex] = tokenIds[tokenIds.length - 1];\n        tokenIds.pop();\n\n        delete approvedTokens[uint(tokenId)];\n    }\n\n    /* This updates who is the current admin. there may only be \n    one admin per VotingContract */\n    // Purposely requiring that newAdmin already holds an access token\n    function updateAdmin(address newAdmin) external onlyAdmin() validAddress(newAdmin) {\n        require(newAdmin != msg.sender, \"Cannot replace admin with same address\");\n\n        // Saves newAdmin's current tokenId\n        int tokenId = getTokenId(newAdmin);\n        // checks if newAdmin has an access token\n        bool newAdminIsApproved = tokenId > 0;\n        require(newAdminIsApproved, \n            \"New admin must have an access token\");\n\n        // Saves current admin's tokenId\n        int adminTokenId = getTokenId(msg.sender);\n\n        // newAdmin is added only if they are already an approved voter\n        // redundant check after the above require statement \n        if(newAdminIsApproved){\n            accessToken.transferToken(msg.sender, newAdmin, uint(adminTokenId));\n            accessToken.transferToken(newAdmin, msg.sender, uint(tokenId));\n\n            approvedTokens[uint(adminTokenId)].owner = newAdmin;\n            approvedTokens[uint(tokenId)].owner = msg.sender;\n        }\n    }\n\n    function createPoll(string calldata issue, string[] memory _options) \n        external \n        onlyAdmin()\n        stringLength(issue) {\n            require(_options.length > 0, \n                \"Options parameter must not be empty\");\n            Poll memory p;\n            p.id = polls.length;\n            p.issue = issue;\n            p.options = _options;\n            p.result = -1;\n            p.results = new uint[](_options.length);\n            \n            polls.push(p);\n            \n            emit PollCreated(p.id, p.issue);\n    }\n\n    function vote(uint pollId, uint optionId) external onlyApproved() {\n        require(pollId < polls.length, \n            \"Must pass a valid poll ID\");\n        Poll storage p = polls[pollId];\n        require(optionId < p.options.length, \n            \"Must pass a valid option ID\");\n        require(p.result == -1, \n            \"Cannot cast vote on an already decided poll\");\n\n        uint tokenId = uint(getTokenId(msg.sender)); \n        require(!hasVoted[tokenId][pollId], \n            \"Cannot vote on same poll twice\");\n\n        p.voters.push(tokenId);\n        p.results[optionId]++;\n        hasVoted[tokenId][pollId] = true;\n        \n        emit VoteCasted(pollId, optionId, msg.sender, decideResult(pollId));\n    }\n\n    /* Should I require that a valid Poll ID is passed? \n    Would be redundant since vote() (the function that calls this)\n    already checks for a valid pollId  */\n    // Need to handle draws.\n    /* On draw, I think i should reset poll, but only with the top options\n    (if 3 options got highest vote, then those three options remain, rest leave) */\n    function decideResult(uint pollId) internal returns(bool) {\n        Poll storage p = polls[pollId];\n        // Not sure if i should use a require, or the IF statement as I currently am\n        // require(!p.decided, \"This poll has already been decided\");\n        if(p.result != -1) {\n            return false;\n        }\n\n        /* Not sure if i want this. What if admin wants to decide a vote before\n        all approved vote? What if admin wants poll to be open\n        only during a particular time period? */\n        // require(p.voters.length == approved.length, \"All approved addresses must vote\");\n        if(p.voters.length != tokenIds.length) {\n            return false;\n        }\n\n        uint mostVotes;\n        uint winnerIndex;\n        for(uint i = 0; i < p.results.length; i++){\n            /* \"should\" always work since this function won't be called\n            until someone casts a vote. will consider adding a check */ \n            if(p.results[i] > mostVotes) {\n                winnerIndex = i;\n            }\n        }\n        p.result = int(winnerIndex);\n\n        return true;\n    }\n\n    modifier onlyApproved() {\n        uint balanceOf = accessToken.balanceOf(msg.sender);\n        require(balanceOf == 1,\n        \"Must hold an access token to perform this action\");\n        _;\n    }\n\n    modifier onlyAdmin() {\n        int tokenId = getTokenId(msg.sender);\n        require(tokenId >= 0, \n            \"Only admin may perform this action\");\n        require(approvedTokens[uint(tokenId)].isAdmin == true,\n            \"Only admin may perform this action\");\n        _;\n    }\n\n    modifier validAddress(address _address) {\n        require(_address != address(0),\"A valid address must be passed\");\n        _;\n    }\n\n    modifier stringLength(string calldata str) {\n        require(bytes(str).length > 0, \n            \"String parameter must be of a valid length\");\n        _;\n    }    \n}",
  "sourcePath": "/home/odon/code/bloc/self-directed/vote_per_organization/contracts/contracts/VotingContract.sol",
  "compiler": {
    "name": "solc",
    "version": "0.8.6+commit.11564f7e.Emscripten.clang"
  },
  "schemaVersion": "3.4.1",
  "updatedAt": "2021-08-15T00:03:55.411Z",
  "networkType": "ethereum",
  "devdoc": {
    "kind": "dev",
    "methods": {},
    "version": 1
  },
  "userdoc": {
    "kind": "user",
    "methods": {},
    "version": 1
  }
}