{
  "contractName": "VotingContract",
  "abi": [
    {
      "inputs": [
        {
          "internalType": "string",
          "name": "_name",
          "type": "string"
        },
        {
          "internalType": "address",
          "name": "tokenAddr",
          "type": "address"
        }
      ],
      "stateMutability": "nonpayable",
      "type": "constructor"
    },
    {
      "anonymous": false,
      "inputs": [
        {
          "indexed": false,
          "internalType": "string",
          "name": "description",
          "type": "string"
        }
      ],
      "name": "Debug",
      "type": "event"
    },
    {
      "anonymous": false,
      "inputs": [
        {
          "indexed": false,
          "internalType": "uint256",
          "name": "id",
          "type": "uint256"
        },
        {
          "indexed": false,
          "internalType": "string",
          "name": "issue",
          "type": "string"
        }
      ],
      "name": "PollCreated",
      "type": "event"
    },
    {
      "anonymous": false,
      "inputs": [
        {
          "indexed": false,
          "internalType": "uint256",
          "name": "tokenId",
          "type": "uint256"
        },
        {
          "indexed": false,
          "internalType": "address",
          "name": "owner",
          "type": "address"
        },
        {
          "indexed": false,
          "internalType": "string",
          "name": "contractAddr",
          "type": "string"
        }
      ],
      "name": "TokenCreated",
      "type": "event"
    },
    {
      "anonymous": false,
      "inputs": [
        {
          "indexed": false,
          "internalType": "uint256",
          "name": "pollId",
          "type": "uint256"
        },
        {
          "indexed": false,
          "internalType": "uint256",
          "name": "optionId",
          "type": "uint256"
        },
        {
          "indexed": false,
          "internalType": "address",
          "name": "voter",
          "type": "address"
        },
        {
          "indexed": false,
          "internalType": "bool",
          "name": "decided",
          "type": "bool"
        }
      ],
      "name": "VoteCasted",
      "type": "event"
    },
    {
      "inputs": [
        {
          "internalType": "uint256",
          "name": "",
          "type": "uint256"
        },
        {
          "internalType": "uint256",
          "name": "",
          "type": "uint256"
        }
      ],
      "name": "hasVoted",
      "outputs": [
        {
          "internalType": "bool",
          "name": "",
          "type": "bool"
        }
      ],
      "stateMutability": "view",
      "type": "function",
      "constant": true
    },
    {
      "inputs": [],
      "name": "name",
      "outputs": [
        {
          "internalType": "string",
          "name": "",
          "type": "string"
        }
      ],
      "stateMutability": "view",
      "type": "function",
      "constant": true
    },
    {
      "inputs": [
        {
          "internalType": "uint256",
          "name": "",
          "type": "uint256"
        }
      ],
      "name": "tokenIds",
      "outputs": [
        {
          "internalType": "uint256",
          "name": "",
          "type": "uint256"
        }
      ],
      "stateMutability": "view",
      "type": "function",
      "constant": true
    },
    {
      "inputs": [
        {
          "internalType": "uint256",
          "name": "pollId",
          "type": "uint256"
        }
      ],
      "name": "getPoll",
      "outputs": [
        {
          "components": [
            {
              "internalType": "uint256",
              "name": "id",
              "type": "uint256"
            },
            {
              "internalType": "string",
              "name": "issue",
              "type": "string"
            },
            {
              "internalType": "uint256[]",
              "name": "voters",
              "type": "uint256[]"
            },
            {
              "internalType": "string[]",
              "name": "options",
              "type": "string[]"
            },
            {
              "internalType": "uint256[]",
              "name": "results",
              "type": "uint256[]"
            },
            {
              "internalType": "int256",
              "name": "result",
              "type": "int256"
            }
          ],
          "internalType": "struct VotingContract.Poll",
          "name": "",
          "type": "tuple"
        }
      ],
      "stateMutability": "view",
      "type": "function",
      "constant": true
    },
    {
      "inputs": [],
      "name": "getPolls",
      "outputs": [
        {
          "components": [
            {
              "internalType": "uint256",
              "name": "id",
              "type": "uint256"
            },
            {
              "internalType": "string",
              "name": "issue",
              "type": "string"
            },
            {
              "internalType": "uint256[]",
              "name": "voters",
              "type": "uint256[]"
            },
            {
              "internalType": "string[]",
              "name": "options",
              "type": "string[]"
            },
            {
              "internalType": "uint256[]",
              "name": "results",
              "type": "uint256[]"
            },
            {
              "internalType": "int256",
              "name": "result",
              "type": "int256"
            }
          ],
          "internalType": "struct VotingContract.Poll[]",
          "name": "",
          "type": "tuple[]"
        }
      ],
      "stateMutability": "view",
      "type": "function",
      "constant": true
    },
    {
      "inputs": [
        {
          "internalType": "uint256",
          "name": "tokenId",
          "type": "uint256"
        }
      ],
      "name": "getTokenRef",
      "outputs": [
        {
          "components": [
            {
              "internalType": "uint256",
              "name": "tokenId",
              "type": "uint256"
            },
            {
              "internalType": "address",
              "name": "owner",
              "type": "address"
            },
            {
              "internalType": "bool",
              "name": "isAdmin",
              "type": "bool"
            }
          ],
          "internalType": "struct VotingContract.TokenRef",
          "name": "",
          "type": "tuple"
        }
      ],
      "stateMutability": "view",
      "type": "function",
      "constant": true
    },
    {
      "inputs": [],
      "name": "getTokenIds",
      "outputs": [
        {
          "internalType": "uint256[]",
          "name": "",
          "type": "uint256[]"
        }
      ],
      "stateMutability": "view",
      "type": "function",
      "constant": true
    },
    {
      "inputs": [
        {
          "internalType": "string",
          "name": "newName",
          "type": "string"
        }
      ],
      "name": "changeName",
      "outputs": [],
      "stateMutability": "nonpayable",
      "type": "function"
    },
    {
      "inputs": [
        {
          "internalType": "string",
          "name": "contractAddr",
          "type": "string"
        }
      ],
      "name": "generateAdmin",
      "outputs": [],
      "stateMutability": "nonpayable",
      "type": "function"
    },
    {
      "inputs": [
        {
          "internalType": "address",
          "name": "approved",
          "type": "address"
        },
        {
          "internalType": "string",
          "name": "contractAddr",
          "type": "string"
        }
      ],
      "name": "generateAccessToken",
      "outputs": [],
      "stateMutability": "nonpayable",
      "type": "function"
    },
    {
      "inputs": [
        {
          "internalType": "address",
          "name": "unapproved",
          "type": "address"
        }
      ],
      "name": "removeApprovedVoter",
      "outputs": [],
      "stateMutability": "nonpayable",
      "type": "function"
    },
    {
      "inputs": [
        {
          "internalType": "address",
          "name": "newAdmin",
          "type": "address"
        }
      ],
      "name": "updateAdmin",
      "outputs": [],
      "stateMutability": "nonpayable",
      "type": "function"
    },
    {
      "inputs": [
        {
          "internalType": "string",
          "name": "issue",
          "type": "string"
        },
        {
          "internalType": "string[]",
          "name": "_options",
          "type": "string[]"
        }
      ],
      "name": "createPoll",
      "outputs": [],
      "stateMutability": "nonpayable",
      "type": "function"
    },
    {
      "inputs": [
        {
          "internalType": "uint256",
          "name": "pollId",
          "type": "uint256"
        }
      ],
      "name": "deletePoll",
      "outputs": [],
      "stateMutability": "nonpayable",
      "type": "function"
    },
    {
      "inputs": [
        {
          "internalType": "uint256",
          "name": "pollId",
          "type": "uint256"
        },
        {
          "internalType": "uint256",
          "name": "optionId",
          "type": "uint256"
        }
      ],
      "name": "vote",
      "outputs": [],
      "stateMutability": "nonpayable",
      "type": "function"
    }
  ],
  "bytecode": "0x60806040523480156200001157600080fd5b5060405162004bbe38038062004bbe8339818101604052810190620000379190620001de565b81600090805190602001906200004f92919062000099565b5080600660006101000a81548173ffffffffffffffffffffffffffffffffffffffff021916908373ffffffffffffffffffffffffffffffffffffffff160217905550505062000416565b828054620000a7906200030d565b90600052602060002090601f016020900481019282620000cb576000855562000117565b82601f10620000e657805160ff191683800117855562000117565b8280016001018555821562000117579182015b8281111562000116578251825591602001919060010190620000f9565b5b5090506200012691906200012a565b5090565b5b80821115620001455760008160009055506001016200012b565b5090565b6000620001606200015a846200026d565b62000244565b9050828152602081018484840111156200017f576200017e620003dc565b5b6200018c848285620002d7565b509392505050565b600081519050620001a581620003fc565b92915050565b600082601f830112620001c357620001c2620003d7565b5b8151620001d584826020860162000149565b91505092915050565b60008060408385031215620001f857620001f7620003e6565b5b600083015167ffffffffffffffff811115620002195762000218620003e1565b5b6200022785828601620001ab565b92505060206200023a8582860162000194565b9150509250929050565b60006200025062000263565b90506200025e828262000343565b919050565b6000604051905090565b600067ffffffffffffffff8211156200028b576200028a620003a8565b5b6200029682620003eb565b9050602081019050919050565b6000620002b082620002b7565b9050919050565b600073ffffffffffffffffffffffffffffffffffffffff82169050919050565b60005b83811015620002f7578082015181840152602081019050620002da565b8381111562000307576000848401525b50505050565b600060028204905060018216806200032657607f821691505b602082108114156200033d576200033c62000379565b5b50919050565b6200034e82620003eb565b810181811067ffffffffffffffff8211171562000370576200036f620003a8565b5b80604052505050565b7f4e487b7100000000000000000000000000000000000000000000000000000000600052602260045260246000fd5b7f4e487b7100000000000000000000000000000000000000000000000000000000600052604160045260246000fd5b600080fd5b600080fd5b600080fd5b600080fd5b6000601f19601f8301169050919050565b6200040781620002a3565b81146200041357600080fd5b50565b61479880620004266000396000f3fe608060405234801561001057600080fd5b50600436106100f55760003560e01c806364390ff111610097578063b384abef11610066578063b384abef14610270578063d58778d61461028c578063e2f273bd146102bc578063f674b24d146102d8576100f5565b806364390ff1146101ea57806367f718a91461021a5780637e3d71c314610238578063842f564a14610254576100f5565b80631f35b51d116100d35780631f35b51d1461016657806343148fb3146101825780635353a2d81461019e5780635544909a146101ba576100f5565b806306fdde03146100fa578063120fe89b146101185780631a8cbcaa14610136575b600080fd5b6101026102f4565b60405161010f9190613b93565b60405180910390f35b610120610382565b60405161012d9190613b34565b60405180910390f35b610150600480360381019061014b919061335d565b6106c2565b60405161015d9190613dd5565b60405180910390f35b610180600480360381019061017b919061335d565b610974565b005b61019c600480360381019061019791906132cb565b610c0a565b005b6101b860048036038101906101b391906132cb565b610f00565b005b6101d460048036038101906101cf919061335d565b610f1a565b6040516101e19190613df7565b60405180910390f35b61020460048036038101906101ff91906133b7565b61103c565b6040516102119190613b78565b60405180910390f35b61022261106b565b60405161022f9190613b56565b60405180910390f35b610252600480360381019061024d919061324f565b6110c3565b005b61026e600480360381019061026991906131f3565b611454565b005b61028a600480360381019061028591906133b7565b611aa2565b005b6102a660048036038101906102a1919061335d565b611df3565b6040516102b39190613e12565b60405180910390f35b6102d660048036038101906102d191906131c6565b611e17565b005b6102f260048036038101906102ed91906131c6565b61224f565b005b6000805461030190614113565b80601f016020809104026020016040519081016040528092919081815260200182805461032d90614113565b801561037a5780601f1061034f5761010080835404028352916020019161037a565b820191906000526020600020905b81548152906001019060200180831161035d57829003601f168201915b505050505081565b6060600061038f33612653565b90503373ffffffffffffffffffffffffffffffffffffffff166004600083815260200190815260200160002060010160009054906101000a900473ffffffffffffffffffffffffffffffffffffffff1673ffffffffffffffffffffffffffffffffffffffff1614610435576040517f08c379a000000000000000000000000000000000000000000000000000000000815260040161042c90613bd5565b60405180910390fd5b6003805480602002602001604051908101604052809291908181526020016000905b828210156106b857838290600052602060002090600602016040518060c00160405290816000820154815260200160018201805461049490614113565b80601f01602080910402602001604051908101604052809291908181526020018280546104c090614113565b801561050d5780601f106104e25761010080835404028352916020019161050d565b820191906000526020600020905b8154815290600101906020018083116104f057829003601f168201915b505050505081526020016002820180548060200260200160405190810160405280929190818152602001828054801561056557602002820191906000526020600020905b815481526020019060010190808311610551575b5050505050815260200160038201805480602002602001604051908101604052809291908181526020016000905b8282101561063f5783829060005260206000200180546105b290614113565b80601f01602080910402602001604051908101604052809291908181526020018280546105de90614113565b801561062b5780601f106106005761010080835404028352916020019161062b565b820191906000526020600020905b81548152906001019060200180831161060e57829003601f168201915b505050505081526020019060010190610593565b5050505081526020016004820180548060200260200160405190810160405280929190818152602001828054801561069657602002820191906000526020600020905b815481526020019060010190808311610682575b5050505050815260200160058201548152505081526020019060010190610457565b5050505091505090565b6106ca612d72565b6003805490508210610711576040517f08c379a000000000000000000000000000000000000000000000000000000000815260040161070890613c75565b60405180910390fd5b600382815481106107255761072461424c565b5b90600052602060002090600602016040518060c00160405290816000820154815260200160018201805461075890614113565b80601f016020809104026020016040519081016040528092919081815260200182805461078490614113565b80156107d15780601f106107a6576101008083540402835291602001916107d1565b820191906000526020600020905b8154815290600101906020018083116107b457829003601f168201915b505050505081526020016002820180548060200260200160405190810160405280929190818152602001828054801561082957602002820191906000526020600020905b815481526020019060010190808311610815575b5050505050815260200160038201805480602002602001604051908101604052809291908181526020016000905b8282101561090357838290600052602060002001805461087690614113565b80601f01602080910402602001604051908101604052809291908181526020018280546108a290614113565b80156108ef5780601f106108c4576101008083540402835291602001916108ef565b820191906000526020600020905b8154815290600101906020018083116108d257829003601f168201915b505050505081526020019060010190610857565b5050505081526020016004820180548060200260200160405190810160405280929190818152602001828054801561095a57602002820191906000526020600020905b815481526020019060010190808311610946575b505050505081526020016005820154815250509050919050565b600061097f33612653565b905060008110156109c5576040517f08c379a00000000000000000000000000000000000000000000000000000000081526004016109bc90613c55565b60405180910390fd5b60016000815481106109da576109d961424c565b5b90600052602060002001548114610a26576040517f08c379a0000000000000000000000000000000000000000000000000000000008152600401610a1d90613c55565b60405180910390fd5b600115156004600083815260200190815260200160002060010160149054906101000a900460ff16151514610a90576040517f08c379a0000000000000000000000000000000000000000000000000000000008152600401610a8790613c55565b60405180910390fd5b6003805490508210610ad7576040517f08c379a0000000000000000000000000000000000000000000000000000000008152600401610ace90613cb5565b60405180910390fd5b60006040518060400160405280600881526020017f5f5f3f3f2f2f3a3a0000000000000000000000000000000000000000000000008152509050610b19612d72565b838160000181815250508181602001819052507ffffffffffffffffffffffffffffffffffffffffffffffffffffffffffffffffe8160a00181815250508060038581548110610b6b57610b6a61424c565b5b9060005260206000209060060201600082015181600001556020820151816001019080519060200190610b9f929190612da8565b506040820151816002019080519060200190610bbc929190612e2e565b506060820151816003019080519060200190610bd9929190612e7b565b506080820151816004019080519060200190610bf6929190612e2e565b5060a0820151816005015590505050505050565b600260009054906101000a900460ff1615610c5a576040517f08c379a0000000000000000000000000000000000000000000000000000000008152600401610c5190613cd5565b60405180910390fd5b6000600660009054906101000a900473ffffffffffffffffffffffffffffffffffffffff1673ffffffffffffffffffffffffffffffffffffffff16633d02d0c933846040518363ffffffff1660e01b8152600401610cb9929190613adb565b602060405180830381600087803b158015610cd357600080fd5b505af1158015610ce7573d6000803e3d6000fd5b505050506040513d601f19601f82011682018060405250810190610d0b919061338a565b9050600060405180606001604052808381526020013373ffffffffffffffffffffffffffffffffffffffff16815260200160011515815250905080600460008481526020019081526020016000206000820151816000015560208201518160010160006101000a81548173ffffffffffffffffffffffffffffffffffffffff021916908373ffffffffffffffffffffffffffffffffffffffff16021790555060408201518160010160146101000a81548160ff0219169083151502179055509050506001600260006101000a81548160ff02191690831515021790555060018290806001815401808255809150506001900390600052602060002001600090919091909150557f82a09cc58c9cecf0eb61d8994283ec804165931801f8b77e42dcb3b556c5c5be8233600660009054906101000a900473ffffffffffffffffffffffffffffffffffffffff1673ffffffffffffffffffffffffffffffffffffffff1663c87b56dd866040518263ffffffff1660e01b8152600401610e8f9190613e12565b60006040518083038186803b158015610ea757600080fd5b505afa158015610ebb573d6000803e3d6000fd5b505050506040513d6000823e3d601f19601f82011682018060405250810190610ee49190613314565b604051610ef393929190613e2d565b60405180910390a1505050565b8060009080519060200190610f16929190612da8565b5050565b610f22612edb565b600060046000848152602001908152602001600020604051806060016040529081600082015481526020016001820160009054906101000a900473ffffffffffffffffffffffffffffffffffffffff1673ffffffffffffffffffffffffffffffffffffffff1673ffffffffffffffffffffffffffffffffffffffff1681526020016001820160149054906101000a900460ff1615151515815250509050600073ffffffffffffffffffffffffffffffffffffffff16816020015173ffffffffffffffffffffffffffffffffffffffff161415611033576040517f08c379a000000000000000000000000000000000000000000000000000000000815260040161102a90613d95565b60405180910390fd5b80915050919050565b60056020528160005260406000206020528060005260406000206000915091509054906101000a900460ff1681565b606060018054806020026020016040519081016040528092919081815260200182805480156110b957602002820191906000526020600020905b8154815260200190600101908083116110a5575b5050505050905090565b60006110ce33612653565b90506000811015611114576040517f08c379a000000000000000000000000000000000000000000000000000000000815260040161110b90613c55565b60405180910390fd5b60016000815481106111295761112861424c565b5b90600052602060002001548114611175576040517f08c379a000000000000000000000000000000000000000000000000000000000815260040161116c90613c55565b60405180910390fd5b600115156004600083815260200190815260200160002060010160149054906101000a900460ff161515146111df576040517f08c379a00000000000000000000000000000000000000000000000000000000081526004016111d690613c55565b60405180910390fd5b838360008282905011611227576040517f08c379a000000000000000000000000000000000000000000000000000000000815260040161121e90613db5565b60405180910390fd5b600084511161126b576040517f08c379a000000000000000000000000000000000000000000000000000000000815260040161126290613d15565b60405180910390fd5b611273612d72565b60038054905081600001818152505086868080601f016020809104026020016040519081016040528093929190818152602001838380828437600081840152601f19601f8201169050808301925050505050505081602001819052508481606001819052507fffffffffffffffffffffffffffffffffffffffffffffffffffffffffffffffff8160a0018181525050845167ffffffffffffffff81111561131d5761131c61427b565b5b60405190808252806020026020018201604052801561134b5781602001602082028036833780820191505090505b50816080018190525060038190806001815401808255809150506001900390600052602060002090600602016000909190919091506000820151816000015560208201518160010190805190602001906113a6929190612da8565b5060408201518160020190805190602001906113c3929190612e2e565b5060608201518160030190805190602001906113e0929190612e7b565b5060808201518160040190805190602001906113fd929190612e2e565b5060a0820151816005015550507f65d5ac2bf1bca69566bef1affdfca5bb37b9577fc0b3af4c7c4638225e67b39c81600001518260200151604051611443929190613e6b565b60405180910390a150505050505050565b600061145f33612653565b905060008110156114a5576040517f08c379a000000000000000000000000000000000000000000000000000000000815260040161149c90613c55565b60405180910390fd5b60016000815481106114ba576114b961424c565b5b90600052602060002001548114611506576040517f08c379a00000000000000000000000000000000000000000000000000000000081526004016114fd90613c55565b60405180910390fd5b600115156004600083815260200190815260200160002060010160149054906101000a900460ff16151514611570576040517f08c379a000000000000000000000000000000000000000000000000000000000815260040161156790613c55565b60405180910390fd5b82600073ffffffffffffffffffffffffffffffffffffffff168173ffffffffffffffffffffffffffffffffffffffff1614156115e1576040517f08c379a00000000000000000000000000000000000000000000000000000000081526004016115d890613bb5565b60405180910390fd5b600080600660009054906101000a900473ffffffffffffffffffffffffffffffffffffffff1673ffffffffffffffffffffffffffffffffffffffff166370a08231876040518263ffffffff1660e01b815260040161163f9190613a89565b60206040518083038186803b15801561165757600080fd5b505afa15801561166b573d6000803e3d6000fd5b505050506040513d601f19601f8201168201806040525081019061168f919061338a565b905060005b818110156117d0576000600660009054906101000a900473ffffffffffffffffffffffffffffffffffffffff1673ffffffffffffffffffffffffffffffffffffffff16632f745c5989846040518363ffffffff1660e01b81526004016116fb929190613b0b565b60206040518083038186803b15801561171357600080fd5b505afa158015611727573d6000803e3d6000fd5b505050506040513d601f19601f8201168201806040525081019061174b919061338a565b90508773ffffffffffffffffffffffffffffffffffffffff166004600083815260200190815260200160002060010160009054906101000a900473ffffffffffffffffffffffffffffffffffffffff1673ffffffffffffffffffffffffffffffffffffffff1614156117bc57600193505b5080806117c890614176565b915050611694565b508115611812576040517f08c379a000000000000000000000000000000000000000000000000000000000815260040161180990613d35565b60405180910390fd5b6000600660009054906101000a900473ffffffffffffffffffffffffffffffffffffffff1673ffffffffffffffffffffffffffffffffffffffff16633d02d0c988886040518363ffffffff1660e01b8152600401611871929190613adb565b602060405180830381600087803b15801561188b57600080fd5b505af115801561189f573d6000803e3d6000fd5b505050506040513d601f19601f820116820180604052508101906118c3919061338a565b9050600060405180606001604052808381526020018973ffffffffffffffffffffffffffffffffffffffff16815260200160001515815250905080600460008481526020019081526020016000206000820151816000015560208201518160010160006101000a81548173ffffffffffffffffffffffffffffffffffffffff021916908373ffffffffffffffffffffffffffffffffffffffff16021790555060408201518160010160146101000a81548160ff02191690831515021790555090505060018290806001815401808255809150506001900390600052602060002001600090919091909150557f82a09cc58c9cecf0eb61d8994283ec804165931801f8b77e42dcb3b556c5c5be8289600660009054906101000a900473ffffffffffffffffffffffffffffffffffffffff1673ffffffffffffffffffffffffffffffffffffffff1663c87b56dd866040518263ffffffff1660e01b8152600401611a2c9190613e12565b60006040518083038186803b158015611a4457600080fd5b505afa158015611a58573d6000803e3d6000fd5b505050506040513d6000823e3d601f19601f82011682018060405250810190611a819190613314565b604051611a9093929190613e2d565b60405180910390a15050505050505050565b6000611aad33612653565b90503373ffffffffffffffffffffffffffffffffffffffff166004600083815260200190815260200160002060010160009054906101000a900473ffffffffffffffffffffffffffffffffffffffff1673ffffffffffffffffffffffffffffffffffffffff1614611b53576040517f08c379a0000000000000000000000000000000000000000000000000000000008152600401611b4a90613bd5565b60405180910390fd5b6003805490508310611b9a576040517f08c379a0000000000000000000000000000000000000000000000000000000008152600401611b9190613cb5565b60405180910390fd5b600060038481548110611bb057611baf61424c565b5b9060005260206000209060060201905080600301805490508310611c09576040517f08c379a0000000000000000000000000000000000000000000000000000000008152600401611c0090613cf5565b60405180910390fd5b7fffffffffffffffffffffffffffffffffffffffffffffffffffffffffffffffff816005015414611c6f576040517f08c379a0000000000000000000000000000000000000000000000000000000008152600401611c6690613c35565b60405180910390fd5b6000611c7a33612653565b905060056000828152602001908152602001600020600086815260200190815260200160002060009054906101000a900460ff1615611cee576040517f08c379a0000000000000000000000000000000000000000000000000000000008152600401611ce590613c95565b60405180910390fd5b81600201819080600181540180825580915050600190039060005260206000200160009091909190915055816004018481548110611d2f57611d2e61424c565b5b906000526020600020016000815480929190611d4a90614176565b9190505550600160056000838152602001908152602001600020600087815260200190815260200160002060006101000a81548160ff021916908315150217905550600060018054905083600201805490501415611dae57611dab8661291d565b90505b7fe828180429d50fecc65a7389299b1bf5f97fd5bec6ca0b9648c35255ee0a11ab86863384604051611de39493929190613e9b565b60405180910390a1505050505050565b60018181548110611e0357600080fd5b906000526020600020016000915090505481565b6000611e2233612653565b90506000811015611e68576040517f08c379a0000000000000000000000000000000000000000000000000000000008152600401611e5f90613c55565b60405180910390fd5b6001600081548110611e7d57611e7c61424c565b5b90600052602060002001548114611ec9576040517f08c379a0000000000000000000000000000000000000000000000000000000008152600401611ec090613c55565b60405180910390fd5b600115156004600083815260200190815260200160002060010160149054906101000a900460ff16151514611f33576040517f08c379a0000000000000000000000000000000000000000000000000000000008152600401611f2a90613c55565b60405180910390fd5b81600073ffffffffffffffffffffffffffffffffffffffff168173ffffffffffffffffffffffffffffffffffffffff161415611fa4576040517f08c379a0000000000000000000000000000000000000000000000000000000008152600401611f9b90613bb5565b60405180910390fd5b3373ffffffffffffffffffffffffffffffffffffffff168373ffffffffffffffffffffffffffffffffffffffff161415612013576040517f08c379a000000000000000000000000000000000000000000000000000000000815260040161200a90613d55565b60405180910390fd5b600061201e84612653565b90506000808213905080612067576040517f08c379a000000000000000000000000000000000000000000000000000000000815260040161205e90613c15565b60405180910390fd5b600061207233612653565b9050811561224757600660009054906101000a900473ffffffffffffffffffffffffffffffffffffffff1673ffffffffffffffffffffffffffffffffffffffff1663f5537ede3388846040518463ffffffff1660e01b81526004016120d993929190613aa4565b600060405180830381600087803b1580156120f357600080fd5b505af1158015612107573d6000803e3d6000fd5b50505050600660009054906101000a900473ffffffffffffffffffffffffffffffffffffffff1673ffffffffffffffffffffffffffffffffffffffff1663f5537ede8733866040518463ffffffff1660e01b815260040161216a93929190613aa4565b600060405180830381600087803b15801561218457600080fd5b505af1158015612198573d6000803e3d6000fd5b50505050856004600083815260200190815260200160002060010160006101000a81548173ffffffffffffffffffffffffffffffffffffffff021916908373ffffffffffffffffffffffffffffffffffffffff160217905550336004600085815260200190815260200160002060010160006101000a81548173ffffffffffffffffffffffffffffffffffffffff021916908373ffffffffffffffffffffffffffffffffffffffff1602179055505b505050505050565b600061225a33612653565b905060008110156122a0576040517f08c379a000000000000000000000000000000000000000000000000000000000815260040161229790613c55565b60405180910390fd5b60016000815481106122b5576122b461424c565b5b90600052602060002001548114612301576040517f08c379a00000000000000000000000000000000000000000000000000000000081526004016122f890613c55565b60405180910390fd5b600115156004600083815260200190815260200160002060010160149054906101000a900460ff1615151461236b576040517f08c379a000000000000000000000000000000000000000000000000000000000815260040161236290613c55565b60405180910390fd5b81600073ffffffffffffffffffffffffffffffffffffffff168173ffffffffffffffffffffffffffffffffffffffff1614156123dc576040517f08c379a00000000000000000000000000000000000000000000000000000000081526004016123d390613bb5565b60405180910390fd5b3373ffffffffffffffffffffffffffffffffffffffff168373ffffffffffffffffffffffffffffffffffffffff16141561244b576040517f08c379a000000000000000000000000000000000000000000000000000000000815260040161244290613d75565b60405180910390fd5b600061245684612653565b90506000811361249b576040517f08c379a000000000000000000000000000000000000000000000000000000000815260040161249290613bf5565b60405180910390fd5b600660009054906101000a900473ffffffffffffffffffffffffffffffffffffffff1673ffffffffffffffffffffffffffffffffffffffff166342966c68826040518263ffffffff1660e01b81526004016124f69190613e12565b600060405180830381600087803b15801561251057600080fd5b505af1158015612524573d6000803e3d6000fd5b50505050600080600090505b60018054905081101561257a5782600182815481106125525761255161424c565b5b90600052602060002001541415612567578091505b808061257290614176565b915050612530565b50600180808054905061258d919061404b565b8154811061259e5761259d61424c565b5b9060005260206000200154600182815481106125bd576125bc61424c565b5b906000526020600020018190555060018054806125dd576125dc61421d565b5b60019003818190600052602060002001600090559055600460008381526020019081526020016000206000808201600090556001820160006101000a81549073ffffffffffffffffffffffffffffffffffffffff02191690556001820160146101000a81549060ff021916905550505050505050565b600080600660009054906101000a900473ffffffffffffffffffffffffffffffffffffffff1673ffffffffffffffffffffffffffffffffffffffff166370a08231846040518263ffffffff1660e01b81526004016126b19190613a89565b60206040518083038186803b1580156126c957600080fd5b505afa1580156126dd573d6000803e3d6000fd5b505050506040513d601f19601f82011682018060405250810190612701919061338a565b905060007fffffffffffffffffffffffffffffffffffffffffffffffffffffffffffffffff905060005b82811015612912576000600660009054906101000a900473ffffffffffffffffffffffffffffffffffffffff1673ffffffffffffffffffffffffffffffffffffffff16632f745c5987846040518363ffffffff1660e01b8152600401612792929190613b0b565b60206040518083038186803b1580156127aa57600080fd5b505afa1580156127be573d6000803e3d6000fd5b505050506040513d601f19601f820116820180604052508101906127e2919061338a565b90508573ffffffffffffffffffffffffffffffffffffffff166004600083815260200190815260200160002060010160009054906101000a900473ffffffffffffffffffffffffffffffffffffffff1673ffffffffffffffffffffffffffffffffffffffff1614156128fe57600660009054906101000a900473ffffffffffffffffffffffffffffffffffffffff1673ffffffffffffffffffffffffffffffffffffffff16632f745c5987846040518363ffffffff1660e01b81526004016128ab929190613b0b565b60206040518083038186803b1580156128c357600080fd5b505afa1580156128d7573d6000803e3d6000fd5b505050506040513d601f19601f820116820180604052508101906128fb919061338a565b92505b50808061290a90614176565b91505061272b565b508092505050919050565b600080600383815481106129345761293361424c565b5b906000526020600020906006020190507fffffffffffffffffffffffffffffffffffffffffffffffffffffffffffffffff816005015414612979576000915050612d6d565b600180549050816002018054905014612996576000915050612d6d565b600081600401600183600301805490506129b0919061404b565b815481106129c1576129c061424c565b5b90600052602060002001549050600080836003018054905067ffffffffffffffff8111156129f2576129f161427b565b5b604051908082528060200260200182016040528015612a205781602001602082028036833780820191505090505b50905060005b8460040180549050811015612ac15783856004018281548110612a4c57612a4b61424c565b5b906000526020600020015410612aae5780828481518110612a7057612a6f61424c565b5b602002602001018181525050846004018181548110612a9257612a9161424c565b5b906000526020600020015493508280612aaa90614176565b9350505b8080612ab990614176565b915050612a26565b506001821415612afc5780600081518110612adf57612ade61424c565b5b602002602001015184600501819055506001945050505050612d6d565b60008267ffffffffffffffff811115612b1857612b1761427b565b5b604051908082528060200260200182016040528015612b4b57816020015b6060815260200190600190039081612b365790505b5090508267ffffffffffffffff811115612b6857612b6761427b565b5b604051908082528060200260200182016040528015612b965781602001602082028036833780820191505090505b50856004019080519060200190612bae929190612e2e565b50606080866002019080519060200190612bc9929190612e2e565b5060005b84811015612cc95786600301848281518110612bec57612beb61424c565b5b602002602001015181548110612c0557612c0461424c565b5b906000526020600020018054612c1a90614113565b80601f0160208091040260200160405190810160405280929190818152602001828054612c4690614113565b8015612c935780601f10612c6857610100808354040283529160200191612c93565b820191906000526020600020905b815481529060010190602001808311612c7657829003601f168201915b5050505050838281518110612cab57612caa61424c565b5b60200260200101819052508080612cc190614176565b915050612bcd565b5060005b600180549050811015612d485760006005600060018481548110612cf457612cf361424c565b5b9060005260206000200154815260200190815260200160002060008b815260200190815260200160002060006101000a81548160ff0219169083151502179055508080612d4090614176565b915050612ccd565b5081866003019080519060200190612d61929190612e7b565b50600096505050505050505b919050565b6040518060c001604052806000815260200160608152602001606081526020016060815260200160608152602001600081525090565b828054612db490614113565b90600052602060002090601f016020900481019282612dd65760008555612e1d565b82601f10612def57805160ff1916838001178555612e1d565b82800160010185558215612e1d579182015b82811115612e1c578251825591602001919060010190612e01565b5b509050612e2a9190612f14565b5090565b828054828255906000526020600020908101928215612e6a579160200282015b82811115612e69578251825591602001919060010190612e4e565b5b509050612e779190612f14565b5090565b828054828255906000526020600020908101928215612eca579160200282015b82811115612ec9578251829080519060200190612eb9929190612da8565b5091602001919060010190612e9b565b5b509050612ed79190612f31565b5090565b604051806060016040528060008152602001600073ffffffffffffffffffffffffffffffffffffffff1681526020016000151581525090565b5b80821115612f2d576000816000905550600101612f15565b5090565b5b80821115612f515760008181612f489190612f55565b50600101612f32565b5090565b508054612f6190614113565b6000825580601f10612f735750612f92565b601f016020900490600052602060002090810190612f919190612f14565b5b50565b6000612fa8612fa384613f05565b613ee0565b90508083825260208201905082856020860282011115612fcb57612fca6142b4565b5b60005b8581101561301957813567ffffffffffffffff811115612ff157612ff06142af565b5b808601612ffe8982613140565b85526020850194506020840193505050600181019050612fce565b5050509392505050565b600061303661303184613f31565b613ee0565b905082815260208101848484011115613052576130516142b9565b5b61305d8482856140d1565b509392505050565b600061307861307384613f31565b613ee0565b905082815260208101848484011115613094576130936142b9565b5b61309f8482856140e0565b509392505050565b6000813590506130b681614734565b92915050565b600082601f8301126130d1576130d06142af565b5b81356130e1848260208601612f95565b91505092915050565b60008083601f840112613100576130ff6142af565b5b8235905067ffffffffffffffff81111561311d5761311c6142aa565b5b602083019150836001820283011115613139576131386142b4565b5b9250929050565b600082601f830112613155576131546142af565b5b8135613165848260208601613023565b91505092915050565b600082601f830112613183576131826142af565b5b8151613193848260208601613065565b91505092915050565b6000813590506131ab8161474b565b92915050565b6000815190506131c08161474b565b92915050565b6000602082840312156131dc576131db6142c3565b5b60006131ea848285016130a7565b91505092915050565b6000806040838503121561320a576132096142c3565b5b6000613218858286016130a7565b925050602083013567ffffffffffffffff811115613239576132386142be565b5b61324585828601613140565b9150509250929050565b600080600060408486031215613268576132676142c3565b5b600084013567ffffffffffffffff811115613286576132856142be565b5b613292868287016130ea565b9350935050602084013567ffffffffffffffff8111156132b5576132b46142be565b5b6132c1868287016130bc565b9150509250925092565b6000602082840312156132e1576132e06142c3565b5b600082013567ffffffffffffffff8111156132ff576132fe6142be565b5b61330b84828501613140565b91505092915050565b60006020828403121561332a576133296142c3565b5b600082015167ffffffffffffffff811115613348576133476142be565b5b6133548482850161316e565b91505092915050565b600060208284031215613373576133726142c3565b5b60006133818482850161319c565b91505092915050565b6000602082840312156133a05761339f6142c3565b5b60006133ae848285016131b1565b91505092915050565b600080604083850312156133ce576133cd6142c3565b5b60006133dc8582860161319c565b92505060206133ed8582860161319c565b9150509250929050565b60006134038383613628565b905092915050565b600061341783836138ed565b905092915050565b600061342b8383613a6b565b60208301905092915050565b6134408161407f565b82525050565b61344f8161407f565b82525050565b600061346082613f92565b61346a8185613fe5565b93508360208202850161347c85613f62565b8060005b858110156134b8578484038952815161349985826133f7565b94506134a483613fbe565b925060208a01995050600181019050613480565b50829750879550505050505092915050565b60006134d582613f9d565b6134df8185613ff6565b9350836020820285016134f185613f72565b8060005b8581101561352d578484038952815161350e858261340b565b945061351983613fcb565b925060208a019950506001810190506134f5565b50829750879550505050505092915050565b600061354a82613fa8565b6135548185614007565b935061355f83613f82565b8060005b83811015613590578151613577888261341f565b975061358283613fd8565b925050600181019050613563565b5085935050505092915050565b60006135a882613fa8565b6135b28185614018565b93506135bd83613f82565b8060005b838110156135ee5781516135d5888261341f565b97506135e083613fd8565b9250506001810190506135c1565b5085935050505092915050565b61360481614091565b82525050565b61361381614091565b82525050565b6136228161409d565b82525050565b600061363382613fb3565b61363d8185614029565b935061364d8185602086016140e0565b613656816142c8565b840191505092915050565b600061366c82613fb3565b613676818561403a565b93506136868185602086016140e0565b61368f816142c8565b840191505092915050565b60006136a7601e8361403a565b91506136b2826142d9565b602082019050919050565b60006136ca60308361403a565b91506136d582614302565b604082019050919050565b60006136ed60228361403a565b91506136f882614351565b604082019050919050565b600061371060238361403a565b915061371b826143a0565b604082019050919050565b6000613733602b8361403a565b915061373e826143ef565b604082019050919050565b600061375660228361403a565b91506137618261443e565b604082019050919050565b6000613779600f8361403a565b91506137848261448d565b602082019050919050565b600061379c601e8361403a565b91506137a7826144b6565b602082019050919050565b60006137bf60198361403a565b91506137ca826144df565b602082019050919050565b60006137e260268361403a565b91506137ed82614508565b604082019050919050565b6000613805601b8361403a565b915061381082614557565b602082019050919050565b600061382860238361403a565b915061383382614580565b604082019050919050565b600061384b60288361403a565b9150613856826145cf565b604082019050919050565b600061386e60268361403a565b91506138798261461e565b604082019050919050565b6000613891602b8361403a565b915061389c8261466d565b604082019050919050565b60006138b4600f8361403a565b91506138bf826146bc565b602082019050919050565b60006138d7602a8361403a565b91506138e2826146e5565b604082019050919050565b600060c0830160008301516139056000860182613a6b565b506020830151848203602086015261391d8282613628565b91505060408301518482036040860152613937828261353f565b915050606083015184820360608601526139518282613455565b9150506080830151848203608086015261396b828261353f565b91505060a083015161398060a0860182613619565b508091505092915050565b600060c0830160008301516139a36000860182613a6b565b50602083015184820360208601526139bb8282613628565b915050604083015184820360408601526139d5828261353f565b915050606083015184820360608601526139ef8282613455565b91505060808301518482036080860152613a09828261353f565b91505060a0830151613a1e60a0860182613619565b508091505092915050565b606082016000820151613a3f6000850182613a6b565b506020820151613a526020850182613437565b506040820151613a6560408501826135fb565b50505050565b613a74816140c7565b82525050565b613a83816140c7565b82525050565b6000602082019050613a9e6000830184613446565b92915050565b6000606082019050613ab96000830186613446565b613ac66020830185613446565b613ad36040830184613a7a565b949350505050565b6000604082019050613af06000830185613446565b8181036020830152613b028184613661565b90509392505050565b6000604082019050613b206000830185613446565b613b2d6020830184613a7a565b9392505050565b60006020820190508181036000830152613b4e81846134ca565b905092915050565b60006020820190508181036000830152613b70818461359d565b905092915050565b6000602082019050613b8d600083018461360a565b92915050565b60006020820190508181036000830152613bad8184613661565b905092915050565b60006020820190508181036000830152613bce8161369a565b9050919050565b60006020820190508181036000830152613bee816136bd565b9050919050565b60006020820190508181036000830152613c0e816136e0565b9050919050565b60006020820190508181036000830152613c2e81613703565b9050919050565b60006020820190508181036000830152613c4e81613726565b9050919050565b60006020820190508181036000830152613c6e81613749565b9050919050565b60006020820190508181036000830152613c8e8161376c565b9050919050565b60006020820190508181036000830152613cae8161378f565b9050919050565b60006020820190508181036000830152613cce816137b2565b9050919050565b60006020820190508181036000830152613cee816137d5565b9050919050565b60006020820190508181036000830152613d0e816137f8565b9050919050565b60006020820190508181036000830152613d2e8161381b565b9050919050565b60006020820190508181036000830152613d4e8161383e565b9050919050565b60006020820190508181036000830152613d6e81613861565b9050919050565b60006020820190508181036000830152613d8e81613884565b9050919050565b60006020820190508181036000830152613dae816138a7565b9050919050565b60006020820190508181036000830152613dce816138ca565b9050919050565b60006020820190508181036000830152613def818461398b565b905092915050565b6000606082019050613e0c6000830184613a29565b92915050565b6000602082019050613e276000830184613a7a565b92915050565b6000606082019050613e426000830186613a7a565b613e4f6020830185613446565b8181036040830152613e618184613661565b9050949350505050565b6000604082019050613e806000830185613a7a565b8181036020830152613e928184613661565b90509392505050565b6000608082019050613eb06000830187613a7a565b613ebd6020830186613a7a565b613eca6040830185613446565b613ed7606083018461360a565b95945050505050565b6000613eea613efb565b9050613ef68282614145565b919050565b6000604051905090565b600067ffffffffffffffff821115613f2057613f1f61427b565b5b602082029050602081019050919050565b600067ffffffffffffffff821115613f4c57613f4b61427b565b5b613f55826142c8565b9050602081019050919050565b6000819050602082019050919050565b6000819050602082019050919050565b6000819050602082019050919050565b600081519050919050565b600081519050919050565b600081519050919050565b600081519050919050565b6000602082019050919050565b6000602082019050919050565b6000602082019050919050565b600082825260208201905092915050565b600082825260208201905092915050565b600082825260208201905092915050565b600082825260208201905092915050565b600082825260208201905092915050565b600082825260208201905092915050565b6000614056826140c7565b9150614061836140c7565b925082821015614074576140736141bf565b5b828203905092915050565b600061408a826140a7565b9050919050565b60008115159050919050565b6000819050919050565b600073ffffffffffffffffffffffffffffffffffffffff82169050919050565b6000819050919050565b82818337600083830152505050565b60005b838110156140fe5780820151818401526020810190506140e3565b8381111561410d576000848401525b50505050565b6000600282049050600182168061412b57607f821691505b6020821081141561413f5761413e6141ee565b5b50919050565b61414e826142c8565b810181811067ffffffffffffffff8211171561416d5761416c61427b565b5b80604052505050565b6000614181826140c7565b91507fffffffffffffffffffffffffffffffffffffffffffffffffffffffffffffffff8214156141b4576141b36141bf565b5b600182019050919050565b7f4e487b7100000000000000000000000000000000000000000000000000000000600052601160045260246000fd5b7f4e487b7100000000000000000000000000000000000000000000000000000000600052602260045260246000fd5b7f4e487b7100000000000000000000000000000000000000000000000000000000600052603160045260246000fd5b7f4e487b7100000000000000000000000000000000000000000000000000000000600052603260045260246000fd5b7f4e487b7100000000000000000000000000000000000000000000000000000000600052604160045260246000fd5b600080fd5b600080fd5b600080fd5b600080fd5b600080fd5b600080fd5b6000601f19601f8301169050919050565b7f412076616c69642061646472657373206d757374206265207061737365640000600082015250565b7f4d75737420686f6c6420616e2061636365737320746f6b656e20746f2070657260008201527f666f726d207468697320616374696f6e00000000000000000000000000000000602082015250565b7f43616e6e6f742072656d6f76652061206e6f6e2d6578697374696e6720746f6b60008201527f656e000000000000000000000000000000000000000000000000000000000000602082015250565b7f4e65772061646d696e206d757374206861766520616e2061636365737320746f60008201527f6b656e0000000000000000000000000000000000000000000000000000000000602082015250565b7f43616e6e6f74206361737420766f7465206f6e20616e20616c7265616479206460008201527f65636964656420706f6c6c000000000000000000000000000000000000000000602082015250565b7f4f6e6c792061646d696e206d617920706572666f726d2074686973206163746960008201527f6f6e000000000000000000000000000000000000000000000000000000000000602082015250565b7f496e76616c696420706f6c6c2069640000000000000000000000000000000000600082015250565b7f43616e6e6f7420766f7465206f6e2073616d6520706f6c6c2074776963650000600082015250565b7f4d757374207061737320612076616c696420706f6c6c20494400000000000000600082015250565b7f41646d696e20616c72656164792065786973747320666f72207468697320636f60008201527f6e74726163740000000000000000000000000000000000000000000000000000602082015250565b7f4d757374207061737320612076616c6964206f7074696f6e2049440000000000600082015250565b7f4f7074696f6e7320706172616d65746572206d757374206e6f7420626520656d60008201527f7074790000000000000000000000000000000000000000000000000000000000602082015250565b7f416e2061646472657373206d6179206f6e6c79206f776e206f6e65204163636560008201527f737320546f6b656e000000000000000000000000000000000000000000000000602082015250565b7f43616e6e6f74207265706c6163652061646d696e20776974682073616d65206160008201527f6464726573730000000000000000000000000000000000000000000000000000602082015250565b7f41646d696e206d6179206e6f742062652072656d6f7665642066726f6d20617060008201527f70726f766564206c697374000000000000000000000000000000000000000000602082015250565b7f496e76616c696420546f6b656e49440000000000000000000000000000000000600082015250565b7f537472696e6720706172616d65746572206d757374206265206f66206120766160008201527f6c6964206c656e67746800000000000000000000000000000000000000000000602082015250565b61473d8161407f565b811461474857600080fd5b50565b614754816140c7565b811461475f57600080fd5b5056fea2646970667358221220aa7b8ec6a111ab80913032ff2ae37044e90fe18004c7cd12a52501126137994c64736f6c63430008060033",
  "immutableReferences": {},
  "source": "// SPDX-License-Identifier: UNLICENSED\npragma solidity ^0.8.6;\n\nimport \"./AccessToken.sol\";\n\ncontract VotingContract {\n\n    /* I figure having these events is good practice\n    but i'm not sure if there are more things I should \n    include to make it a complete event or whatever.\n    Still just a young padawan. */\n    event TokenCreated (\n        uint tokenId,\n        address owner,\n        string contractAddr\n    );\n\n    event PollCreated(\n        uint id,\n        string issue\n    );\n\n    event VoteCasted(\n        uint pollId,\n        uint optionId,\n        address voter,\n        bool decided\n    );\n\n    event Debug(\n        string description\n    );\n\n    // Admin can create multiple polls for their organization to vote on\n    /* I wanted to have a mapping of uint => OptionStruct\n    but could NOT get it to work so I'm working with a \n    more rudimentary approached. While not as sophisticated,\n    it works and that's what makes me happy. This is my first\n    real capstone project so I can't try and get too fancy */ \n    /* ^ this was when i was testing with a web3 instance of \n    votingContract. Now that I can test with an articfacts instance,\n    i might attempt this */\n    struct Poll {\n        uint id;\n        // issue on which voters are deciding on\n        string issue;\n        // Not even sure i need this votersArr tbh...\n        uint[] voters;\n        string[] options;\n        uint[] results;\n        // If -1, no result has been determined.\n        // If other number, index of option won.\n        int result;\n    }\n\n    struct TokenRef {\n        uint tokenId;\n        address owner;\n        bool isAdmin;\n    }\n    \n    string public name;\n    uint[] public tokenIds;\n    bool adminExists;\n    Poll[] polls;\n    mapping(uint => TokenRef) approvedTokens;\n    // stores whether token has voted in a particular poll\n    // mapping(tokenId => mapping(pollId => bool))\n    mapping(uint => mapping(uint => bool)) public hasVoted;\n    AccessToken accessToken;\n    \n\n    constructor(string memory _name, address tokenAddr) {\n        name = _name;\n        accessToken = AccessToken(tokenAddr);\n    }\n\n    function getPoll(uint pollId) external view returns(Poll memory) {\n        require(pollId < polls.length, \"Invalid poll id\");\n        return polls[pollId];\n    }\n\n    function getPolls() external view onlyApproved() returns(Poll[] memory ) {\n        return polls;\n    }\n\n    function getTokenRef(uint tokenId) external view returns(TokenRef memory){\n        TokenRef memory tokenRef = approvedTokens[tokenId];\n        require(tokenRef.owner != address(0), \"Invalid TokenID\");\n        return tokenRef;\n    }\n\n    function getTokenId(address owner) internal view returns(int) {\n        uint balanceOf = accessToken.balanceOf(owner);\n        int tokenId = -1;\n        for(uint i = 0; i < balanceOf; i++){\n            uint currentTokenId = accessToken.tokenOfOwnerByIndex(owner, i);\n            if(approvedTokens[currentTokenId].owner == owner){\n                tokenId = int(accessToken.tokenOfOwnerByIndex(owner, i));\n            }\n        }\n        return tokenId;\n    }\n\n    function getTokenIds() external view returns(uint[] memory) {\n        return tokenIds;\n    }\n\n    function changeName(string memory newName) external {\n        name = newName;\n    }\n\n    /* Would like the ability to generateAdmin within constructor but \n    because i need the votingContract's address in string format (for the tokenURI), \n    don't think it'll be possible */\n    function generateAdmin(string memory contractAddr) external {\n        require(!adminExists, \"Admin already exists for this contract\");\n        uint tokenId = accessToken.mintToken(msg.sender, contractAddr);\n        TokenRef memory ar = TokenRef(\n            tokenId,\n            msg.sender,\n            true\n        );\n        approvedTokens[tokenId] = ar;\n        adminExists = true;\n        tokenIds.push(tokenId);\n        emit TokenCreated(tokenId, msg.sender, accessToken.tokenURI(tokenId));\n    }\n\n\n    function generateAccessToken(address approved, string memory contractAddr) \n        external \n        onlyAdmin()\n        validAddress(approved) {\n            bool hasToken; \n            uint balanceOf = accessToken.balanceOf(approved);\n            for(uint i = 0; i < balanceOf; i++){\n                uint currentTokenId = accessToken.tokenOfOwnerByIndex(approved, i);\n                if(approvedTokens[currentTokenId].owner == approved){\n                    hasToken = true;\n                }\n            }\n            \n            /* Need to fix this check. Will make it so that address may only\n            have one access token per voting contract*/\n            require(!hasToken, \n                \"An address may only own one Access Token\");\n            uint tokenId = accessToken.mintToken(approved, contractAddr);\n            TokenRef memory ar = TokenRef(\n                tokenId,\n                approved,\n                false\n            );\n            approvedTokens[tokenId] = ar;\n            tokenIds.push(tokenId);\n            emit TokenCreated(tokenId, approved, accessToken.tokenURI(tokenId));\n    }\n\n    function removeApprovedVoter(address unapproved) external onlyAdmin() validAddress(unapproved) {                \n        require(unapproved != msg.sender, \"Admin may not be removed from approved list\");\n        \n        // checks if unapproved has an access token\n        int tokenId = getTokenId(unapproved);\n\n        require(tokenId > 0, \"Cannot remove a non-existing token\");\n\n        accessToken.burn(uint(tokenId));\n\n        uint tokenIndex;\n        for(uint i = 0; i < tokenIds.length; i++){\n            if(tokenIds[i] == uint(tokenId)){\n                tokenIndex = i;\n            }\n        }\n        tokenIds[tokenIndex] = tokenIds[tokenIds.length - 1];\n        tokenIds.pop();\n\n        delete approvedTokens[uint(tokenId)];\n    }\n\n    /* This updates who is the current admin. there may only be \n    one admin per VotingContract */\n    // Purposely requiring that newAdmin already holds an access token\n    function updateAdmin(address newAdmin) external onlyAdmin() validAddress(newAdmin) {\n        require(newAdmin != msg.sender, \"Cannot replace admin with same address\");\n\n        // Saves newAdmin's current tokenId\n        int tokenId = getTokenId(newAdmin);\n        // checks if newAdmin has an access token\n        bool newAdminIsApproved = tokenId > 0;\n        require(newAdminIsApproved, \n            \"New admin must have an access token\");\n\n        // Saves current admin's tokenId\n        int adminTokenId = getTokenId(msg.sender);\n\n        // newAdmin is added only if they are already an approved voter\n        // redundant check after the above require statement \n        if(newAdminIsApproved){\n            accessToken.transferToken(msg.sender, newAdmin, uint(adminTokenId));\n            accessToken.transferToken(newAdmin, msg.sender, uint(tokenId));\n\n            approvedTokens[uint(adminTokenId)].owner = newAdmin;\n            approvedTokens[uint(tokenId)].owner = msg.sender;\n        }\n    }\n\n    function createPoll(string calldata issue, string[] memory _options) \n        external \n        onlyAdmin()\n        stringLength(issue) {\n            require(_options.length > 0, \n                \"Options parameter must not be empty\");\n            Poll memory p;\n            p.id = polls.length;\n            p.issue = issue;\n            p.options = _options;\n            p.result = -1;\n            p.results = new uint[](_options.length);\n            \n            polls.push(p);\n            \n            emit PollCreated(p.id, p.issue);\n    }\n\n    /* poll will not _actually_ be deleted in order to discourage\n    admin from carelessly creating polls. poll data will be erased\n    but replaced with deleted-sig values */\n    function deletePoll(uint pollId) external onlyAdmin() {\n        // Need to require that poll hasn't already been decided\n        require(pollId < polls.length,\n            \"Must pass a valid poll ID\");\n        string memory deletedPollSignature = \"__??//::\";\n        /* I don't really need this right? solidity will automatically\n        receive pollId as an unsigned int... */\n        // require(pollId > 0,\n        //     \"Poll ID must be greater than 0\");\n        Poll memory p;\n        p.id = pollId;\n        p.issue = deletedPollSignature;\n        p.result = -2;\n\n        polls[pollId] = p;\n    }\n\n    function vote(uint pollId, uint optionId) external onlyApproved() {\n        require(pollId < polls.length, \n            \"Must pass a valid poll ID\");\n        Poll storage p = polls[pollId];\n        require(optionId < p.options.length, \n            \"Must pass a valid option ID\");\n        require(p.result == -1, \n            \"Cannot cast vote on an already decided poll\");\n\n        uint tokenId = uint(getTokenId(msg.sender)); \n        require(!hasVoted[tokenId][pollId], \n            \"Cannot vote on same poll twice\");\n\n        p.voters.push(tokenId);\n        p.results[optionId]++;\n        hasVoted[tokenId][pollId] = true;\n        bool decided = false;\n\n        if(p.voters.length == tokenIds.length){\n            decided = decideResult(pollId);\n        }\n        \n        emit VoteCasted(pollId, optionId, msg.sender, decided);\n    }\n\n    /* Should I require that a valid Poll ID is passed? \n    Would be redundant since vote() (the function that calls this)\n    already checks for a valid pollId  */\n    // Need to handle draws.\n    /* On draw, I think i should reset poll, but only with the top options\n    (if 3 options got highest vote, then those three options remain, rest leave) */\n    function decideResult(uint pollId) internal returns(bool) {\n        Poll storage p = polls[pollId];\n        // Not sure if i should use a require, or the IF statement as I currently am\n        // require(!p.decided, \"This poll has already been decided\");\n        if(p.result != -1) {\n            return false;\n        }\n\n        /* Not sure if i want this. What if admin wants to decide a vote before\n        all approved vote? What if admin wants poll to be open\n        only during a particular time period? */\n        // require(p.voters.length == approved.length, \"All approved addresses must vote\");\n        if(p.voters.length != tokenIds.length) {\n            return false;\n        }\n\n        uint mostVotes = p.results[p.options.length - 1];\n        uint winners;\n        uint[] memory winnerIndexes = new uint[](p.options.length);\n        for(uint i = 0; i < p.results.length; i++){\n            /* \"should\" always work since this function won't be called\n            until someone casts a vote. will consider adding a check */ \n            if(p.results[i] >= mostVotes) {\n                winnerIndexes[winners] = i;\n                mostVotes = p.results[i];\n                winners++;\n            }\n        }\n        // winners should _technically_ always be greater than 0\n        if(winners == 1) {\n            p.result = int(winnerIndexes[0]);\n            return true;\n        // Do i need this else statement?\n        } else {\n            string[] memory newOptions = new string[](winners);\n            p.results = new uint[](winners);\n            uint[] memory votersArr;\n            p.voters = votersArr;\n            for(uint i = 0; i < winners; i++){\n                newOptions[i] = p.options[winnerIndexes[i]];\n            }\n            for(uint i = 0; i < tokenIds.length; i++){\n                hasVoted[tokenIds[i]][pollId] = false;\n            }\n            p.options = newOptions;\n\n            return false;\n        }\n    }\n\n    modifier onlyApproved() {\n        int tokenId = getTokenId(msg.sender);\n        require(approvedTokens[uint(tokenId)].owner == msg.sender,\n            \"Must hold an access token to perform this action\");\n        _;\n    }\n\n    modifier onlyAdmin() {\n        int tokenId = getTokenId(msg.sender);\n        // ensures user has a valid tokenId\n        require(uint(tokenId) >= 0,\n            \"Only admin may perform this action\");\n        // admin tokenID will always be the first lmnt in tokenIds array\n        require(uint(tokenId) == tokenIds[0], \n            \"Only admin may perform this action\");\n        require(approvedTokens[uint(tokenId)].isAdmin == true,\n            \"Only admin may perform this action\");\n        _;\n    }\n\n    modifier validAddress(address _address) {\n        require(_address != address(0),\"A valid address must be passed\");\n        _;\n    }\n\n    modifier stringLength(string calldata str) {\n        require(bytes(str).length > 0, \n            \"String parameter must be of a valid length\");\n        _;\n    }    \n}",
  "sourcePath": "/home/odon/code/bloc/self-directed/vote_per_organization/contracts/contracts/VotingContract.sol",
  "compiler": {
    "name": "solc",
    "version": "0.8.6+commit.11564f7e.Emscripten.clang"
  },
  "schemaVersion": "3.4.1",
  "updatedAt": "2021-08-18T19:53:30.487Z",
  "networkType": "ethereum",
  "devdoc": {
    "kind": "dev",
    "methods": {},
    "version": 1
  },
  "userdoc": {
    "kind": "user",
    "methods": {},
    "version": 1
  }
}