{
  "contractName": "VotingContract",
  "abi": [
    {
      "inputs": [
        {
          "internalType": "string",
          "name": "_name",
          "type": "string"
        },
        {
          "internalType": "address",
          "name": "tokenAddr",
          "type": "address"
        }
      ],
      "stateMutability": "nonpayable",
      "type": "constructor"
    },
    {
      "anonymous": false,
      "inputs": [
        {
          "indexed": false,
          "internalType": "string",
          "name": "description",
          "type": "string"
        }
      ],
      "name": "Debug",
      "type": "event"
    },
    {
      "anonymous": false,
      "inputs": [
        {
          "indexed": false,
          "internalType": "uint256",
          "name": "id",
          "type": "uint256"
        },
        {
          "indexed": false,
          "internalType": "string",
          "name": "issue",
          "type": "string"
        }
      ],
      "name": "PollCreated",
      "type": "event"
    },
    {
      "anonymous": false,
      "inputs": [
        {
          "indexed": false,
          "internalType": "uint256",
          "name": "tokenId",
          "type": "uint256"
        },
        {
          "indexed": false,
          "internalType": "address",
          "name": "owner",
          "type": "address"
        },
        {
          "indexed": false,
          "internalType": "string",
          "name": "contractAddr",
          "type": "string"
        }
      ],
      "name": "TokenCreated",
      "type": "event"
    },
    {
      "anonymous": false,
      "inputs": [
        {
          "indexed": false,
          "internalType": "uint256",
          "name": "pollId",
          "type": "uint256"
        },
        {
          "indexed": false,
          "internalType": "uint256",
          "name": "optionId",
          "type": "uint256"
        },
        {
          "indexed": false,
          "internalType": "address",
          "name": "voter",
          "type": "address"
        },
        {
          "indexed": false,
          "internalType": "bool",
          "name": "decided",
          "type": "bool"
        }
      ],
      "name": "VoteCasted",
      "type": "event"
    },
    {
      "inputs": [],
      "name": "name",
      "outputs": [
        {
          "internalType": "string",
          "name": "",
          "type": "string"
        }
      ],
      "stateMutability": "view",
      "type": "function",
      "constant": true
    },
    {
      "inputs": [
        {
          "internalType": "uint256",
          "name": "tokenId",
          "type": "uint256"
        }
      ],
      "name": "getTokenRef",
      "outputs": [
        {
          "components": [
            {
              "internalType": "uint256",
              "name": "tokenId",
              "type": "uint256"
            },
            {
              "internalType": "address",
              "name": "owner",
              "type": "address"
            },
            {
              "internalType": "bool",
              "name": "isAdmin",
              "type": "bool"
            }
          ],
          "internalType": "struct VotingContract.TokenRef",
          "name": "",
          "type": "tuple"
        }
      ],
      "stateMutability": "view",
      "type": "function",
      "constant": true
    },
    {
      "inputs": [
        {
          "internalType": "uint256",
          "name": "pollId",
          "type": "uint256"
        }
      ],
      "name": "getPoll",
      "outputs": [
        {
          "components": [
            {
              "internalType": "uint256",
              "name": "id",
              "type": "uint256"
            },
            {
              "internalType": "string",
              "name": "issue",
              "type": "string"
            },
            {
              "internalType": "uint256[]",
              "name": "voters",
              "type": "uint256[]"
            },
            {
              "internalType": "string[]",
              "name": "options",
              "type": "string[]"
            },
            {
              "internalType": "uint256[]",
              "name": "results",
              "type": "uint256[]"
            },
            {
              "internalType": "int256",
              "name": "result",
              "type": "int256"
            }
          ],
          "internalType": "struct VotingContract.Poll[1]",
          "name": "",
          "type": "tuple[1]"
        }
      ],
      "stateMutability": "view",
      "type": "function",
      "constant": true
    },
    {
      "inputs": [
        {
          "internalType": "string",
          "name": "contractAddr",
          "type": "string"
        }
      ],
      "name": "generateAdmin",
      "outputs": [],
      "stateMutability": "nonpayable",
      "type": "function"
    },
    {
      "inputs": [
        {
          "internalType": "address",
          "name": "approved",
          "type": "address"
        },
        {
          "internalType": "string",
          "name": "contractAddr",
          "type": "string"
        }
      ],
      "name": "generateAccessToken",
      "outputs": [],
      "stateMutability": "nonpayable",
      "type": "function"
    },
    {
      "inputs": [
        {
          "internalType": "address",
          "name": "unapproved",
          "type": "address"
        }
      ],
      "name": "removeApprovedVoter",
      "outputs": [],
      "stateMutability": "nonpayable",
      "type": "function"
    },
    {
      "inputs": [
        {
          "internalType": "address",
          "name": "newAdmin",
          "type": "address"
        }
      ],
      "name": "updateAdmin",
      "outputs": [],
      "stateMutability": "nonpayable",
      "type": "function"
    },
    {
      "inputs": [
        {
          "internalType": "string",
          "name": "issue",
          "type": "string"
        },
        {
          "internalType": "string[]",
          "name": "_options",
          "type": "string[]"
        }
      ],
      "name": "createPoll",
      "outputs": [],
      "stateMutability": "nonpayable",
      "type": "function"
    },
    {
      "inputs": [
        {
          "internalType": "uint256",
          "name": "pollId",
          "type": "uint256"
        },
        {
          "internalType": "uint256",
          "name": "optionId",
          "type": "uint256"
        }
      ],
      "name": "vote",
      "outputs": [],
      "stateMutability": "nonpayable",
      "type": "function"
    }
  ],
  "bytecode": "0x60806040523480156200001157600080fd5b5060405162003d1038038062003d108339818101604052810190620000379190620001de565b81600090805190602001906200004f92919062000099565b5080600760006101000a81548173ffffffffffffffffffffffffffffffffffffffff021916908373ffffffffffffffffffffffffffffffffffffffff160217905550505062000416565b828054620000a7906200030d565b90600052602060002090601f016020900481019282620000cb576000855562000117565b82601f10620000e657805160ff191683800117855562000117565b8280016001018555821562000117579182015b8281111562000116578251825591602001919060010190620000f9565b5b5090506200012691906200012a565b5090565b5b80821115620001455760008160009055506001016200012b565b5090565b6000620001606200015a846200026d565b62000244565b9050828152602081018484840111156200017f576200017e620003dc565b5b6200018c848285620002d7565b509392505050565b600081519050620001a581620003fc565b92915050565b600082601f830112620001c357620001c2620003d7565b5b8151620001d584826020860162000149565b91505092915050565b60008060408385031215620001f857620001f7620003e6565b5b600083015167ffffffffffffffff811115620002195762000218620003e1565b5b6200022785828601620001ab565b92505060206200023a8582860162000194565b9150509250929050565b60006200025062000263565b90506200025e828262000343565b919050565b6000604051905090565b600067ffffffffffffffff8211156200028b576200028a620003a8565b5b6200029682620003eb565b9050602081019050919050565b6000620002b082620002b7565b9050919050565b600073ffffffffffffffffffffffffffffffffffffffff82169050919050565b60005b83811015620002f7578082015181840152602081019050620002da565b8381111562000307576000848401525b50505050565b600060028204905060018216806200032657607f821691505b602082108114156200033d576200033c62000379565b5b50919050565b6200034e82620003eb565b810181811067ffffffffffffffff8211171562000370576200036f620003a8565b5b80604052505050565b7f4e487b7100000000000000000000000000000000000000000000000000000000600052602260045260246000fd5b7f4e487b7100000000000000000000000000000000000000000000000000000000600052604160045260246000fd5b600080fd5b600080fd5b600080fd5b600080fd5b6000601f19601f8301169050919050565b6200040781620002a3565b81146200041357600080fd5b50565b6138ea80620004266000396000f3fe608060405234801561001057600080fd5b50600436106100935760003560e01c80637e3d71c3116100665780637e3d71c314610132578063842f564a1461014e578063b384abef1461016a578063e2f273bd14610186578063f674b24d146101a257610093565b806306fdde03146100985780631a8cbcaa146100b657806343148fb3146100e65780635544909a14610102575b600080fd5b6100a06101be565b6040516100ad9190612d48565b60405180910390f35b6100d060048036038101906100cb91906125cb565b61024c565b6040516100dd9190612d26565b60405180910390f35b61010060048036038101906100fb9190612539565b610500565b005b61011c600480360381019061011791906125cb565b6107e4565b6040516101299190612f8a565b60405180910390f35b61014c600480360381019061014791906124bd565b610906565b005b61016860048036038101906101639190612461565b610b8a565b005b610184600480360381019061017f9190612625565b611166565b005b6101a0600480360381019061019b9190612434565b6114cb565b005b6101bc60048036038101906101b79190612434565b6118a2565b005b600080546101cb90613294565b80601f01602080910402602001604051908101604052809291908181526020018280546101f790613294565b80156102445780601f1061021957610100808354040283529160200191610244565b820191906000526020600020905b81548152906001019060200180831161022757829003601f168201915b505050505081565b610254611f2d565b6002548210610298576040517f08c379a000000000000000000000000000000000000000000000000000000000815260040161028f90612e2a565b60405180910390fd5b60006040518060200160405280600460008681526020019081526020016000206040518060c0016040529081600082015481526020016001820180546102dd90613294565b80601f016020809104026020016040519081016040528092919081815260200182805461030990613294565b80156103565780601f1061032b57610100808354040283529160200191610356565b820191906000526020600020905b81548152906001019060200180831161033957829003601f168201915b50505050508152602001600282018054806020026020016040519081016040528092919081815260200182805480156103ae57602002820191906000526020600020905b81548152602001906001019080831161039a575b5050505050815260200160038201805480602002602001604051908101604052809291908181526020016000905b828210156104885783829060005260206000200180546103fb90613294565b80601f016020809104026020016040519081016040528092919081815260200182805461042790613294565b80156104745780601f1061044957610100808354040283529160200191610474565b820191906000526020600020905b81548152906001019060200180831161045757829003601f168201915b5050505050815260200190600101906103dc565b505050508152602001600482018054806020026020016040519081016040528092919081815260200182805480156104df57602002820191906000526020600020905b8154815260200190600101908083116104cb575b50505050508152602001600582015481525050815250905080915050919050565b600160009054906101000a900460ff1615610550576040517f08c379a000000000000000000000000000000000000000000000000000000000815260040161054790612e8a565b60405180910390fd5b6000600760009054906101000a900473ffffffffffffffffffffffffffffffffffffffff1673ffffffffffffffffffffffffffffffffffffffff16633d02d0c933846040518363ffffffff1660e01b81526004016105af929190612ccd565b602060405180830381600087803b1580156105c957600080fd5b505af11580156105dd573d6000803e3d6000fd5b505050506040513d601f19601f8201168201806040525081019061060191906125f8565b9050600060405180606001604052808381526020013373ffffffffffffffffffffffffffffffffffffffff16815260200160011515815250905080600560008481526020019081526020016000206000820151816000015560208201518160010160006101000a81548173ffffffffffffffffffffffffffffffffffffffff021916908373ffffffffffffffffffffffffffffffffffffffff16021790555060408201518160010160146101000a81548160ff02191690831515021790555090505060018060006101000a81548160ff021916908315150217905550600360008154809291906106f0906132f7565b91905055507f82a09cc58c9cecf0eb61d8994283ec804165931801f8b77e42dcb3b556c5c5be8233600760009054906101000a900473ffffffffffffffffffffffffffffffffffffffff1673ffffffffffffffffffffffffffffffffffffffff1663c87b56dd866040518263ffffffff1660e01b81526004016107739190612fa5565b60006040518083038186803b15801561078b57600080fd5b505afa15801561079f573d6000803e3d6000fd5b505050506040513d6000823e3d601f19601f820116820180604052508101906107c89190612582565b6040516107d793929190612fc0565b60405180910390a1505050565b6107ec611f5a565b600060056000848152602001908152602001600020604051806060016040529081600082015481526020016001820160009054906101000a900473ffffffffffffffffffffffffffffffffffffffff1673ffffffffffffffffffffffffffffffffffffffff1673ffffffffffffffffffffffffffffffffffffffff1681526020016001820160149054906101000a900460ff1615151515815250509050600073ffffffffffffffffffffffffffffffffffffffff16816020015173ffffffffffffffffffffffffffffffffffffffff1614156108fd576040517f08c379a00000000000000000000000000000000000000000000000000000000081526004016108f490612f4a565b60405180910390fd5b80915050919050565b600061091133611b91565b90506000811215610957576040517f08c379a000000000000000000000000000000000000000000000000000000000815260040161094e90612e0a565b60405180910390fd5b600115156005600083815260200190815260200160002060010160149054906101000a900460ff161515146109c1576040517f08c379a00000000000000000000000000000000000000000000000000000000081526004016109b890612e0a565b60405180910390fd5b838360008282905011610a09576040517f08c379a0000000000000000000000000000000000000000000000000000000008152600401610a0090612f6a565b60405180910390fd5b6000845111610a4d576040517f08c379a0000000000000000000000000000000000000000000000000000000008152600401610a4490612eca565b60405180910390fd5b6000600460006002548152602001908152602001600020905060025481600001819055508686826001019190610a84929190611f93565b5084816003019080519060200190610a9d929190612019565b507fffffffffffffffffffffffffffffffffffffffffffffffffffffffffffffffff8160050181905550845167ffffffffffffffff811115610ae257610ae16133cd565b5b604051908082528060200260200182016040528015610b105781602001602082028036833780820191505090505b50816004019080519060200190610b28929190612079565b507f65d5ac2bf1bca69566bef1affdfca5bb37b9577fc0b3af4c7c4638225e67b39c816000015482600101604051610b61929190612ffe565b60405180910390a160026000815480929190610b7c906132f7565b919050555050505050505050565b6000610b9533611b91565b90506000811215610bdb576040517f08c379a0000000000000000000000000000000000000000000000000000000008152600401610bd290612e0a565b60405180910390fd5b600115156005600083815260200190815260200160002060010160149054906101000a900460ff16151514610c45576040517f08c379a0000000000000000000000000000000000000000000000000000000008152600401610c3c90612e0a565b60405180910390fd5b82600073ffffffffffffffffffffffffffffffffffffffff168173ffffffffffffffffffffffffffffffffffffffff161415610cb6576040517f08c379a0000000000000000000000000000000000000000000000000000000008152600401610cad90612d6a565b60405180910390fd5b600080600760009054906101000a900473ffffffffffffffffffffffffffffffffffffffff1673ffffffffffffffffffffffffffffffffffffffff166370a08231876040518263ffffffff1660e01b8152600401610d149190612c7b565b60206040518083038186803b158015610d2c57600080fd5b505afa158015610d40573d6000803e3d6000fd5b505050506040513d601f19601f82011682018060405250810190610d6491906125f8565b905060005b81811015610ea5576000600760009054906101000a900473ffffffffffffffffffffffffffffffffffffffff1673ffffffffffffffffffffffffffffffffffffffff16632f745c5989846040518363ffffffff1660e01b8152600401610dd0929190612cfd565b60206040518083038186803b158015610de857600080fd5b505afa158015610dfc573d6000803e3d6000fd5b505050506040513d601f19601f82011682018060405250810190610e2091906125f8565b90508773ffffffffffffffffffffffffffffffffffffffff166005600083815260200190815260200160002060010160009054906101000a900473ffffffffffffffffffffffffffffffffffffffff1673ffffffffffffffffffffffffffffffffffffffff161415610e9157600193505b508080610e9d906132f7565b915050610d69565b508115610ee7576040517f08c379a0000000000000000000000000000000000000000000000000000000008152600401610ede90612eea565b60405180910390fd5b6000600760009054906101000a900473ffffffffffffffffffffffffffffffffffffffff1673ffffffffffffffffffffffffffffffffffffffff16633d02d0c988886040518363ffffffff1660e01b8152600401610f46929190612ccd565b602060405180830381600087803b158015610f6057600080fd5b505af1158015610f74573d6000803e3d6000fd5b505050506040513d601f19601f82011682018060405250810190610f9891906125f8565b9050600060405180606001604052808381526020018973ffffffffffffffffffffffffffffffffffffffff16815260200160001515815250905080600560008481526020019081526020016000206000820151816000015560208201518160010160006101000a81548173ffffffffffffffffffffffffffffffffffffffff021916908373ffffffffffffffffffffffffffffffffffffffff16021790555060408201518160010160146101000a81548160ff0219169083151502179055509050506003600081548092919061106d906132f7565b91905055507f82a09cc58c9cecf0eb61d8994283ec804165931801f8b77e42dcb3b556c5c5be8289600760009054906101000a900473ffffffffffffffffffffffffffffffffffffffff1673ffffffffffffffffffffffffffffffffffffffff1663c87b56dd866040518263ffffffff1660e01b81526004016110f09190612fa5565b60006040518083038186803b15801561110857600080fd5b505afa15801561111c573d6000803e3d6000fd5b505050506040513d6000823e3d601f19601f820116820180604052508101906111459190612582565b60405161115493929190612fc0565b60405180910390a15050505050505050565b6000600760009054906101000a900473ffffffffffffffffffffffffffffffffffffffff1673ffffffffffffffffffffffffffffffffffffffff166370a08231336040518263ffffffff1660e01b81526004016111c39190612c7b565b60206040518083038186803b1580156111db57600080fd5b505afa1580156111ef573d6000803e3d6000fd5b505050506040513d601f19601f8201168201806040525081019061121391906125f8565b905060018114611258576040517f08c379a000000000000000000000000000000000000000000000000000000000815260040161124f90612d8a565b60405180910390fd5b600254831061129c576040517f08c379a000000000000000000000000000000000000000000000000000000000815260040161129390612e6a565b60405180910390fd5b6000600460008581526020019081526020016000209050806003018054905083106112fc576040517f08c379a00000000000000000000000000000000000000000000000000000000081526004016112f390612eaa565b60405180910390fd5b7fffffffffffffffffffffffffffffffffffffffffffffffffffffffffffffffff816005015414611362576040517f08c379a000000000000000000000000000000000000000000000000000000000815260040161135990612dea565b60405180910390fd5b600061136d33611b91565b905060066000828152602001908152602001600020600086815260200190815260200160002060009054906101000a900460ff16156113e1576040517f08c379a00000000000000000000000000000000000000000000000000000000081526004016113d890612e4a565b60405180910390fd5b816002018190806001815401808255809150506001900390600052602060002001600090919091909150558160040184815481106114225761142161339e565b5b90600052602060002001600081548092919061143d906132f7565b9190505550600160066000838152602001908152602001600020600087815260200190815260200160002060006101000a81548160ff0219169083151502179055507fe828180429d50fecc65a7389299b1bf5f97fd5bec6ca0b9648c35255ee0a11ab8585336114ac89611e5b565b6040516114bc949392919061302e565b60405180910390a15050505050565b60006114d633611b91565b9050600081121561151c576040517f08c379a000000000000000000000000000000000000000000000000000000000815260040161151390612e0a565b60405180910390fd5b600115156005600083815260200190815260200160002060010160149054906101000a900460ff16151514611586576040517f08c379a000000000000000000000000000000000000000000000000000000000815260040161157d90612e0a565b60405180910390fd5b81600073ffffffffffffffffffffffffffffffffffffffff168173ffffffffffffffffffffffffffffffffffffffff1614156115f7576040517f08c379a00000000000000000000000000000000000000000000000000000000081526004016115ee90612d6a565b60405180910390fd5b3373ffffffffffffffffffffffffffffffffffffffff168373ffffffffffffffffffffffffffffffffffffffff161415611666576040517f08c379a000000000000000000000000000000000000000000000000000000000815260040161165d90612f0a565b60405180910390fd5b600061167184611b91565b905060008082139050806116ba576040517f08c379a00000000000000000000000000000000000000000000000000000000081526004016116b190612dca565b60405180910390fd5b60006116c533611b91565b9050811561189a57600760009054906101000a900473ffffffffffffffffffffffffffffffffffffffff1673ffffffffffffffffffffffffffffffffffffffff1663f5537ede3388846040518463ffffffff1660e01b815260040161172c93929190612c96565b600060405180830381600087803b15801561174657600080fd5b505af115801561175a573d6000803e3d6000fd5b50505050600760009054906101000a900473ffffffffffffffffffffffffffffffffffffffff1673ffffffffffffffffffffffffffffffffffffffff1663f5537ede8733866040518463ffffffff1660e01b81526004016117bd93929190612c96565b600060405180830381600087803b1580156117d757600080fd5b505af11580156117eb573d6000803e3d6000fd5b50505050856005600083815260200190815260200160002060010160006101000a81548173ffffffffffffffffffffffffffffffffffffffff021916908373ffffffffffffffffffffffffffffffffffffffff160217905550336005600085815260200190815260200160002060010160006101000a81548173ffffffffffffffffffffffffffffffffffffffff021916908373ffffffffffffffffffffffffffffffffffffffff1602179055505b505050505050565b60006118ad33611b91565b905060008112156118f3576040517f08c379a00000000000000000000000000000000000000000000000000000000081526004016118ea90612e0a565b60405180910390fd5b600115156005600083815260200190815260200160002060010160149054906101000a900460ff1615151461195d576040517f08c379a000000000000000000000000000000000000000000000000000000000815260040161195490612e0a565b60405180910390fd5b81600073ffffffffffffffffffffffffffffffffffffffff168173ffffffffffffffffffffffffffffffffffffffff1614156119ce576040517f08c379a00000000000000000000000000000000000000000000000000000000081526004016119c590612d6a565b60405180910390fd5b3373ffffffffffffffffffffffffffffffffffffffff168373ffffffffffffffffffffffffffffffffffffffff161415611a3d576040517f08c379a0000000000000000000000000000000000000000000000000000000008152600401611a3490612f2a565b60405180910390fd5b6000611a4884611b91565b905060008113611a8d576040517f08c379a0000000000000000000000000000000000000000000000000000000008152600401611a8490612daa565b60405180910390fd5b600760009054906101000a900473ffffffffffffffffffffffffffffffffffffffff1673ffffffffffffffffffffffffffffffffffffffff166342966c68826040518263ffffffff1660e01b8152600401611ae89190612fa5565b600060405180830381600087803b158015611b0257600080fd5b505af1158015611b16573d6000803e3d6000fd5b5050505060036000815480929190611b2d9061326a565b9190505550600560008281526020019081526020016000206000808201600090556001820160006101000a81549073ffffffffffffffffffffffffffffffffffffffff02191690556001820160146101000a81549060ff0219169055505050505050565b600080600760009054906101000a900473ffffffffffffffffffffffffffffffffffffffff1673ffffffffffffffffffffffffffffffffffffffff166370a08231846040518263ffffffff1660e01b8152600401611bef9190612c7b565b60206040518083038186803b158015611c0757600080fd5b505afa158015611c1b573d6000803e3d6000fd5b505050506040513d601f19601f82011682018060405250810190611c3f91906125f8565b905060007fffffffffffffffffffffffffffffffffffffffffffffffffffffffffffffffff905060005b82811015611e50576000600760009054906101000a900473ffffffffffffffffffffffffffffffffffffffff1673ffffffffffffffffffffffffffffffffffffffff16632f745c5987846040518363ffffffff1660e01b8152600401611cd0929190612cfd565b60206040518083038186803b158015611ce857600080fd5b505afa158015611cfc573d6000803e3d6000fd5b505050506040513d601f19601f82011682018060405250810190611d2091906125f8565b90508573ffffffffffffffffffffffffffffffffffffffff166005600083815260200190815260200160002060010160009054906101000a900473ffffffffffffffffffffffffffffffffffffffff1673ffffffffffffffffffffffffffffffffffffffff161415611e3c57600760009054906101000a900473ffffffffffffffffffffffffffffffffffffffff1673ffffffffffffffffffffffffffffffffffffffff16632f745c5987846040518363ffffffff1660e01b8152600401611de9929190612cfd565b60206040518083038186803b158015611e0157600080fd5b505afa158015611e15573d6000803e3d6000fd5b505050506040513d601f19601f82011682018060405250810190611e3991906125f8565b92505b508080611e48906132f7565b915050611c69565b508092505050919050565b6000806004600084815260200190815260200160002090507fffffffffffffffffffffffffffffffffffffffffffffffffffffffffffffffff816005015414611ea8576000915050611f28565b600354816002018054905014611ec2576000915050611f28565b60008060005b8360040180549050811015611f165782846004018281548110611eee57611eed61339e565b5b90600052602060002001541115611f03578091505b8080611f0e906132f7565b915050611ec8565b50808360050181905550600193505050505b919050565b60405180602001604052806001905b611f446120c6565b815260200190600190039081611f3c5790505090565b604051806060016040528060008152602001600073ffffffffffffffffffffffffffffffffffffffff1681526020016000151581525090565b828054611f9f90613294565b90600052602060002090601f016020900481019282611fc15760008555612008565b82601f10611fda57803560ff1916838001178555612008565b82800160010185558215612008579182015b82811115612007578235825591602001919060010190611fec565b5b50905061201591906120fc565b5090565b828054828255906000526020600020908101928215612068579160200282015b82811115612067578251829080519060200190612057929190612119565b5091602001919060010190612039565b5b509050612075919061219f565b5090565b8280548282559060005260206000209081019282156120b5579160200282015b828111156120b4578251825591602001919060010190612099565b5b5090506120c291906120fc565b5090565b6040518060c001604052806000815260200160608152602001606081526020016060815260200160608152602001600081525090565b5b808211156121155760008160009055506001016120fd565b5090565b82805461212590613294565b90600052602060002090601f016020900481019282612147576000855561218e565b82601f1061216057805160ff191683800117855561218e565b8280016001018555821561218e579182015b8281111561218d578251825591602001919060010190612172565b5b50905061219b91906120fc565b5090565b5b808211156121bf57600081816121b691906121c3565b506001016121a0565b5090565b5080546121cf90613294565b6000825580601f106121e15750612200565b601f0160209004906000526020600020908101906121ff91906120fc565b5b50565b600061221661221184613098565b613073565b9050808382526020820190508285602086028201111561223957612238613406565b5b60005b8581101561228757813567ffffffffffffffff81111561225f5761225e613401565b5b80860161226c89826123ae565b8552602085019450602084019350505060018101905061223c565b5050509392505050565b60006122a461229f846130c4565b613073565b9050828152602081018484840111156122c0576122bf61340b565b5b6122cb848285613228565b509392505050565b60006122e66122e1846130c4565b613073565b9050828152602081018484840111156123025761230161340b565b5b61230d848285613237565b509392505050565b60008135905061232481613886565b92915050565b600082601f83011261233f5761233e613401565b5b813561234f848260208601612203565b91505092915050565b60008083601f84011261236e5761236d613401565b5b8235905067ffffffffffffffff81111561238b5761238a6133fc565b5b6020830191508360018202830111156123a7576123a6613406565b5b9250929050565b600082601f8301126123c3576123c2613401565b5b81356123d3848260208601612291565b91505092915050565b600082601f8301126123f1576123f0613401565b5b81516124018482602086016122d3565b91505092915050565b6000813590506124198161389d565b92915050565b60008151905061242e8161389d565b92915050565b60006020828403121561244a57612449613415565b5b600061245884828501612315565b91505092915050565b6000806040838503121561247857612477613415565b5b600061248685828601612315565b925050602083013567ffffffffffffffff8111156124a7576124a6613410565b5b6124b3858286016123ae565b9150509250929050565b6000806000604084860312156124d6576124d5613415565b5b600084013567ffffffffffffffff8111156124f4576124f3613410565b5b61250086828701612358565b9350935050602084013567ffffffffffffffff81111561252357612522613410565b5b61252f8682870161232a565b9150509250925092565b60006020828403121561254f5761254e613415565b5b600082013567ffffffffffffffff81111561256d5761256c613410565b5b612579848285016123ae565b91505092915050565b60006020828403121561259857612597613415565b5b600082015167ffffffffffffffff8111156125b6576125b5613410565b5b6125c2848285016123dc565b91505092915050565b6000602082840312156125e1576125e0613415565b5b60006125ef8482850161240a565b91505092915050565b60006020828403121561260e5761260d613415565b5b600061261c8482850161241f565b91505092915050565b6000806040838503121561263c5761263b613415565b5b600061264a8582860161240a565b925050602061265b8582860161240a565b9150509250929050565b60006126718383612838565b905092915050565b60006126858383612b7d565b905092915050565b60006126998383612c5d565b60208301905092915050565b6126ae816131d6565b82525050565b6126bd816131d6565b82525050565b60006126ce82613134565b6126d88185613187565b9350836020820285016126ea856130f5565b8060005b8581101561272657848403895281516127078582612665565b945061271283613160565b925060208a019950506001810190506126ee565b50829750879550505050505092915050565b60006127438261313f565b61274d8185613198565b93508360208202850161275f85613105565b8060005b8581101561279b578484038952815161277c8582612679565b94506127878361316d565b925060208a01995050600181019050612763565b50829750879550505050505092915050565b60006127b88261314a565b6127c281856131a3565b93506127cd8361310f565b8060005b838110156127fe5781516127e5888261268d565b97506127f08361317a565b9250506001810190506127d1565b5085935050505092915050565b612814816131e8565b82525050565b612823816131e8565b82525050565b612832816131f4565b82525050565b600061284382613155565b61284d81856131b4565b935061285d818560208601613237565b6128668161341a565b840191505092915050565b600061287c82613155565b61288681856131c5565b9350612896818560208601613237565b61289f8161341a565b840191505092915050565b600081546128b781613294565b6128c181866131c5565b945060018216600081146128dc57600181146128ee57612921565b60ff1983168652602086019350612921565b6128f78561311f565b60005b83811015612919578154818901526001820191506020810190506128fa565b808801955050505b50505092915050565b6000612937601e836131c5565b91506129428261342b565b602082019050919050565b600061295a6030836131c5565b915061296582613454565b604082019050919050565b600061297d6022836131c5565b9150612988826134a3565b604082019050919050565b60006129a06023836131c5565b91506129ab826134f2565b604082019050919050565b60006129c3602b836131c5565b91506129ce82613541565b604082019050919050565b60006129e66022836131c5565b91506129f182613590565b604082019050919050565b6000612a09600f836131c5565b9150612a14826135df565b602082019050919050565b6000612a2c601e836131c5565b9150612a3782613608565b602082019050919050565b6000612a4f6019836131c5565b9150612a5a82613631565b602082019050919050565b6000612a726026836131c5565b9150612a7d8261365a565b604082019050919050565b6000612a95601b836131c5565b9150612aa0826136a9565b602082019050919050565b6000612ab86023836131c5565b9150612ac3826136d2565b604082019050919050565b6000612adb6028836131c5565b9150612ae682613721565b604082019050919050565b6000612afe6026836131c5565b9150612b0982613770565b604082019050919050565b6000612b21602b836131c5565b9150612b2c826137bf565b604082019050919050565b6000612b44600f836131c5565b9150612b4f8261380e565b602082019050919050565b6000612b67602a836131c5565b9150612b7282613837565b604082019050919050565b600060c083016000830151612b956000860182612c5d565b5060208301518482036020860152612bad8282612838565b91505060408301518482036040860152612bc782826127ad565b91505060608301518482036060860152612be182826126c3565b91505060808301518482036080860152612bfb82826127ad565b91505060a0830151612c1060a0860182612829565b508091505092915050565b606082016000820151612c316000850182612c5d565b506020820151612c4460208501826126a5565b506040820151612c57604085018261280b565b50505050565b612c668161321e565b82525050565b612c758161321e565b82525050565b6000602082019050612c9060008301846126b4565b92915050565b6000606082019050612cab60008301866126b4565b612cb860208301856126b4565b612cc56040830184612c6c565b949350505050565b6000604082019050612ce260008301856126b4565b8181036020830152612cf48184612871565b90509392505050565b6000604082019050612d1260008301856126b4565b612d1f6020830184612c6c565b9392505050565b60006020820190508181036000830152612d408184612738565b905092915050565b60006020820190508181036000830152612d628184612871565b905092915050565b60006020820190508181036000830152612d838161292a565b9050919050565b60006020820190508181036000830152612da38161294d565b9050919050565b60006020820190508181036000830152612dc381612970565b9050919050565b60006020820190508181036000830152612de381612993565b9050919050565b60006020820190508181036000830152612e03816129b6565b9050919050565b60006020820190508181036000830152612e23816129d9565b9050919050565b60006020820190508181036000830152612e43816129fc565b9050919050565b60006020820190508181036000830152612e6381612a1f565b9050919050565b60006020820190508181036000830152612e8381612a42565b9050919050565b60006020820190508181036000830152612ea381612a65565b9050919050565b60006020820190508181036000830152612ec381612a88565b9050919050565b60006020820190508181036000830152612ee381612aab565b9050919050565b60006020820190508181036000830152612f0381612ace565b9050919050565b60006020820190508181036000830152612f2381612af1565b9050919050565b60006020820190508181036000830152612f4381612b14565b9050919050565b60006020820190508181036000830152612f6381612b37565b9050919050565b60006020820190508181036000830152612f8381612b5a565b9050919050565b6000606082019050612f9f6000830184612c1b565b92915050565b6000602082019050612fba6000830184612c6c565b92915050565b6000606082019050612fd56000830186612c6c565b612fe260208301856126b4565b8181036040830152612ff48184612871565b9050949350505050565b60006040820190506130136000830185612c6c565b818103602083015261302581846128aa565b90509392505050565b60006080820190506130436000830187612c6c565b6130506020830186612c6c565b61305d60408301856126b4565b61306a606083018461281a565b95945050505050565b600061307d61308e565b905061308982826132c6565b919050565b6000604051905090565b600067ffffffffffffffff8211156130b3576130b26133cd565b5b602082029050602081019050919050565b600067ffffffffffffffff8211156130df576130de6133cd565b5b6130e88261341a565b9050602081019050919050565b6000819050602082019050919050565b6000819050919050565b6000819050602082019050919050565b60008190508160005260206000209050919050565b600081519050919050565b600060019050919050565b600081519050919050565b600081519050919050565b6000602082019050919050565b6000602082019050919050565b6000602082019050919050565b600082825260208201905092915050565b600081905092915050565b600082825260208201905092915050565b600082825260208201905092915050565b600082825260208201905092915050565b60006131e1826131fe565b9050919050565b60008115159050919050565b6000819050919050565b600073ffffffffffffffffffffffffffffffffffffffff82169050919050565b6000819050919050565b82818337600083830152505050565b60005b8381101561325557808201518184015260208101905061323a565b83811115613264576000848401525b50505050565b60006132758261321e565b9150600082141561328957613288613340565b5b600182039050919050565b600060028204905060018216806132ac57607f821691505b602082108114156132c0576132bf61336f565b5b50919050565b6132cf8261341a565b810181811067ffffffffffffffff821117156132ee576132ed6133cd565b5b80604052505050565b60006133028261321e565b91507fffffffffffffffffffffffffffffffffffffffffffffffffffffffffffffffff82141561333557613334613340565b5b600182019050919050565b7f4e487b7100000000000000000000000000000000000000000000000000000000600052601160045260246000fd5b7f4e487b7100000000000000000000000000000000000000000000000000000000600052602260045260246000fd5b7f4e487b7100000000000000000000000000000000000000000000000000000000600052603260045260246000fd5b7f4e487b7100000000000000000000000000000000000000000000000000000000600052604160045260246000fd5b600080fd5b600080fd5b600080fd5b600080fd5b600080fd5b600080fd5b6000601f19601f8301169050919050565b7f412076616c69642061646472657373206d757374206265207061737365640000600082015250565b7f4d75737420686f6c6420616e2061636365737320746f6b656e20746f2070657260008201527f666f726d207468697320616374696f6e00000000000000000000000000000000602082015250565b7f43616e6e6f742072656d6f76652061206e6f6e2d6578697374696e6720746f6b60008201527f656e000000000000000000000000000000000000000000000000000000000000602082015250565b7f4e65772061646d696e206d757374206861766520616e2061636365737320746f60008201527f6b656e0000000000000000000000000000000000000000000000000000000000602082015250565b7f43616e6e6f74206361737420766f7465206f6e20616e20616c7265616479206460008201527f65636964656420706f6c6c000000000000000000000000000000000000000000602082015250565b7f4f6e6c792061646d696e206d617920706572666f726d2074686973206163746960008201527f6f6e000000000000000000000000000000000000000000000000000000000000602082015250565b7f496e76616c696420706f6c6c2069640000000000000000000000000000000000600082015250565b7f43616e6e6f7420766f7465206f6e2073616d6520706f6c6c2074776963650000600082015250565b7f4d757374207061737320612076616c696420706f6c6c20494400000000000000600082015250565b7f41646d696e20616c72656164792065786973747320666f72207468697320636f60008201527f6e74726163740000000000000000000000000000000000000000000000000000602082015250565b7f4d757374207061737320612076616c6964206f7074696f6e2049440000000000600082015250565b7f4f7074696f6e7320706172616d65746572206d757374206e6f7420626520656d60008201527f7074790000000000000000000000000000000000000000000000000000000000602082015250565b7f416e2061646472657373206d6179206f6e6c79206f776e206f6e65204163636560008201527f737320546f6b656e000000000000000000000000000000000000000000000000602082015250565b7f43616e6e6f74207265706c6163652061646d696e20776974682073616d65206160008201527f6464726573730000000000000000000000000000000000000000000000000000602082015250565b7f41646d696e206d6179206e6f742062652072656d6f7665642066726f6d20617060008201527f70726f766564206c697374000000000000000000000000000000000000000000602082015250565b7f496e76616c696420546f6b656e49440000000000000000000000000000000000600082015250565b7f537472696e6720706172616d65746572206d757374206265206f66206120766160008201527f6c6964206c656e67746800000000000000000000000000000000000000000000602082015250565b61388f816131d6565b811461389a57600080fd5b50565b6138a68161321e565b81146138b157600080fd5b5056fea2646970667358221220058501ea948eecb1410ac4cdcd0d38382854df5f4d55c6ab293329c70960f1a264736f6c63430008060033",
  "immutableReferences": {},
  "source": "// SPDX-License-Identifier: UNLICENSED\npragma solidity ^0.8.6;\n\nimport \"./AccessToken.sol\";\n\ncontract VotingContract {\n\n    /* I figure having these events is good practice\n    but i'm not sure if there are more things I should \n    include to make it a complete event or whatever.\n    Still just a young padawan. */\n    event TokenCreated (\n        uint tokenId,\n        address owner,\n        string contractAddr\n    );\n\n    event PollCreated(\n        uint id,\n        string issue\n    );\n\n    event VoteCasted(\n        uint pollId,\n        uint optionId,\n        address voter,\n        bool decided\n    );\n\n    event Debug(\n        string description\n    );\n\n    // Admin can create multiple polls for their organization to vote on\n    /* I wanted to have a mapping of uint => OptionStruct\n    but could NOT get it to work so I'm working with a \n    more rudimentary approached. While not as sophisticated,\n    it works and that's what makes me happy. This is my first\n    real capstone project so I can't try and get too fancy */ \n    /* ^ this was when i was testing with a web3 instance of \n    votingContract. Now that I can test with an articfacts instance,\n    i might attempt this */\n    struct Poll {\n        uint id;\n        // issue on which voters are deciding on\n        string issue;\n        uint[] voters;\n        string[] options;\n        uint[] results;\n        // If -1, no result has been determined.\n        // If other number, index of option won.\n        int result;\n    }\n\n    struct TokenRef {\n        uint tokenId;\n        address owner;\n        bool isAdmin;\n    }\n    \n    string public name;\n    bool adminExists;\n    uint numPolls;\n    uint numTokens;\n    // Why this mapping instead of array?\n    mapping(uint => Poll) polls;\n    mapping(uint => TokenRef) approvedTokens;\n    // stores whether token has voted in a particular poll\n    // mapping(tokenId => mapping(pollId => bool))\n    mapping(uint => mapping(uint => bool)) hasVoted;\n    AccessToken accessToken;\n    \n\n    constructor(string memory _name, address tokenAddr) {\n        name = _name;\n        accessToken = AccessToken(tokenAddr);\n    }\n\n    function getTokenRef(uint tokenId) external view returns(TokenRef memory){\n        TokenRef memory tokenRef = approvedTokens[tokenId];\n        require(tokenRef.owner != address(0), \"Invalid TokenID\");\n        return tokenRef;\n    }\n\n    function getPoll(uint pollId) external view returns(Poll[1] memory) {\n        require(pollId < numPolls, \"Invalid poll id\");\n        /* Using this as a workaround to retrieve a particular poll. \n        The retrieved Poll doesn't return arrays within it when I\n        call polls(). Would like to know \n        if there's a better way to accomplish this */\n        Poll[1] memory pollArr = [polls[pollId]];\n        return pollArr;\n    }\n\n    function getTokenId(address owner) internal view returns(int) {\n        uint balanceOf = accessToken.balanceOf(owner);\n        int tokenId = -1;\n        for(uint i = 0; i < balanceOf; i++){\n            uint currentTokenId = accessToken.tokenOfOwnerByIndex(owner, i);\n            if(approvedTokens[currentTokenId].owner == owner){\n                tokenId = int(accessToken.tokenOfOwnerByIndex(owner, i));\n            }\n        }\n        return tokenId;\n    }\n\n    /* Would like the ability to generateAdmin within constructor but \n    because i need the votingContract's address in string format (for the tokenURI), \n    don't think it'll be possible */\n    function generateAdmin(string memory contractAddr) external {\n        require(!adminExists, \"Admin already exists for this contract\");\n        uint tokenId = accessToken.mintToken(msg.sender, contractAddr);\n        TokenRef memory ar = TokenRef(\n            tokenId,\n            msg.sender,\n            true\n        );\n        approvedTokens[tokenId] = ar;\n        adminExists = true;\n        numTokens++;\n        emit TokenCreated(tokenId, msg.sender, accessToken.tokenURI(tokenId));\n    }\n\n\n    function generateAccessToken(address approved, string memory contractAddr) \n        external \n        onlyAdmin()\n        validAddress(approved) {\n            bool hasToken; \n            uint balanceOf = accessToken.balanceOf(approved);\n            for(uint i = 0; i < balanceOf; i++){\n                uint currentTokenId = accessToken.tokenOfOwnerByIndex(approved, i);\n                if(approvedTokens[currentTokenId].owner == approved){\n                    hasToken = true;\n                }\n            }\n            \n            /* Need to fix this check. Will make it so that address may only\n            have one access token per voting contract*/\n            require(!hasToken, \n                \"An address may only own one Access Token\");\n            uint tokenId = accessToken.mintToken(approved, contractAddr);\n            TokenRef memory ar = TokenRef(\n                tokenId,\n                approved,\n                false\n            );\n            approvedTokens[tokenId] = ar;\n            numTokens++;\n            emit TokenCreated(tokenId, approved, accessToken.tokenURI(tokenId));\n    }\n\n    function removeApprovedVoter(address unapproved) external onlyAdmin() validAddress(unapproved) {                \n        require(unapproved != msg.sender, \"Admin may not be removed from approved list\");\n        \n        // checks if unapproved has an access token\n        int tokenId = getTokenId(unapproved);\n\n        require(tokenId > 0, \"Cannot remove a non-existing token\");\n\n        accessToken.burn(uint(tokenId));\n        numTokens--;\n        delete approvedTokens[uint(tokenId)];\n    }\n\n    /* This updates who is the current admin. there may only be \n    one admin per VotingContract */\n    // Purposely requiring that newAdmin already holds an access token\n    function updateAdmin(address newAdmin) external onlyAdmin() validAddress(newAdmin) {\n        require(newAdmin != msg.sender, \"Cannot replace admin with same address\");\n\n        // Saves newAdmin's current tokenId\n        int tokenId = getTokenId(newAdmin);\n        // checks if newAdmin has an access token\n        bool newAdminIsApproved = tokenId > 0;\n        require(newAdminIsApproved, \n            \"New admin must have an access token\");\n\n        // Saves current admin's tokenId\n        int adminTokenId = getTokenId(msg.sender);\n\n        // newAdmin is added only if they are already an approved voter\n        // redundant check after the above require statement \n        if(newAdminIsApproved){\n            accessToken.transferToken(msg.sender, newAdmin, uint(adminTokenId));\n            accessToken.transferToken(newAdmin, msg.sender, uint(tokenId));\n\n            approvedTokens[uint(adminTokenId)].owner = newAdmin;\n            approvedTokens[uint(tokenId)].owner = msg.sender;\n        }\n    }\n\n    function createPoll(string calldata issue, string[] memory _options) \n        external \n        onlyAdmin()\n        stringLength(issue) {\n            require(_options.length > 0, \n                \"Options parameter must not be empty\");\n            Poll storage p = polls[numPolls];\n            p.id = numPolls;\n            p.issue = issue;\n            p.options = _options;\n            p.result = -1;\n            p.results = new uint[](_options.length);\n            \n            emit PollCreated(p.id, p.issue);\n            numPolls++;\n    }\n\n    function vote(uint pollId, uint optionId) external onlyApproved() {\n        require(pollId < numPolls, \n            \"Must pass a valid poll ID\");\n        Poll storage p = polls[pollId];\n        require(optionId < p.options.length, \n            \"Must pass a valid option ID\");\n        require(p.result == -1, \n            \"Cannot cast vote on an already decided poll\");\n\n        uint tokenId = uint(getTokenId(msg.sender)); \n        require(!hasVoted[tokenId][pollId], \n            \"Cannot vote on same poll twice\");\n\n        p.voters.push(tokenId);\n        p.results[optionId]++;\n        hasVoted[tokenId][pollId] = true;\n        \n        emit VoteCasted(pollId, optionId, msg.sender, decideResult(pollId));\n    }\n\n    /* Should I require that a valid Poll ID is passed? \n    Would be redundant since vote() (the function that calls this)\n    already checks for a valid pollId  */\n    // Need to handle draws.\n    /* On draw, I think i should reset poll, but only with the top options\n    (if 3 options got highest vote, then those three options remain, rest leave) */\n    function decideResult(uint pollId) internal returns(bool) {\n        Poll storage p = polls[pollId];\n        // Not sure if i should use a require, or the IF statement as I currently am\n        // require(!p.decided, \"This poll has already been decided\");\n        if(p.result != -1) {\n            return false;\n        }\n\n        /* Not sure if i want this. What if admin wants to decide a vote before\n        all approved vote? What if admin wants poll to be open\n        only during a particular time period? */\n        // require(p.voters.length == approved.length, \"All approved addresses must vote\");\n        if(p.voters.length != numTokens) {\n            return false;\n        }\n\n        uint mostVotes;\n        uint winnerIndex;\n        for(uint i = 0; i < p.results.length; i++){\n            /* \"should\" always work since this function won't be called\n            until someone casts a vote. will consider adding a check */ \n            if(p.results[i] > mostVotes) {\n                winnerIndex = i;\n            }\n        }\n        p.result = int(winnerIndex);\n\n        return true;\n    }\n\n    modifier onlyApproved() {\n        uint balanceOf = accessToken.balanceOf(msg.sender);\n        require(balanceOf == 1,\n        \"Must hold an access token to perform this action\");\n        _;\n    }\n\n    modifier onlyAdmin() {\n        int tokenId = getTokenId(msg.sender);\n        require(tokenId >= 0, \n            \"Only admin may perform this action\");\n        require(approvedTokens[uint(tokenId)].isAdmin == true,\n            \"Only admin may perform this action\");\n        _;\n    }\n\n    modifier validAddress(address _address) {\n        require(_address != address(0),\"A valid address must be passed\");\n        _;\n    }\n\n    modifier stringLength(string calldata str) {\n        require(bytes(str).length > 0, \n            \"String parameter must be of a valid length\");\n        _;\n    }    \n}",
  "sourcePath": "/home/odon/code/bloc/self-directed/vote_per_organization/contracts/contracts/VotingContract.sol",
  "compiler": {
    "name": "solc",
    "version": "0.8.6+commit.11564f7e.Emscripten.clang"
  },
  "schemaVersion": "3.4.1",
  "updatedAt": "2021-08-13T18:30:18.671Z",
  "networkType": "ethereum",
  "devdoc": {
    "kind": "dev",
    "methods": {},
    "version": 1
  },
  "userdoc": {
    "kind": "user",
    "methods": {},
    "version": 1
  }
}